:100000000C94E6040C9403050C9403050C948D26C3
:100010000C9403050C9403050C9403050C94030540
:100020000C9403050C9403050C9420170C94621691
:100030000C94FF220C9403050C9403050C94030507
:100040000C9403050C9403050C9403050C94030510
:100050000C9403050C94B2220C9403050C94030534
:100060000C9403050C9403050C9403050C940305F0
:100070000C9403050C9403050C9403050C940305E0
:100080000C9403050C9403050C9403050C940305D0
:100090000C9403050C9403050C9403050C940305C0
:1000A0000C9403050C9403050C94030534073A07DC
:1000B00025072B07400746074C07A6071A08AE0777
:1000C00078077C07B2077F07B507C0078A071008C3
:1000D0008E07C4079207C807F2079607CC07FC07EC
:1000E0009C07D207DC078307B9078607BC07A1076F
:1000F000D707E80708080A087407AA07230822098F
:10010000220954095409C609030B030B030BE40924
:10011000720A830A830A310B900B950B9A0B9F0B83
:10012000A40BA90BAE0BB30BB80BBD0BC40B4E0845
:100130004E084E084E084E084E084E084E084E080F
:100140007F14A6144A16A6144A16F21415154A1658
:100150000B161A167267626C69676874206469739B
:1001600061626C65205B454550524F4D5D3A20728F
:1001700067626C696768745F636F6E6669672E6536
:100180006E61626C65203D2025750A007267626CA5
:100190006967687420656E61626C65205B454550D7
:1001A000524F4D5D3A207267626C696768745F6395
:1001B0006F6E6669672E656E61626C65203D2025F5
:1001C000750A007267626C6967687420746F67678C
:1001D0006C65205B454550524F4D5D3A2072676219
:1001E0006C696768745F636F6E6669672E656E61C0
:1001F000626C65203D2025750A0044454255473A0A
:100200002064697361626C65642E0A00444542553E
:10021000473A20656E61626C65642E0A00350014F1
:10022000001A000800150017002B00040016000734
:100230000009000A00E0001D001B0006001900056F
:10024000000000E300E200A252235229002A00131A
:100250000012000C0018001C00280033000F000ED4
:10026000000D000B0034003800370036001000117C
:10027000000000E700E2002C002452737C350034BB
:10028000003600370013001C002B00040012000889
:100290000018000C00E000330014000D000E001BDD
:1002A000000000E300E200A252235229002A000FBE
:1002B00000150006000A00090028001600110017AA
:1002C000000B00070038001D0019001A001000057F
:1002D000000000E700E2002C002452737C3500147B
:1002E000001A000900130005002B00040015001679
:1002F0000017000A00E0001D0001000600070019B9
:10030000000000E300E200A252235229002A003339
:10031000001C0018000F000D00280012000C00083F
:10032000001100100034003800370036000B000EBA
:10033000000000E700E2002C002452737C06011E3E
:10034000001F002000210022001B01E300E200E06A
:1003500000E100190101003A003B003C003D003E75
:1003600000000001000100010001001D0101002743
:100370000026002500240023004E004F00510052AB
:100380000050004B00E40043004200410040003FA9
:1003900000000001000100010025521C0149001E5F
:1003A000021F02200221022202000031002D002E35
:1003B000002F003000010031022D022E022F0230EA
:1003C0000200000100010001002552B4524C002738
:1003D0000226022502240223024D00E700E200E487
:1003E00000E5004A00E4000000AE00A900AA00A851
:1003F0000000000100010001000100650000004054
:10040000524152425214701B7000000000BE00BDE9
:100410000015701C700000E300E200E000E1000045
:1004200000000000000000000001000000037C004C
:10043000004600450044000000000000002578232D
:100440007827782178007C00002678247828782284
:100450007800000000000000000100207854617264
:1004600067657420636F6E6E65637465640D0A0062
:1004700054617267657420646973636F6E6E65633F
:100480007465642C207468726F74746C696E672074
:10049000636F6E6E656374696F6E20617474656DF1
:1004A0007074730D0A004661696C656420746F2076
:1004B000657865637574652025730A000631FF0948
:1004C00074A1010975150026FF00952075088102A9
:1004D0000976150026FF00952075089102C00501D8
:1004E0000980A101850319012AB700150126B7006B
:1004F000950175108100C0050C0901A10185041941
:10050000012AA002150126A002950175108100C0E4
:1005100005010906A101050719E029E715002501D4
:10052000950875018102950175088101050719007B
:1005300029FF150026FF009506750881000508199A
:100540000129051500250195057501910295017593
:10055000039101C05B435D005B445D005B535D0044
:100560005B575D005B525D0009025B00030100A068
:10057000FA09040000010301010009211101000131
:10058000224400070581030800010904010001035A
:100590000000000921110100012232000705820339
:1005A00020000109040200020300000009211101DA
:1005B0000001222200070583032000010705030331
:1005C00020000112010002000000084D4D464801C4
:1005D00000010200011803480069006C006C007300
:1005E000006900640065002000340036000000103F
:1005F000036D006D00630063006F0079006400000C
:1006000000040309047267626C696768745F636F52
:100610006E6669672E7370656564203D2025640AE7
:10062000007267626C696768745F636F6E666967A2
:100630002E76616C203D2025640A007267626C6929
:100640006768745F636F6E6669672E736174203DBF
:100650002025640A007267626C696768745F636F63
:100660006E6669672E687565203D2025640A0072F4
:1006700067686C696768745F636F6E6669672E6D23
:100680006F6465203D2025640A007267626C6967AB
:1006900068745F636F6E6669672E656E61626C6514
:1006A000203D2025640A007267626C696768745F88
:1006B000636F6E66696720454550524F4D3A0A0098
:1006C0007267626C696768745F696E6974207267CB
:1006D000626C696768745F636F6E6669672E6D6FC1
:1006E0006465203D20302E20577269746520646552
:1006F0006661756C742076616C75657320746F200B
:10070000454550524F4D2E0A007267626C6967680A
:10071000745F696E6974206565636F6E66696720D2
:100720006973206E6F7420656E61626C65642E0A59
:10073000007267626C696768745F696E69742073C0
:1007400074617274210A007267626C696768745F11
:10075000696E69742063616C6C65642E0A0072674F
:10076000626C6967687420656E61626C65205B4EBF
:100770004F454550524F4D5D3A207267626C696734
:1007800068745F636F6E6669672E656E61626C6523
:10079000203D2025750A0073757370656E64696E5F
:1007A00067206B6579626F6172640D0A000A00252B
:1007B000303862003A200025303258000A722F6328
:1007C0002030313233343536370A000A00253032D2
:1007D00058006C65645F7461736B3A2000726762E5
:1007E0006C69676874206D6F6465205B4E4F45458A
:1007F00050524F4D5D3A2025750A007267626C6950
:10080000676874206D6F6465205B454550524F4D9D
:100810005D3A2025750A004F6E6573686F743A2043
:100820006163746976653A2025640A000A00253000
:10083000325820006B6579626F6172645F72657017
:100840006F72743A20007267626C69676874206422
:10085000697361626C65205B4E4F454550524F4D48
:100860005D3A207267626C696768745F636F6E6679
:1008700069672E656E61626C65203D2025750A00F2
:100880000001010101010101010102020202020253
:100890000202020303030303030303040404040426
:1008A00004040505050505060606060607070707ED
:1008B0000708080808090909090A0A0A0B0B0B0CA2
:1008C0000C0C0D0D0D0E0E0E0F0F0F10101111113F
:1008D00012121313141415151616171718181919C0
:1008E0001A1A1B1B1C1D1D1E1E1F20202122222325
:1008F0002424252626272829292A2B2C2D2D2E2F66
:1009000030313232333435363738393A3B3C3D3E7C
:100910003F404142434445464748494A4C4D4E4F6B
:1009200050515354555658595A5B5D5E5F6162642D
:10093000656668696B6C6D6F7072737577787A7BBA
:100940007D7E8082838587888A8C8E8F9193959611
:10095000989A9C9EA0A2A3A5A7A9ABADAFB1B3B531
:10096000B7BABCBEC0C2C4C6C9CBCDCFD1D4D6D80D
:10097000DBDDDFE2E4E7E9EBEEF0F3F5F8FAFDFFAB
:100980007267626C69676874207365742068737637
:10099000205B4E4F454550524F4D5D3A2025752CFA
:1009A00025752C25750A007267626C69676874206A
:1009B00073657420687376205B454550524F4D5DDA
:1009C0003A2025752C25752C25750A0011241FBE8B
:1009D000CFEFDAE0DEBFCDBF11E0A0E0B1E0ECE8A0
:1009E000F1E502C005900D92A43DB107D9F722E0D0
:1009F000A4EDB1E001C01D92AF3EB207E1F70E9445
:100A000021190C94C4280C940000FF93EF93E091FB
:100A1000D401F091D501309709F00995EF91FF913C
:100A20000895FC018591803011F0EFDFFBCF089530
:100A3000FF27E0E230E247FF0CC0419597FF09C075
:100A4000EDE26095709580959095611D711D811DF9
:100A5000911D27FF02C0219530E350E2AA27660FBF
:100A6000771F881F991FAA1FA41710F0A41B639556
:100A70005A95A9F7AA3008F0A95FA05DAF93F39546
:100A8000611571058105910541F7ED3211F4EF9380
:100A9000F395F21718F43F93F395FBCF8F91B5DFE1
:100AA000FA95E1F70895E991F9918591803021F067
:100AB000853219F0AADFF9CF089520E0E894559126
:100AC0005532C1F3503311F4689455915A3348F4B8
:100AD000505390F3220F022E220F220F200D250FCC
:100AE000F4CF0EF4219589919991533619F3533728
:100AF00029F1533559F1BC0188279927E8945C36D0
:100B000021F48991999168945591543639F446EFBE
:100B10007EF077FF0DC08FEF9FEF0AC055374AE098
:100B200039F0583540E121F0523642E009F008959D
:100B3000FF93EF937DDFEF91FF91B7CFFF93EF939B
:100B4000FC0181918030B9F360DFFBCFFF93EF931D
:100B500068DFF1CFDF93CF93CDB7DEB72596A3DF64
:100B6000CF91DF910895A6E0B0E0E9EBF5E00C94B9
:100B7000BD2749835A8349815A81992361F02223F1
:100B800051F0CA010E943E1F182F682F89819A8157
:100B90000E945C2104C0CA010E942921182F69818A
:100BA0007A81812F0E9434112696E3E00C94D92794
:100BB0000E94FE212FEF84E39CE021508040904072
:100BC000E1F700C000009AE088E10FB6F894A8951C
:100BD000809360000FBE90936000FFCF882381F167
:100BE0009CEF980F913A60F4E8E5F2E09281891366
:100BF00001C01282319692E0EE35F907B9F70DC0C7
:100C000090E2980F983060F4877091E001C0990FDE
:100C10008A95EAF7892F0E945F1E0E94661E08953A
:100C20009BE5980F933028F480E090E00E946723C2
:100C30000895885A8B3120F480E090E00E9442238E
:100C40000895CF93882309F44FC0C82F8CEF8C0FE1
:100C5000813AF0F4EAE5F2E080E692E02191C217F1
:100C600021F08E179F07D1F70DC0E8E5F2E08281F1
:100C7000C81301C01282319682E0EE35F807B9F749
:100C80000E94661E6C2F88E592E00E94282310C007
:100C900080E28C0F883078F4C77081E090E001C06A
:100CA000880FCA95EAF79091C402892B8093C402F9
:100CB0000E94661E19C0EBE5EC0FE33040F4F0E053
:100CC000EB59FE4F808190E00E9467230DC0C85A07
:100CD000CB3150F4EC2FF0E0EE0FFF1FE859FE4F40
:100CE000808191810E944223CF910895ABE1B0E0D1
:100CF000ECE7F6E00C94BC274E8B5F8B688F798F06
:100D00008A8F9B8F192F91111092C302DE011F96BB
:100D100087E0FD0111928A95E9F786E0FE0176965B
:100D200001900D928A95E1F70A8D002341F021E0B0
:100D30004F85588969897A89C8010E94B3050B8B50
:100D40001C8B87E0FE013F96DE01189601900D9204
:100D50008A95E1F7CE0108960E94A21F81112CC04E
:100D600087E0FE013896DE01119601900D928A957A
:100D7000E1F76C85662301F120917F0230E0C90123
:100D80000196877099274091B80250E08417950723
:100D900061F16D8397E0929FD001939FB00D112474
:100DA000A058BD4FFE01319601900D929A95E1F742
:100DB00080937F020E94DB1E17E08091B802909121
:100DC0007F028917F9F0189FC001112480589D4FA8
:100DD0000E94A21F8823B1F08091B80290E0019692
:100DE000877099278093B802E8CF0E94FE21109265
:100DF0007F021092B802E8E7F2E087E0DF011D927F
:100E00008A95E9F76B96E4E00C94D827A0E0B0E06F
:100E1000ECE0F7E00C94B727FC018481882309F407
:100E2000CCC47F0121E04081518162817381958131
:100E30000E94B305EC01FC01E851FC47E730F105E5
:100E400088F5EA5AFF4F0C94712806E221EE41EE34
:100E50006AE17CE705C007E225EE45EE6BE17CE741
:100E6000C7010E949D231AC106E221EE40EE68E10F
:100E70007CE7F6CF07E225EE44EE69E17CE7F0CFB0
:100E800006E221EE42EE6CE17CE7EACF07E225EED6
:100E900046EE6DE17CE7E4CF08E221E045EE6EE14D
:100EA0007CE7DECFF7018581882309F46AC11092BF
:100EB000E302CE019057839708F0DBC084E090E016
:100EC0000E94F32790933B0280933A02FE01E15087
:100ED000F047E232F10520F4E35AFF4F0C947128F9
:100EE00080913A028160ACC080913B028860B4C0BE
:100EF00080913A028260A4C080913A0220C0809121
:100F00003A0288609DC080913B021EC080913B02E6
:100F10008260A2C080913A02806192C080913A02C0
:100F200080628EC080913A0280648AC00E94FE2155
:100F300080913A02806884C080913A02886084601F
:100F40007FC080913B028260816086C080913A02BE
:100F50008E7F76C080913B02877F7EC080913A026F
:100F60008D7F6EC080913A0220C080913A02877FC7
:100F700067C080913B021EC080913B028D7F6CC098
:100F800080913A028F7E5CC080913A028F7D58C07A
:100F900080913A028F7B54C00E94FE2180913A02D8
:100FA0008F774EC080913A02877F8B7F49C08091B6
:100FB0003B028D7F8E7F50C080913A0282FB2227B8
:100FC00020F991E0922790FB82F990FB83F938C0D9
:100FD00080913B02982F909591708E7F892B90FB8A
:100FE00081F93AC080913A0286FB222720F991E0EC
:100FF000922790FB86F924C00E94FE2180913A023C
:1010000087FB222720F991E0922790FB87F918C0EF
:1010100061E001C060E08EE090E00E9409281EC0FF
:1010200080913A0284FB222720F991E0922790FBDD
:1010300084F906C080913A02982F909590FB80F930
:1010400080933A020BC080913B0283FB222720F958
:1010500091E0922790FB83F980933B0260913A02E2
:1010600070913B0284E090E00E9427280E94FE21BC
:1010700015C0C631FCE7DF0719F58091C4028A7AF2
:1010800091E009F490E09093D6018111E4C269E205
:1010900088E592E00E9428230E94661E8091B90292
:1010A000877009F48AC3F7018581882309F485C311
:1010B00080913B0282FF81C382E00E94A7217DC311
:1010C000C330FCE7DF0709F448C030F5C1308CE7D6
:1010D000D80709F448C070F5C115DC4709F060C0B5
:1010E0000E94FE219FEFE4E3FCE09150E040F040DD
:1010F000E1F700C0000087E797E79093010880932D
:1011000000089AE088E10FB6F894A89580936000F3
:101110000FBE909360000DC0CB35FCE7DF0769F18F
:10112000CC352CE7D20709F1CA35DC47C9F581E097
:1011300025C0FFCF8091C902982F9095917090FBA8
:1011400080F98093C902992319F08CE092E002C0E3
:101150008AEF91E00E941105A1CF6FEF7FEF80E051
:1011600090E00E9427280E94D80580913B0282FBD4
:10117000882780F991E0892701C080E00E94BE2184
:101180000FC0C6312CE7D20709F403C38091C40213
:101190008272FE01E052F847E531F10508F45DC2C4
:1011A000F7018581C081D181882349F0CE010E9459
:1011B0003E1F182F682FCE010E945C2104C0CE0173
:1011C0000E942921182FBE01812F0E9434110E94F4
:1011D0005111D82FC92FC82EF7011581068102950C
:1011E0000F708091B9028770E9F01123D9F0892F2F
:1011F000807F803451F080E28D0F883098F00111AB
:1012000004C0892F807E803269F080913B0282FF8A
:1012100009C082E00E94A7218091B9028770DD2475
:10122000D3948111D12CBC2EB2948FE0B8228B2D97
:1012300090E08C30910508F0E6C1FC01E158FF4FC9
:101240000C9471288C2F807FCF70882311F0C29569
:10125000C07F1123B9F0CC2309F4C3C180E28D0F04
:10126000883010F0C11006C09091C402C92BC09301
:10127000C40205C09091C302C92BC093C3020E944F
:10128000661EAFC18D2F0E94EE05CC2309F4BBC1B1
:10129000D05ED83088F1CC2079F1C0959091C3020E
:1012A000C923C093C3022BC08C2F807FCF708032A4
:1012B00011F0C295C07F8D2FCC2029F0F1E0CF1620
:1012C00009F44CC055C080913B0282FD1BC0112324
:1012D00069F0CC2339F09091C402C92BC093C402A9
:1012E0000E94661E80E00E9421068DC180E00E945F
:1012F000EE05CC2309F487C18C2F0E945F1E0E944B
:10130000661E81C1112381F00023B1F1013009F083
:101310007AC19091C2028C2F8923C81709F473C136
:10132000C92BC093C2026FC101116DC18C2F0E94E5
:1013300014228091C2029C2F982329F09C2F909513
:1013400089238093C2028091D7019C2F982309F4AE
:101350005AC1C0958C238093D70155C1112321F028
:10136000063008F050C108C0053008F04CC10AC072
:10137000112331F0011135C18C2F0E941B2243C172
:10138000011133C18C2F0E9414223DC18C2F8695F0
:101390008695837019F0813061F035C1112321F0F9
:1013A0008D2F9C2F937002C080E090E00E946723F5
:1013B00030C1112321F08D2F9C2F937002C080E04B
:1013C00090E00E94422325C18C2F837009F041C018
:1013D00011111DC12D2F229526952770220F220F46
:1013E0008D2F8F7090E0022E02C0880F991F0A94F3
:1013F000E2F7D4FF0BC04FE050E002C0440F551F8E
:101400002A95E2F79A012095309502C020E030E05D
:10141000C695C695C370C23099F068F44091C50274
:101420005091C602C13029F0822B932B842395233F
:1014300004C0842B952B822B932B0E94F921E7C0AB
:10144000822B932B2091C5023091C60282279327CD
:10145000F4CF112319F08C2F817001C08695882359
:1014600009F4D5C02D2F229526952770220F220F23
:101470008D2F8F7090E0022E02C0880F991F0A9462
:10148000E2F7D4FF0BC04FE050E002C0440F551FFD
:101490002A95E2F79A012095309502C020E030E0CD
:1014A000C695C695C370C23079F0B8F44091380241
:1014B00050913902C13029F0822B932B842395233C
:1014C0000EC0842B952B09C0822B932B20913802C0
:1014D000309139028227932702C0822B932B0E94DE
:1014E000902195C0CF70112339F08C2F0E94E921F3
:1014F0008D2F0E941B228BC08D2F0E9414228C2FB7
:101500000E94952184C08D2FE2EFCE1689F1EC1553
:1015100038F0F0EFCF1659F021EFC21621F15DC07F
:1015200093EFC91661F1E4EFCE16C9F056C011234E
:1015300091F0053008F067C0CF7181E090E002C003
:10154000880F991FCA95E2F720913802309139022D
:101550008227932721C0063008F055C0EDCF809137
:101560003B0282FD1CC0112329F08C2F8F7129C0F2
:101570001123D9F38C2F8F710E94952144C0112320
:1015800049F0CF7181E090E002C0880F991FCA95A1
:10159000E2F702C080E090E00E94902134C0112365
:1015A00099F0CF718C2F0E94E92180913B0282FF3C
:1015B00007C0F8E0CF9FC001112483608093B90277
:1015C0008C2F0E94E9211FC081E00E94A7210230D8
:1015D000D0F082E00E94A72116C0112321F0002341
:1015E00021F28D2F80CE002329F2893349F42FEF89
:1015F00087EE93E0215080409040E1F700C000006A
:101600008D2F0E94EE0588EF8B0D843010F40E9420
:101610008C23DD20A9F08091B90280FD11C0F70173
:1016200015828695869586950E94E921C7010E94BC
:1016300006078091B9028695869586950E94952128
:1016400020E0F7014081518162817381848195811D
:101650000E94B305B2C065E31BCDE557FF4F0C9464
:1016600071288091C90280FF10C08091D9028095B5
:1016700081701F928F9383EC91E09F938F930E94D0
:10168000AA050F900F900F900F902091D90220FF84
:101690002EC02E7F2093D9023091DA024091DB02D6
:1016A0005091DC026091DD027091DE028091DF02D8
:1016B0009091E0020E9489188091C90280FF0FC0BA
:1016C0008091D90281701F928F9384E591E09F935E
:1016D0008F930E94AA050F900F900F900F9080910A
:1016E000CC0281608093CC020E944C24D7CC216034
:1016F0002093D9028091C90280FF0DC01F9281E022
:101700008F938CE891E09F938F930E94AA050F908E
:101710000F900F900F908091D90261E0869536C0AE
:1017200045EF58E16FEF78E12CC04FEF58E165EFDE
:1017300078E127C041EC55E26BEC75E222C04BEC3E
:1017400055E261EC75E21DC047EA55E264EB75E2D3
:1017500018C044EB55E267EA75E213C04DE855E264
:101760006AE975E20EC04AE955E26DE875E209C022
:1017700040E452E26AE572E204C04AE552E260E403
:1017800072E20E9445248ACC61E081E00E94AF1899
:1017900085CC8091D60181110EC089E2E8E5F2E0A6
:1017A0002EE532E09281891301C0128231962E1704
:1017B0003F07C1F771CC85E3F1CFCDB7DEB7E9E0E4
:1017C0000C94D3278295982F937344E0949F9001B3
:1017D00011248C7C86958695282B822F8575880F01
:1017E0002A7A2695822B089590913A0292FF10C092
:1017F00041E0282F2471243009F040E031E0282F07
:101800002871283009F030E0431711F02CE08227CE
:1018100093FF10C041E0282F2471243109F040E0EB
:1018200031E0282F2871283109F030E0431711F0FA
:101830002CE0822730913B0230FF10C051E0282F6E
:101840002171213009F050E041E0282F2871283023
:1018500009F040E0541711F029E0822731FF10C051
:1018600041E0282F2171213109F040E031E0282F9B
:101870002871283109F030E0431711F029E0822760
:1018800094FD877E08958238910569F1B0F4813323
:10189000910509F475C048F48932910509F467C0CF
:1018A0008A32910509F471C008958533910509F4D0
:1018B00059C089339105B9F00895833E910589F1A6
:1018C00038F4803E9105D1F0823E910529F10895CA
:1018D000863E9105C9F1873E9105D9F1843E910577
:1018E00009F06CC027C020913A0220FD57C021FDAD
:1018F00055C020913B0223FD5BC0089580913A02C0
:1019000080FD48C080913B0280FF48C080913A0230
:1019100084FD46C083EE51C080913A0282FF3CC0F4
:10192000F5CF80913A0282FD37C080913B0280FD65
:1019300035C0ECCF80913B0281FF36C080913A02E6
:1019400084FD2EC087EE39C080913A0283FF2AC001
:10195000F5CF80913A0283FD25C080913B0281FD45
:1019600023C0ECCF80913A0285FD22C01FC0809138
:101970003A0285FD1BC080913B0283FF19C00AC05B
:1019800080913A0286FD16C017C080913A0286FD0A
:1019900013C010C089E311C082EE0FC080EE0DC0ED
:1019A00080E00BC086EE09C084EE07C085E305C069
:1019B00089E203C08AE201C081E390E00895ABE0D0
:1019C000B0E0E5EEFCE00C94BE2788E0E9EDF2E043
:1019D000DE01119601900D928A95E1F78091CA027D
:1019E0009091CB02A091CC0289879A87AB872B85F7
:1019F00040910A0250910B0260910C0270910D020D
:101A00003FB7F8948091EB029091EC02A091ED0227
:101A1000B091EE023FBF841B950BA60BB70B84362B
:101A20009105A105B10510F4222319F18091290136
:101A300090912A018C509E4F4091280150E04C30EB
:101A4000510510F04BE050E0BE016F5F7F4F0E94E8
:101A5000BB2885E090E00E943327882369F00E942C
:101A6000E72260930A0270930B0280930C0290931A
:101A70000D021092CC0281E02B96E2E00C94DA2762
:101A8000A1E0B0E0E6E4FDE00C94B227C62E4A01E6
:101A90005901682E880F7708C3010E9433278823D5
:101AA00009F473C0C30123E0880F991F2A95E1F759
:101AB000FC01E050FF4F438150E04115510511F00A
:101AC00041E050E0FC01E050FF4F648175816C50B3
:101AD0007E4FCE0101960E94BB28F40140815181C6
:101AE000628173812FB7F8948091EB029091EC02A0
:101AF000A091ED02B091EE022FBF841B950BA60BB7
:101B0000B70B84369105A105B10538F4B701C801BA
:101B10000E942E2499818917D1F10C2C000CDD082C
:101B2000C6010E943327782E8823E1F0E114F104E6
:101B3000C9F0960183E0220F331F8A95E1F7F9017E
:101B4000E050FF4F438150E0E416F50608F4A7018A
:101B5000F901E050FF4F648175816C507E4FC501E3
:101B60000E94BB28B701C8010E942E2491E0298160
:101B7000281390E0D92ED72089F00E94E722F401A3
:101B8000608371838283938309C0D12C02C0DD24DA
:101B9000D394A701B801C5010E94BB288D2D2196C1
:101BA000EEE00C94CE27A1E0B0E0E9EDFDE00C946E
:101BB000B727EE24E394F12C0AEF11E09E012F5F8A
:101BC0003F4F4CEE51E063E082E00E94400DB82EA2
:101BD000882309F43DC000E080E090912C020917B1
:101BE000A0F5D0902D02D00E2D2D30E0A901415B43
:101BF0005D4F7A01E1E0F0E0EC0FFD1FE00FF11D19
:101C00001081FA019081191BC12E1C145CF4CA9436
:101C1000F70180818F5F808360E08D2D0E942124F9
:101C200081E0F3CF912F17FD90E0191B112359F09C
:101C30001F5FF70180818150808361E08D2D0E94BC
:101C4000212481E0F3CF0F5FC8CF81110E94EE1DE8
:101C50008B2D2196E9E00C94D327A4E0B0E0E3E3D8
:101C6000FEE00C94B8276B0184E0E82EF12C05EF20
:101C700011E09E012F5F3F4F48EE51E061E080E0B0
:101C80000E94400D882361F049815A816B817C81DB
:101C90004093E4015093E5016093E6017093E701FE
:101CA0004091E4015091E5016091E6017091E701F6
:101CB000F60140835183628373832496E8E00C9499
:101CC000D427A0E0B0E0E7E6FEE00C94B4277C0166
:101CD0005B01942E852E69018091E3018A3018F012
:101CE00001E010E002C00AE010E0C1E0D0E0B50180
:101CF000C701F6010995811129C021960C171D070E
:101D00008CF0CC9F9001CD9F300D300D112480E0E0
:101D100090E045E34A95F1F700000196281739074E
:101D2000C1F7E5CF9091C902892F817090FF0FC054
:101D30008F929F9286EA94E09F938F930E94AA05C8
:101D40000F900F900F900F9080E001C081E0CDB711
:101D5000DEB7ECE00C94D0278091E201811118C02D
:101D60008091D80080618093D8008AE18A95F1F74C
:101D700000C08091D90080FD02C082E001C081E0F6
:101D80008093E201823021F40E94A61610921E0276
:101D900081E09091E201913009F080E00895F8949B
:101DA000E82FE295EF70F0E031A1282F2F7081E04D
:101DB00090E001C0880F2A95EAF7982F9095932319
:101DC00091A392A1892B82A378940895ACE0B0E00E
:101DD000ECEEFEE00C94B127AE014F5F5F4F7A014D
:101DE00088E0DA011D928A95E9F70FEA11E06A01AD
:101DF00083EB682E81E0782EAA24A394B12C29EBE2
:101E0000822E21E0922EF80180818F3F09F440C09C
:101E1000F894E82FE295EF70F0E021A18F70A50112
:101E200002C0440F551F8A95E2F7CA01922F982BE2
:101E300091A392A18095892382A3789400C0E3EBBB
:101E4000F1E0512C31E021912F3F89F0A22FA29592
:101E5000AF70B0E090968C9190E02F7002C0959595
:101E600087952A95E2F780FD02C0832F01C080E0AC
:101E7000582A330F8E169F0631F7D8018C918F3F69
:101E800011F00E94CF0EB0EABA95F1F7F601508238
:101E90000F5F1F4FFFEFCF1ADF0A6016710609F0C0
:101EA000B2CF48E050E0B7018EE292E00E94AE2847
:101EB000009741F028E0F701AEE2B2E001900D9208
:101EC0002A95E1F700913702892B49F081E0809350
:101ED000DA010E94F3229093D9018093D801809176
:101EE000DA01811102C0F12C22C08091D8019091B9
:101EF000D9010E94D8220597B0F310E0015C1D4F74
:101F000044E050E06EE272E0C8010E94AE28892BE6
:101F100059F084E0EEE2F2E0D80101900D928A954A
:101F2000E1F7FF24F39401C0F12C1092DA010E9432
:101F3000AC0EE0913702882309F44CC019861A864A
:101F40001B861C860E2F10E0015C1D4FE090E30104
:101F500029E02E1570F02DE23EE04CE351E0BE0189
:101F6000675F7F4FC8010E94610E882309F4D7C0C4
:101F70000AC08091DB019091DC010E94D822843F4D
:101F8000914048F7E5C023ED3DE049E451E0BE0152
:101F9000675F7F4FC8010E94610E882309F4BFC0AC
:101FA0002FED30E141E551E0BE01675F7F4FC80191
:101FB0000E94610E882309F4B2C02FED3CE04CE58D
:101FC00051E0BE01675F7F4FC8010E94610E811121
:101FD00087C0A5C0F0E0E15CFD4F84E0A5EFB1E073
:101FE00001900D928A95E1F764E070E085EF91E051
:101FF0000E942E248093F4014091540250E060919D
:10200000530270E0615B7D4FCE0109960E94BB28B0
:1020100089858093FA0161E070E0CE0109960E9403
:102020002E248093F9018090FB019090FC01A090F8
:10203000FD01B090FE018091DD019091DE01A09143
:10204000DF01B091E00188169906AA06BB06D1F01F
:102050008092DD019092DE01A092DF01B092E0015A
:102060000E94AC0E81110EC00E94E722861A970AC8
:10207000A80AB90A8092280290922902A0922A0204
:10208000B0922B028091FF01982F9170869500915C
:102090000002E0900102D090020210910902109219
:1020A00009021123B9F010FF0DC0992349F0909156
:1020B000D90291609093D90260E00E94AF1802C0EB
:1020C0000E94D52511FF06C020E04D2D6E2D802FDA
:1020D0000E94822480E08F292C96EFE00C94CD277B
:1020E000B9E0BE1540F48091C90280FF04C08DE5BF
:1020F00094E00E9411051092E3018091360290E075
:1021000044E050E0BE01675F7F4F815C9D4F0E94BD
:10211000AE2821E02093E101892B41F5DBCF8091AE
:10212000E3018F3F19F08F5F8093E3018091E3011A
:102130008A3018F30E94F3229093DC018093DB0134
:102140008091C90280FF04C080E794E00E941105DD
:102150008091E101882309F4BDCFFE01399684E026
:10216000DF011D928A95E9F71092E101E0913602B4
:10217000F0E0E15CFD4F89859A85AB85BC85808365
:102180009183A283B38381E0A6CF0F931F930E9414
:10219000AC0E882319F00E94E7220EC00E94E722AD
:1021A000009128021091290220912A0230912B02DD
:1021B000600F711F821F931F1F910F910895A4E05C
:1021C000B0E0E5EEF0E10C94BE274091F0015091B3
:1021D000F1016091F2017091F3012FB7F8948091B1
:1021E000EB029091EC02A091ED02B091EE022FBFB4
:1021F000841B950BA60BB70B84369105A105B10581
:1022000070F10E94C510DC01CB010296A11DB11D29
:1022100089839A83AB83BC838091210190912201B1
:102220008C509E4F4091200150E04530510510F0F8
:1022300044E050E0BE016F5F7F4F0E94BB2884E006
:1022400090E00E943327882359F00E94E722609390
:10225000F0017093F1018093F2019093F30181E01A
:102260002496E2E00C94DA277830B0F46630A0F4DB
:102270008630A0F490E3899FF001112486E0789FD6
:10228000E00DF11D1124E60FF11DEE0FFF1FE35EBF
:10229000FD4F85919491089580E001C081E090E028
:1022A00008951F93CF93DF930E94430CEC01C11557
:1022B00080E5D807E8F5C11590E4D90708F0A8C073
:1022C000C03ED10530F5CD3CD10508F094C0C83AE8
:1022D000D10578F4C53AD10508F083C0C130D105E5
:1022E00009F47CC008F4F2C0C430D10508F0F1C094
:1022F000EDC0C33CD10508F0E9C0C85AD0E0CC0F0E
:10230000DD1FC859DE4F0990D881C02DCE019464DD
:10231000E1C0C11580E2D80708F0CBC0C11591E03B
:10232000D90708F06BC0C83ED10508F4D2C0CEC0B2
:10233000C03682E5D80728F5C03492E5D90708F001
:1023400079C0C03282E5D80708F06CC0C11592E5AB
:10235000D90708F481C04C2F4695469580E2489FE6
:10236000A0011124C37021E030E0C90102C0880F30
:10237000991FCA95E2F7EA01C82BD92BCE019D68B7
:10238000A9C0C03A82E5D807B8F48C2F8F71C03845
:1023900092E5D90708F07BC08695869590E2899FE3
:1023A00090011124C37081E090E002C0880F991F52
:1023B000CA95E2F79A6868C0C03C82E5D80708F47D
:1023C0006DC0C03E92E5D90708F080C0CF71DD270F
:1023D000DC2FCC27CE01806F906A7CC081E090E03A
:1023E00079C0C55AD0E0CB59DE4F8881C82FD0E0E4
:1023F000CE0190646FC0CE0190656CC08D2F0E949D
:10240000F40B182FCE0199270E94430C1F715CC05A
:10241000CE0199270E94430CCC27DF70D06A8C2B09
:102420009D2B58C0CF71D0E0DC2FCC27CE01816F1F
:10243000906A50C08C2F8F718695869590E2899F07
:1024400090011124C37081E090E002C0880F991FB1
:10245000CA95E2F79C6818C08C2F8F710E94F40B0C
:1024600095E0D695C7959A95E1F7CF70D0E0DC2F2F
:10247000CC27282F30E084FF05C084E0220F331FD3
:102480008A95E1F7D069CE01822B932B23C090E08F
:10249000D82FCC27CE01846F906A1CC08C2F8F71EF
:1024A0000E94F40B8F7190E0D82FCC27CE01906260
:1024B00011C08D2F8F710E94F40B182FCE01992718
:1024C0000E94430C1F719062912B04C080E090E049
:1024D00001C0CE01DF91CF911F910895809120021C
:1024E00087FF11C08091E80082FD05C080911E0227
:1024F0008111F8CF11C08091E8008B770BC08091DB
:102500001E02882349F08091E80080FFF8CF809177
:10251000E8008E778093E8000895982F973068F54B
:102520009093E900981739F07091EC002091ED003C
:102530005091F00003C0242F762F50E021FD02C0FF
:102540009F5FECCF3091EB003E7F3093EB003091FA
:10255000ED003D7F3093ED003091EB003160309322
:10256000EB007093EC002093ED005093F00020916D
:10257000EE0027FDE5CF80E008958F708093E9009D
:1025800081E008952091260230912702261737070F
:1025900048F06115710539F42091E8002E772093F9
:1025A000E80001C0B901FC0120E06115710579F175
:1025B00080911E028823F1F18530F1F18091E800CD
:1025C00083FD3CC08091E80082FD2EC08091E80030
:1025D00080FFEBCF2091F3008091F20090E0922BEE
:1025E0006115710551F08830910538F421912093DF
:1025F000F100615071090196F3CF21E0089709F0CD
:1026000020E08091E8008E778093E800CECF211102
:10261000CFCF0AC080911E02882361F0853061F01F
:102620008091E80083FD0AC08091E80082FFF2CF2C
:1026300080E0089582E0089583E0089581E00895A0
:1026400008959FB7F89410920F029FBF90911E02B9
:10265000943009F057C09091E9009F703091EC00E0
:10266000232F217030FD20E8922B23E02093E900F6
:102670002091EB0020FF43C02091EE0027FF3FC0D8
:1026800020910E02222321F02091E80025FF37C07F
:1026900010920E0226E03091E80035FD15C0309111
:1026A0001E02343061F53091EB0035FD28C0215019
:1026B00021F481E080930E0222C0EFE9FFE0319720
:1026C000F1F700C00000E7CF8093F1008091E800AF
:1026D00085FD0AC08091E80080FFFCCF8091E80072
:1026E0008E778093E80006C08FB7F89421E020939E
:1026F0000F028FBF9F709093E90080E008959F7054
:102700009093E9008FEF089543E050E0BC0182E030
:102710000E9474220895CF93DF93EC0148E050E0CB
:10272000BC0181E00E94742288E0FE01A4E1B2E0D5
:1027300001900D928A95E1F7DF91CF910895AAE279
:10274000B0E0E5EAF3E10C94BD27E0E2F2E080912D
:10275000F100819342E0E832F407C9F78091210249
:10276000833009F461C030F4813071F0823009F4B3
:102770009BC0B2C08A3009F487C08B3009F46CC0AA
:10278000893009F0A9C020C080912002813A09F067
:10279000A3C08091E800877F8093E80080912402A5
:1027A00090912502892B21F468E084E192E003C036
:1027B00060E080E090E070E00E94C2128091E8004A
:1027C0008B778093E80088C080912002813209F0E5
:1027D00083C08091240290912502029708F07CC06A
:1027E0008091E800877F8093E8008091E80082FD77
:1027F00005C080911E028111F8CF6EC02091F300B8
:102800008091F20090E0922B029731F48091F100D8
:10281000813011F0863021F48091F1008093130211
:102820008091E8008B7754C080912002813A09F0B2
:1028300053C08091240290912502892B09F04CC04D
:102840008091E800877F8093E8008091E80080FF16
:10285000FCCF8091300137C0809120028132E1F5B8
:102860008091240290912502892BB1F58091E80096
:10287000877F8093E8000E946E12809122028093ED
:1028800030010E94FE2128C080912002813221F572
:102890008091E800877F8093E8000E946E1280910B
:1028A00023028093120218C080912002813AA1F481
:1028B0008091E800877F8093E8008091E80080FFA6
:1028C000FCCF809112028093F1008091E8008E7716
:1028D0008093E8000E946E128091E80083FFDAC1C5
:1028E0008091200290912102492F50E04A305105F9
:1028F00008F0D0C1FA01E056FF4F0C9471288038DF
:1029000021F0823809F0C6C108C080911C02909164
:102910001D02992389F082600FC0809124028F707C
:10292000873008F0B7C18093E9008091EB0085FB08
:10293000882780F91092E9009091E800977F9093A2
:10294000E8008093F1001092F10070C1282F2D7FD4
:1029500009F0A0C1882319F0823061F09BC18091F9
:102960002202813009F096C1933009F080E0809313
:102970001D022EC08091220281112AC08091240262
:102980008F702FEF280F263008F084C18093E90064
:102990002091EB0020FF1CC0933021F48091EB00CC
:1029A000806214C09091EB0090619093EB0021E065
:1029B00030E0A90102C0440F551F8A95E2F7409309
:1029C000EA001092EA008091EB0088608093EB00AF
:1029D0001092E9008091E800877F8093E8000E94D0
:1029E0006E1258C1811156C1109122021F77809139
:1029F000E3008078812B8093E3008091E800877F5B
:102A00008093E8000E946E128091E80080FFFCCF66
:102A10008091E30080688093E300111102C082E09E
:102A200001C083E080931E0235C18058823008F0D7
:102A300031C120912202309123022C3D53E0350711
:102A400079F583E08A838AE289834FB7F894DE01BF
:102A5000139620E03EE051E2E32FF0E05093570060
:102A6000E49120FF03C0E295EF703F5FEF708E2F7F
:102A700090E0EA3010F0C79601C0C0968D939D9308
:102A80002F5F243149F74FBF8091E800877F809303
:102A9000E8006AE270E0CE0101960E94C212B5C061
:102AA0008091240290912502432F552743305105F0
:102AB000A9F068F44130510509F4FBC042305105DA
:102AC00009F0E8C08BE590E0E8E6F5E04BC0413264
:102AD000510529F14232510589F1DCC0C90199271C
:102AE00081309105A1F058F0029709F0D3C0E5EDCF
:102AF000F5E0E4918E2F90E0E5EDF5E030C0E1E007
:102B0000F6E0E4918E2F90E0E1E0F6E028C0EFEEF1
:102B1000F5E0E4918E2F90E0EFEEF5E020C08330F9
:102B2000910508F0B7C0880F991FFC01E755FE4FCB
:102B30000190F081E02D89E090E014C08330910590
:102B400008F0A8C0FC01EE0FFF1FED55FE4F0190ED
:102B5000F081E02DDC01A056BE4F8C9190E00097F3
:102B600009F498C02091E800277F2093E800209185
:102B70002602309127028217930708F49C0140E057
:102B80002115310589F180911E02882309F43DC089
:102B90008530D9F18091E80083FD37C08091E8004D
:102BA00082FD2FC08091E80080FFEACF4091F300C2
:102BB0008091F20090E0942B2115310559F0883076
:102BC000910540F444914093F10031962150310930
:102BD0000196F2CF41E0089709F040E08091E800CB
:102BE0008E778093E800CCCF4111CDCF0AC0809181
:102BF0001E02882351F0853041F08091E80083FD6A
:102C000004C08091E80082FFF2CF8091E8008B77CA
:102C10008093E8003FC08038E9F58091E800877F25
:102C20008093E80080911F028093F1008091E8007A
:102C30008E77D3CE81112EC08091220290912302F3
:102C4000992702973CF58091E800877F8093E80000
:102C50001091220210931F020E946E12111106C0E1
:102C60008091E30087FD02C081E001C084E0809391
:102C70001E0242E061EC81E00E948D1242E261ECB2
:102C800082E00E948D1242E261EC83E00E948D128C
:102C900080911E028091E80083FF10C08091E800BF
:102CA000877F8093E8008091EB0080628093EB0047
:102CB00005C082E190E0E3ECF5E054CFAA96E3E0B2
:102CC0000C94D9271F920F920FB60F9211242F93B5
:102CD0003F934F935F936F937F938F939F93AF93A4
:102CE000BF93CF93DF93EF93FF93C091E900CF7031
:102CF0008091EC00D82FD17080FDD0E81092E900CF
:102D00008091F000877F8093F00078940E949F1359
:102D10001092E9008091F00088608093F000CD2B44
:102D2000CF70C093E900FF91EF91DF91CF91BF91F8
:102D3000AF919F918F917F916F915F914F913F9153
:102D40002F910F900FBE0F901F901895E8EDF0E0B7
:102D500080818E7F80831092E2001092DA001092C0
:102D6000E100A0EEB0E08C9181608C9380818F7740
:102D7000808319BCA7EDB0E08C918E7F8C9380810D
:102D80008F7E8083109211020895A0E0B0E0EBECFA
:102D9000F6E10C94B827C8EDD0E088818F7E888357
:102DA000E7EDF0E080818160808384E082BF81E094
:102DB0008093110288818E7F888302EE10E0F801F3
:102DC00010821092DA0081EEC82ED12CF60110820A
:102DD00088818F77888388818068888388818F7DC8
:102DE000888319BC10921E0210921F0210921D02BD
:102DF00010921C0290EEE92EF12CF70180818B7F5E
:102E0000808388818160888342E060E080E00E9466
:102E10008D12F60180818E7F8083F8018081816030
:102E20008083808188608083F70180818E7F8083AA
:102E3000888180618883CDB7DEB7E8E00C94D42721
:102E40001F920F920FB60F9211242F933F934F931F
:102E50005F936F937F938F939F93AF93BF93EF9302
:102E6000FF938091E10082FF49C08091E20082FFE0
:102E700045C08091E1008B7F8093E100209110029A
:102E80002F5F822F62E30E943D28992319F020933F
:102E9000100234C01092100280910F02882371F149
:102EA00080911E02843041F58091E9008F7020915D
:102EB000EC00922F917020FD90E8892B93E0909385
:102EC000E9009091EB0090FF14C09091EE0097FF05
:102ED00010C09091E80095FF03C01092F100F9CF67
:102EE0009091E80090FF05C09091E8009E77909344
:102EF000E8008F708093E90010920F028091DA0051
:102F000080FF32C08091D80080FF2EC08091DA000F
:102F10008E7F8093DA008091D90080FF1CC080E111
:102F200089BD82E189BD09B400FEFDCF81E08093B7
:102F30001E0284E595E00E94110580911102811125
:102F400013C00E94A6160E94C5168091E2008460FC
:102F50008093E20009C019BC10921E0288E595E03A
:102F60000E941105109211028091E10080FF1BC0A8
:102F70008091E20080FF17C08091E2008E7F8093F5
:102F8000E2008091E20080618093E2008091D800AD
:102F900080628093D80019BC85E080931E028CE586
:102FA00095E00E9411058091E10084FF34C080917A
:102FB000E20084FF30C080E189BD82E189BD09B4AF
:102FC00000FEFDCF8091D8008F7D8093D800809146
:102FD000E1008F7E8093E1008091E2008F7E8093FC
:102FE000E2008091E20081608093E20080911F0204
:102FF000882311F084E007C08091E30087FD02C0C0
:1030000081E001C083E080931E0280E695E00E948B
:10301000110580911E028091E10083FF2BC08091F9
:10302000E20083FF27C08091E100877F8093E10069
:1030300082E080931E0210921F028091E1008E7F39
:103040008093E1008091E2008E7F8093E200809186
:10305000E20080618093E20042E060E080E00E9454
:103060008D128091F00088608093F00084E695E0F6
:103070000E941105FF91EF91BF91AF919F918F91A8
:103080007F916F915F914F913F912F910F900FBE64
:103090000F901F9018952091E4003091E50095E67F
:1030A0004091EC00842F817040FF23C08091E800A4
:1030B00080FD1DC080911E02882399F0853099F013
:1030C0008091EB0085FD11C04091E4005091E50036
:1030D0002417350729F3915011F09A01E1CF84E0CC
:1030E000089582E0089583E0089581E0089580E0E6
:1030F00008954091E80042FFDDCF08958091D90204
:10310000982F9695913021F0817082608093D9023A
:103110000895A0E0B0E0EFE8F8E10C94B42749018D
:103120005A016B017C010E947E188401A4016A2D62
:103130007B2D88E090E00E941B2894014A2D5B2D96
:10314000B601C70100E20E949228622F84E290E05B
:103150000E940928CDB7DEB7ECE00C94D02720916F
:10316000D90220FF41C0217022602093D9028091B2
:10317000CC0281608093CC026623E1F03091DA02C8
:103180004091DB025091DC026091DD027091DE0221
:103190008091DF029091E0020E9489188091C9021B
:1031A00080FF19C08091D90286951F928F938BEF73
:1031B00097E009C08091C90280FF0DC01F9281E095
:1031C0008F938DED97E09F938F930E94AA050F90A8
:1031D0000F900F900F9020E04091DC026091DB0295
:1031E0008091DA020E94822408958091D902869506
:1031F000815009F481E061E00E94AF18089561E018
:1032000081E00E94AF180895E9EDF2E023E0208309
:1032100080E881838FEF828380E583831482AAEC28
:10322000B2E012968C911297836012968C937581FE
:1032300030E84FEF50E560E0868197810E94891861
:103240000895A6E0B0E0E7E2F9E10C94AE2785B777
:10325000806885BF85B7806885BF84B7877F84BF56
:103260000FB6F894A8958091600088618093600003
:10327000109260000FBE90E080E80FB6F894809343
:103280006100909361000FBE81E293E19093D501BC
:103290008093D4010E94A6160E94C5168091E20078
:1032A00084608093E200789480911E028823A1F0CC
:1032B0001091E9001F709091EC00892F817090FDB2
:1032C00080E8182B1092E9008091E80083FD0E94AD
:1032D0009F131F701093E90082E084BD93E095BDB9
:1032E0009AEF97BD80936E001092280210922902E7
:1032F00010922A0210922B0280E090E00E94F327A5
:10330000863E9E4F11F00E94F11D8EE090E00E94DB
:10331000E52791E0811101C090E0909331010E9476
:10332000AC0E81110E9448269091310181E09827CE
:1033300090935302682F691B60932D029091310185
:10334000809354029091310180932C02809131013D
:10335000811106C084EF80933B0185EF80933A0191
:1033600080913B01E82FE295EF70F0E041A1282F1A
:103370002F7081E090E0DC0102C0AA0FBB1F2A95EC
:10338000E2F79D013A2F3095342331A332A1232B4C
:1033900022A320913A01E22FE295EF70F0E031A1F3
:1033A0002F7001C0880F2A95EAF7982F90959323E4
:1033B00091A392A1892B82A3EFE8F1E03197F1F775
:1033C00000C000007091540245E552E0ABE3B1E06B
:1033D0000AE311E060E0671751F12D91822F829589
:1033E0008F7090E0FC0180A190E02F7002C0959555
:1033F00087952A95E2F78170F80191918F01292F25
:1034000022952F7030E0F90120A130E09F7002C0BA
:10341000359527959A95E2F720FD02C090E001C00E
:1034200092E0892BFA018193AF016F5FD4CF809135
:10343000310180913101811102C094E001C090E01E
:103440009093370284E0891B809336020FEA11E0E3
:10345000F3EBEF2EF1E0FF2ED8018D918D018F3F20
:1034600011F00E94CF0EE016F106B1F703EB11E068
:10347000E9EBEE2EE1E0FE2EF80181918F018F3F06
:1034800011F00E94CF0EE016F106B1F788E0EFE3ED
:10349000F2E0DF01282F1D922A95E9F7EEE2F2E033
:1034A000DF011D928A95E9F780E090E00E94F32702
:1034B000863E9E4F11F00E94F11D82E090E00E9436
:1034C000E5278093C90284E090E00E94F32790935F
:1034D0003B0280933A0283E090E00E94E52790E06F
:1034E0000E94F92180913C02811124C18091C9027E
:1034F00080FF08C087E497E09F938F930E94AA05FE
:103500000F900F908091C90280FF08C081E397E07F
:103510009F938F930E94AA050F900F9080E090E0F8
:103520000E94F327863E9E4F81F08091C90280FF62
:1035300008C089E097E09F938F930E94AA050F909F
:103540000F900E94F11D0E94041988E090E00E94F3
:10355000ED274B015C0184E290E00E94E527282FD3
:1035600030E040E050E060E070E080E090E000E2B9
:103570000E947728282939294A295B292093D902D2
:103580003093DA024093DB025093DC026093DD0259
:103590007093DE028093DF029093E0028091CC0270
:1035A00083608093CC022E7FF1F58091C90280FF69
:1035B00008C080EC96E09F938F930E94AA050F901D
:1035C0000F900E94041988E090E00E94ED276B01A3
:1035D0007C0184E290E00E94E527282F30E040E063
:1035E00050E060E070E080E090E000E20E94772828
:1035F000B22FA32FF42FE52F5B0197018601BC2981
:10360000A12BF22BE32BB093D902A093DA02F09313
:10361000DB02E093DC026093DD02B092DE02809375
:10362000DF029093E0020E947E188091C90280FF21
:1036300008C087EA96E09F938F930E94AA050F9097
:103640000F908091C90280FF0FC08091D9028170D4
:103650001F928F938AE896E09F938F930E94AA050A
:103660000F900F900F900F908091C90280FF0FC0B4
:103670008091D90286951F928F938FE696E09F9353
:103680008F930E94AA050F900F900F900F9080913A
:10369000C90280FF0EC08091DA021F928F9385E5E8
:1036A00096E09F938F930E94AA050F900F900F9022
:1036B0000F908091C90280FF0EC08091DB021F92A3
:1036C0008F938BE396E09F938F930E94AA050F90B0
:1036D0000F900F900F908091C90280FF0EC08091D3
:1036E000DC021F928F9381E296E09F938F930E945A
:1036F000AA050F900F900F900F908091C90280FF44
:103700000EC08091DD021F928F9385E096E09F931B
:103710008F930E94AA050F900F900F900F908091A9
:10372000D90280FF04C060E086950E94AF1881E056
:1037300080933C020E94AC0E811102C00E944B2675
:1037400082E391E09093E7028093E60277EB272EE5
:1037500077E0372E80911E02853009F083C080917A
:10376000C90280FF04C087E997E00E941105FF2489
:10377000F39400E112E180911E02853009F04CC003
:1037800080911E02843009F431C080913E02811183
:1037900009C0F0923E028091D902817080933D026F
:1037A0000E94D5251092EA0268E170E080E40FB62D
:1037B000F894A895609360000FBE8093600083B773
:1037C000817F846083BF83B7816083BF789488954D
:1037D00083B78E7F83BF0FB6F894A8958091600061
:1037E000886180936000109260000FBE80911D027E
:1037F000882309F4C0CF0E94E60EEFE3F2E0A9EBC4
:10380000B1E091918D91892309F08EC167E472E056
:103810006E177F07B1F7AFCF0E94FE210E948C2365
:1038200010923E0280913D028823E1F08091D902FE
:1038300081608093D9028091C90280FF0DC01F92E0
:1038400081E08F938EE597E09F938F930E94AA0566
:103850000F900F900F900F908091D90260E08695A5
:103860000E94AF180E94E60E47E4E42E42E0F42ED8
:103870005FE3652E52E0752E69EB462E61E0562E11
:103880002FE432E08201C301F7015191DC016D9117
:10389000CD01D8014D918D01462345272E173F07B5
:1038A00019F0442391F305C0411103C00E94CA1DC1
:1038B0007BC08091C90281FD07C00E94AC0EB82E6A
:1038C00000E0992493943AC08CEB97E00E94110594
:1038D00099EBA92E91E0B92E2FE3822E22E0922EB1
:1038E00000E010E03FEAC32E37E0D32E1F930F9382
:1038F0003F922F920E94AA0584EB97E00E94110547
:10390000F40191914F01D5018D915D0189230E94B0
:10391000E20B1F928F93DF92CF920E94AA058DEA4D
:1039200097E00E9411050F5F1F4F0FB6F894DEBF9E
:103930000FBECDBF08301105C9F6BFCFD3011D9111
:103940003D01F20181912F011823D701AC90A126EE
:1039500019F1D12CCC24C3948A2D8C21B1F0BB2039
:10396000A1F0D9820A830E94F3229C838B839D82DB
:1039700091E0812F8C2109F490E09E8349815A8146
:103980006B817C818D810E947606D394CC0CB6E04D
:10399000DB12E2CFF70110830F5FFFEFEF1AFF0A90
:1039A000083061F60E94C5100E94AC0EC12CB12CEB
:1039B00084E0E82EF12C80915402C81608F082C0F1
:1039C0000C2D10E0F801E55CFE4F8081E82FE295B8
:1039D000EF70F0E0E0A1F0E08F7002C0F595E795A0
:1039E0008A95E2F7E170D801A65CBE4F2C91A22F18
:1039F000A295AF70B0E090968C9190E02F7002C0CD
:103A0000959587952A95E2F780FD02C080E001C078
:103A100082E04E2F482BD801AB5ABD4FEC918E2F30
:103A2000837090E0242F042E000C330B8217930731
:103A300009F446C0EE0FEE0FE42BEC93D090530246
:103A4000DC0CEF70F0E0EF53FE4F0F5A1D4F9081EA
:103A5000D8018C91890F8C93843084F0ED2DF0E0A7
:103A6000E15BFD4F80818F5F80830E94AC0E8823D5
:103A700039F060E08D2D0E94212402C020E001C0B9
:103A800021E0F80180818D3F84F4ED2DF0E0E15BD1
:103A9000FD4F8081815080830E94AC0E882321F0ED
:103AA00061E08D2D0E94212421E0D8018C91082E07
:103AB000000C990BB7010E945D28F8018083B22A9F
:103AC000C39479CFB1100E94EE1D0E948C23182F51
:103AD00080915702181709F43DCE109357020E94A7
:103AE000E7228091C90282FF35CE80FF04C082EDBB
:103AF00097E00E9411058091C90280FF0CC01F92BF
:103B00001F938DEC97E09F938F930E94AA050F90CF
:103B10000F900F900F908091C90280FF1BCE8BEC0D
:103B200097E00E94110516CE09BD19BD09B400FE2B
:103B3000FDCF8091D8008F7D8093D8008091E000E8
:103B400082608093E0008091E00081FDFCCF0E94C4
:103B5000FE2111CE2091B80290917F0257E02917E3
:103B6000A9F030E0529FF001539FF00D1124E0586E
:103B7000FD4F7181761306C07081781303C0758183
:103B8000741306C02F5F3F4F2770E9CF80E0089580
:103B900081E00895A6E0B0E0E0EDFDE10C94BC27E3
:103BA0000E94F3228C018091C7029091C8020817ED
:103BB000190781F019821A820E94F322682F498125
:103BC0005A81792F80E090E00E9476061093C80217
:103BD0000093C7022696E4E00C94D8270E94C510F3
:103BE0000895A8E0B0E0E7EFFDE10C94BE2766EE93
:103BF0007EEF80E090E00E94272860E082E090E085
:103C00000E94092860E083E090E00E940928109259
:103C1000C6021092C50260E074E184E090E00E9468
:103C2000272860E086E090E00E9409286FEF87E097
:103C300090E00E94092840E050E0BA0188E090E05E
:103C40000E941B2860E084E290E00E94092860E066
:103C500087E190E00E94092860E08CE090E00E94FB
:103C6000092860E08DE090E00E94092819821A82FC
:103C70001B821C821D821E821F82188648E050E033
:103C800068E170E0CE0101960E94F92740E050E023
:103C9000BA0180E290E00E941B2840E050E0BA01A7
:103CA0008FE090E00E941B2840E050E0BA0183E1E1
:103CB00090E00E941B282896E2E00C94DA27809579
:103CC0009091C40289238093C4020895EF92FF92D9
:103CD0000F931F93CF939091C4028091C302982BAE
:103CE000909358028091C202882389F0892B809397
:103CF0005802EAE5F2E097E080E0915029F0219146
:103D00002223D9F38F5FF9CF81111092C20248E0CC
:103D100050E06AEB72E088E592E00E94AE28892BC1
:103D200009F443C088E0E8E5F2E0AAEBB2E00190D4
:103D30000D928A95E1F7E091E602F091E702309763
:103D4000A1F10280F381E02D88E592E00995809150
:103D5000C90282FF2AC080FF04C084E398E00E9469
:103D6000110508E512E0C8E08EE2E82E88E0F82EA2
:103D70008091C90280FF0CC0F80180811F928F934F
:103D8000FF92EF920E94AA050F900F900F900F9054
:103D9000C1500F5F1F4FC111EBCF8091C90280FF4F
:103DA00004C08CE298E00E941105CF911F910F9101
:103DB000FF90EF9008958091B80290917F0289174B
:103DC00019F08F5F8770FBCF0895CF93DF938091B9
:103DD0007E0282958F7009F04EC080917D0288230B
:103DE00009F449C08091B80240917F025091790254
:103DF00060917802C0917A02D0917B0277E08417BB
:103E0000D1F190E0789FF001799FF00D1124DF014E
:103E1000A058BD4F14962C911497222349F1119666
:103E20002C911197251324C02C91261321C015968F
:103E30002C91159721111CC012962D913C9113972E
:103E40002C1B3D0B283C310598F480917E028F702D
:103E5000806180937E02EA57FD4F80818F70806180
:103E6000808388E792E00E9406070E94DB1E03C061
:103E700001968770C4CFDF91CF910895A0E0B0E0A4
:103E8000E4E4FFE10C94B7277C0100913802109123
:103E900039028091C5029091C602082B192BCFE000
:103EA000D0E0CC24C394D12CC6010C2E02C0880FC4
:103EB000991F0A94E2F780239123892B21F42197FB
:103EC00098F7B12C09C0BC2EB7018C2F0E94341179
:103ED0000E945111019799F38B2DCDB7DEB7E9E020
:103EE0000C94D327CF93DF93EC010E943E1FBE01B9
:103EF0000E9434110E945111DF91CF910895FC016D
:103F000024812223D9F0808191810E94721F929591
:103F10009F70963079F010F4925001C09A50923010
:103F200068F4803F69F018F4883E40F409C0843F8B
:103F300029F406C0883E20F0813F11F080E008950A
:103F400081E00895A4E1B0E0E8EAFFE10C94B42731
:103F50008C0186E0F801DE011F9601900D928A9592
:103F6000E1F7F8018481E58098E7892E92E0992EA7
:103F700090917C02911120C0882309F463C1EE2046
:103F800009F442C0C8010E947F1FF82E8823E1F186
:103F900087E0F801D40101900D928A95E1F78091B4
:103FA0007C02813031F480917802909179020E94F4
:103FB000721F0E94E51E48C1F801D080C180A28016
:103FC000B380F0907D0220917A0230917B02FF2035
:103FD00009F4E7C0A501421B530B483C510508F00A
:103FE0009DC0882309F430C180917E02282F207F54
:103FF00090917902222361F09C1509F460C0C801F8
:104000000E947F1F811163C0C8010E9406071AC168
:104010009C1113C0909178029D110FC0E1100DC04A
:104020008F70806180937E0288E792E00E9406078D
:1040300080917E02F801868303C1E1103AC040E01E
:104040006C2D8D2D0E94AA1D40E06C2D8D2D0E949F
:10405000AA1DE82E8111F4C0DF86C88A8F85988951
:104060000E94721F292F22952F70243020F49F70F8
:10407000223028F009C02A50223080F014C0992341
:1040800049F0811107C013C0992321F0F8019681EE
:10409000907F69F0805E883030F409C0803F38F04E
:1040A000815F833020F0C8010E940607EF2CFE2CB0
:1040B000CBC080917E02816080937E02C1C09091CE
:1040C00078029D119CCFE1109ACFF80198C0EE20A4
:1040D00009F49ACF20917E02822F82958F7090E012
:1040E00002978CF080917802909179029987888765
:1040F000BB86AA8680917C028C871D862E87CE0186
:1041000008960E94060787E0F801A8E7B2E0019050
:104110000D928A95E1F70E94E51E94C090917E026F
:10412000292F207F51F488E792E00E94060787E05C
:10413000F40111928A95E9F783C0882309F484C0B9
:10414000809179028C110CC0809178028D1108C089
:10415000E11006C0F8019683C8010E9406076AC0F4
:10416000C8010E947F1F882309F44ECFEE2009F476
:104170004BCF20917E02822F82958F7090E0029724
:1041800014F280917802909179029A838983BC829B
:10419000AB8280917C028D831E822F83CE0101969B
:1041A000B0CFA21AB30AF8ECAF16B10408F042C0BF
:1041B000882309F447C0FE2CEE2009F425CF809116
:1041C00079028C1129C0809178028D1125C09091BF
:1041D0007E0290FD18C0892F82958F70282F30E0C5
:1041E0002115310581F0F80196832F30310541F01A
:1041F0008F5F982F9295907F86818F70892B868311
:10420000C8010E94060787E0F801A8E7B2E0019024
:104210000D928A95E1F718C0C8010E947F1F811195
:1042200072CF80917E02816080937E02C8010E94DD
:1042300006070AC087E0F40111928A95E9F704C0E5
:10424000F12C02C0FF24F3948F2D6496ECE00C94C3
:10425000D027983078F5863068F5E82FF0E086E0D2
:10426000989FE00DF11D11249E2F977083E0F69525
:10427000E7958A95E1F7EE0FFF1FEE0FFF1FE05A5B
:10428000FD4F40E050E080E0219130E0092E02C077
:10429000369527950A94E2F721703327042E01C042
:1042A000220F0A94EAF7822B4F5F5F4F443051058B
:1042B00059F7089580E00895983088F5863078F5AC
:1042C000E82FF0E086E0989FE00DF11D11248E2F7D
:1042D000877051E001C0550F8A95EAF783E0F695A3
:1042E000E7958A95E1F7EE0FFF1FEE0FFF1FE05AEB
:1042F000FD4F20E030E070E04081CB01022E02C093
:10430000969587950A94E2F7817081958427852395
:10431000842781932F5F3F4F2430310569F708953B
:104320009093390280933802089521E030E002C072
:10433000220F331F8A95E2F720953095809138023D
:1043400090913902822393230E94902108959091A5
:10435000B902809589238093B902282F277069F4C8
:10436000981759F090913B0292FF07C08695869569
:1043700086950E9495211092B9020895CF9390914D
:104380003B0292FB222720F9281709F1C82F892F19
:10439000C0FB82F980933B0260913A0270913B022C
:1043A00084E090E00E94272882E00E94A72180916B
:1043B000C90280FF0CC01F92CF9387E198E09F93C2
:1043C0008F930E94AA050F900F900F900F90CF919E
:1043D000089521E030E002C0220F331F8A95E2F7F2
:1043E0008091380290913902822B932B0E94902168
:1043F00008959093C6028093C50208951092C40256
:1044000086E0EAE5F2E0DF011D928A95E9F780E0B7
:1044100090E00E94672380E090E00E944223109287
:10442000C3020E94661E0895882321F00E945F1E29
:104430000E94661E0895882339F09091C402892B4A
:104440008093C4020E94661E08951F93CF93DF934A
:10445000182FEB010E942106209741F08FE99FE081
:104460000197F1F700C000002197F6CF812F0E943D
:10447000EE05DF91CF911F91089580911302089569
:104480008091DD02882319F081508093DD02209114
:10449000D9023091DA024091DB025091DC02609146
:1044A000DD027091DE028091DF029091E0020E94B5
:1044B000891808958091DD02833018F48F5F80930E
:1044C000DD022091D9023091DA024091DB02509155
:1044D000DC026091DD027091DE028091DF0290913A
:1044E000E0020E94891808950F931F93CF93DF93E2
:1044F0008B01EA0190911E02943079F58F708093C0
:10450000E9008FEF9091E800815095FD06C095ED90
:104510009A95F1F700008111F5CF8091E80085FFB1
:104520001CC00E944B18882361F08091E8008E77B0
:104530008093E80012C0F80181918F018093F1000F
:104540002197209791F38091E80085FDF4CF809129
:10455000E8008E778093E800E4CFDF91CF911F9140
:104560000F91089578941F920F920FB60F92112415
:104570008F939F93AF93BF938091EB029091EC0246
:10458000A091ED02B091EE020196A11DB11D8093A4
:10459000EB029093EC02A093ED02B093EE02BF9178
:1045A000AF919F918F910F900FBE0F901F90189514
:1045B0009C014FB7F8948091EB029091EC02A0918E
:1045C000ED02B091EE024FBF821B930B08952FB7FF
:1045D000F8946091EB027091EC028091ED02909161
:1045E000EE022FBF08952FB7F8948091EB029091BF
:1045F000EC02A091ED02B091EE022FBF08951F9240
:104600000F920FB60F9211248F939F93AF93BF9386
:104610008091EA02811113C08091EB029091EC022B
:10462000A091ED02B091EE024196A11DB11D8093C3
:10463000EB029093EC02A093ED02B093EE02BF91D7
:10464000AF919F918F910F900FBE0F901F90189573
:104650009C01FC0132969FEF80E04191461789F062
:104660009F3F19F4411101C0982F8F5F8630A9F741
:104670009F3F39F0F901E90FF11D97FDFA9562832B
:1046800008950895A3E0B0E0E8E4F3E20C94BE27B7
:104690002091E8023091E90228173907A1F09093A0
:1046A000E9028093E802E091E602F091E702309798
:1046B00051F024E029839B838A830680F781E02DD3
:1046C000CE01019609952396E2E00C94DA27A3E047
:1046D000B0E0EDE6F3E20C94BE272091E4023091C5
:1046E000E50228173907A1F09093E5028093E402D0
:1046F000E091E602F091E702309751F023E0298340
:104700009B838A830680F781E02DCE01019609956F
:104710002396E2E00C94DA270E94AC0E882359F02D
:10472000E091E602F091E702309729F00190F081E4
:10473000E02D0995089580E008950F931F93CF937E
:10474000DF93C42FD22FFC0185818823B1F04093E1
:10475000E3020E94F3229093E2028093E10280E25E
:104760008C0F883008F068C0C77081E001C0880FE6
:10477000CA95EAF70E941B225FC08091E3024813AA
:104780003DC08091E1029091E2020E94D822883CD3
:104790009105A0F510E21D0FCD17E9F080E28C0F16
:1047A000883040F4C77081E001C0880FCA95EAF7ED
:1047B0000E941422183078F581E09D2F977001C077
:1047C000880F9A95EAF70E941B22093351F560E59C
:1047D00070E089E329C0093319F460E570E002C094
:1047E00060E070E0802F0E942522183028F5D770F5
:1047F00081E001C0880FDA95EAF70AC080E28C0FE9
:104800008830D0F4C77081E001C0880FCA95EAF7FC
:104810000E94142211C0093351F460E570E089E36D
:1048200009C060E070E0802F0E942522E0CF60E0A8
:1048300070E0802F0E942522DF91CF911F910F9170
:104840000895662321F06AE070E089EA03C06AE017
:1048500070E08AEA0E94252281E00895FC01680F39
:10486000791F8FEF91E3E617F70771F02191822707
:1048700028E030E087FF03C0880F892701C0880F38
:1048800021503109B9F7EFCF0895882311F0FA01CB
:1048900001C0FB01099508958091D90280FF0AC0EB
:1048A000539A8BB1877F9BB198602FB7F894EDEC4A
:1048B000F2E00BC0EDECF2E011821082128233962E
:1048C00032E0E93DF307C1F7EBCF32E0E93DF30712
:1048D00089F0319148E09BB9000000C037FF8BB9E7
:1048E000330F000000C000C000C08BB900C04A9563
:1048F00091F7EBCF2FBF8FE594E00197F1F700C060
:1049000000000895A0E0B0E0E8E8F4E20C94B527D8
:104910009091D90290FFFCC03091DA02381308C0A0
:104920003091DB02361304C03091DC02341729F0D9
:104930003091CC0232603093CC02922E142FD62FBD
:10494000C82FE92FE695F0E0EF52FE4F808180936B
:10495000CA029E7F923009F08DC0E42FF0E0611111
:1049600006C0E058F74FE491FE2F2E2F72C0E62EBE
:10497000F12CE058F74FF4910F2FCF2ED12C26E0D9
:10498000C29FC00111242FEF30E0B9010E944928D5
:104990004BEA4603C001479F900D11248C0F911DD7
:1049A0008C0F911DB82EBB0CB80EA9014E195F09D2
:1049B0004C9DC0014D9D900D5C9D900D1124E92FE3
:1049C000DB9DA0011124452F5527D901A41BB50B50
:1049D000AC9DA001AD9D500DBC9D500D1124D90181
:1049E000AB19B1095D01AE9CD001AF9CB00DBE9C6E
:1049F000B00D1124AB2FBB272A1B3B0B2C9DD001E4
:104A00002D9DB00D3C9DB00D11242B2F62307105F2
:104A100091F048F461157105E1F061307105B9F468
:104A20002F2FF52F16C06430710569F040F0663005
:104A3000710579F00CC02F2FF92FEB2F0AC0F92F39
:104A4000E02F252F06C0292FEF2FFB2F02C0292F83
:104A5000E52FADECB2E089ED92E01196FC93119751
:104A60002C931296EC93129713968A179B07A9F72B
:104A70000E944C24C093DA02D093DB021093DC0234
:104A8000992071F12091D9026091DD027091DE02CE
:104A90003C2F4D2F512F8091DF029091E0020E9418
:104AA00089188091C90280FF33C08091DC021F9277
:104AB0008F938091DB021F928F938091DA021F9275
:104AC0008F9387EA99E09F938F930E94AA058DB7F1
:104AD0009EB708960FB6F8949EBF0FBE8DBF18C044
:104AE0008091C90280FF14C01F921F931F92DF9311
:104AF0001F92CF9380E899E09F938F930E94AA051D
:104B0000ADB7BEB718960FB6F894BEBF0FBEADBF17
:104B1000CDB7DEB7EBE00C94D127E9EDF2E04381AD
:104B200028E0421B08F440E021E0628181810E947C
:104B300082240895E9EDF2E0438128E0420F08F471
:104B40004FEF21E0628181810E9482240895E9ED86
:104B5000F2E0628128E0621B08F460E021E043811A
:104B600081810E9482240895E9EDF2E0628128E0CB
:104B7000620F08F46FEF21E0438181810E9482245B
:104B80000895E9EDF2E0818121E04381628188505E
:104B90000E9482240895E9EDF2E0818121E04381C1
:104BA0006281885F0E94822408958091D9028E7F5D
:104BB0008093D9028091C90280FF0CC01F921F927E
:104BC00086E498E09F938F930E94AA050F900F9020
:104BD0000F900F908091CC0281608093CC020E9454
:104BE0004C2408958EE14A9B02C08150E1F74A9B14
:104BF000FECF08955A9880E28A95F1F75A9A08955F
:104C0000FC012AE02A95F1F728E090E080E031E00D
:104C100040E14A95F1F7880F4A9B02C081609327D3
:104C200000C0000040E14A95F1F7215089F720E1EA
:104C30002A95F1F729B100C0000030E13A95F1F76B
:104C400022FB222720F992272081920F908308953A
:104C5000A1E0B0E0EEE2F6E20C94BA2719828C01F2
:104C60007C01E60EF11C0E151F0551F00E94F22585
:104C7000CE0101960E940026F80181938F01F3CFA7
:104C800081E09981911180E02196E6E00C94D6278D
:104C9000529A5A9A089552985A9AEA9AE9E6F0E096
:104CA00080818F7C80830895615091E001C0990FCD
:104CB0006A95EAF720E031E0992361F0492F482313
:104CC00019F05A9A232701C05A9840E24A95F1F701
:104CD0009695F2CF222311F05A9A01C05A9880E299
:104CE0008A95F1F75A980895FF920F931F93CF93E7
:104CF000DF93EC018C01060F111DC017D10741F0A5
:104D0000F9900E94FA2568E08F2D0E945426F5CF75
:104D1000CDB7DEB7E5E00C94D7271F920F920FB600
:104D20000F9211240F931F932F933F934F935F93F1
:104D30006F937F938F939F93AF93BF93EF93FF9363
:104D4000CF93DF931F92CDB7DEB719820E94F22571
:104D5000CE0101960E940026082F0695069506951D
:104D6000902F96959570202F2570920F292F2370E4
:104D700096959695920F877089135FC089818111EE
:104D80005CC0073008F059C080E18A95F1F75A9A63
:104D9000529A82E08A95F1F700C05A9888E0089FFD
:104DA00080011124D801A050BF4F1696ED91FC91BF
:104DB00017973097A9F060919E0170919F0114960A
:104DC0002D913C911597260F371F11968D919C912F
:104DD0001297680F791F13964C9113978C91099530
:104DE000F801E050FF4F6381662351F080919E01EE
:104DF00090919F0124813581820F931F0E94742618
:104E00000E94FA2580E18A95F1F75A9852985A9AA9
:104E100080E18A95F1F7F801E050FF4F6081662349
:104E200051F080919E0190919F0121813281820FEA
:104E3000931F0E9428260E94F2250F90DF91CF91A8
:104E4000FF91EF91BF91AF919F918F917F916F9162
:104E50005F914F913F912F911F910F910F900FBE36
:104E60000F901F9018950F931F93CF93DF93873068
:104E700091050CF06DC0EC01F894529A5A9885E0B7
:104E80008A95F1F700009C2F969595702C2F257030
:104E9000920F892F83709695969523E0CC0FDD1F96
:104EA0002A95E1F7980F8E01092B0E94FA2584E0DC
:104EB0008A95F1F700C068E0802F0E94542680E1B7
:104EC0008A95F1F752985A9A4A9902C000C0FCCFCD
:104ED00087E090E04A9B08C0019721F4529A5A9AC1
:104EE000789436C000C0F6CFFE01E050FF4F6381DA
:104EF000662381F080919E0190919F0124813581EC
:104F0000820F931F0E942826811104C0529A5A9A38
:104F100078941FC00E94F22580E28A95F1F75A9892
:104F2000529A80E18A95F1F7C050DF4F688166237D
:104F300051F080919E0190919F0129813A81820FC9
:104F4000931F0E9474260E94FA25789481E001C084
:104F500080E0DF91CF911F910F9108952F923F92A2
:104F60004F925F926F927F928F929F92AF92BF9279
:104F7000CF92DF92EF92FF920F931F93CF93DF9325
:104F8000CDB7DEB7CA1BDB0B0FB6F894DEBF0FBE82
:104F9000CDBF09942A88398848885F846E847D84CF
:104FA0008C849B84AA84B984C884DF80EE80FD80D1
:104FB0000C811B81AA81B981CE0FD11D0FB6F89447
:104FC000DEBF0FBECDBFED010895F999FECF92BDB2
:104FD00081BDF89A992780B50895A6E1B0E044E034
:104FE00050E00C942F28A8E1B0E042E050E00C948F
:104FF0002F28DC01A40FB51F4150504048F0CB01D1
:10500000840F951F2E910E940A2841505040D0F7DE
:105010000895262FF999FECF92BD81BDF89A019788
:1050200000B4021639F01FBA20BD0FB6F894FA9AF0
:10503000F99A0FBE08950396272F0E940A280E940E
:105040000928252F0E940A28242F0C940A2801964B
:10505000272F0E940A280C940928DC01CB01FC01AF
:10506000F999FECF06C0F2BDE1BDF89A319600B4C1
:105070000D9241505040B8F70895991B79E004C053
:10508000991F961708F0961B881F7A95C9F7809587
:105090000895AA1BBB1B51E107C0AA1FBB1FA6177F
:1050A000B70710F0A61BB70B881F991F5A95A9F7D1
:1050B00080959095BC01CD01089597FB072E16F4BD
:1050C000009407D077FD09D00E94492807FC05D03D
:1050D0003EF4909581959F4F0895709561957F4F0F
:1050E0000895EE0FFF1F0590F491E02D09940F93A2
:1050F000083090F0982F872F762F652F542F432F4D
:10510000322F22270850F4CF220F331F441F551F80
:10511000661F771F881F991F0A95B2F70F91089590
:1051200097FB10F8169400080F93083098F0085079
:10513000232F342F452F562F672F782F892F902D0F
:10514000F4CF0594979587957795679557954795EB
:10515000379527950A95AAF70F910895FB01DC0171
:1051600004C08D910190801921F441505040C8F73E
:10517000881B990B0895FB01DC0102C001900D9280
:0C51800041505040D8F70895F894FFCF3C
:10518C00000000010000000000000004010000000D
:10519C0000000001050000000000000106000000F6
:1051AC0004070000000000000B0B000000000000D2
:1051BC0001013D228B1320138413F4F5736C61767B
:1051CC00655F6D617472697800656E636F6465729A
:1051DC000073796E635F74696D6572007267626CDF
:1051EC006967687400818283E200E900EA00B50017
:1051FC00B600B700CD008301CC008A019201940166
:10520C002102230224022502260227022A02B300CD
:10521C00B4006F0070009F01CB019F02A002F4014B
:10522C004432221005DE04BC047A059305AC0566F5
:10523C0097C635F6F7313332363F3F3F3E3F3F3F5F
:10524C003E00FF0100010000FFFF0000010001FF14
:04525C00000001004D
:00000001FF
