:100000000C9470020C948D020C948D020C94E21FDF
:100010000C948D020C948D020C948D020C948D0224
:100020000C948D020C948D020C94C61A0C94821AB6
:100030000C94C31B0C948D020C948D020C948D02B5
:100040000C948D020C948D020C948D020C948D02F4
:100050000C948D020C949F1B0C948D020C948D02B9
:100060000C948D020C948D020C948D020C948D02D4
:100070000C948D020C948D020C948D020C948D02C4
:100080000C948D020C948D020C948D020C948D02B4
:100090000C948D020C948D020C948D020C948D02A4
:1000A0000C948D020C948D020C948D02350014007A
:1000B0001A000800150017002B00040016000700A6
:1000C00009000A00E0001D001B00060019000500E1
:1000D0000000E300E200A252235229002A0013008C
:1000E00012000C0018001C00280033000F000E0046
:1000F0000D000B00340038003700360010001100EE
:100100000000E700E2002C002452737C350034002C
:100110003600370013001C002B00040012000800FA
:1001200018000C00E000330014000D000E001B004E
:100130000000E300E200A252235229002A000F002F
:10014000150006000A00090028001600110017001B
:100150000B00070038001D0019001A0010000500F0
:100160000000E700E2002C002452737C35001400EC
:100170001A000900130005002B00040015001600EA
:1001800017000A00E0001D0001000600070019002A
:100190000000E300E200A252235229002A003300AB
:1001A0001C0018000F000D00280012000C000800B1
:1001B0001100100034003800370036000B000E002C
:1001C0000000E700E2002C002452737C06011E00B0
:1001D0001F002000210022001B01E300E200E000DC
:1001E000E100190101003A003B003C003D003E00E7
:1001F000000001000100010001001D0101002700B5
:1002000026002500240023004E004F00510052001C
:1002100050004B00E40043004200410040003F001A
:10022000000001000100010025521C0149001E02CE
:100230001F02200221022202000031002D002E00A8
:100240002F003000010031022D022E022F02300259
:1002500000000100010001002552B4524C002702A9
:1002600026022502240223024D00E700E200E400FA
:10027000E5004A00E4000000AE00A900AA00A800C2
:100280000000010001000100010065000000405273
:100290004152425214701B7000000000BE00BD00AD
:1002A00015701C700000E300E200E000E1000000B7
:1002B000000000000000000001000000037C0000BE
:1002C0004600450044000000000000002578237827
:1002D00027782178007C00002678247828782278F6
:1002E0000000000000000000010020780001010172
:1002F00001010101010102020202020202020203E3
:1003000003030303030303040404040404040505B2
:100310000505050606060606070707070708080875
:1003200008090909090A0A0A0B0B0B0C0C0C0D0D24
:100330000D0E0E0E0F0F0F101011111112121313BC
:100340001414151516161717181819191A1A1B1B35
:100350001C1D1D1E1E1F2020212222232424252691
:1003600026272829292A2B2C2D2D2E2F30313232C9
:10037000333435363738393A3B3C3D3E3F404142D5
:10038000434445464748494A4C4D4E4F50515354BB
:10039000555658595A5B5D5E5F616264656668696F
:1003A0006B6C6D6F7072737577787A7B7D7E8082EF
:1003B000838587888A8C8E8F91939596989A9C9E38
:1003C000A0A2A3A5A7A9ABADAFB1B3B5B7BABCBE48
:1003D000C0C2C4C6C9CBCDCFD1D4D6D8DBDDDFE215
:1003E000E4E7E9EBEEF0F3F5F8FAFDFF050109802B
:1003F000A101850319012AB700150126B70095014F
:1004000075108100C0050C0901A101850419012A9C
:10041000A002150126A002950175108100C00501FA
:100420000906A101050719E029E71500250195082E
:10043000750181029501750881010507190029FFE1
:10044000150026FF00950675088100050819012989
:10045000051500250195057501910295017503911A
:1004600001C009023B00020100A0FA0904000001DA
:100470000301010009211101000122440007058147
:100480000308000109040100010300000009211113
:100490000100012232000705820320000112010041
:1004A00002000000084D4D464801000102000118FD
:1004B00003480069006C006C00730069006400650B
:1004C00000200034003600000010036D006D006352
:1004D0000063006F00790064000000040309040059
:1004E00011241FBECFEFDAE0DEBFCDBF11E0A0E0E8
:1004F000B1E0EAEBF4E402C005900D92AC39B1072B
:10050000D9F722E0ACE9B1E001C01D92A43BB207EB
:10051000E1F70E94EA1B0C9407220C940000482F7C
:100520002091B0029091770257E0291302C080E039
:10053000089530E0529FF001539FF00D1124E858C8
:10054000FD4F8181681306C08081481303C08581F7
:100550008111EECF2F5F3F4F2770E7CFE8EDF0E03E
:1005600080818E7F80831092E2001092DA001092D8
:10057000E100A0EEB0E08C9181608C9380818F7758
:10058000808319BCA7EDB0E08C918E7F8C93808125
:100590008F7E80831092600208952091E400309154
:1005A000E50095E6A9012091EC00822F817020FFE3
:1005B00006C08091E80080FF06C080E00895209189
:1005C000E80022FD1AC080916D02882389F08530F1
:1005D00089F08091EB0085FD0FC02091E4003091FF
:1005E000E50042175307F9F29150E1F684E00895CF
:1005F00082E0089583E0089581E0089580916F027C
:1006000087FF13C08091E80082FF06C08091E80058
:100610008B778093E80004C080916D028111F2CF46
:10062000089580916D028823D9F38091E80080FFBE
:10063000F8CF8091E8008E77ECCF982F9093E90067
:10064000242F762F50E0891731F07091EC00209123
:10065000ED005091F00021FD07C09F5F973071F7CA
:100660008093E90081E008953091EB003E7F309364
:10067000EB003091ED003D7F3093ED003091EB00C9
:1006800031603093EB007093EC002093ED005093B9
:10069000F0002091EE0027FDE0CF80E00895B0E06B
:1006A000A0E0E5E5F3E00C940821C8EDD0E08881F6
:1006B0008F7E8883E7EDF0E080818160808384E035
:1006C00082BF81E08093600288818E7F888302EE02
:1006D00010E0F80110821092DA0081EEC82ED12CC1
:1006E000F601108288818F7788838881806888836B
:1006F00088818F7D888319BC10926D0210926E02E2
:1007000010926C0210926B0290EEE92EF12CF70120
:1007100080818B7F808388818160888342E060E074
:1007200080E00E941D03F60180818E7F8083F801A6
:10073000808181608083808188608083F7018081EF
:100740008E7F8083888180618883CDB7DEB7E8E0C3
:100750000C942421FC0180917502909176028617F9
:100760009707A0F06115710529F49091E8009E7734
:100770009093E80090E06115710551F4911108C063
:100780008091E80082FF34C080E00895BC01F2CF80
:1007900080916D028823C1F18530C1F18091E8001C
:1007A00083FD30C08091E80082FDEACF8091E800AF
:1007B00080FFE1CF8091F3002091F200382F611586
:1007C000710519F02830310558F091E028303105D5
:1007D00009F090E02091E8002E772093E800CBCF3D
:1007E00081918093F100615071092F5F3F4FE7CFF6
:1007F00080916D02882341F0853041F08091E800BE
:1008000083FFBECF81E0089582E0089583E00895DC
:1008100008958091620208959C014FB7F8948091E9
:100820005C0290915D02A0915E02B0915F024FBFA9
:10083000821B930B08952FB7F89460915C0270911E
:100840005D0280915E0290915F022FBF08952FB7E5
:10085000F89480915C0290915D02A0915E02B0914B
:100860005F022FBF08959C01FC0132969FEF80E04C
:100870004191461751F09F3F19F4411101C0982F43
:100880008F5F8630A9F79F3F09F40895290F311D26
:1008900097FD3A95F90162830895A3E0B0E0E3E59E
:1008A000F4E00C940E212091590230915A0228173D
:1008B0003907A1F090935A0280935902E0915702B0
:1008C000F0915802309751F024E029839B838A836A
:1008D0000680F781E02DCE01019609952396E2E08E
:1008E0000C942A21A3E0B0E0E8E7F4E00C940E2198
:1008F000209155023091560228173907A1F09093A4
:10090000560280935502E0915702F09158023097B9
:1009100051F023E029839B838A830680F781E02DB1
:10092000CE01019609952396E2E00C942A21FC0160
:10093000680F791F8FEF91E32191822728E030E043
:1009400087FF09C0880F892721503109C9F7E617A9
:10095000F70791F70895880FF7CFFA01811101C0C9
:10096000FB010995089580914D02982F9E7F39F4DF
:1009700080914D028170826080934D020895843091
:10098000B8F7089580E00895F894E82FE295EF70A5
:10099000F0E031A1282F2F7081E090E001C0880F96
:1009A0002A95EAF7982F9095932391A392A1892BEA
:1009B00082A37894089590911F0292FF10C041E0A5
:1009C000282F2471243009F040E031E0282F2871CD
:1009D000283009F030E0431711F02CE0822793FF14
:1009E00010C041E0282F2471243109F040E031E0AB
:1009F000282F2871283109F030E0431711F02CE03E
:100A000082273091200230FF10C051E0282F217141
:100A1000213009F050E041E0282F2871283009F0FA
:100A200040E0541711F029E0822731FF10C041E067
:100A3000282F2171213109F040E031E0282F287161
:100A4000283109F030E0431711F029E0822794FDA6
:100A5000877E089582389105B9F1B0F4813391050C
:100A600009F47DC048F48932910509F46DC08A32D9
:100A7000910509F47BC008958533910509F45FC0A1
:100A80008933910509F10895833E9105D9F138F430
:100A9000803E910529F1823E910579F10895863EC7
:100AA0009105D9F1873E910509F43EC0843E910538
:100AB00041F52091200221FF24C080911F0284FD76
:100AC00019C087EE90E0089520911F02237009F06D
:100AD0005AC02091200223FF14C089E290E00895BB
:100AE00020911F0220FD38C03091200230FF09C044
:100AF00024FF43C090E080E0089520911F0222FD72
:100B0000F7CF089520911F0222FD3AC030912002B4
:100B100030FD39C024FFF5CFEDCF20911F0223FF18
:100B2000F0CF24FDE7CFCDCF20911F0223FD2EC0B3
:100B30003091200231FFEECF84EE90E008952091B5
:100B40001F0225FFDECFC9CF20911F0225FD21C046
:100B50002091200223FFD5CF89E390E0D2CF2091CE
:100B60001F0226FFCECF8AE290E0089520911F0257
:100B700026FFC7CF81E390E0089583EE90E00895CB
:100B800082EE90E0089580EE90E0089586EE90E089
:100B9000089585E390E00895972F7830B8F4663093
:100BA000A8F48630B0F470E026E0929F600D711DCD
:100BB0001124FB0190E3899FE00DF11D1124EE0F3C
:100BC000FF1FE455FF4F85919491089580E090E0D8
:100BD000089581E0FCCF1F93CF93DF930E942A05F5
:100BE000EC01C11580E5D807F0F5C11580E4D80700
:100BF00008F09CC0C03ED10520F5CD3CD10508F0E1
:100C000082C0C83AD10578F4C53AD10508F073C05E
:100C1000C130D10519F1209709F1C430D105F0F4A4
:100C2000D0E0C0E01BC0C33CD105D0F7C85AD0E02B
:100C3000CC0FDD1FC15CDE4F0990D881C02DD4647C
:100C40000DC0C11580E2D80708F0D1C0C11581E000
:100C5000D80708F05AC0C83ED10510F7CE01DF9181
:100C6000CF911F910895C03682E5D80718F5C0349A
:100C700082E5D80708F06BC0C03282E5D80708F0DB
:100C80005FC0C11582E5D80708F497C02C2F2695C0
:100C9000269580E2289F900111248C2F8370C1E05B
:100CA000D0E002C0CC0FDD1F8A95E2F7C22BD32B18
:100CB000DD68D4CFC03A82E5D80760F4C03882E559
:100CC000D80708F459C0CF71D0E0DC2FCC27C46F0F
:100CD000D06AC4CFC03C82E5D80708F462C0C03EE9
:100CE00082E5D80708F09CCFDC2FCC27CC27DF711A
:100CF000C06FD06AB3CFC55AD0E0C45CDE4FC881A4
:100D0000D0E0D064ABCFD065A9CF8D2F0E94DB049B
:100D1000182FCE0199270E942A05C12FD0E0DC2F81
:100D2000CC27CC27DF71C82BD92B98CFCE019927A0
:100D30000E942A05CC27DF70C82BD92BD06A8ECF12
:100D4000CF71D0E0DC2FCC27C16FD06A87CF2C2F9A
:100D500026952695277080E2289F900111248C2FDC
:100D60008370C1E0D0E002C0CC0FDD1F8A95E2F7AE
:100D7000C22BD32BDC6872CF2C2F2695269527709B
:100D800080E2289F900111248C2F8370C1E0D0E075
:100D900002C0CC0FDD1F8A95E2F7C22BD32BDA6895
:100DA0005DCF8C2F8F710E94DB04C82FD0E0DC2F29
:100DB000CC27CC27DF71D06251CF8C2F8F710E944E
:100DC000DB0455E0D695C7955A95E1F7CF70D0E092
:100DD000DC2FCC27282F30E084FF05C044E0220F11
:100DE000331F4A95E1F7C22BD32BD06937CF8D2F14
:100DF0008F710E94DB04182FCE0199270E942A05CB
:100E0000C12FD0E0DC2FCC27CC27DF71C82BD92B0A
:100E1000D2CF80959091D20198239093D2010895DA
:100E20008091B00290917702981301C008958F5F6E
:100E30008770FACFB0E0A0E0E0E2F7E00C94072181
:100E40007C0100911D0210911E028091D3019091AE
:100E5000D401082B192BCFE0D0E0CC24C394D12CA3
:100E6000BC2EC6010C2E02C0880F991F0A94E2F70F
:100E700080239123892B49F4219790F7B12C8B2D56
:100E8000CDB7DEB7E9E00C942321B7018C2F0E9487
:100E9000CC050E94EB05019779F3F1CFCF93DF9357
:100EA000EC010E941A07BE010E94CC050E94EB05CE
:100EB000DF91CF910895983078F5863068F5E82F66
:100EC000F0E086E0989FE00DF11D11249E2F9770B1
:100ED00083E0F695E7958A95E1F7EE0FFF1FEE0F99
:100EE000FF1FE855FE4F50E040E080E0219130E0E8
:100EF000092E02C0369527950A94E2F72170332710
:100F0000042E01C0220F0A94EAF7822B4F5F5F4F35
:100F10004430510559F7089580E00895983098F5C8
:100F2000863088F5E82FF0E086E0989FE00DF11D0F
:100F300011248E2F877041E001C0440F8A95EAF793
:100F400083E0F695E7958A95E1F7EE0FFF1FEE0F28
:100F5000FF1FE855FE4F30E020E070E05191DF01C7
:100F60001197CB01022E02C0969587950A94E2F75D
:100F7000817081958527842385278C932F5F3F4F30
:100F80002430310559F7089590931E0280931D0275
:100F9000089521E030E002C0220F331F8A95E2F766
:100FA0002095309580911D0290911E0282239323FB
:100FB0000E94C40708959091C7018095892380936A
:100FC000C701282F277069F4891759F090912002E2
:100FD00092FF07C08695869586950E94C907109254
:100FE000C701089521E030E002C0220F331F8A9527
:100FF000E2F780911D0290911E02822B932B0E949A
:10100000C40708959093D4018093D3010895FC01FF
:1010100024812223C1F0808191810E944E07929504
:101020009F70963091F058F4925F9F70923058F410
:10103000803F19F030F4883E30F481E008959A5FE3
:10104000F4CF843FD1F380E00895883EB0F3813F30
:10105000D1F7F3CFA6E0B0E0E0E3F8E00C940D2187
:1010600049835A8349815A819923A1F0222391F01F
:10107000CA010E941A07182F682F89819A810E943D
:101080008E0769817A81812F0E94CC052696E3E044
:101090000C942921CA010E945B07182FF2CF0F93ED
:1010A0001F93CF93DF938B01EA0190916D029430EF
:1010B00061F58093E9008FEF9091E800815095FDF4
:1010C00006C095ED9A95F1F700008111F5CF80915A
:1010D000E80085FF1AC00E94CD02811111C08091E5
:1010E000E80085FD06C08091E8008E778093E800D7
:1010F000F2CFF80181918F018093F100219779F768
:101100008091E8008E778093E800DF91CF911F9166
:101110000F91089543E050E0BC0182E00E944F0827
:101120000895CF93DF93EC0148E050E0BC0181E0EB
:101130000E944F0888E0FE01A3E6B2E001900D9204
:101140008A95E1F7DF91CF91089580914D0280FD5E
:101150000AC0E1E4F2E0118210821282339652E07A
:10116000ED34F507C1F7539A3BB1377F2BB12860B7
:101170004FB7F89481E492E0FC015191CF0168E00F
:101180002BB9000000C057FF3BB9550F000000C04D
:1011900000C000C03BB900C06A9591F7F2E08D3401
:1011A0009F0751F74FBF8FE594E00197F1F700C01B
:1011B00000000895B0E0A0E0E0EEF8E00C94062115
:1011C0007C015B016A0180910C0201E010E08A3031
:1011D00010F40AE010E0C1E0D0E0B501C701F6016B
:1011E0000995811104C021960C171D072CF4CDB769
:1011F000DEB7EAE00C942221CC9F9001CD9F300D08
:10120000300D112490E080E045E34A95F1F70000AD
:10121000019682179307C1F7E0CF8091E101811118
:1012200010C08091D80080618093D8008AE18A95AF
:10123000F1F700C08091D90080FF0AC081E080935F
:10124000E10181E09091E101913009F080E00895A1
:1012500082E08093E1010E94AE0210926D02F1CF14
:101260000E940D09882359F0E0915702F09158022D
:10127000309729F00190F081E02D0995089580E0E4
:1012800008950F931F930E940D09882329F00E944F
:101290001B041F910F9108950E941B0400910D02E1
:1012A00010910E0220910F0230911002600F711FF9
:1012B000821F931FEECF0E9441090895B0E0A0E085
:1012C000E4E6F9E00C94042149015A016B017C0128
:1012D0000E94B3048401A4016A2D7B2D88E090E074
:1012E0000E94CF2194014A2D5B2DB601C70100E277
:1012F0000E947E21622F84E290E00E94BD21CDB742
:10130000DEB7ECE00C942021B0E0A0E0EAE8F9E0E0
:101310000C940421D82FC62F142F822E00914D0239
:1013200000FF4FC080914E028D1308C080914F0284
:10133000861304C080915002841729F080914002E6
:10134000826080934002E02FE695F0E0E756FE4F82
:10135000808180933E02802F8E7F8230D9F4E12FEE
:10136000F0E0E451FD4FC11131C02491F22FE22F82
:1013700000FF10C0A1E4B2E01196EC9311972C93FA
:101380001296FC931297139682E0AD34B807A1F73A
:101390000E94A508D0934E02C0934F0210935002B2
:1013A000882079F020914D02609151027091520293
:1013B0003D2F4C2F512F80915302909154020E9447
:1013C0005E09CDB7DEB7ECE00C942021EC2EF12CB9
:1013D000E4919E2ECE2ED12C26E0D29FC001112466
:1013E0002FEF30E0B9010E9435218D2F90E0880F5A
:1013F000991FF5E5F69FA001F79F500D1124841B5E
:10140000950BB82EBB0CB80EA9014E195F094C9D67
:10141000C0014D9D900D5C9D900D1124F92FCB9D29
:10142000A0011124452F5527D901A41BB50BAC9D54
:10143000A001AD9D500DBC9D500D1124D901AB19DB
:10144000B1095D01AE9CD001AF9CB00DBE9CB00D4A
:101450001124AB2FBB272A1B3B0B2C9DD0012D9DAC
:10146000B00D3C9DB00D11242B2F62307105A1F001
:1014700050F46115710509F47BCF6130710581F07D
:10148000292FF52F75CF6430710569F080F0663033
:10149000710509F46DCFF4CF2E2FE92FFB2F68CF04
:1014A0002E2FE52F65CF292FFE2FEB2F61CFE92FB0
:1014B000F92D252F5DCFEDE4F2E0438128E0421BBA
:1014C00008F440E021E0628181810E94840908954E
:1014D000EDE4F2E0438128E0420F08F44FEF21E011
:1014E000628181810E9484090895EDE4F2E06281C5
:1014F00028E0621B08F460E021E0438181810E94C2
:1015000084090895EDE4F2E0628128E0620F08F4B6
:101510006FEF21E0438181810E9484090895EDE409
:10152000F2E0818121E04381628188500E94840938
:101530000895EDE4F2E0818121E043816281885FDA
:101540000E948409089580915102882319F08150E6
:101550008093510220914D0230914E0240914F02F2
:101560005091500260915102709152028091530249
:10157000909154020E945E09089580915102833037
:1015800018F48F5F8093510220914D0230914E02EA
:1015900040914F025091500260915102709152025D
:1015A00080915302909154020E945E090895209107
:1015B0004D0220FF24C02170226020934D028091B3
:1015C0004002816080934002662381F030914E0298
:1015D00040914F025091500260915102709152021D
:1015E00080915302909154020E945E0920E0409144
:1015F000500260914F0280914E020E94840908952A
:1016000080914D028695815009F481E061E00E944D
:10161000D70A089561E081E00E94D70A0895EDE4B9
:10162000F2E083E0808380E881838FEF828380E52E
:1016300083831482AEE3B2E012968C91129783609A
:1016400012968C93758123E030E84FEF50E560E00F
:10165000868197810E945E090895ABE0B0E0E3E3E4
:10166000FBE00C940E2188E0EDE4F2E0DE0111963F
:1016700001900D928A95E1F780913E0290913F0290
:10168000A091400289879A87AB872B8540910802F9
:101690005091090260910A0270910B023FB7F894D1
:1016A00080915C0290915D02A0915E02B0915F0218
:1016B0003FBF841B950BA60BB70B84369105A10584
:1016C000B10510F4222319F18091290190912A018A
:1016D0008E509E4F4091280150E04C30510510F043
:1016E0004BE050E0BE016F5F7F4F0E94FE2185E01E
:1016F00090E00E948820882369F00E941B04609378
:1017000008027093090280930A0290930B021092D0
:10171000400281E02B96E2E00C942A21A4E0B0E0A4
:10172000E4E9FBE00C940D214091EE015091EF01B2
:101730006091F0017091F1012FB7F89480915C02F3
:1017400090915D02A0915E02B0915F022FBF841B59
:10175000950BA60BB70B11E084369105A105B105D9
:1017600070F10E9441096E5F7F4F8F4F9F4F6983D9
:101770007A838B839C8380912101909122018E50EA
:101780009E4F4091200150E04530510510F044E05B
:1017900050E0BE016F5F7F4F0E94FE2184E090E029
:1017A0000E948820182F882351F00E941B04609308
:1017B000EE017093EF018093F0019093F101812F7E
:1017C0002496E3E00C9429214F925F927F928F92AE
:1017D0009F92AF92BF92CF92DF92EF92FF920F93C0
:1017E0001F93CF93DF930F92CDB7DEB7C62E4A017A
:1017F0005901482E880F5508C2010E948820782E72
:10180000882309F480C0C20133E0880F991F3A95FC
:10181000E1F7FC01E050FF4F438150E041155105D5
:1018200011F041E050E080509F4FFC0164817581D0
:101830006E507E4FCE0101960E94FE21F401408140
:101840005181628173812FB7F89480915C029091ED
:101850005D02A0915E02B0915F022FBF841B950BC9
:10186000A60BB70B84369105A105B10540F4B7016D
:10187000C8010E9497049981891709F444C00C2C6F
:10188000000CDD08C6010E948820782E811113C04B
:10189000712C872D0F90DF91CF911F910F91FF90A9
:1018A000EF90DF90CF90BF90AF909F908F907F9000
:1018B0005F904F900895C60123E0880F991F2A95E5
:1018C000E1F7FC01E050FF4F438150E0E416F506DC
:1018D00008F4A70180509F4FFC01648175816E5010
:1018E0007E4FC5010E94FE21B701C8010E949704E6
:1018F00099818913CDCF0E941B04F4016083718309
:1019000082839383C6CFA701B801C5010E94FE213F
:10191000C0CFA4E0B0E0EFE8FCE00C9408216B013C
:1019200084E0E82EF12C03EF11E09E012F5F3F4F82
:1019300046EE51E061E080E00E94E40B882361F014
:1019400049815A816B817C814093E2015093E3018C
:101950006093E4017093E5014091E2015091E3014D
:101960006091E4017091E501F60140835183628347
:1019700073832496E8E00C942421A3E1B0E0E3EC27
:10198000FCE00C9403218E01045F1F4F88E0D80116
:101990001D928A95E9F787E7C82E81E0D82EF12CB1
:1019A000E12CAA24A394B12C21E8822E21E0922ECE
:1019B000F60181916F018F3F09F442C0F894E82F3E
:1019C000E295EF70F0E021A18F70A50102C0440FF5
:1019D000551F8A95E2F7CA01922F982B91A392A1E5
:1019E0008095892382A3789400C0EBE7F1E0712C05
:1019F00031E021912F3F09F46BC0A22FA295AF7067
:101A0000B0E090968C9190E02F7002C095958795EC
:101A10002A95E2F780FD5CC0832F782A330F8E165B
:101A20009F0639F7F601319780818F3F11F00E94B0
:101A3000C40450EA5A95F1F7F801EE0DFF1D7082CB
:101A40008FEFE81AF80AA4E0EA16F10409F0B0CF23
:101A500048E050E0B80183E192E00E94F121009754
:101A600041F028E0F801A3E1B2E001900D922A953F
:101A7000E1F700911C02892B69F181E08093D90183
:101A80000E9427049093D8018093D7018091D701B9
:101A90009091D8010E940C04059700F110E00C5DB4
:101AA0001D4F44E050E063E172E0C8010E94F12163
:101AB000F12C892B51F084E0E3E1F2E0D8010190B0
:101AC0000D928A95E1F7FF24F3941092D90107C093
:101AD00080E0A3CF8091D9018111D8CFF12C0E9451
:101AE0000D09E82EE0911C02882309F489C01982AF
:101AF0001A821B821C820E2F10E00C5D1D4F8091FC
:101B00000C028A3008F046C049E85CE0BE016F5F15
:101B10007F4FC8010E94DA08882309F460C04CEBAB
:101B200052E1BE016F5F7F4FC8010E94DA0888232F
:101B300009F455C04EE85BE0BE016F5F7F4FC801FE
:101B40000E94DA08882309F44AC04DE25BE0BE0136
:101B50006F5F7F4FC8010E94DA08882309F43FC0F5
:101B600010920C0280911B0290E044E050E0BE0114
:101B70006F5F7F4F8C5D9D4F0E94F12121E020938C
:101B8000E001892BF1F4E12C8E2D8F296396EDE095
:101B90000C941F218091DA019091DB010E940C04CA
:101BA000843F914008F0B0CF8091E001882359F341
:101BB00084E0FE013196DF011D928A95E9F71092CB
:101BC000E001E0911B02F0E0EC5DFD4F89819A811C
:101BD000AB81BC8180839183A283B383D5CF809175
:101BE0000C028F3F31F08F5F80930C028A3008F433
:101BF000B9CF0E9427049093DB018093DA01D4CF00
:101C0000F0E0EC5DFD4F84E0A3EFB1E001900D92B8
:101C10008A95E1F764E070E083EF91E00E94970419
:101C20008093F20140913A0250E06091390270E0F5
:101C30006B5C7D4FCE0101960E94FE2189818093CD
:101C4000F80161E070E0CE0101960E949704809354
:101C5000F7018090F9019090FA01A090FB01B090FB
:101C6000FC018091DC019091DD01A091DE01B09139
:101C7000DF0188169906AA06BB06D1F08092DC0126
:101C80009092DD01A092DE01B092DF010E940D0969
:101C900081110EC00E941B04861A970AA80AB90A6D
:101CA00080920D0290920E02A0920F02B09210024A
:101CB0008BE0EDEFF1E0DE01119601900D928A9537
:101CC000E1F78091FD0186950091FE01D090FF0122
:101CD000C09000021091070210920702112309F42C
:101CE00053CF10FF0BC0298190914D0220FF0FC0F0
:101CF000916090934D0260E00E94D70A11FF44CF9B
:101D000020E04C2D6D2D802F0E9484093DCF9E7FB9
:101D100090934D02809140028160809340020E9426
:101D2000A508ECCF8091D2019091D101892B8093AD
:101D30009E019091D001992391F0892B80939E016F
:101D400020E080EA91E0FC013191CF0131112F5F59
:101D5000F1E0863A9F07B9F721111092D00148E0CF
:101D600050E068EC71E08EE991E00E94F121892B4E
:101D7000A9F088E0EEE9F1E0A8ECB1E001900D9265
:101D80008A95E1F7E0915702F0915802309731F0CF
:101D90000280F381E02D8EE991E00995089510927B
:101DA000D201E0EAF1E086E0DF011D928A95E9F7D1
:101DB00090E080E00E94720490E080E00E944D0478
:101DC0001092D1010E94920E0895AAE2B0E0EBEECB
:101DD000FEE00C940D218FE692E02091F100FC01D1
:101DE0002193CF01F2E087379F07B9F78091700206
:101DF000833009F470C0B8F4813009F447C08230F0
:101E000009F4B1C08091E80083FF7EC280916F0227
:101E1000909170029A3008F077C2E92FF0E0E75F06
:101E2000FD4D0C945D218A3009F48CC08B3009F48F
:101E30006FC0893039F780916F02813219F7809134
:101E40007302909174020297E8F68091E800877F10
:101E50008093E8008091E80082FF38C09091F30001
:101E60008091F200029731F48091F100813011F0FD
:101E7000863021F48091F100809362028091E80025
:101E80008B778093E8000E94FE02BCCF80916F02A6
:101E9000813A09F0B7CF8091E800877F8093E8000E
:101EA0008091730290917402892B61F468E083E65B
:101EB00092E070E00E94AA038091E8008B77809303
:101EC000E800A0CF60E090E080E0F3CF80916D0269
:101ED0008111C0CF97CF80916F02813A09F092CFE4
:101EE0008091730290917402892B09F08BCF8091BD
:101EF000E800877F8093E8008091E80080FFFCCFB6
:101F000080913B018093F1008091E8008E77B9CFFA
:101F100080916F02813209F075CF809173029091A8
:101F20007402892B09F06ECF8091E800877F80933F
:101F3000E8000E94FE028091710280933B010E94A2
:101F4000CF0E60CF80916F02813209F05BCF80911C
:101F5000E800877F8093E8000E94FE028091720271
:101F6000809361024FCF80916F02813A09F04ACF8E
:101F70008091E800877F8093E8008091E80080FFEF
:101F8000FCCF80916102BECF803899F0823809F091
:101F9000BBC1809173028F70873008F0B5C1809308
:101FA000E9008091EB0085FB882780F91092E90019
:101FB00006C080916B0290916C02911182609091A9
:101FC000E800977F9093E8008093F1001092F10071
:101FD0008091E8008E7794C1882309F482C1823011
:101FE00009F092C180917102811185C180917302C3
:101FF0008F702FEF280F263008F086C18093E900FC
:102000002091EB0020FF77C1933031F48091EB00F9
:1020100080628093EB006FC19091EB009061909390
:10202000EB0021E030E001C0220F8A95EAF720930F
:10203000EA001092EA008091EB008860EACF8111FB
:1020400063C1109171021F778091E3008078812B2A
:102050008093E3008091E800877F8093E8000E94EE
:10206000FE028091E80080FFFCCF8091E300806851
:102070008093E30082E0111183E080936D0244C1FC
:102080008058823008F040C18091710290917202B4
:102090008C3D23E09207A1F583E08A838AE289835D
:1020A0004FB7F894DE01139620E03EE051E2E32FB3
:1020B000F0E050935700E49120FF03C0E295EF70E9
:1020C0003F5FEF708E2F90E0EA30C0F0C7968D939F
:1020D0009D932F5F243159F74FBF8091E800877F90
:1020E0008093E8006AE270E0CE0101960E94AA03A4
:1020F0008091E8008B778093E80006C1C096E7CF17
:102100004091730250917402292F332723303105F7
:1021100009F444C078F52130310509F46FC08BE330
:1021200090E0E2E6F4E02230310509F0EDC02091C4
:10213000E800277F2093E800209175023091760215
:102140008217930708F49C0140E02115310509F03E
:1021500064C0411162C08091E80082FDC9CF8091C6
:102160006D02882329F2853019F28091E80083FFFF
:10217000F2CFBECF21323105A9F12232310509F06B
:10218000C3C04115510509F443C04130510509F060
:10219000BBC082E390E0ECEEF3E0C9CF9927813039
:1021A0009105C1F0009759F0029709F0ADC0EFEA30
:1021B000F4E0E4918E2F90E0EFEAF4E007C0EBED5D
:1021C000F4E0E4918E2F90E0EBEDF4E0009709F459
:1021D0009BC0ADCFE9ECF4E0E4918E2F90E0E9EC08
:1021E000F4E0F4CF4115510571F04130510509F08B
:1021F0008BC089E090E0EDE8F4E099CF82E190E0D7
:10220000EDE9F4E094CF89E090E0E4E7F4E08FCFEB
:1022100084E490E0EEE1F4E08ACF80916D028823BF
:1022200009F466CF853009F463CF8091E80083FD1F
:102230005FCF8091E80082FD8ECF8091E80080FF23
:1022400084CF9091F3008091F2002115310519F0AF
:102250008830910550F041E0089709F040E0809106
:10226000E8008E778093E80070CF44914093F100AE
:102270003196215031090196E8CF803809F044C0E9
:102280008091E800877F8093E80080916E028093C0
:10229000F1009ECE811138C0109171021230A0F56C
:1022A0008091E800877F8093E80010936E020E947F
:1022B000FE02112311F084E005C08091E30087FD48
:1022C000FACF81E080936D0242E061EC81E00E94F0
:1022D0001D0342E261EC82E00E941D0380916D02C9
:1022E00013C080917102813079F481E0933009F05C
:1022F00080E080936C021092E9008091E800877F73
:102300008093E8000E94FE028091E80083FF0AC0EB
:102310008091E800877F8093E8008091EB008062E5
:102320008093EB00AA96E3E00C9429210E94CF0E43
:102330002FEF84E39CE0215080409040E1F700C003
:10234000000088E19AE00FB6F894A89580936000A9
:102350000FBE90936000FFCF882321F00E940907F1
:102360000E94920E0895882339F09091D201982B03
:102370009093D2010E94920E0895882391F19CEFD0
:10238000980F913A80F4E0EAF1E026EA31E0919189
:10239000891303C0DF0111971C922E173F07B9F76D
:1023A0000E94920E089590E2980F983050F4877032
:1023B00091E001C0990F8A95EAF7892F0E940907D9
:1023C000EFCF9BE5980F933028F490E080E00E94D7
:1023D00072040895885A8B3120F490E080E00E94C6
:1023E0004D040895CF93C82F8823B1F08CEF8C0F44
:1023F000813A00F5E0EAF1E086EA91E0DF012D9113
:10240000C21761F08A179B07D1F76C2F8EE991E014
:102410000E9433040E94920ECF9108952191C2131D
:1024200003C0DF0111971C928E179F07B9F70E9416
:10243000920EEBCF80E28C0F883068F4C77021E0F9
:1024400030E001C0220FCA95EAF78091D201822BB9
:102450008093D201DFCFEBE5EC0FE33040F4F0E006
:10246000E45CFE4F808190E00E947204D5CFC85A90
:10247000CB3190F6EC2FF0E0EE0FFF1FE15CFE4F4A
:10248000808191810E944D04C7CF1F93CF93DF932A
:10249000182FEB010E94F211209739F4812F0E942E
:1024A000BD11DF91CF911F9108958FE99FE00197B2
:1024B000F1F700C000002197EFCF0F931F93CF9348
:1024C000DF93C62FD42F022FFC0185818823A9F02A
:1024D0006093B3020E9427049093B2028093B102EA
:1024E000C77081E001C0880FCA95EAF70E94B31156
:1024F000DF91CF911F910F9108958091B3026813DE
:1025000034C08091B1029091B2020E940C04883CC8
:10251000910558F510E21D0FCD17B9F080E28C0F30
:10252000883040F4C77081E001C0880FCA95EAF78F
:102530000E94AC11183048F481E09D2F977001C0C3
:10254000880F9A95EAF70E94B31170E060E0802F3F
:102550000E944512183060F6D77081E001C0880FE4
:10256000DA95EAF70E94AC11C3CFC77081E001C0D1
:10257000880FCA95EAF7F6CFA1E0B0E0E2ECF2E10D
:102580000C940821EE24E394F12C08EF11E09E0155
:102590002F5F3F4F4AEE51E063E082E00E94E40B80
:1025A000D82E882321F1E12C80E01AC0009112027C
:1025B0000E0D10E00B5C1D4FE1E0F0E0EC0FFD1F95
:1025C000EE0DF11DF080F8019081F91ACF2C1C144A
:1025D0009CF09F2DF7FC90E0F91AF11019C0E394DC
:1025E00090911102E91610F381110E945B098D2D63
:1025F0002196E8E00C942421CA94F80180818F5F31
:1026000080836AE070E08AEA0E9445128D2DDFCF58
:10261000F394F8018081815080836AE070E089EA58
:102620000E9445128D2DD9CFA8E0B0E0EAE1F3E198
:102630000C940E2166EE7EEF90E080E00E94DB219C
:1026400060E082E090E00E94BD2160E083E090E0E5
:102650000E94BD211092D4011092D30160E074E178
:1026600084E090E00E94DB2160E086E090E00E9440
:10267000BD216FEF87E090E00E94BD2140E050E077
:10268000BA0188E090E00E94CF2160E084E290E00F
:102690000E94BD2160E087E190E00E94BD2160E0E2
:1026A0008CE090E00E94BD2160E08DE090E00E940F
:1026B000BD2119821A821B821C821D821E821F82EA
:1026C000188648E050E068E170E0CE0101960E9473
:1026D000AD2140E050E0BA0180E290E00E94CF21BD
:1026E00040E050E0BA018FE090E00E94CF2140E04E
:1026F00050E0BA0183E190E00E94CF212896E2E009
:102700000C942A219091200292FB222720F928176D
:1027100079F080FB92F99093200260911F027091F2
:10272000200284E090E00E94DB2182E00E94DB072F
:102730000895B0E0A0E0EFE9F3E10C9406218C01EC
:10274000FC018481882341F121E040815181628133
:10275000738195810E942A08EC01FC01E851FC4735
:10276000E730F105A8F5ED5EFD4D0C945D2126E204
:1027700041EE61EEC8010E945D128091C701877031
:1027800059F0F8018581882339F08091200282FF79
:1027900003C082E00E94DB07CDB7DEB7EAE00C940D
:1027A000222127E245EE65EEE5CF26E241EE60EE1E
:1027B000E1CF27E245EE64EEDDCF26E241EE62EEA8
:1027C000D9CF27E245EE66EED5CF28E241E0EBCF48
:1027D000F8018581882309F4DEC31092B302CE018B
:1027E0009057839708F0C1C384E090E00E94A7212E
:1027F0009093200280931F02FE01E150F047E232E5
:10280000F10520F4E65EFD4D0C945D2180911F02E0
:10281000816080931F0295C0809120028860809320
:1028200020028FC080911F028260F3CF80911F022F
:102830008460EFCF80911F028860EBCF80912002EF
:102840008160EDCF809120028260E9CF80911F02EC
:102850008061DFCF80911F028062DBCF80911F02F9
:102860008064D7CF0E94CF0E80911F028068D1CFA5
:1028700080911F028C60CDCF809120028360CFCFEA
:1028800080911F028E7FC5CF80912002877FC7CFA6
:1028900080911F028D7FBDCF80911F028B7FB9CFAA
:1028A00080911F02877FB5CF809120028E7FB7CFA6
:1028B000809120028D7FB3CF80911F028F7EA9CFA0
:1028C00080911F028F7DA5CF80911F028F7BA1CFAA
:1028D0000E94CF0E80911F028F779BCF80911F02A5
:1028E000837F97CF809120028C7F99CF80911F02A8
:1028F00082FB992790F921E0922790FB82F990FBC7
:1029000083F987CF80912002982F909591708E7FC8
:10291000892B90FB81F983CF90911F02892F8F7BA8
:1029200096FF806476CF0E94CF0E90911F02892F70
:1029300097FB87F980586DCF61E08EE090E00E94B0
:10294000BD2160911F027091200284E090E00E94FE
:10295000DB210E94CF0E11CF60E0EFCF90911F02DC
:10296000892F8F7E94FF806154CF90911F02892F11
:102970008E7F90FF81604DCF90912002892F877FBD
:1029800093FF88604CCF85E30FC380914D0280FF99
:102990001CC0282F2E7F20934D0230914E02409173
:1029A0004F025091500260915102709152028091F9
:1029B0005302909154020E945E098091400281600E
:1029C000809340020E94A508D8CE816080934D027A
:1029D00061E086950E94D70AD0CE40E05BE06AE0D5
:1029E0007BE00E94AD04C9CE4AE05BE060E07BE0A2
:1029F000F8CF4FE85AE069E97AE0F3CF49E95AE0C5
:102A00006FE87AE0EECF45E75AE062E87AE0E9CF96
:102A100042E85AE065E77AE0E4CF4BE55AE068E641
:102A20007AE0DFCF48E65AE06BE57AE0DACF43EAB6
:102A30005AE06DEB7AE0D5CF4DEB5AE063EA7AE0ED
:102A4000D0CF61E081E0C6CF0E94CF0EFFEF24E33C
:102A50003CE0F15020403040E1F700C0000087E743
:102A600097E7909301088093000888E19AE00FB6F9
:102A7000F894A895809360000FBE90936000FFCFFC
:102A80006FEF7FEF90E080E00E94DB210E949611C3
:102A90008091200282FB882780F991E089270E949B
:102AA0008213F8018581C081D181882309F44AC04D
:102AB000CE010E941A07F82E682FCE010E948E07C1
:102AC000BE018F2D0E94CC050E94EB05D82FC92F87
:102AD000A82EF801C580B680B2943FE0B322809161
:102AE000C7018770F1F0EC2CCC20E1F0892F807FBA
:102AF000803451F080E28D0F883098F0B11004C01E
:102B0000892F807E803269F08091200282FF09C087
:102B100082E00E94DB078091C7018770EE24E39476
:102B20008111E12CDC2ED2942FE0D222FBE0FD15A6
:102B300008F46DC0ED2DF0E0E45CFD4D0C945D21DA
:102B400080E0ADCFCE010E945B07F82EB9CF2C2FCD
:102B50002F70F22EC07F19F0F29490EFF922CC2062
:102B6000B9F0FF2069F080E28D0F883010F0A110DD
:102B700009C08091D201F82AF092D2010E94920EEF
:102B80008D2F43C08091D101F82AF092D101F6CF68
:102B90008D2F0E94BD11FF20D1F1D05ED83010F0F2
:102BA000A11004C08F2D0E94090706C0F0948091E7
:102BB000D101F822F092D1010E94920E28C03C2F40
:102BC0003F70F32EC07FC03219F0F29480EFF822EC
:102BD000AA2059F081E0A81609F479C0CC2009F4A4
:102BE00085C0BB2009F447C0CBCF8091200282FD75
:102BF0003EC0CC20B1F1FF2039F08091D201F82AFB
:102C0000F092D2010E94920E80E00E94F2112D2DCE
:102C10002850330B2430310510F40E943009EE2087
:102C2000A9F08091C70180FD11C0F8011582869539
:102C3000869586950E94F207C8010E94991380919B
:102C4000C7018695869586950E94C90720E0F80100
:102C50004081518162817381848195810E942A081B
:102C60009BCD80E00E94BD11FF2089F29BCFCC203C
:102C7000A1F0B11004C08F2D0E94B311C8CF91E014
:102C8000B912C5CF8091D0019F2D9823F91609F470
:102C9000BECFF82AF092D001BACFB110B8CF8F2DA5
:102CA0000E94AC119091D0018F2D892329F08F2D96
:102CB000809589238093D0018091A7019F2D98232F
:102CC00009F4A5CFF094F822F092A701A0CFCC2070
:102CD00029F0E5E0EB1508F49ACFCDCFF4E0FB1531
:102CE00008F495CF8F2D0E94AC1191CFBB20D1F36A
:102CF00029E3A21209C03FEF87EE93E031508040F4
:102D00009040E1F700C000008D2F0E94BD117FCFE1
:102D10008C2F86958695837069F0813009F077CF86
:102D20008D2F9C2F9370C11002C080E090E00E9414
:102D30004D046DCF8D2F9C2F9370C11002C080E089
:102D400090E00E94720463CF8C2F837009F03FC023
:102D5000C1105DCF4D2F429546954770440F440FEB
:102D60002D2F2F7030E0042E02C0220F331F0A9443
:102D7000E2F790E080E0D4FF09C08FE090E002C06D
:102D8000880F991F4A95E2F780959095C695C6954C
:102D9000C370C23099F078F44091D3015091D401BE
:102DA000C13039F0822B932B842395230E94020893
:102DB0002ECF242B352B822B932BF8CF822B932BCA
:102DC0002091D3013091D40182279327EFCF8695AC
:102DD000CC2011F08C2F8170882309F418CF4D2F4F
:102DE000429546954770440F440F2D2F2F7030E0C9
:102DF000042E02C0220F331F0A94E2F790E080E015
:102E0000D4FF09C08FE090E002C0880F991F4A9557
:102E1000E2F780959095C695C695C370C23099F03B
:102E200078F440911D0250911E02C13039F0822B7E
:102E3000932B842395230E94C407E9CE242B352BA2
:102E4000822B932BF8CF822B932B20911D02309154
:102E50001E0282279327EFCFCF70CC2029F08C2F32
:102E60000E94F2078D2F08CF8D2F0E94AC118C2F5E
:102E70000E94C907CCCE8D2FE2EFAE1699F1EA156C
:102E800070F0F0EFAF16D1F021EFA21691F0CC2048
:102E900009F45BC0B11074CE8C2F8F7127C033EF53
:102EA000A31639F194EFA912F2CF8091200282FD8E
:102EB0002EC08C2F8F71CC20D9F218C0CC2069F095
:102EC000E4E0EB1508F4A3CECF7181E090E002C0FE
:102ED000880F991FCA95E2F7B8CFF5E0FB1508F403
:102EE00096CEF2CF8C2F8F71C110C2CF0E94F20705
:102EF0008ECE90E080E0CC2009F49DCFCF7181E0B0
:102F000090E002C0880F991FCA95E2F794CFCC20B9
:102F100089F0CF718C2F0E94F2078091200282FFEE
:102F200007C028E0C29FC001112483608093C701BD
:102F30008C2FDCCF81E00E94DB0731E03B1508F0ED
:102F400066CE82E00E94DB0762CEBB2059F0893357
:102F500009F0DACE8FEF97EEE3E081509040E04049
:102F6000E1F7D0CE8C2F8F7183CFC631FCE7DF071E
:102F700049F58091D2018A7A91E009F490E090932A
:102F8000A60169E2811165E38EE991E00E943304B4
:102F90000E94920EF2CBC6312CE7D20799F58091B0
:102FA000A6018111F0CC89E2E0EAF1E026EA31E005
:102FB0009191891303C0DF0111971C922E173F07CF
:102FC000B9F7E6CFC3303CE7D30709F459CD50F445
:102FD000C1159CE7D90709F437CDC130DC4709F4A6
:102FE00055CD5FCDCB35FCE7DF0709F4A9CDCC3556
:102FF0002CE7D20709F44CCDCA35DC4709F051CD96
:1030000081E04DCD8091D2018272FE01E052F847FD
:10301000E531F10508F045CDE85BFD4D0C945D21EF
:10302000CF93DF938091C601807F09F04DC08091DE
:10303000C501882309F448C0E091B002509177029D
:10304000C091C101D091C0016091C2017091C301D2
:1030500047E05E17C9F18E2F90E0E49FF001112444
:10306000E858FD4F2481222391F1489FF001499FA8
:10307000F00D1124DF01A858BD4F11962C91119726
:103080002C1325C02C912D1322C015962C91159729
:1030900021111DC012962D913C91261B370B283C07
:1030A0003105A8F48091C6018F7080618093C601BC
:1030B000E258FD4F80818F708061808380EC91E0C9
:1030C0000E9499130E941007DF91CF910895FC018F
:1030D0003196E770BECFA4E1B0E0E1E7F8E10C94EF
:1030E00004218C0186E0F801DE011F9601900D920B
:1030F0008A95E1F7F8018481E58090ECA92E91E0B2
:10310000B92E9091C401911128C0882319F1EE20A5
:10311000F1F0C8010E940708F82E8823C1F087E06B
:10312000F801D50101900D928A95E1F78091C401D3
:10313000813031F48091C0019091C1010E944E070D
:103140000E9410188F2D6496ECE00C942021C80189
:103150000E949913FF24F394F5CFD080C180828020
:103160009380F090C5012091C2013091C301A40168
:10317000421B530BFF2009F4D9C0483C510508F00D
:1031800092C08823F9F29091C1018091C601282F45
:10319000207F09F056C0C91214C09091C001D91205
:1031A00010C0E11048C08F7080618093C60180EC30
:1031B00091E00E9499138091C601F8018683F12C59
:1031C000C1CFE11038C06C2D8D2D0E948F026C2D67
:1031D0008D2D0E948F02E82E8111F1CFDF86C88AE3
:1031E0008F8598890E944E07292F22952F702430B1
:1031F00058F49F70223088F0992399F0F801968155
:10320000907F79F4FE2C9ECF2A5F2F70223068F0D9
:10321000C8010E949913EF2CF5CF992311F0882350
:1032200089F3805E883070F3F3CF803F58F3815F7D
:10323000833070F7E7CF8091C60181608093C6012B
:10324000BECFC91207C09091C001D91203C0EE20B1
:1032500009F48DC0C8010E940708882309F477CFBC
:10326000EE2009F474CF8091C601803288F020915D
:10327000C0013091C101398728879B868A86909149
:10328000C4019C871D868E87CE0108960E949913E3
:1032900087E0F801A0ECB1E001900D928A95E1F78A
:1032A0000E94101857CF9091C601292F207F51F40A
:1032B00080EC91E00E94991387E0F50111928A95C4
:1032C000E9F77DCF882309F43DCF8091C1018C11AE
:1032D00010C08091C001D8120CC0E1100AC09683C2
:1032E000C8010E94991387E0F50111928A95E9F7C8
:1032F00029CFC8010E940708882309F428CFEE20AF
:1033000009F425CF8091C601803210F22091C001CE
:103310003091C1013A8329839C828B829091C401B0
:103320009D831E828F83CE010196B0CF483C51050C
:10333000D0F6882309F40ECFFE2CEE2009F407CF37
:103340008091C1018C1120C08091C001D8121CC095
:103350008091C60180FD0FC0982F907F61F0868319
:10336000903F31F0982F907F905F8F70892B8683EC
:10337000C8010E94991387E0F801A0ECB1E0019028
:103380000D928A95E1F7DECEC8010E9407088111EF
:103390007FCF8091C60181608093C601C8010E94E1
:1033A0009913D0CEABE1B0E0E8EDF9E10C940C213B
:1033B0004E8B5F8B688F798F8A8F9B8F192F91111E
:1033C0001092D1011D8A86E0FE017696DE011F96DD
:1033D00001900D928A95E1F70A8D002341F021E0DA
:1033E0004F85588969897A89C8010E942A080B8B00
:1033F0001C8B87E0FE013F96DE01189601900D922E
:103400008A95E1F7CE0108960E946B1881110CC0D5
:1034100087E0FE013896DE01119601900D928A95A3
:10342000E1F78C8581110BC017E08091B00290917B
:103430007702891331C06B96E4E00C942821209127
:10344000770230E0C9010196877099274091B00258
:103450004817190699F097E0929FD001939FB00DFD
:103460001124A858BD4FFE01319601900D929A95F6
:10347000E1F7809377020E941007D6CF0E94CF0E0B
:10348000109277021092B00287E0E0ECF1E0DF01E9
:103490001D928A95E9F7C8CF819FC00111248858F1
:1034A0009D4F0E946B18882331F28091B00290E00A
:1034B0000196877099278093B002B7CFA6E0B0E05D
:1034C000E4E6FAE10C940C210E9427048C0180911F
:1034D000D5019091D6018017910781F019821A8247
:1034E0000E942704682F49815A81792F80E090E05B
:1034F0000E94D2191093D6010093D5012696E4E0DC
:103500000C9428211F920F920FB60F9211242F9323
:103510003F934F935F936F937F938F939F93AF935B
:10352000BF93CF93DF93EF93FF93D091E900DF70C8
:103530008091EC00C82FC17080FDC0E81092E900B6
:103540008091F000877F8093F00078940E94E50ED0
:103550001092E9008091F00088608093F000CD2BFC
:10356000CF70C093E900FF91EF91DF91CF91BF91B0
:10357000AF919F918F917F916F915F914F913F910B
:103580002F910F900FBE0F901F9018951F920F92C2
:103590000FB60F9211242F933F934F935F936F9326
:1035A0007F938F939F93AF93BF93EF93FF938091FC
:1035B000E10082FF09C08091E20082FF05C0809196
:1035C000E1008B7F8093E1008091DA0080FF24C0CE
:1035D0008091D80080FF20C08091DA008E7F809398
:1035E000DA008091D90080FF9DC080E189BD82E131
:1035F00089BD09B400FEFDCF81E080936D0280910A
:103600006002811109C00E94AE020E944F038091A6
:10361000E20084608093E2008091E10080FF17C0A7
:103620008091E20080FF13C08091E2008E7F809342
:10363000E2008091E20080618093E2008091D800F6
:1036400080628093D80019BC85E080936D028091E0
:10365000E10084FF2BC08091E20084FF27C080E15D
:1036600089BD82E189BD89B5982F917080FFFBCF1C
:103670008091D8008F7D8093D8008091E1008F7E6B
:103680008093E1008091E2008F7E8093E200809140
:10369000E20081608093E20080916E02882309F449
:1036A00047C084E080936D0280916D028091E100BB
:1036B00083FF27C08091E20083FF23C08091E10057
:1036C000877F8093E10082E080936D0210926E020A
:1036D0008091E1008E7F8093E1008091E2008E7FF7
:1036E0008093E2008091E20080618093E20042E0FA
:1036F00060E080E00E941D038091F000886080936C
:10370000F000FF91EF91BF91AF919F918F917F91C9
:103710006F915F914F913F912F910F900FBE0F903E
:103720001F90189519BC10926D021092600274CF10
:103730008091E30087FD93E090936D02B5CF78947C
:103740001F921FB61F9211248F939F93AF93BF9325
:1037500080915C0290915D02A0915E02B0915F0247
:103760000196A11DB11D80935C0290935D02A09310
:103770005E02B0935F02BF91AF919F918F911F90B6
:103780001FBE1F9018951F921FB61F9211248F9372
:103790009F93AF93BF9380915B02811113C080917F
:1037A0005C0290915D02A0915E02B0915F02419631
:1037B000A11DB11D80935C0290935D02A0935E02F7
:1037C000B0935F02BF91AF919F918F911F901FBEE9
:1037D0001F90189500D000D000D0CDB7DEB785B7C8
:1037E000806885BF85B7806885BF84B7877F84BFC1
:1037F0000FB6F894A895809160008861809360006E
:10380000109260000FBE80E890E00FB6F8948093AD
:103810006100909361000FBE82EC94E090939D0153
:1038200080939C010E94AE020E944F038091E200AF
:1038300084608093E200789480916D028823A1F0E7
:103840001091E9001F709091EC00892F817090FD1C
:1038500080E8182B1092E9008091E80083FD0E9417
:10386000E50E1F701093E90082E084BD93E095BDE2
:103870009AEF97BD80936E0010920D0210920E0287
:1038800010920F021092100290E080E00E94A72197
:10389000863E9E4F11F00E9414138EE090E00E942D
:1038A000992191E0811101C090E0909330010E9434
:1038B0000D0981110E949C1F9091300181E0982791
:1038C00090933902A82FA91BA09312029091300166
:1038D00080933A02909130018093110280913001DF
:1038E000811106C084EF80933A0185EF80933901FE
:1038F00020913A01E22FE295EF70F0E061A12F7084
:1039000081E090E0AC0101C0440F2A95EAF7342F22
:103910003095362331A322A1242B22A320913901F3
:10392000E22FE295EF70F0E031A12F7001C0880F17
:103930002A95EAF7982F9095932391A392A1892B2A
:1039400082A38FE891E00197F1F700C00000109189
:103950003A026BE372E04AE351E089E3E82E81E04A
:10396000F82EFB0128C0DA012D91AD01822F82953E
:103970008F7090E0DC0190968C9190E02F7002C0E7
:10398000959587952A95E2F78170D7019D917D01E4
:10399000292F22952F7030E0D90190962C9130E09C
:1039A0009F7002C0359527959A95E2F790E020FD2B
:1039B00092E0892B81938E2F861B8117A0F2809134
:1039C00030018091300194E0811190E090931C02CD
:1039D00084E0891B80931B0286E60E94C40487E969
:1039E0000E94C40486EC0E94C40485E30E94C404BF
:1039F0000BE711E0F80181918F018F3F11F00E94D8
:103A0000C404F1E001381F07A9F788E0E4E2F2E01E
:103A1000DF01282F1D922A95E9F7E3E1F2E0DF01AB
:103A20001D928A95E9F790E080E00E94A721863EEA
:103A30009E4F11F00E94141382E090E00E949921A1
:103A400080932C0284E090E00E94A72190932002B2
:103A500080931F0283E090E00E94992190E00E94F1
:103A6000020880912102811179C090E080E00E94DB
:103A7000A721863E9E4F21F00E9414130E940F0B37
:103A800088E090E00E94A1214B015C0184E290E07B
:103A90000E949921282F30E040E050E060E070E083
:103AA00080E090E000E20E946321282939294A2918
:103AB0005B2920934D0230934E0240934F02509366
:103AC000500260935102709352028093530290937C
:103AD0005402809140028360809340022E7F89F5DA
:103AE0000E940F0B88E090E00E94A1216B017C01F5
:103AF00084E290E00E949921282F30E040E050E0DD
:103B000060E070E080E090E00E946321B22FA32F7C
:103B1000F42FE52F5B0197018601BC29A12BFE291B
:103B2000E32BB0934D02A0934E02F0934F02E0932B
:103B3000500260935102B0925202809353029093CC
:103B400054020E94B30480914D0280FF04C060E0E3
:103B500086950E94D70A81E0809321020E940D0978
:103B6000811102C00E949F1F81E391E0909358024F
:103B70008093570258E1A52EB12C45E3842E42E0F4
:103B8000942E80916D0200E112E1853009F4ABC002
:103B90000E94BD0C0DE212E024E2E22E22E0F22EA1
:103BA00031E8C32E31E0D32EB6019701F80191918F
:103BB000D9018D919D01DB014D91BD0184238E16AC
:103BC0009F0609F4AAC0981791F30E940D09282EA8
:103BD000612CF70171907F01D6018D916D017822E2
:103BE000F80131908F01371431F13724512C4424DE
:103BF0004394842D8321B9F02220A9F059826A824E
:103C00000E9427049C838B83F1E0FD8391E0842D47
:103C1000872109F490E09E8349815A816B817C81E0
:103C20008D810E94D2195394440C26E05212E1CFA8
:103C3000F80131977082639488E06812CACF0E94BD
:103C400041096FC080916D02843009F439C08091C0
:103C50002302811113C0F1E0F093230280914D0201
:103C6000982F9170909322028E7F80934D028091C5
:103C700040028160809340020E94A50810925B027E
:103C800020E40FB6F894A895A09260000FBE209390
:103C9000600083B7817F846083BF83B7816083BF07
:103CA0007894889583B78E7F83BF0FB6F894A895D4
:103CB00080916000886180936000109260000FBE68
:103CC00080916C02882379F00E94BD0CE4E2F2E05E
:103CD000A1E8B1E081919D91892309F0BDC082E006
:103CE000EC32F807B9F780916D02853009F4AACF5C
:103CF0000E94CF0E0E94300910922302809122026E
:103D0000882309F445CF80914D02816080934D0254
:103D100060E086950E94D70A3BCF981356CF0E9449
:103D20005E1A0E940D09C12C712C94E0E92EF12C31
:103D300080913A02C81678F071100E945B090E94C7
:103D4000300990913D02891709F41BCF80933D0201
:103D50000E941B0412CF0C2D10E0F801E65CFE4F10
:103D60008081E82FE295EF70F0E0E0A1F0E08F7045
:103D700002C0F595E7958A95E2F7E170D801A75C56
:103D8000BE4F2C91A22FA295AF70B0E090968C916F
:103D900090E02F7002C0959587952A95E2F780FDF7
:103DA00053C080E08E2BD801A55CBD4FEC919E2FB7
:103DB0009370891709F446C0EE0FEE0FE82BEC93D1
:103DC000D0903902DC0CEF70F0E0E757FE4F095C51
:103DD0001D4F8081D8019C91890F8C93612C843078
:103DE0008CF0ED2DF0E0EB5CFD4F80818F5F8083E8
:103DF0000E940D09682E882349F16AE070E08AEA82
:103E00000E944512F80180818D3F8CF4ED2DF0E089
:103E1000EB5CFD4F8081815080830E940D09682EEC
:103E20008823B9F06AE070E089EA0E944512D8015F
:103E30008C91082E000C990BB7010E944921F801C2
:103E400080837628C39474CF82E0ACCF66246394D9
:103E5000D9CF66246394EBCF09BD19BD09B400FE28
:103E6000FDCF8091D8008F7D8093D8008091E000B5
:103E700082608093E0008091E00081FDFCCF0E9491
:103E8000CF0E31CF8EE14A9B02C08150E1F74A9BB1
:103E9000FECF08955A9880E28A95F1F75A9A0895CC
:103EA000FC013BE03A95F1F798E020E080E031E05A
:103EB00040E14A95F1F7880F4A9B02C081602327B1
:103EC00042E04A95F1F7000040E14A95F1F7915040
:103ED00079F790E19A95F1F799B132E03A95F1F7D7
:103EE000000040E14A95F1F792FB992790F992275B
:103EF0002081920F90830895A1E0B0E0E2E8FFE115
:103F00000C940A2119828C017C01E60EF11C0E151D
:103F10001F0541F481E09981911180E02196E6E04E
:103F20000C9426210E94421FCE0101960E94501F30
:103F3000F80181938F01EBCF529A5A9A08955298C3
:103F40005A9AEA9AE9E6F0E080818F7C80830895AE
:103F50006150770B91E001C0990F6A95EAF720E074
:103F600031E0911108C0222391F05A9A80E28A959B
:103F7000F1F75A980895492F482339F05A9A232780
:103F800040E24A95F1F79695ECCF5A98F9CF5A98B6
:103F9000EDCFFF920F931F93CF93DF93EC018C0132
:103FA000060F111DC017D10729F4CDB7DEB7E5E024
:103FB0000C942721F9900E944A1F68E08F2D0E94DF
:103FC000A81FF0CF1F920F920FB60F9211240F93DC
:103FD0001F932F933F934F935F936F937F938F9391
:103FE0009F93AF93BF93EF93FF93CF93DF930F9282
:103FF000CDB7DEB719820E94421FCE0101960E9402
:10400000501F082F069506950695282F2295257096
:10401000902F9570290F922F937026952695920FC9
:10402000982797708981982B09F05CC0073008F0B9
:1040300059C080E18A95F1F75A9A529A82E08A959E
:10404000F1F700C05A9888E0089F80011124D80138
:10405000A050BF4F1696ED91FC9117973097A9F09D
:10406000609175017091760114962D913C91159790
:10407000260F371F11968D919C911297680F791F0B
:1040800013964C9113978C910995F801E050FF4FCE
:104090006381662351F0209175013091760184810E
:1040A0009581820F931F0E94C91F0E944A1F80E1C1
:1040B0008A95F1F75A9852985A9A80E18A95F1F7C1
:1040C000F801E050FF4F6081662351F020917501A7
:1040D0003091760181819281820F931F0E947C1F13
:1040E0000E94421F0F90DF91CF91FF91EF91BF91FE
:1040F000AF919F918F917F916F915F914F913F9180
:104100002F911F910F910F900FBE0F901F90189538
:104110000F931F93CF93DF93EC0107970CF04CC0E4
:10412000F894529A5A9885E08A95F1F700009C2FEE
:10413000969595708C2F8570980F892F8370969522
:10414000969523E0CC0FDD1F2A95E1F7980F8E019D
:10415000092B0E944A1F00C068E0802F0E94A81F00
:1041600080E18A95F1F752985A9A4A9B1EC087E0DF
:1041700090E04A991CC0FE01E050FF4F6381662326
:10418000F9F0209175013091760184819581820F3B
:10419000931F0E947C1F811113C0529A5A9A7894DF
:1041A000DF91CF911F910F91089500C0DECF01974D
:1041B00029F4529A5A9A789480E0F2CF00C0D9CF6D
:1041C0000E94421F80E28A95F1F75A98529A80E144
:1041D0008A95F1F7C050DF4F6881662351F0209136
:1041E00075013091760189819A81820F931F0E9417
:1041F000C91F0E944A1F789481E0D2CF2F923F922C
:104200004F925F926F927F928F929F92AF92BF92E6
:10421000CF92DF92EF92FF920F931F93CF93DF9392
:10422000CDB7DEB7CA1BDB0B0FB6F894DEBF0FBEEF
:10423000CDBF09942A88398848885F846E847D843C
:104240008C849B84AA84B984C884DF80EE80FD803E
:104250000C811B81AA81B981CE0FD11D0FB6F894B4
:10426000DEBF0FBECDBFED010895AA1BBB1B51E100
:1042700007C0AA1FBB1FA617B70710F0A61BB70BD6
:10428000881F991F5A95A9F780959095BC01CD017B
:10429000089597FB072E16F4009407D077FD09D0F8
:1042A0000E94352107FC05D03EF4909581959F4FE3
:1042B0000895709561957F4F0895EE0FFF1F05904B
:1042C000F491E02D0994002E083090F0982F872F5C
:1042D000762F652F542F432F322F22270850F4CFEB
:1042E000220F331F441F551F661F771F881F991FFA
:1042F0000A95B2F7002D089597FD1094002E08300E
:1043000098F00850232F342F452F562F672F782FE2
:10431000892F912DF4CF159497958795779567956B
:1043200057954795379527950A95AAF71124002D9B
:104330000895F999FECF92BD81BDF89A992780B56D
:104340000895A6E1B0E044E050E00C94E321A8E138
:10435000B0E042E050E00C94E321DC01A40FB51F73
:104360004150504048F0CB01840F951F2E910E9480
:10437000BE2141505040D0F70895262FF999FECF25
:1043800092BD81BDF89A019700B4021639F01FBAA8
:1043900020BD0FB6F894FA9AF99A0FBE08950396C5
:1043A000272F0E94BE210E94BD21252F0E94BE21E1
:1043B000242F0C94BE210196272F0E94BE210C941D
:1043C000BD21DC01CB01FC01F999FECF06C0F2BD95
:1043D000E1BDF89A319600B40D9241505040B8F7C3
:1043E0000895FB01DC0104C08D910190801921F436
:1043F00041505040C8F7881B990B0895FB01DC0120
:1044000002C001900D9241505040D8F70895F894A1
:10441000FFCFC40FEC0F8411EC0F84111F1040105C
:1044200084113D114A11D513D913B713D113DD13DC
:10443000E113E5134014B5144814121416144C1467
:104440001A1450145C142614AE142A1460142E147A
:1044500064148C1432146814931438146E14761483
:104460001E145414221458143C14721482149C14F4
:10447000AC140C144414BC14A715A715DF15DF15D4
:104480008816071607160716A4162C173B173B1796
:10449000C514ED14F414F914FE14031508150D15C4
:1044A000121517151C152115BD13BD13BD13BD1312
:0A44B000BD13BD13BD13BD13BD13F2
:1044BA0000000001000000000000000401000000EC
:1044CA0000000001050000000000000106000000D5
:1044DA0004070000000000000B0B000000000000B1
:1044EA00010904910808048A08F4F501818283E22B
:1044FA0000E900EA00B500B600B700CD008301CCA0
:10450A00008A019201940121022302240225022633
:10451A000227022A02B300B4006F0070009F01CB89
:10452A00019F02A002F2016697C635F6F7313332CF
:10453A00363F3F3F3E3F3F3F3E00FF010001000044
:0C454A00FFFF0000010001FF0000010065
:00000001FF
