:100000000C9470020C94A8020C94A8020C94E820A2
:100010000C94A8020C94A8020C94A8020C94A802B8
:100020000C94A8020C94A8020C94B11B0C946D1BA8
:100030000C94AE1C0C94A8020C94A8020C94A80278
:100040000C94A8020C94A8020C94A8020C94A80288
:100050000C94A8020C948A1C0C94A8020C94A8027C
:100060000C94A8020C94A8020C94A8020C94A80268
:100070000C94A8020C94A8020C94A8020C94A80258
:100080000C94A8020C94A8020C94A8020C94A80248
:100090000C94A8020C94A8020C94A8020C94A80238
:1000A0000C94A8020C94A8020C94A8023500140029
:1000B0001A000800150017002B00040016000700A6
:1000C00009000A00E0001D001B00060019000500E1
:1000D0000000E300E200A252235229002A0013008C
:1000E00012000C0018001C00280033000F000E0046
:1000F0000D000B00340038003700360010001100EE
:100100000000E700E2002C002452737C350034002C
:100110003600370013001C002B00040012000800FA
:1001200018000C00E000330014000D000E001B004E
:100130000000E300E200A252235229002A000F002F
:10014000150006000A00090028001600110017001B
:100150000B00070038001D0019001A0010000500F0
:100160000000E700E2002C002452737C35001400EC
:100170001A000900130005002B00040015001600EA
:1001800017000A00E0001D0001000600070019002A
:100190000000E300E200A252235229002A003300AB
:1001A0001C0018000F000D00280012000C000800B1
:1001B0001100100034003800370036000B000E002C
:1001C0000000E700E2002C002452737C06011E00B0
:1001D0001F002000210022001B01E300E200E000DC
:1001E000E100190101003A003B003C003D003E00E7
:1001F000000001000100010001001D0101002700B5
:1002000026002500240023004E004F00510052001C
:1002100050004B00E40043004200410040003F001A
:10022000000001000100010025521C0149001E02CE
:100230001F02200221022202000031002D002E00A8
:100240002F003000010031022D022E022F02300259
:1002500000000100010001002552B4524C002702A9
:1002600026022502240223024D00E700E200E400FA
:10027000E5004A00E4000000AE00A900AA00A800C2
:100280000000010001000100010065000000405273
:100290004152425214701B7000000000BE00BD00AD
:1002A00015701C700000E300E200E000E1000000B7
:1002B000000000000000000001000000037C0000BE
:1002C0004600450044000000000000002578237827
:1002D00027782178007C00002678247828782278F6
:1002E0000000000000000000010020780001010172
:1002F00001010101010102020202020202020203E3
:1003000003030303030303040404040404040505B2
:100310000505050606060606070707070708080875
:1003200008090909090A0A0A0B0B0B0C0C0C0D0D24
:100330000D0E0E0E0F0F0F101011111112121313BC
:100340001414151516161717181819191A1A1B1B35
:100350001C1D1D1E1E1F2020212222232424252691
:1003600026272829292A2B2C2D2D2E2F30313232C9
:10037000333435363738393A3B3C3D3E3F404142D5
:10038000434445464748494A4C4D4E4F50515354BB
:10039000555658595A5B5D5E5F616264656668696F
:1003A0006B6C6D6F7072737577787A7B7D7E8082EF
:1003B000838587888A8C8E8F91939596989A9C9E38
:1003C000A0A2A3A5A7A9ABADAFB1B3B5B7BABCBE48
:1003D000C0C2C4C6C9CBCDCFD1D4D6D8DBDDDFE215
:1003E000E4E7E9EBEEF0F3F5F8FAFDFF050109802B
:1003F000A101850319012AB700150126B70095014F
:1004000075108100C0050C0901A101850419012A9C
:10041000A002150126A002950175108100C00501FA
:100420000906A101050719E029E71500250195082E
:10043000750181029501750881010507190029FFE1
:10044000150026FF00950675088100050819012989
:10045000051500250195057501910295017503911A
:1004600001C009023B00020100A0FA0904000001DA
:100470000301010009211101000122440007058147
:100480000308000109040100010300000009211113
:100490000100012232000705820320000112010041
:1004A00002000000084D4D464801000102000118FD
:1004B00003480069006C006C00730069006400650B
:1004C00000200034003600000010036D006D006352
:1004D0000063006F00790064000000040309040059
:1004E00011241FBECFEFDAE0DEBFCDBF04B603FE9E
:1004F00018C08091B7029091B802A091B902B09152
:10050000BA028730904BA740B04B59F41092B70213
:100510001092B8021092B9021092BA02E0E0F8E329
:10052000099511E0A0E0B1E0E6ECF6E402C0059028
:100530000D92AC39B107D9F722E0ACE9B1E001C0C6
:100540001D92A73BB207E1F70E94D51C0C940D2326
:100550000C940000482F2091B30290917A0257E04A
:10056000291302C080E0089530E0529FF001539FAC
:10057000F00D1124E558FD4F8181681306C080817C
:10058000481303C085818111EECF2F5F3F4F277045
:10059000E7CFE8EDF0E080818E7F80831092E2006B
:1005A0001092DA001092E100A0EEB0E08C91816030
:1005B0008C9380818F77808319BCA7EDB0E08C91FC
:1005C0008E7F8C9380818F7E80831092630208954A
:1005D0002091E4003091E50095E6A9012091EC001E
:1005E000822F817020FF06C08091E80080FF06C046
:1005F00080E008952091E80022FD1AC080917002E9
:10060000882389F0853089F08091EB0085FD0FC04B
:100610002091E4003091E50042175307F9F2915020
:10062000E1F684E0089582E0089583E0089581E092
:1006300008958091720287FF13C08091E80082FFC5
:1006400006C08091E8008B778093E80004C0809119
:1006500070028111F2CF0895809170028823D9F33E
:100660008091E80080FFF8CF8091E8008E77ECCF92
:10067000982F9093E900242F762F50E0891731F0BE
:100680007091EC002091ED005091F00021FD07C029
:100690009F5F973071F78093E90081E00895309172
:1006A000EB003E7F3093EB003091ED003D7F3093C7
:1006B000ED003091EB0031603093EB007093EC0073
:1006C0002093ED005093F0002091EE0027FDE0CF45
:1006D00080E00895B0E0A0E0E0E7F3E00C940E22A3
:1006E000C8EDD0E088818F7E8883E7EDF0E08081DF
:1006F0008160808384E082BF81E08093630288818F
:100700008E7F888302EE10E0F80110821092DA00EA
:1007100081EEC82ED12CF601108288818F778883D4
:1007200088818068888388818F7D888319BC109236
:1007300070021092710210926F0210926E0290EE8F
:10074000E92EF12CF70180818B7F80838881816085
:10075000888342E060E080E00E943803F6018081F7
:100760008E7F8083F80180818160808380818860B2
:100770008083F70180818E7F808388818061888378
:10078000CDB7DEB7E8E00C942A22FC018091780214
:100790009091790286179707A0F06115710529F4E9
:1007A0009091E8009E779093E80090E061157105C4
:1007B00051F4911108C08091E80082FF34C080E0BC
:1007C0000895BC01F2CF809170028823C1F1853079
:1007D000C1F18091E80083FD30C08091E80082FD86
:1007E000EACF8091E80080FFE1CF8091F300209173
:1007F000F200382F6115710519F02830310558F0D5
:1008000091E02830310509F090E02091E8002E7742
:100810002093E800CBCF81918093F1006150710962
:100820002F5F3F4FE7CF80917002882341F08530E2
:1008300041F08091E80083FFBECF81E0089582E01F
:10084000089583E0089508958091650208959C01BC
:100850004FB7F89480915F0290916002A09161027D
:10086000B09162024FBF821B930B08952FB7F8948B
:1008700060915F02709160028091610290916202CA
:100880002FBF08952FB7F89480915F029091600276
:10089000A0916102B09162022FBF08959C01FC01FA
:1008A00032969FEF80E04191461751F09F3F19F437
:1008B000411101C0982F8F5F8630A9F79F3F09F43F
:1008C0000895290F311D97FD3A95F9016283089526
:1008D000A3E0B0E0EEE6F4E00C94142220915C0278
:1008E00030915D0228173907A1F090935D02809343
:1008F0005C02E0915A02F0915B02309751F024E0E3
:1009000029839B838A830680F781E02DCE0101969F
:1009100009952396E2E00C943022A3E0B0E0E3E9ED
:10092000F4E00C94142220915802309159022817B7
:100930003907A1F09093590280935802E0915A022E
:10094000F0915B02309751F023E029839B838A83E7
:100950000680F781E02DCE01019609952396E2E00D
:100960000C943022FC01680F791F8FEF91E32191E5
:10097000822728E030E087FF09C0880F89272150AF
:100980003109C9F7E617F70791F70895880FF7CFF0
:10099000FA01811101C0FB010995089580914E0271
:1009A000982F9E7F39F480914E02817082608093EF
:1009B0004E0208958430B8F7089580E00895F894C1
:1009C000E82FE295EF70F0E031A1282F2F7081E041
:1009D00090E001C0880F2A95EAF7982F909593230D
:1009E00091A392A1892B82A37894089590911E02DD
:1009F00092FF10C041E0282F2471243009F040E01C
:100A000031E0282F2871283009F030E0431711F029
:100A10002CE0822793FF10C041E0282F247124315D
:100A200009F040E031E0282F2871283109F030E04A
:100A3000431711F02CE0822730911F0230FF10C0C5
:100A400051E0282F2171213009F050E041E0282F9A
:100A50002871283009F040E0541711F029E082276E
:100A600031FF10C041E0282F2171213109F040E011
:100A700031E0282F2871283109F030E0431711F0B8
:100A800029E0822794FD877E089582389105B9F187
:100A9000B0F48133910509F47DC048F489329105A1
:100AA00009F46DC08A32910509F47BC0089585333D
:100AB000910509F45FC08933910509F10895833EDA
:100AC0009105D9F138F4803E910529F1823E9105D6
:100AD00079F10895863E9105D9F1873E910509F493
:100AE0003EC0843E910541F520911F0221FF24C0A4
:100AF00080911E0284FD19C087EE90E00895209138
:100B00001E02237009F05AC020911F0223FF14C057
:100B100089E290E0089520911E0220FD38C03091B6
:100B20001F0230FF09C024FF43C090E080E0089519
:100B300020911E0222FDF7CF089520911E0222FD72
:100B40003AC030911F0230FD39C024FFF5CFEDCF00
:100B500020911E0223FFF0CF24FDE7CFCDCF2091BF
:100B60001E0223FD2EC030911F0231FFEECF84EE16
:100B700090E0089520911E0225FFDECFC9CF20917D
:100B80001E0225FD21C020911F0223FFD5CF89E33E
:100B900090E0D2CF20911E0226FFCECF8AE290E0D5
:100BA000089520911E0226FFC7CF81E390E00895AB
:100BB00083EE90E0089582EE90E0089580EE90E05C
:100BC000089586EE90E0089585E390E00895972FCC
:100BD0007830B8F46630A8F48630B0F470E026E0DF
:100BE000929F600D711D1124FB0190E3899FE00D20
:100BF000F11D1124EE0FFF1FE455FF4F85919491D5
:100C0000089580E090E0089581E0FCCF1F93CF939A
:100C1000DF930E944505EC01C11580E5D807F0F58A
:100C2000C11580E4D80708F09CC0C03ED10520F56E
:100C3000CD3CD10508F082C0C83AD10578F4C53A58
:100C4000D10508F073C0C130D10519F1209709F121
:100C5000C430D105F0F4D0E0C0E01BC0C33CD105E6
:100C6000D0F7C85AD0E0CC0FDD1FC15CDE4F099031
:100C7000D881C02DD4640DC0C11580E2D80708F01A
:100C8000D1C0C11581E0D80708F05AC0C83ED105CF
:100C900010F7CE01DF91CF911F910895C03682E504
:100CA000D80718F5C03482E5D80708F06BC0C03209
:100CB00082E5D80708F05FC0C11582E5D80708F4BF
:100CC00097C02C2F2695269580E2289F900111240D
:100CD0008C2F8370C1E0D0E002C0CC0FDD1F8A955D
:100CE000E2F7C22BD32BDD68D4CFC03A82E5D80718
:100CF00060F4C03882E5D80708F459C0CF71D0E05D
:100D0000DC2FCC27C46FD06AC4CFC03C82E5D807A3
:100D100008F462C0C03E82E5D80708F09CCFDC2F03
:100D2000CC27CC27DF71C06FD06AB3CFC55AD0E0D3
:100D3000C45CDE4FC881D0E0D064ABCFD065A9CF12
:100D40008D2F0E94F604182FCE0199270E94450589
:100D5000C12FD0E0DC2FCC27CC27DF71C82BD92BBB
:100D600098CFCE0199270E944505CC27DF70C82B6C
:100D7000D92BD06A8ECFCF71D0E0DC2FCC27C16FBA
:100D8000D06A87CF2C2F26952695277080E2289F42
:100D9000900111248C2F8370C1E0D0E002C0CC0FF1
:100DA000DD1F8A95E2F7C22BD32BDC6872CF2C2F84
:100DB00026952695277080E2289F900111248C2F7C
:100DC0008370C1E0D0E002C0CC0FDD1F8A95E2F74E
:100DD000C22BD32BDA685DCF8C2F8F710E94F60463
:100DE000C82FD0E0DC2FCC27CC27DF71D06251CFC9
:100DF0008C2F8F710E94F60455E0D695C7955A95B1
:100E0000E1F7CF70D0E0DC2FCC27282F30E084FF33
:100E100005C044E0220F331F4A95E1F7C22BD32BC4
:100E2000D06937CF8D2F8F710E94F604182FCE0115
:100E300099270E944505C12FD0E0DC2FCC27CC2775
:100E4000DF71C82BD92BD2CF8091D10181111092A3
:100E5000D101089580959091D00198239093D0016D
:100E600008958091B30290917A02981301C0089579
:100E70008F5F8770FACFB0E0A0E0E1E4F7E00C9478
:100E80000D227C0100911C0210911D028091D20163
:100E90009091D301082B192BCFE0D0E0CC24C39440
:100EA000D12CBC2EC6010C2E02C0880F991F0A94AB
:100EB000E2F780239123892B49F4219790F7B12CF5
:100EC0008B2DCDB7DEB7E9E00C942922B7018C2F2A
:100ED0000E94E7050E940606019779F3F1CFCF93B0
:100EE000DF93EC010E943B07BE010E94E7050E94D0
:100EF0000606DF91CF910895983078F5863068F531
:100F0000E82FF0E086E0989FE00DF11D11249E2F60
:100F1000977083E0F695E7958A95E1F7EE0FFF1F4E
:100F2000EE0FFF1FE855FE4F50E040E080E02191BA
:100F300030E0092E02C0369527950A94E2F7217019
:100F40003327042E01C0220F0A94EAF7822B4F5F49
:100F50005F4F4430510559F7089580E00895983067
:100F600098F5863088F5E82FF0E086E0989FE00D50
:100F7000F11D11248E2F877041E001C0440F8A9526
:100F8000EAF783E0F695E7958A95E1F7EE0FFF1F04
:100F9000EE0FFF1FE855FE4F30E020E070E051916A
:100FA000DF011197CB01022E02C0969587950A9416
:100FB000E2F7817081958527842385278C932F5FA5
:100FC0003F4F2430310559F7089590931D028093C7
:100FD0001C02089521E030E002C0220F331F8A95E1
:100FE000E2F72095309580911C0290911D0282239A
:100FF00093230E94E50708959091C7018095892366
:101000008093C701282F277069F4891759F09091B0
:101010001F0292FF07C08695869586950E94EA0773
:101020001092C701089521E030E002C0220F331F63
:101030008A95E2F780911C0290911D02822B932BDE
:101040000E94E50708959093D3018093D2010895FB
:10105000FC0124812223C1F0808191810E946F07CD
:1010600092959F70963091F058F4925F9F709230F5
:1010700058F4803F19F030F4883E30F481E0089550
:101080009A5FF4CF843FD1F380E00895883EB0F3B7
:10109000813FD1F7F3CFA6E0B0E0E1E5F8E00C94B2
:1010A000132249835A8349815A819923A1F022232B
:1010B00091F0CA010E943B07182F682F89819A81FD
:1010C0000E94AF0769817A81812F0E94E7052696E9
:1010D000E3E00C942F22CA010E947C07182FF2CF64
:1010E0000F931F93CF93DF938B01EA0190917002CE
:1010F000943061F58093E9008FEF9091E800815082
:1011000095FD06C095ED9A95F1F700008111F5CF98
:101110008091E80085FF1AC00E94E802811111C089
:101120008091E80085FD06C08091E8008E7780936D
:10113000E800F2CFF80181918F018093F1002197AF
:1011400079F78091E8008E778093E800DF91CF9166
:101150001F910F91089543E050E0BC0182E00E948E
:1011600070080895CF93DF93EC0148E050E0BC0194
:1011700081E00E94700888E0FE01A6E6B2E00190DE
:101180000D928A95E1F7DF91CF91089580914E02FB
:1011900080FD0AC0E2E4F2E01182108212823396EE
:1011A00052E0EE34F507C1F7539A3BB1377F2BB1CC
:1011B00028604FB7F89482E492E0FC015191CF018E
:1011C00068E02BB9000000C057FF3BB9550F000085
:1011D00000C000C000C03BB900C06A9591F7F2E0C2
:1011E0008E349F0751F74FBF8FE594E00197F1F7D9
:1011F00000C000000895B0E0A0E0E1E0F9E00C9448
:101200000C227C015B016A0180910B0201E010E07D
:101210008A3010F40AE010E0C1E0D0E0B501C70167
:10122000F6010995811104C021960C171D072CF4B5
:10123000CDB7DEB7EAE00C942822CC9F9001CD9F79
:10124000300D300D112490E080E045E34A95F1F730
:101250000000019682179307C1F7E0CF8091E0016B
:10126000811110C08091D80080618093D8008AE1FC
:101270008A95F1F700C08091D90080FF0AC081E013
:101280008093E00181E09091E001913009F080E0ED
:10129000089582E08093E0010E94C90210927002DA
:1012A000F1CF0E942E09882359F0E0915A02F09163
:1012B0005B02309729F00190F081E02D09950895A7
:1012C00080E008950F931F930E942E09882329F030
:1012D0000E9436041F910F9108950E9436040091D8
:1012E0000C0210910D0220910E0230910F02600F3E
:1012F000711F821F931FEECF0E9462090895B0E014
:10130000A0E0E5E8F9E00C940A2249015A016B01DA
:101310007C010E94CE048401A4016A2D7B2D88E00B
:1013200090E00E94D52294014A2D5B2DB601C701A1
:1013300000E20E948422622F84E290E00E94C32295
:10134000CDB7DEB7ECE00C942622B0E0A0E0EBEAEB
:10135000F9E00C940A22D82FC62F142F822E009168
:101360004E0200FF4FC080914F028D1308C0809144
:101370005002861304C080915102841729F0809195
:101380004102826080934102E02FE695F0E0E7564B
:10139000FE4F808180933F02802F8E7F8230D9F470
:1013A000E12FF0E0E451FD4FC11131C02491F22F43
:1013B000E22F00FF10C0A2E4B2E01196EC93119767
:1013C0002C931296FC931297139682E0AE34B807D2
:1013D000A1F70E94C608D0934F02C0935002109309
:1013E0005102882079F020914E0260915202709152
:1013F00053023D2F4C2F512F809154029091550252
:101400000E947F09CDB7DEB7ECE00C942622EC2ECB
:10141000F12CE4919E2ECE2ED12C26E0D29FC0013D
:1014200011242FEF30E0B9010E943B228D2F90E074
:10143000880F991FF5E5F69FA001F79F500D112425
:10144000841B950BB82EBB0CB80EA9014E195F0971
:101450004C9DC0014D9D900D5C9D900D1124F92F68
:10146000CB9DA0011124452F5527D901A41BB50BF5
:10147000AC9DA001AD9D500DBC9D500D1124D90116
:10148000AB19B1095D01AE9CD001AF9CB00DBE9C03
:10149000B00D1124AB2FBB272A1B3B0B2C9DD00179
:1014A0002D9DB00D3C9DB00D11242B2F6230710588
:1014B000A1F050F46115710509F47BCF613071051D
:1014C00081F0292FF52F75CF6430710569F080F018
:1014D0006630710509F46DCFF4CF2E2FE92FFB2F65
:1014E00068CF2E2FE52F65CF292FFE2FEB2F61CF51
:1014F000E92FF92D252F5DCFEEE4F2E0438128E0BE
:10150000421B08F440E021E0628181810E94A5092C
:101510000895EEE4F2E0438128E0420F08F44FEF33
:1015200021E0628181810E94A5090895EEE4F2E044
:10153000628128E0621B08F460E021E04381818140
:101540000E94A5090895EEE4F2E0628128E0620FAE
:1015500008F46FEF21E0438181810E94A50908957D
:10156000EEE4F2E0818121E04381628188500E94B3
:10157000A5090895EEE4F2E0818121E043816281D2
:10158000885F0E94A509089580915202882319F06E
:1015900081508093520220914E0230914F0240912F
:1015A0005002509151026091520270915302809109
:1015B0005402909155020E947F0908958091520231
:1015C000833018F48F5F8093520220914E02309145
:1015D0004F0240915002509151026091520270911D
:1015E000530280915402909155020E947F09089500
:1015F00020914E0220FF24C02170226020934E02D1
:1016000080914102816080934102662381F0309194
:101610004F024091500250915102609152027091DC
:10162000530280915402909155020E947F0920E05C
:10163000409151026091500280914F020E94A50991
:10164000089580914E028695815009F481E061E011
:101650000E94F80A089561E081E00E94F80A089566
:10166000EEE4F2E083E0808311828FEF8283838354
:101670001482AFE3B2E012968C91129783601296B7
:101680008C93758123E030E04FEF5FEF60E086815F
:1016900097810E947F090895ABE0B0E0E2E5FBE0AE
:1016A0000C94142288E0EEE4F2E0DE011196019041
:1016B0000D928A95E1F780913F0290914002A091AE
:1016C000410289879A87AB872B8540910702509109
:1016D00008026091090270910A023FB7F894809164
:1016E0005F0290916002A0916102B09162023FBFDF
:1016F000841B950BA60BB70B84369105A105B1058C
:1017000010F4222319F18091290190912A018F5020
:101710009E4F4091280150E04C30510510F04BE0B5
:1017200050E0BE016F5F7F4F0E94042385E090E090
:101730000E948E21882369F00E943604609307027C
:10174000709308028093090290930A02109241025A
:1017500081E02B96E2E00C943022A4E0B0E0E3EBD1
:10176000FBE00C9413224091ED015091EE01609149
:10177000EF017091F0012FB7F89480915F02909182
:101780006002A0916102B09162022FBF841B950B91
:10179000A60BB70B11E084369105A105B10570F1D8
:1017A0000E9462096E5F7F4F8F4F9F4F69837A83DC
:1017B0008B839C8380912101909122018F509E4FB9
:1017C0004091200150E04530510510F044E050E0D8
:1017D000BE016F5F7F4F0E94042384E090E00E946F
:1017E0008E21182F882351F00E9436046093ED015A
:1017F0007093EE018093EF019093F001812F249676
:10180000E3E00C942F224F925F927F928F929F92EF
:10181000AF92BF92CF92DF92EF92FF920F931F93FE
:10182000CF93DF930F92CDB7DEB7C62E4A01590191
:10183000482E880F5508C2010E948E21782E8823D9
:1018400009F480C0C20133E0880F991F3A95E1F78F
:10185000FC01E050FF4F438150E04115510511F06C
:1018600041E050E080509F4FFC01648175816F50D2
:101870007E4FCE0101960E940423F40140815181E4
:10188000628173812FB7F89480915F02909160021A
:10189000A0916102B09162022FBF841B950BA60B31
:1018A000B70B84369105A105B10540F4B701C80115
:1018B0000E94B2049981891709F444C00C2C000CD1
:1018C000DD08C6010E948E21782E811113C0712C73
:1018D000872D0F90DF91CF911F910F91FF90EF9087
:1018E000DF90CF90BF90AF909F908F907F905F9050
:1018F0004F900895C60123E0880F991F2A95E1F7BC
:10190000FC01E050FF4F438150E0E416F50608F477
:10191000A70180509F4FFC01648175816F507E4FFD
:10192000C5010E940423B701C8010E94B204998135
:101930008913CDCF0E943604F401608371838283C2
:101940009383C6CFA701B801C5010E940423C0CF6D
:10195000A4E0B0E0EEEAFCE00C940E226B0184E01F
:10196000E82EF12C02EF11E09E012F5F3F4F45EE74
:1019700051E061E080E00E94030C882361F049811E
:101980005A816B817C814093E1015093E201609325
:10199000E3017093E4014091E1015091E201609113
:1019A000E3017091E401F601408351836283738304
:1019B0002496E8E00C942A22A3E1B0E0E2EEFCE0F9
:1019C0000C9409228E01045F1F4F88E0D8011D92FC
:1019D0008A95E9F787E7C82E81E0D82EF12CE12C13
:1019E000AA24A394B12C21E8822E21E0922EF601A4
:1019F00081916F018F3F09F442C0F894E82FE2957E
:101A0000EF70F0E021A18F70A50102C0440F551FB7
:101A10008A95E2F7CA01922F982B91A392A1809503
:101A2000892382A3789400C0EBE7F1E0712C31E0C8
:101A300021912F3F09F46BC0A22FA295AF70B0E0A7
:101A400090968C9190E02F7002C0959587952A957D
:101A5000E2F780FD5CC0832F782A330F8E169F0635
:101A600039F7F601319780818F3F11F00E94DF0432
:101A700050EA5A95F1F7F801EE0DFF1D70828FEFD5
:101A8000E81AF80AA4E0EA16F10409F0B0CF48E039
:101A900050E0B80182E192E00E94F722009741F005
:101AA00028E0F801A2E1B2E001900D922A95E1F759
:101AB00000911B02892B69F181E08093D8010E947B
:101AC00042049093D7018093D6018091D6019091E2
:101AD000D7010E942704059700F110E00D5D1D4F0E
:101AE00044E050E062E172E0C8010E94F722F12C6C
:101AF000892B51F084E0E2E1F2E0D80101900D92EF
:101B00008A95E1F7FF24F3941092D80107C080E092
:101B1000A3CF8091D8018111D8CFF12C0E942E093A
:101B2000E82EE0911B02882309F489C019821A82E9
:101B30001B821C820E2F10E00D5D1D4F80910B0249
:101B40008A3008F046C048EA5CE0BE016F5F7F4F14
:101B5000C8010E94FB08882309F460C049EE52E1E5
:101B6000BE016F5F7F4FC8010E94FB08882309F404
:101B700055C04DEA5BE0BE016F5F7F4FC8010E9418
:101B8000FB08882309F44AC04CE45BE0BE016F5FA8
:101B90007F4FC8010E94FB08882309F43FC01092C0
:101BA0000B0280911A0290E044E050E0BE016F5FAA
:101BB0007F4F8D5D9D4F0E94F72221E02093DF0132
:101BC000892BF1F4E12C8E2D8F296396EDE00C9496
:101BD00025228091D9019091DA010E942704843F47
:101BE000914008F0B0CF8091DF01882359F384E061
:101BF000FE013196DF011D928A95E9F71092DF010F
:101C0000E0911A02F0E0ED5DFD4F89819A81AB8190
:101C1000BC8180839183A283B383D5CF80910B0253
:101C20008F3F31F08F5F80930B028A3008F4B9CF79
:101C30000E9442049093DA018093D901D4CFF0E05E
:101C4000ED5DFD4F84E0A2EFB1E001900D928A9529
:101C5000E1F764E070E082EF91E00E94B2048093CB
:101C6000F10140913B0250E060913A0270E06A5C01
:101C70007D4FCE0101960E94042389818093F70154
:101C800061E070E0CE0101960E94B2048093F601FB
:101C90008090F8019090F901A090FA01B090FB01BA
:101CA0008091DB019091DC01A091DD01B091DE011A
:101CB00088169906AA06BB06D1F08092DB019092A5
:101CC000DC01A092DD01B092DE010E942E0981119B
:101CD0000EC00E943604861A970AA80AB90A809292
:101CE0000C0290920D02A0920E02B0920F028BE0B5
:101CF000ECEFF1E0DE01119601900D928A95E1F78B
:101D00008091FC0186950091FD01D090FE01C0906C
:101D1000FF011091060210920602112309F453CF1D
:101D200010FF0BC0298190914E0220FF0FC09160DF
:101D300090934E0260E00E94F80A11FF44CF20E029
:101D40004C2D6D2D802F0E94A5093DCF9E7F909335
:101D50004E02809141028160809341020E94C60838
:101D6000ECCF8091D00190915602892B80939E01F7
:101D70009091D101992391F0892B80939E0120E0CD
:101D800080EA91E0FC013191CF0131112F5FF1E048
:101D9000863A9F07B9F721110E94240748E050E0D6
:101DA00068EC71E08EE991E00E94F722892BA9F09E
:101DB00088E0EEE9F1E0A8ECB1E001900D928A959F
:101DC000E1F7E0915A02F0915B02309731F0028026
:101DD000F381E02D8EE991E00995089580915702F5
:101DE000882349F0809156028D7D809356020E948F
:101DF000B10E1092570208951092D001E0EAF1E07E
:101E000086E0DF011D928A95E9F790E080E00E946C
:101E10008D0490E080E00E946804109256020E94B7
:101E2000B10E0895AAE2B0E0E8E1FFE00C941322BD
:101E300082E792E02091F100FC012193CF01F2E0D2
:101E40008A379F07B9F780917302833009F470C015
:101E5000B8F4813009F447C0823009F4B1C08091F0
:101E6000E80083FF7EC280917202909173029A30E3
:101E700008F077C2E92FF0E0E15FFC4D0C9463229B
:101E80008A3009F48CC08B3009F46FC0893039F77F
:101E900080917202813219F78091760290917702D7
:101EA0000297E8F68091E800877F8093E8008091B0
:101EB000E80082FF38C09091F3008091F200029711
:101EC00031F48091F100813011F0863021F480915D
:101ED000F100809365028091E8008B778093E800A1
:101EE0000E941903BCCF80917202813A09F0B7CFEA
:101EF0008091E800877F8093E8008091760290913E
:101F00007702892B61F468E086E692E070E00E9437
:101F1000C5038091E8008B778093E800A0CF60E054
:101F200090E080E0F3CF809170028111C0CF97CF15
:101F300080917202813A09F092CF8091760290915D
:101F40007702892B09F08BCF8091E800877F8093FF
:101F5000E8008091E80080FFFCCF80913B018093F6
:101F6000F1008091E8008E77B9CF809172028132C2
:101F700009F075CF8091760290917702892B09F054
:101F80006ECF8091E800877F8093E8000E9419035C
:101F90008091740280933B010E94FC0E60CF80917F
:101FA0007202813209F05BCF8091E800877F8093D5
:101FB000E8000E94190380917502809364024FCF5C
:101FC00080917202813A09F04ACF8091E800877FC0
:101FD0008093E8008091E80080FFFCCF809164024C
:101FE000BECF803899F0823809F0BBC1809176026B
:101FF0008F70873008F0B5C18093E9008091EB00C5
:1020000085FB882780F91092E90006C080916E0256
:1020100090916F02911182609091E800977F909368
:10202000E8008093F1001092F1008091E8008E7733
:1020300094C1882309F482C1823009F092C1809151
:102040007402811185C1809176028F702FEF280F65
:10205000263008F086C18093E9002091EB0020FF34
:1020600077C1933031F48091EB0080628093EB0074
:102070006FC19091EB0090619093EB0021E030E014
:1020800001C0220F8A95EAF72093EA001092EA0035
:102090008091EB008860EACF811163C110917402D6
:1020A0001F778091E3008078812B8093E3008091FB
:1020B000E800877F8093E8000E9419038091E80080
:1020C00080FFFCCF8091E30080688093E30082E092
:1020D000111183E08093700244C18058823008F06F
:1020E00040C180917402909175028C3D23E092076B
:1020F000A1F583E08A838AE289834FB7F894DE01F1
:10210000139620E03EE051E2E32FF0E050935700B9
:10211000E49120FF03C0E295EF703F5FEF708E2FD8
:1021200090E0EA30C0F0C7968D939D932F5F2431E5
:1021300059F74FBF8091E800877F8093E8006AE2FB
:1021400070E0CE0101960E94C5038091E8008B7774
:102150008093E80006C1C096E7CF40917602509187
:102160007702292F33272330310509F444C078F54D
:102170002130310509F46FC08BE390E0E2E6F4E032
:102180002230310509F0EDC02091E800277F20932F
:10219000E80020917802309179028217930708F4C1
:1021A0009C0140E02115310509F064C0411162C075
:1021B0008091E80082FDC9CF80917002882329F2C6
:1021C000853019F28091E80083FFF2CFBECF213233
:1021D0003105A9F12232310509F0C3C0411551057D
:1021E00009F443C04130510509F0BBC082E390E0DF
:1021F000ECEEF3E0C9CF992781309105C1F000974B
:1022000059F0029709F0ADC0EFEAF4E0E4918E2FA7
:1022100090E0EFEAF4E007C0EBEDF4E0E4918E2FFC
:1022200090E0EBEDF4E0009709F49BC0ADCFE9EC52
:10223000F4E0E4918E2F90E0E9ECF4E0F4CF411566
:10224000510571F04130510509F08BC089E090E0F3
:10225000EDE8F4E099CF82E190E0EDE9F4E094CF8D
:1022600089E090E0E4E7F4E08FCF84E490E0EEE1F1
:10227000F4E08ACF80917002882309F466CF85301C
:1022800009F463CF8091E80083FD5FCF8091E8007F
:1022900082FD8ECF8091E80080FF84CF9091F30083
:1022A0008091F2002115310519F08830910550F028
:1022B00041E0089709F040E08091E8008E77809334
:1022C000E80070CF44914093F100319621503109DC
:1022D0000196E8CF803809F044C08091E800877FFC
:1022E0008093E800809171028093F1009ECE81116D
:1022F00038C0109174021230A0F58091E800877FF9
:102300008093E800109371020E941903112311F0C9
:1023100084E005C08091E30087FDFACF81E08093DF
:10232000700242E061EC81E00E94380342E261EC1D
:1023300082E00E9438038091700213C08091740281
:10234000813079F481E0933009F080E080936F026E
:102350001092E9008091E800877F8093E8000E9456
:1023600019038091E80083FF0AC08091E800877F0D
:102370008093E8008091EB0080628093EB00AA9646
:10238000E3E00C942F220E94FC0E2FEF84E39CE0EC
:10239000215080409040E1F700C0000088E19CE0BF
:1023A0000FB6F894A895809360000FBE90936000DC
:1023B000FFCF882321F00E942A070E94B10E0895C2
:1023C000882339F09091D001982B9093D0010E94EE
:1023D000B10E0895882391F19CEF980F913A80F403
:1023E000E0EAF1E026EA31E09191891303C0DF01D0
:1023F00011971C922E173F07B9F70E94B10E08954E
:1024000090E2980F983050F4877091E001C0990FD6
:102410008A95EAF7892F0E942A07EFCF9BE5980F4C
:10242000933028F490E080E00E948D040895885A4B
:102430008B3120F490E080E00E9468040895CF93EF
:10244000C82F8823B1F08CEF8C0F813A00F5E0EAB9
:10245000F1E086EA91E0DF012D91C21761F08A1761
:102460009B07D1F76C2F8EE991E00E944E040E94E9
:10247000B10ECF9108952191C21303C0DF011197CE
:102480001C928E179F07B9F70E94B10EEBCF80E226
:102490008C0F883068F4C77021E030E001C0220F53
:1024A000CA95EAF78091D001822B8093D001DFCFCB
:1024B000EBE5EC0FE33040F4F0E0E45CFE4F8081AC
:1024C00090E00E948D04D5CFC85ACB3190F6EC2F06
:1024D000F0E0EE0FFF1FE15CFE4F808191810E94D2
:1024E0006804C7CF1F93CF93DF93182FEB010E948F
:1024F0001F12209739F4812F0E94EA11DF91CF91AA
:102500001F9108958FE99FE00197F1F700C0000047
:102510002197EFCF0F931F93CF93DF93C62FD42F25
:10252000022FFC0185818823A9F06093B6020E94E6
:1025300042049093B5028093B402C77081E001C059
:10254000880FCA95EAF70E94E011DF91CF911F91A1
:102550000F9108958091B602681334C08091B4023F
:102560009091B5020E942704883C910558F510E22D
:102570001D0FCD17B9F080E28C0F883040F4C77082
:1025800081E001C0880FCA95EAF70E94D91118307E
:1025900048F481E09D2F977001C0880F9A95EAF763
:1025A0000E94E01170E060E0802F0E9472121830EB
:1025B00060F6D77081E001C0880FDA95EAF70E94D3
:1025C000D911C3CFC77081E001C0880FCA95EAF75F
:1025D000F6CFA1E0B0E0EFEEF2E10C940E22EE2493
:1025E000E394F12C07EF11E09E012F5F3F4F49EE7E
:1025F00051E063E082E00E94030CD82E882321F191
:10260000E12C80E01AC0009111020E0D10E00A5C6E
:102610001D4FE1E0F0E0EC0FFD1FEE0DF11DF0802D
:10262000F8019081F91ACF2C1C149CF09F2DF7FC17
:1026300090E0F91AF11019C0E39490911002E91694
:1026400010F381110E947C098D2D2196E8E00C94F5
:102650002A22CA94F80180818F5F80836AE070E04B
:102660008AEA0E9472128D2DDFCFF394F8018081E7
:10267000815080836AE070E089EA0E9472128D2D99
:10268000D9CFA8E0B0E0E7E4F3E10C94142266EEC1
:102690007EEF90E080E00E94E12260E082E090E046
:1026A0000E94C32260E083E090E00E94C322109267
:1026B000D3011092D20160E074E184E090E00E94C6
:1026C000E12260E086E090E00E94C3226FEF87E0A5
:1026D00090E00E94C32240E050E0BA0188E090E020
:1026E0000E94D52260E084E290E00E94C32260E074
:1026F00087E190E00E94C32260E08CE090E00E94BD
:10270000C32260E08DE090E00E94C32219821A8209
:102710001B821C821D821E821F82188648E050E0A8
:1027200068E170E0CE0101960E94B32240E050E0E3
:10273000BA0180E290E00E94D52240E050E0BA0168
:102740008FE090E00E94D52240E050E0BA0183E1A2
:1027500090E00E94D5222896E2E00C9430229091DD
:102760001F0292FB222720F9281779F080FB92F9AB
:1027700090931F0260911E0270911F0284E090E00E
:102780000E94E12282E00E94FC070895B0E0A0E0F0
:10279000ECECF3E10C940C228C01FC018481882385
:1027A00029F121E0408151816281738195810E94EC
:1027B0004B08EC0183379C4771F5F801858188232C
:1027C00031F0809157028823B1F00E94EE0E809183
:1027D000C701877059F0F8018581882339F080910D
:1027E0001F0282FF03C082E00E94FC07CDB7DEB764
:1027F000EAE00C9428221092D0010E9424070E9443
:10280000420488579C4E909335028093340281E0B5
:1028100080935702DCCF80915702882309F45AC075
:10282000E090D001F090D1010E94420488579C4E64
:102830009093350280933402F8018581882309F44E
:1028400049C08F2D8E298D7909F061C0C034F2E521
:10285000DF0760F5C11522E5D207E0F5C11530E4C8
:10286000D30750F4C11580E2D80708F045C0C63E32
:10287000D10581F1CE010AC0C11590E5D907D0F785
:10288000F8018681807F31F1CE019927109256029E
:102890008832910508F045C08E31910508F048C096
:1028A0000497A8F182E08093560242C0C03EE2E560
:1028B000DE07D8F4C03CF2E5DF0760F4C03622E55D
:1028C000D207C0F2C03A32E5D30720F0C43B82E51C
:1028D000D80781F6FE01E851FC47E730F10508F022
:1028E0004FC0E75EFC4D0C946322CE0187579C4796
:1028F000029708F0BFCFEECFF8018681807F21F6E6
:102900008D2F8F71823151F028F4823039F00E947E
:10291000EE0EE0CF8431F1F28631C9F71092560203
:10292000F6CF8D32910509F4BDCF28F48A9779F757
:102930000E94B10ECFCF8C349105D1F38D329240ED
:10294000B9F3E5CF26E241EE61EEC8010E948A129A
:102950003ECF27E245EE65EEF8CF26E241EE60EE8F
:10296000F4CF27E245EE64EEF0CF26E241EE62EED0
:10297000ECCF27E245EE66EEE8CF28E241E0EBCF70
:10298000F8018581882309F4F1C31092B602CE01C3
:102990009057839708F0D4C384E090E00E94AD2262
:1029A00090931F0280931E02FE01E150F047E23235
:1029B000F10520F4E05EFC4D0C94632280911E0230
:1029C000816080931E0295C080911F028860809371
:1029D0001F028FC080911E028260F3CF80911E0281
:1029E0008460EFCF80911E028860EBCF80911F0240
:1029F0008160EDCF80911F028260E9CF80911E023D
:102A00008061DFCF80911E028062DBCF80911E0249
:102A10008064D7CF0E94FC0E80911E028068D1CFC7
:102A200080911E028C60CDCF80911F028360CFCF3A
:102A300080911E028E7FC5CF80911F02877FC7CFF6
:102A400080911E028D7FBDCF80911E028B7FB9CFFA
:102A500080911E02877FB5CF80911F028E7FB7CFF6
:102A600080911F028D7FB3CF80911E028F7EA9CFF0
:102A700080911E028F7DA5CF80911E028F7BA1CFFA
:102A80000E94FC0E80911E028F779BCF80911E02C8
:102A9000837F97CF80911F028C7F99CF80911E02F8
:102AA00082FB992790F921E0922790FB82F990FB15
:102AB00083F987CF80911F02982F909591708E7F18
:102AC000892B90FB81F983CF90911E02892F8F7BF8
:102AD00096FF806476CF0E94FC0E90911E02892F93
:102AE00097FB87F980586DCF61E08EE090E00E94FF
:102AF000C32260911E0270911F0284E090E00E9448
:102B0000E1220E94FC0E63CE60E0EFCF90911E02A6
:102B1000892F8F7E94FF806154CF90911E02892F60
:102B20008E7F90FF81604DCF90911F02892F877F0C
:102B300093FF88604CCF85E322C380914E0280FFD3
:102B40001CC0282F2E7F20934E0230914F024091BF
:102B50005002509151026091520270915302809143
:102B60005402909155020E947F0980914102816038
:102B7000809341020E94C6082ACE816080934E0253
:102B800061E086950E94F80A22CE41E25BE06BE2AA
:102B90007BE00E94C8041BCE4BE25BE061E27BE07D
:102BA000F8CF40EB5AE06AEB7AE0F3CF4AEB5AE019
:102BB00060EB7AE0EECF46E95AE063EA7AE0E9CFEB
:102BC00043EA5AE066E97AE0E4CF4CE75AE069E884
:102BD0007AE0DFCF49E85AE06CE77AE0DACF44ECFC
:102BE0005AE06EED7AE0D5CF4EED5AE064EC7AE033
:102BF000D0CF61E081E0C6CF0E94FC0EFFEF24E35E
:102C00003CE0F15020403040E1F700C0000081E09E
:102C10008093E00080E28093D8001092C9008FE199
:102C20009EE40197F1F700C0000087E090EBDC0123
:102C30008093B7029093B802A093B902B093BA02FE
:102C400088E19CE00FB6F894A895809360000FBED1
:102C500090936000FFCF6FEF7FEF90E080E00E94E5
:102C6000E1220E94C31180911F0282FB882780F914
:102C700091E089270E94AF13F8018581C081D1813D
:102C8000882309F44AC0CE010E943B07F82E682F22
:102C9000CE010E94AF07BE018F2D0E94E7050E9462
:102CA0000606D82FC92FA82EF801C580B680B29489
:102CB0003FE0B3228091C7018770F1F0EC2CCC206B
:102CC000E1F0892F807F803451F080E28D0F8830D1
:102CD00098F0B11004C0892F807E803269F0809115
:102CE0001F0282FF09C082E00E94FC078091C70199
:102CF0008770EE24E3948111E12CDC2ED2942FE036
:102D0000D222FBE0FD1508F46DC0ED2DF0E0EE5B86
:102D1000FC4D0C94632280E0ADCFCE010E947C0775
:102D2000F82EB9CF2C2F2F70F22EC07F19F0F2940D
:102D300090EFF922CC20B9F0FF2069F080E28D0FEE
:102D4000883010F0A11009C08091D001F82AF092CB
:102D5000D0010E94B10E8D2F43C080915602F82AF7
:102D6000F0925602F6CF8D2F0E94EA11FF20D1F18A
:102D7000D05ED83010F0A11004C08F2D0E942A0719
:102D800006C0F09480915602F822F09256020E94FA
:102D9000B10E28C03C2F3F70F32EC07FC03219F017
:102DA000F29480EFF822AA2059F081E0A81609F4E5
:102DB00079C0CC2009F485C0BB2009F447C0CBCF33
:102DC00080911F0282FD3EC0CC20B1F1FF2039F07E
:102DD0008091D001F82AF092D0010E94B10E80E0DB
:102DE0000E941F122D2D2850330B2430310510F472
:102DF0000E945109EE20A9F08091C70180FD11C009
:102E0000F80115828695869586950E941308C8015B
:102E10000E94C6138091C7018695869586950E946B
:102E2000EA0720E0F8014081518162817381848149
:102E300095810E944B08DACC80E00E94EA11FF20C5
:102E400089F29BCFCC20A1F0B11004C08F2D0E943D
:102E5000E011C8CF91E0B912C5CF8091D1019F2D6B
:102E60009823F91609F4BECFF82AF092D101BACF0F
:102E7000B110B8CF8F2D0E94D9119091D1018F2D13
:102E8000892329F08F2D809589238093D10180910A
:102E9000A7019F2D982309F4A5CFF094F822F09272
:102EA000A701A0CFCC2029F0E5E0EB1508F49ACFDC
:102EB000CDCFF4E0FB1508F495CF8F2D0E94D911EA
:102EC00091CFBB20D1F329E3A21209C03FEF87EED7
:102ED00093E0315080409040E1F700C000008D2F1A
:102EE0000E94EA117FCF8C2F86958695837069F0BA
:102EF000813009F077CF8D2F9C2F9370C11002C0C5
:102F000080E090E00E9468046DCF8D2F9C2F93701D
:102F1000C11002C080E090E00E948D0463CF8C2F2E
:102F2000837009F03FC0C1105DCF4D2F429546958B
:102F30004770440F440F2D2F2F7030E0042E02C035
:102F4000220F331F0A94E2F790E080E0D4FF09C01B
:102F50008FE090E002C0880F991F4A95E2F78095B4
:102F60009095C695C695C370C23099F078F440919B
:102F7000D2015091D301C13039F0822B932B84239D
:102F800095230E9423082ECF242B352B822B932BA5
:102F9000F8CF822B932B2091D2013091D30182273D
:102FA0009327EFCF8695CC2011F08C2F817088234A
:102FB00009F418CF4D2F429546954770440F440FA2
:102FC0002D2F2F7030E0042E02C0220F331F0A94E1
:102FD000E2F790E080E0D4FF09C08FE090E002C00B
:102FE000880F991F4A95E2F780959095C695C695EA
:102FF000C370C23099F078F440911C0250911D02C8
:10300000C13039F0822B932B842395230E94E5074E
:10301000E9CE242B352B822B932BF8CF822B932BAD
:1030200020911C0230911D0282279327EFCFCF7091
:10303000CC2029F08C2F0E9413088D2F08CF8D2FC4
:103040000E94D9118C2F0E94EA07CCCE8D2FE2EF7F
:10305000AE1699F1EA1570F0F0EFAF16D1F021EF4E
:10306000A21691F0CC2009F45BC0B11074CE8C2F65
:103070008F7127C033EFA31639F194EFA912F2CF65
:1030800080911F0282FD2EC08C2F8F71CC20D9F22F
:1030900018C0CC2069F0E4E0EB1508F4A3CECF71A2
:1030A00081E090E002C0880F991FCA95E2F7B8CF7F
:1030B000F5E0FB1508F496CEF2CF8C2F8F71C1107E
:1030C000C2CF0E9413088ECE90E080E0CC2009F49D
:1030D0009DCFCF7181E090E002C0880F991FCA9503
:1030E000E2F794CFCC2089F0CF718C2F0E94130887
:1030F00080911F0282FF07C028E0C29FC0011124F7
:1031000083608093C7018C2FDCCF81E00E94FC0795
:1031100031E03B1508F066CE82E00E94FC0762CEEB
:10312000BB2059F0893309F0DACE8FEF97EEE3E058
:1031300081509040E040E1F7D0CE8C2F8F7183CF4B
:10314000C631FCE7DF0749F58091D0018A7A91E02A
:1031500009F490E09093A60169E2811165E38EE99C
:1031600091E00E944E040E94B10E31CBC6312CE793
:10317000D20799F58091A6018111DDCC89E2E0EAC0
:10318000F1E026EA31E09191891303C0DF01119744
:103190001C922E173F07B9F7E6CFC3303CE7D307A1
:1031A00009F459CD50F4C1159CE7D90709F424CD91
:1031B000C130DC4709F455CD5FCDCB35FCE7DF07E7
:1031C00009F4A9CDCC352CE7D20709F44CCDCA358A
:1031D000DC4709F051CD81E04DCD8091D001827264
:1031E000FE01E052F847E531F10508F045CDE25B1C
:1031F000FC4D0C946322CF93DF938091C601807FB6
:1032000009F04DC08091C501882309F448C0E091C0
:10321000B30250917A02C091C101D091C001609176
:10322000C2017091C30147E05E17C9F18E2F90E093
:10323000E49FF0011124E558FD4F2481222391F1F0
:10324000489FF001499FF00D1124DF01A558BD4FA3
:1032500011962C9111972C1325C02C912D1322C05F
:1032600015962C91159721111DC012962D913C9108
:10327000261B370B283C3105A8F48091C6018F70BE
:1032800080618093C601EF57FD4F80818F70806110
:10329000808380EC91E00E94C6130E943107DF9189
:1032A000CF910895FC013196E770BECFA4E1B0E064
:1032B000ECE5F9E10C940A228C0186E0F801DE01CC
:1032C0001F9601900D928A95E1F7F8018481E580BF
:1032D00090ECA92E91E0B92E9091C401911128C0D3
:1032E000882319F1EE20F1F0C8010E942808F82E79
:1032F0008823C1F087E0F801D50101900D928A95ED
:10330000E1F78091C401813031F48091C001909146
:10331000C1010E946F070E94FB188F2D6496ECE09C
:103320000C942622C8010E94C613FF24F394F5CF03
:10333000D080C18082809380F090C5012091C2012D
:103340003091C301A401421B530BFF2009F4D9C0E3
:10335000483C510508F092C08823F9F29091C101D0
:103360008091C601282F207F09F056C0C91214C0D1
:103370009091C001D91210C0E11048C08F708061D7
:103380008093C60180EC91E00E94C6138091C60133
:10339000F8018683F12CC1CFE11038C06C2D8D2D42
:1033A0000E94AA026C2D8D2D0E94AA02E82E811186
:1033B000F1CFDF86C88A8F8598890E946F07292FF1
:1033C00022952F70243058F49F70223088F0992372
:1033D00099F0F8019681907F79F4FE2C9ECF2A5FB8
:1033E0002F70223068F0C8010E94C613EF2CF5CF71
:1033F000992311F0882389F3805E883070F3F3CF2E
:10340000803F58F3815F833070F7E7CF8091C6012A
:1034100081608093C601BECFC91207C09091C001E0
:10342000D91203C0EE2009F48DC0C8010E942808FB
:10343000882309F477CFEE2009F474CF8091C60178
:10344000803288F02091C0013091C10139872887EE
:103450009B868A869091C4019C871D868E87CE01AB
:1034600008960E94C61387E0F801A0ECB1E0019035
:103470000D928A95E1F70E94FB1857CF9091C601F3
:10348000292F207F51F480EC91E00E94C61387E041
:10349000F50111928A95E9F77DCF882309F43DCF94
:1034A0008091C1018C1110C08091C001D8120CC054
:1034B000E1100AC09683C8010E94C61387E0F50197
:1034C00011928A95E9F729CFC8010E94280888231C
:1034D00009F428CFEE2009F425CF8091C60180326F
:1034E00010F22091C0013091C1013A8329839C825E
:1034F0008B829091C4019D831E828F83CE010196A1
:10350000B0CF483C5105D0F6882309F40ECFFE2CED
:10351000EE2009F407CF8091C1018C1120C0809169
:10352000C001D8121CC08091C60180FD0FC0982F29
:10353000907F61F08683903F31F0982F907F905F6D
:103540008F70892B8683C8010E94C61387E0F8011B
:10355000A0ECB1E001900D928A95E1F7DECEC801B2
:103560000E94280881117FCF8091C60181608093DD
:10357000C601C8010E94C613D0CEABE1B0E0E3ECB7
:10358000FAE10C9412224E8B5F8B688F798F8A8FB1
:103590009B8F192F9111109256021D8A86E0FE0111
:1035A0007696DE011F9601900D928A95E1F70A8DBD
:1035B000002341F021E04F85588969897A89C80143
:1035C0000E944B080B8B1C8B87E0FE013F96DE01AF
:1035D000189601900D928A95E1F7CE0108960E9407
:1035E000561981110CC087E0FE013896DE01119654
:1035F00001900D928A95E1F78C8581110BC017E03F
:103600008091B30290917A02891331C06B96E4E005
:103610000C942E2220917A0230E0C9010196877025
:1036200099274091B3024817190699F097E0929FA5
:10363000D001939FB00D1124A558BD4FFE013196C6
:1036400001900D929A95E1F780937A020E943107DA
:10365000D6CF0E94FC0E10927A021092B30287E03D
:10366000E0ECF1E0DF011D928A95E9F7C8CF819F78
:10367000C001112485589D4F0E945619882331F2AC
:103680008091B30290E00196877099278093B302EE
:10369000B7CFA6E0B0E0EFE4FBE10C9412220E9469
:1036A00042048C018091D4019091D501801791073B
:1036B00081F019821A820E944204682F49815A813E
:1036C000792F80E090E00E94BD1A1093D5010093FD
:1036D000D4012696E4E00C942E221F920F920FB68E
:1036E0000F9211242F933F934F935F936F937F9388
:1036F0008F939F93AF93BF93CF93DF93EF93FF93FA
:10370000D091E900DF708091EC00C82FC17080FD7E
:10371000C0E81092E9008091F000877F8093F0006C
:1037200078940E94120F1092E9008091F000886056
:103730008093F000CD2BCF70C093E900FF91EF9103
:10374000DF91CF91BF91AF919F918F917F916F91B9
:103750005F914F913F912F910F900FBE0F901F904F
:1037600018951F920F920FB60F9211242F933F932B
:103770004F935F936F937F938F939F93AF93BF9379
:10378000EF93FF938091E10082FF09C08091E200F6
:1037900082FF05C08091E1008B7F8093E1008091E2
:1037A000DA0080FF24C08091D80080FF20C0809183
:1037B000DA008E7F8093DA008091D90080FF9DC06F
:1037C00080E189BD82E189BD09B400FEFDCF81E0C1
:1037D0008093700280916302811109C00E94C90226
:1037E0000E946A038091E20084608093E2008091ED
:1037F000E10080FF17C08091E20080FF13C080913C
:10380000E2008E7F8093E2008091E20080618093ED
:10381000E2008091D80080628093D80019BC85E0D6
:10382000809370028091E10084FF2BC08091E200C0
:1038300084FF27C080E189BD82E189BD89B5982FC9
:10384000917080FFFBCF8091D8008F7D8093D8004E
:103850008091E1008F7E8093E1008091E2008F7E75
:103860008093E2008091E20081608093E200809189
:103870007102882309F447C084E08093700280912C
:1038800070028091E10083FF27C08091E20083FFF6
:1038900023C08091E100877F8093E10082E08093E4
:1038A0007002109271028091E1008E7F8093E1009E
:1038B0008091E2008E7F8093E2008091E20080613F
:1038C0008093E20042E060E080E00E943803809153
:1038D000F00088608093F000FF91EF91BF91AF916D
:1038E0009F918F917F916F915F914F913F912F9118
:1038F0000F900FBE0F901F90189519BC1092700278
:103900001092630274CF8091E30087FD93E090935F
:103910007002B5CF78941F921FB61F9211248F9317
:103920009F93AF93BF9380915F0290916002A091AB
:103930006102B09162020196A11DB11D80935F02E8
:1039400090936002A0936102B0936202BF91AF9125
:103950009F918F911F901FBE1F9018951F921FB6A9
:103960001F9211248F939F93AF93BF9380915E0218
:10397000811113C080915F0290916002A091610259
:10398000B09162024196A11DB11D80935F02909398
:103990006002A0936102B0936202BF91AF919F91C8
:1039A0008F911F901FBE1F90189500D000D000D09F
:1039B000CDB7DEB785B7806885BF85B7806885BF1E
:1039C00084B7877F84BF0FB6F894A8958091600074
:1039D000886180936000109260000FBE80E890E0E4
:1039E0000FB6F89480936100909361000FBE8DED47
:1039F00094E090939D0180939C010E94C9020E94D3
:103A00006A038091E20084608093E2007894809160
:103A100070028823A1F01091E9001F709091EC00D2
:103A2000892F817090FD80E8182B1092E900809119
:103A3000E80083FD0E94120F1F701093E90082E0DE
:103A400084BD93E095BD9AEF97BD80936E00109270
:103A50000C0210920D0210920E0210920F02869824
:103A60008E9A259A2D9825E02A95F1F700008FB1BE
:103A700025982D9A90EA9A95F1F790E076E0959541
:103A800087957A95E1F780959095817080933001C4
:103A90000E942E0981110E94A2209091300181E0A4
:103AA000982790933A02A82FA91BA09311029091F6
:103AB000300180933B0290913001809310028091FD
:103AC0003001811106C084EF80933A0185EF809325
:103AD000390120913A01E22FE295EF70F0E061A107
:103AE0002F7081E090E0AC0101C0440F2A95EAF705
:103AF000342F3095362331A322A1242B22A32091E9
:103B00003901E22FE295EF70F0E031A12F7001C092
:103B1000880F2A95EAF7982F9095932391A392A165
:103B2000892B82A38FE891E00197F1F700C0000094
:103B300010913B026CE372E04AE351E089E3E82E26
:103B400081E0F82EFB0128C0DA012D91AD01822F12
:103B500082958F7090E0DC0190968C9190E02F70B0
:103B600002C0959587952A95E2F78170D7019D91BE
:103B70007D01292F22952F7030E0D90190962C914C
:103B800030E09F7002C0359527959A95E2F790E056
:103B900020FD92E0892B81938E2F861B8117A0F246
:103BA000809130018091300194E0811190E09093F8
:103BB0001B0284E0891B80931A0286E60E94DF04C0
:103BC00087E90E94DF0486EC0E94DF0485E30E94FF
:103BD000DF040BE711E061E8E62E61E0F62EF80164
:103BE00081918F018F3F11F00E94DF04E016F106F2
:103BF000B1F788E0E3E2F2E0DF01282F1D922A9579
:103C0000E9F7E2E1F2E0DF011D928A95E9F790E041
:103C100080E00E94AD22863E9E4F11F00E9441132B
:103C200082E090E00E949F2280932B0284E090E04B
:103C30000E94AD2290931F0280931E0283E090E0C9
:103C40000E949F2290E00E9423088091200281110F
:103C500079C090E080E00E94AD22863E9E4F21F028
:103C60000E9441130E94300B88E090E00E94A7223E
:103C70004B015C0184E290E00E949F22282F30E0FB
:103C800040E050E060E070E080E090E000E20E9400
:103C90006922282939294A295B2920934E02309329
:103CA0004F0240935002509351026093520270931E
:103CB0005302809354029093550280914102836095
:103CC000809341022E7F89F50E94300B88E090E0BE
:103CD0000E94A7226B017C0184E290E00E949F2257
:103CE000282F30E040E050E060E070E080E090E0BD
:103CF0000E946922B22FA32FF42FE52F5B019701B9
:103D00008601BC29A12BFE29E32BB0934E02A09380
:103D10004F02F0935002E093510260935202B0922E
:103D2000530280935402909355020E94CE048091D6
:103D30004E0280FF04C060E086950E94F80A81E090
:103D4000809320020E942E09811102C00E94A520AA
:103D500081E391E090935B0280935A0258E1A52E93
:103D6000B12C44E3842E42E0942E8091700200E155
:103D700012E1853009F4ABC00E94DC0C0CE212E0C9
:103D800023E2E22E22E0F22E31E8C32E31E0D32EE0
:103D9000B6019701F8019191D9018D919D01DB0147
:103DA0004D91BD0184238E169F0609F4AAC0981771
:103DB00091F30E942E09282E612CF70171907F014A
:103DC000D6018D916D017822F80131908F01371461
:103DD00031F13724512C44244394842D8321B9F0AC
:103DE0002220A9F059826A820E9442049C838B831C
:103DF000F1E0FD8391E0842D872109F490E09E831A
:103E000049815A816B817C818D810E94BD1A5394B6
:103E1000440C26E05212E1CFF8013197708263948E
:103E200088E06812CACF0E9462096FC08091700258
:103E3000843009F439C080912202811113C0F1E06D
:103E4000F093220280914E02982F9170909321025C
:103E50008E7F80934E028091410281608093410267
:103E60000E94C60810925E0220E40FB6F894A8954E
:103E7000A09260000FBE2093600083B7817F8460B2
:103E800083BF83B7816083BF7894889583B78E7F23
:103E900083BF0FB6F894A8958091600088618093E5
:103EA0006000109260000FBE80916F02882379F04D
:103EB0000E94DC0CE3E2F2E0A1E8B1E081919D9187
:103EC000892309F0CFC082E0EB32F807B9F780917F
:103ED0007002853009F4AACF0E94FC0E0E9451099D
:103EE0001092220280912102882309F445CF80910B
:103EF0004E02816080934E0260E086950E94F80A2F
:103F00003BCF981356CF0E94491B0E942E0988234D
:103F100089F080915702882369F00E944204209121
:103F2000340230913502821B930B8F3F9F4710F470
:103F30000E94EE0EC12C712C94E0E92EF12C8091A0
:103F40003B02C81678F071100E947C090E9451094A
:103F500090913E02891709F408CF80933E020E9497
:103F60003604FFCE0C2D10E0F801E65CFE4F808198
:103F7000E82FE295EF70F0E0E0A1F0E08F7002C072
:103F8000F595E7958A95E2F7E170D801A75CBE4FF9
:103F90002C91A22FA295AF70B0E090968C9190E0FA
:103FA0002F7002C0959587952A95E2F780FD52C043
:103FB00080E08E2BD801A45CBD4FEC919E2F9370B6
:103FC000891709F445C0EE0FEE0FE82BEC93D09063
:103FD0003A02DC0CEF70F0E0E757FE4F085C1D4F33
:103FE0008081F8019081890F8083612C84308CF06E
:103FF000ED2DF0E0EA5CFD4F80818F5F80830E94B1
:104000002E09682E882341F16AE070E08AEA0E9456
:104010007212D8018C918D3F8CF4ED2DF0E0EA5CAA
:10402000FD4F8081815080830E942E09682E882355
:10403000B1F06AE070E089EA0E947212F8018081B2
:10404000082E000C990BB7010E944F22808376281E
:10405000C39475CF82E0ADCF66246394DACF662433
:104060006394ECCF09BD19BD09B400FEFDCF80916A
:10407000D8008F7D8093D8008091E000826080938B
:10408000E0008091E00081FDFCCF0E94FC0E1FCF7C
:104090008EE14A9B02C08150E1F74A9BFECF089512
:1040A0005A9880E28A95F1F75A9A0895FC013BE00C
:1040B0003A95F1F798E020E080E031E040E14A9560
:1040C000F1F7880F4A9B02C08160232742E04A959E
:1040D000F1F7000040E14A95F1F7915079F790E14E
:1040E0009A95F1F799B132E03A95F1F7000040E185
:1040F0004A95F1F792FB992790F992272081920F28
:1041000090830895A1E0B0E0E8E8F0E20C9410227A
:1041100019828C017C01E60EF11C0E151F0541F47D
:1041200081E09981911180E02196E6E00C942C22A7
:104130000E944820CE0101960E945620F8018193EA
:104140008F01EBCF529A5A9A089552985A9AEA9A46
:10415000E9E6F0E080818F7C808308956150770BE1
:1041600091E001C0990F6A95EAF720E031E09111E2
:1041700008C0222391F05A9A80E28A95F1F75A9862
:104180000895492F482339F05A9A232740E24A9547
:10419000F1F79695ECCF5A98F9CF5A98EDCFFF9258
:1041A0000F931F93CF93DF93EC018C01060F111D2A
:1041B000C017D10729F4CDB7DEB7E5E00C942D2266
:1041C000F9900E94502068E08F2D0E94AE20F0CF21
:1041D0001F920F920FB60F9211240F931F932F93DC
:1041E0003F934F935F936F937F938F939F93AF937F
:1041F000BF93EF93FF93CF93DF930F92CDB7DEB7CB
:1042000019820E944820CE0101960E945620082F54
:10421000069506950695282F22952570902F957066
:10422000290F922F937026952695920F98279770B5
:104230008981982B09F05CC0073008F059C080E1F3
:104240008A95F1F75A9A529A82E08A95F1F700C05E
:104250005A9888E0089F80011124D801A050BF4FD0
:104260001696ED91FC9117973097A9F06091750122
:104270007091760114962D913C911597260F371F5A
:1042800011968D919C911297680F791F13964C91FE
:1042900013978C910995F801E050FF4F63816623D5
:1042A00051F0209175013091760184819581820FC2
:1042B000931F0E94CF200E94502080E18A95F1F741
:1042C0005A9852985A9A80E18A95F1F7F801E0508D
:1042D000FF4F6081662351F0209175013091760186
:1042E00081819281820F931F0E9482200E94482028
:1042F0000F90DF91CF91FF91EF91BF91AF919F917F
:104300008F917F916F915F914F913F912F911F916D
:104310000F910F900FBE0F901F9018950F931F9342
:10432000CF93DF93EC0107970CF04CC0F894529AAE
:104330005A9885E08A95F1F700009C2F9695957024
:104340008C2F8570980F892F83709695969523E012
:10435000CC0FDD1F2A95E1F7980F8E01092B0E94E3
:10436000502000C068E0802F0E94AE2080E18A9536
:10437000F1F752985A9A4A9B1EC087E090E04A99FA
:104380001CC0FE01E050FF4F63816623F9F02091CD
:1043900075013091760184819581820F931F0E946F
:1043A0008220811113C0529A5A9A7894DF91CF914A
:1043B0001F910F91089500C0DECF019729F4529A02
:1043C0005A9A789480E0F2CF00C0D9CF0E9448205A
:1043D00080E28A95F1F75A98529A80E18A95F1F72E
:1043E000C050DF4F6881662351F0209175013091F4
:1043F000760189819A81820F931F0E94CF200E94AB
:104400005020789481E0D2CF2F923F924F925F92CA
:104410006F927F928F929F92AF92BF92CF92DF92D4
:10442000EF92FF920F931F93CF93DF93CDB7DEB739
:10443000CA1BDB0B0FB6F894DEBF0FBECDBF0994CD
:104440002A88398848885F846E847D848C849B8424
:10445000AA84B984C884DF80EE80FD800C811B8132
:10446000AA81B981CE0FD11D0FB6F894DEBF0FBE61
:10447000CDBFED010895AA1BBB1B51E107C0AA1FC8
:10448000BB1FA617B70710F0A61BB70B881F991FF5
:104490005A95A9F780959095BC01CD01089597FB99
:1044A000072E16F4009407D077FD09D00E943B2216
:1044B00007FC05D03EF4909581959F4F0895709527
:1044C00061957F4F0895EE0FFF1F0590F491E02D49
:1044D0000994002E083090F0982F872F762F652FA3
:1044E000542F432F322F22270850F4CF220F331F8F
:1044F000441F551F661F771F881F991F0A95B2F723
:10450000002D089597FD1094002E083098F0085063
:10451000232F342F452F562F672F782F892F912D3A
:10452000F4CF159497958795779567955795479507
:10453000379527950A95AAF71124002D0895F99922
:10454000FECF92BD81BDF89A992780B50895A6E166
:10455000B0E044E050E00C94E922A8E1B0E042E091
:1045600050E00C94E922DC01A40FB51F41505040EB
:1045700048F0CB01840F951F2E910E94C422415018
:104580005040D0F70895262FF999FECF92BD81BDF6
:10459000F89A019700B4021639F01FBA20BD0FB681
:1045A000F894FA9AF99A0FBE08950396272F0E945D
:1045B000C4220E94C322252F0E94C422242F0C94BF
:1045C000C4220196272F0E94C4220C94C322DC012E
:1045D000CB01FC01F999FECF06C0F2BDE1BDF89A0E
:1045E000319600B40D9241505040B8F70895FB0148
:1045F000DC0104C08D910190801921F4415050409C
:10460000C8F7881B990B0895FB01DC0102C00190DB
:104610000D9241505040D8F70895F894FFCFF10F14
:104620001910B1111910B1114C106D10B1116A119E
:104630007711AD14B114A214A914B514B914BD1492
:1046400018158D152015EA14EE142415F2142815EA
:104650003415FE1486150215381506153C1564151B
:104660000A1540156B15101546154E15F6142C1528
:10467000FA14301514154A155A1574158415E414D6
:104680001C15941592169216CA16CA167317F216AE
:10469000F216F2168F171718261826189D15C5152D
:1046A000CC15D115D615DB15E015E515EA15EF1576
:1046B000F415F915E713E713E713E713E713E71307
:0646C000E713E713E71306
:1046C60000000001000000000000000401000000DE
:1046D60000000001050000000000000106000000C7
:1046E60004070000000000000B0B000000000000A3
:1046F600012404B2082304AB08F4F501818283E2A5
:1047060000E900EA00B500B600B700CD008301CC91
:10471600008A019201940121022302240225022625
:104726000227022A02B300B4006F0070009F01CB7B
:10473600019F02A002F1016697C635F6F7313332C2
:10474600363F3F3F3E3F3F3F3E00FF010001000036
:0C475600FFFF0000010001FF0000010057
:00000001FF
