:100000000C9432040C946A040C946A040C94A82591
:100010000C946A040C946A040C946A040C946A04A8
:100020000C946A040C946A040C94141F0C94D01E53
:100030000C9467200C946A040C946A040C946A046F
:100040000C946A040C946A040C946A040C946A0478
:100050000C946A040C9443200C946A040C946A0473
:100060000C946A040C946A040C946A040C946A0458
:100070000C946A040C946A040C946A040C946A0448
:100080000C946A040C946A040C946A040C946A0438
:100090000C946A040C946A040C946A040C946A0428
:1000A0000C946A040C946A040C946A040631FF09E7
:1000B00074A1010975150026FF00952075088102BD
:1000C0000976150026FF00952075089102C00501EC
:1000D0000980A101850319012AB700150126B7007F
:1000E000950175108100C0050C0901A10185041955
:1000F000012AA002150126A002950175108100C0F9
:1001000005010906A101050719E029E715002501E8
:10011000950875018102950175088101050719008F
:1001200029FF150026FF00950675088100050819AE
:1001300001290515002501950575019102950175A7
:10014000039101C07267626C6967687420646973A7
:1001500061626C65205B454550524F4D5D3A20729F
:1001600067626C696768745F636F6E6669672E6546
:100170006E61626C65203D2025750A007267626CB5
:100180006967687420656E61626C65205B454550E7
:10019000524F4D5D3A207267626C696768745F63A5
:1001A0006F6E6669672E656E61626C65203D202505
:1001B000750A007267626C6967687420746F67679C
:1001C0006C65205B454550524F4D5D3A2072676229
:1001D0006C696768745F636F6E6669672E656E61D0
:1001E000626C65203D2025750A0044454255473A1A
:1001F0002064697361626C65642E0A00444542554F
:10020000473A20656E61626C65642E0A004F6E6528
:1002100073686F743A206163746976653A20256467
:100220000A000A002530325820006B6579626F6140
:1002300072645F7265706F72743A2000037C140000
:100240001A000800150017002B0004001600070014
:1002500009000A00E0001D001B000600190005004F
:100260000000E300E200A25221522900037C1300A7
:1002700012000C0018001C00280033000F000E00B4
:100280000D000B003400380037003600100011005C
:100290000000E700E2002C002252737C037C1E0069
:1002A0001F002000210022001B01E300E200E0000B
:1002B000E100190101003A003B003C003D003E0016
:1002C000000001000100010001001D0101002700E4
:1002D00026002500240023004E004F00510052004C
:1002E00050004B00E40043004200410040003F004A
:1002F000000001000100010023521C0149001E0200
:100300001F02200221022202000031002D002E00D7
:100310002F003000010031022D022E022F02300288
:1003200000000100010001002352B452037C2702A7
:1003300026022502240223024D00E700E200E40029
:10034000E5004A00E4000000AE00A900AA00A800F1
:100350000000010001000100010065000000000034
:100360000000000014701B7000000000BE00BD0003
:1003700015701C700000E300E200E000E1000000E6
:10038000000000000000000001000000037C0000ED
:100390004600450044000000000000002578237856
:1003A00027782178007C0000267824782878227825
:1003B0000000000000000000010020785461726716
:1003C000657420636F6E6E65637465640D0A005416
:1003D000617267657420646973636F6E6E656374C0
:1003E00065642C207468726F74746C696E67206326
:1003F0006F6E6E656374696F6E20617474656D7085
:1004000074730D0A004661696C656420746F206521
:100410007865637574652025730A007267626C697C
:100420006768745F636F6E6669672E737065656475
:10043000203D2025640A007267626C696768745FFA
:10044000636F6E6669672E76616C203D2025640AB5
:10045000007267626C696768745F636F6E66696774
:100460002E736174203D2025640A007267626C69F6
:100470006768745F636F6E6669672E687565203D97
:100480002025640A007267686C696768745F636F2F
:100490006E6669672E6D6F6465203D2025640A00D5
:1004A0007267626C696768745F636F6E6669672EF6
:1004B000656E61626C65203D2025640A007267628A
:1004C0006C696768745F636F6E6669672045455045
:1004D000524F4D3A0A007267626C696768745F69CF
:1004E0006E6974207267626C696768745F636F6EAF
:1004F0006669672E6D6F6465203D20302E2057722F
:100500006974652064656661756C742076616C75CC
:10051000657320746F20454550524F4D2E0A00726E
:1005200067626C696768745F696E6974206565638A
:100530006F6E666967206973206E6F7420656E61E7
:10054000626C65642E0A007267626C696768745F2A
:10055000696E6974207374617274210A0072676233
:100560006C696768745F696E69742063616C6C653F
:10057000642E0A007267626C6967687420656E6138
:10058000626C65205B4E4F454550524F4D5D3A20A1
:100590007267626C696768745F636F6E6669672E05
:1005A000656E61626C65203D2025750A0073757368
:1005B00070656E64696E67206B6579626F617264E5
:1005C0000D0A000A0025303862003A20002530323A
:1005D00058000A722F632030313233343536370AEF
:1005E000000A0025303258006C65645F7461736BDB
:1005F0003A20007267626C69676874206D6F646589
:10060000205B4E4F454550524F4D5D3A2025750AAF
:10061000007267626C69676874206D6F6465205B47
:10062000454550524F4D5D3A2025750A007267626C
:100630006C696768742064697361626C65205B4EE5
:100640004F454550524F4D5D3A207267626C696765
:1006500068745F636F6E6669672E656E61626C6554
:10066000203D2025750A0000010101010101010161
:100670000102020202020202020203030303030355
:100680000303040404040404040505050505060623
:1006900006060607070707070808080809090909E1
:1006A0000A0A0A0B0B0B0C0C0C0D0D0D0E0E0E0F87
:1006B0000F0F101011111112121313141415151617
:1006C000161717181819191A1A1B1B1C1D1D1E1E88
:1006D0001F202021222223242425262627282929D9
:1006E0002A2B2C2D2D2E2F30313232333435363704
:1006F00038393A3B3C3D3E3F404142434445464702
:1007000048494A4C4D4E4F50515354555658595ADA
:100710005B5D5E5F616264656668696B6C6D6F707E
:1007200072737577787A7B7D7E8082838587888AED
:100730008C8E8F91939596989A9C9EA0A2A3A5A724
:10074000A9ABADAFB1B3B5B7BABCBEC0C2C4C6C920
:10075000CBCDCFD1D4D6D8DBDDDFE2E4E7E9EBEED9
:10076000F0F3F5F8FAFDFF7267626C696768742050
:1007700073657420687376205B4E4F454550524F29
:100780004D5D3A2025752C25752C25750A0072675C
:10079000626C696768742073657420687376205B87
:1007A000454550524F4D5D3A2025752C25752C2519
:1007B000750A005B435D005B445D005B535D005B5D
:1007C000575D005B525D0009025B00030100A0FA67
:1007D00009040000010301010009211101000122A7
:1007E000440007058103080001090401000103001A
:1007F00000000921110100012232000705820320B7
:100800000001090402000203000000092111010097
:1008100001222200070583032000010705030320AE
:10082000000112010002000000084D4D4648010081
:10083000010200011803480069006C006C0073009D
:1008400069006400650020003400360000001003D9
:100850006D006D00630063006F00790064000000AC
:100860000403090411241FBECFEFDAE0DEBFCDBFC1
:1008700004B603FE18C08091EF029091F002A0919F
:10088000F102B091F2028730904BA740B04B59F47F
:100890001092EF021092F0021092F1021092F20206
:1008A000E0E0F8E3099511E0A0E0B1E0EEE5F0E565
:1008B00002C005900D92A43DB107D9F722E0A4ED46
:1008C000B1E001C01D92AF3EB207E1F70E948E2059
:1008D0000C94D9270C940000FF93EF93E091D4017E
:1008E000F091D501309709F00995EF91FF910895A6
:1008F000FC018591803011F0EFDFFBCF0895FF27D9
:10090000E0E230E247FF0CC0419597FF09C0EDE2FD
:100910006095709580959095611D711D811D911D4B
:1009200027FF02C0219530E350E2AA27660F771F08
:10093000881F991FAA1FA41710F0A41B63955A952E
:10094000A9F7AA3008F0A95FA05DAF93F3956115F0
:1009500071058105910541F7ED3211F4EF93F3959F
:10096000F21718F43F93F395FBCF8F91B5DFFA950B
:10097000E1F70895E991F9918591803021F0853270
:1009800019F0AADFF9CF089520E0E8945591553287
:10099000C1F3503311F4689455915A3348F45053CD
:1009A00090F3220F022E220F220F200D250FF4CFDD
:1009B0000EF4219589919991533619F3533729F102
:1009C000533559F1BC0188279927E8945C3621F406
:1009D0008991999168945591543639F446EF7EF097
:1009E00077FF0DC08FEF9FEF0AC055374AE039F00F
:1009F000583540E121F0523642E009F00895FF9366
:100A0000EF937DDFEF91FF91B7CFFF93EF93FC0161
:100A100081918030B9F360DFFBCFFF93EF9368DF04
:100A2000F1CFDF93CF93CDB7DEB72596A3DFCF917C
:100A3000DF910895482F2091EB029091B20257E088
:100A4000291302C080E0089530E0529FF001539FC7
:100A5000F00D1124ED54FD4F8181681306C0808193
:100A6000481303C085818111EECF2F5F3F4F277060
:100A7000E7CFE8EDF0E080818E7F80831092E20086
:100A80001092DA001092E100A0EEB0E08C9181604B
:100A90008C9380818F77808319BCA7EDB0E08C9117
:100AA0008E7F8C9380818F7E808310929B0208952D
:100AB0002091E4003091E50095E6A9012091EC0039
:100AC000822F817020FF06C08091E80080FF06C061
:100AD00080E008952091E80022FD1AC08091A802CC
:100AE000882389F0853089F08091EB0085FD0FC067
:100AF0002091E4003091E50042175307F9F291503C
:100B0000E1F684E0089582E0089583E0089581E0AD
:100B100008958091AA0287FF13C08091E80082FFA8
:100B200006C08091E8008B778093E80004C0809134
:100B3000A8028111F2CF08958091A8028823D9F3E9
:100B40008091E80080FFF8CF8091E8008E77ECCFAD
:100B5000982F9093E900242F762F50E0891731F0D9
:100B60007091EC002091ED005091F00021FD07C044
:100B70009F5F973071F78093E90081E0089530918D
:100B8000EB003E7F3093EB003091ED003D7F3093E2
:100B9000ED003091EB0031603093EB007093EC008E
:100BA0002093ED005093F0002091EE0027FDE0CF60
:100BB00080E00895B0E0A0E0E0EEF5E00C94CE26F1
:100BC000C8EDD0E088818F7E8883E7EDF0E08081FA
:100BD0008160808384E082BF81E080939B02888172
:100BE0008E7F888302EE10E0F80110821092DA0006
:100BF00081EEC82ED12CF601108288818F778883F0
:100C000088818068888388818F7D888319BC109251
:100C1000A8021092A9021092A7021092A60290EECA
:100C2000E92EF12CF70180818B7F808388818160A0
:100C3000888342E060E080E00E94A805F6018081A0
:100C40008E7F8083F80180818160808380818860CD
:100C50008083F70180818E7F808388818061888393
:100C6000CDB7DEB7E8E00C94EA26FC018091B00233
:100C70009091B10286179707A0F06115710529F4CC
:100C80009091E8009E779093E80090E061157105DF
:100C900051F4911108C08091E80082FF34C080E0D7
:100CA0000895BC01F2CF8091A8028823C1F185305C
:100CB000C1F18091E80083FD30C08091E80082FDA1
:100CC000EACF8091E80080FFE1CF8091F30020918E
:100CD000F200382F6115710519F02830310558F0F0
:100CE00091E02830310509F090E02091E8002E775E
:100CF0002093E800CBCF81918093F100615071097E
:100D00002F5F3F4FE7CF8091A802882341F08530C5
:100D100041F08091E80083FFBECF81E0089582E03A
:100D2000089583E00895089580919D0208959C019F
:100D30004FB7F8948091940290919502A0919602F9
:100D4000B09197024FBF821B930B08952FB7F89471
:100D50006091940270919502809196029091970211
:100D60002FBF08952FB7F894809194029091950227
:100D7000A0919602B09197022FBF08959C01FC01AB
:100D800032969FEF80E04191461751F09F3F19F452
:100D9000411101C0982F8F5F8630A9F79F3F09F45A
:100DA0000895290F311D97FD3A95F9016283089541
:100DB000A3E0B0E0EEEDF6E00C94D4262091910291
:100DC0003091920228173907A1F0909392028093F4
:100DD0009102E0918F02F0919002309751F024E05F
:100DE00029839B838A830680F781E02DCE010196BB
:100DF00009952396E2E00C94F026A3E0B0E0E3E04E
:100E0000F7E00C94D42620918D0230918E022817A1
:100E10003907A1F090938E0280938D02E0918F02AA
:100E2000F0919002309751F023E029839B838A83CD
:100E30000680F781E02DCE01019609952396E2E028
:100E40000C94F026FC01680F791F8FEF91E321913C
:100E5000822728E030E087FF09C0880F89272150CA
:100E60003109C9F7E617F70791F70895880FF7CF0B
:100E7000FA01811101C0FB01099508958091850255
:100E8000982F9E7F39F480918502817082608093D3
:100E9000850208958430B8F70895F894E82FE29514
:100EA000EF70F0E031A1282F2F7081E090E001C0B9
:100EB000880F2A95EAF7982F9095932391A392A1F2
:100EC000892B82A3789408959091570292FF10C0C5
:100ED00041E0282F2471243009F040E031E0282F30
:100EE0002871283009F030E0431711F02CE08227F8
:100EF00093FF10C041E0282F2471243109F040E015
:100F000031E0282F2871283109F030E0431711F023
:100F10002CE082273091580230FF10C051E0282F7A
:100F20002171213009F050E041E0282F287128304C
:100F300009F040E0541711F029E0822731FF10C07A
:100F400041E0282F2171213109F040E031E0282FC4
:100F50002871283109F030E0431711F029E0822789
:100F600094FD877E089582389105B9F1B0F48133FC
:100F7000910509F47DC048F48932910509F46DC0EA
:100F80008A32910509F47BC008958533910509F4EF
:100F90005FC08933910509F10895833E9105D9F128
:100FA00038F4803E910529F1823E910579F108954A
:100FB000863E9105D9F1873E910509F43EC0843EF5
:100FC000910541F52091580221FF24C080915702DC
:100FD00084FD19C087EE90E0089520915702237098
:100FE00009F05AC02091580223FF14C089E290E012
:100FF00008952091570220FD38C03091580230FFEB
:1010000009C024FF43C090E080E00895209157027A
:1010100022FDF7CF08952091570222FD3AC030916A
:10102000580230FD39C024FFF5CFEDCF2091570293
:1010300023FFF0CF24FDE7CFCDCF2091570223FD32
:101040002EC03091580231FFEECF84EE90E008952B
:101050002091570225FFDECFC9CF2091570225FDF1
:1010600021C02091580223FFD5CF89E390E0D2CF51
:101070002091570226FFCECF8AE290E0089520917A
:10108000570226FFC7CF81E390E0089583EE90E0FA
:10109000089582EE90E0089580EE90E0089586EE47
:1010A00090E0089585E390E00895972F7830B8F4A4
:1010B0006630A8F48430B0F470E026E0929F600DB2
:1010C000711D1124FB0190E3899FE00DF11D112496
:1010D000EE0FFF1FE45CFD4F85919491089580E031
:1010E00090E0089581E0FCCF1F93CF93DF930E949F
:1010F000B307EC01C11580E5D807F0F5C11580E410
:10110000D80708F09CC0C03ED10520F5CD3CD105E4
:1011100008F082C0C83AD10578F4C53AD10508F084
:1011200073C0C130D10519F1209709F1C430D10540
:10113000F0F4D0E0C0E01BC0C33CD105D0F7C85AE2
:10114000D0E0CC0FDD1FC859DE4F0990D881C02DEB
:10115000D4640DC0C11580E2D80708F0D1C0C11514
:1011600081E0D80708F05AC0C83ED10510F7CE017B
:10117000DF91CF911F910895C03682E5D80718F509
:10118000C03482E5D80708F06BC0C03282E5D807CA
:1011900008F05FC0C11582E5D80708F497C02C2F6E
:1011A0002695269580E2289F900111248C2F83702C
:1011B000C1E0D0E002C0CC0FDD1F8A95E2F7C22B60
:1011C000D32BDD68D4CFC03A82E5D80760F4C038AD
:1011D00082E5D80708F459C0CF71D0E0DC2FCC27C6
:1011E000C46FD06AC4CFC03C82E5D80708F462C09F
:1011F000C03E82E5D80708F09CCFDC2FCC27CC2757
:10120000DF71C06FD06AB3CFC55AD0E0CB59DE4F83
:10121000C881D0E0D064ABCFD065A9CF8D2F0E941C
:101220006407182FCE0199270E94B307C12FD0E081
:10123000DC2FCC27CC27DF71C82BD92B98CFCE0140
:1012400099270E94B307CC27DF70C82BD92BD06A0F
:101250008ECFCF71D0E0DC2FCC27C16FD06A87CF83
:101260002C2F26952695277080E2289F9001112427
:101270008C2F8370C1E0D0E002C0CC0FDD1F8A95B7
:10128000E2F7C22BD32BDC6872CF2C2F2695269544
:10129000277080E2289F900111248C2F8370C1E079
:1012A000D0E002C0CC0FDD1F8A95E2F7C22BD32B12
:1012B000DA685DCF8C2F8F710E946407C82FD0E051
:1012C000DC2FCC27CC27DF71D06251CF8C2F8F71D0
:1012D0000E94640755E0D695C7955A95E1F7CF70FF
:1012E000D0E0DC2FCC27282F30E084FF05C044E07D
:1012F000220F331F4A95E1F7C22BD32BD06937CF8A
:101300008D2F8F710E946407182FCE0199270E949C
:10131000B307C12FD0E0DC2FCC27CC27DF71C82B3F
:10132000D92BD2CF809590910A02982390930A02EC
:1013300008958091EB029091B202981301C0089534
:101340008F5F8770FACFB0E0A0E0E9EAF9E00C9493
:10135000CD267C01009155021091560280910B021E
:1013600090910C02082B192BCFE0D0E0CC24C39431
:10137000D12CBC2EC6010C2E02C0880F991F0A94D6
:10138000E2F780239123892B49F4219790F7B12C20
:101390008B2DCDB7DEB7E9E00C94E926B7018C2F91
:1013A0000E9455080E947408019779F3F1CFCF93FA
:1013B000DF93EC010E94A309BE010E9455080E9420
:1013C0007408DF91CF910895983078F5863068F5EC
:1013D000E82FF0E086E0989FE00DF11D11249E2F8C
:1013E000977083E0F695E7958A95E1F7EE0FFF1F7A
:1013F000EE0FFF1FE052FE4F50E040E080E02191F1
:1014000030E0092E02C0369527950A94E2F7217044
:101410003327042E01C0220F0A94EAF7822B4F5F74
:101420005F4F4430510559F7089580E00895983092
:1014300098F5863088F5E82FF0E086E0989FE00D7B
:10144000F11D11248E2F877041E001C0440F8A9551
:10145000EAF783E0F695E7958A95E1F7EE0FFF1F2F
:10146000EE0FFF1FE052FE4F30E020E070E05191A0
:10147000DF011197CB01022E02C0969587950A9441
:10148000E2F7817081958527842385278C932F5FD0
:101490003F4F2430310559F70895909356028093B9
:1014A0005502089521E030E002C0220F331F8A95D3
:1014B000E2F7209530958091550290915602822353
:1014C00093230E944D0A08959091FF0180958923EE
:1014D0008093FF01282F277069F4891759F09091A4
:1014E000580292FF07C08695869586950E94520AFB
:1014F0001092FF01089521E030E002C0220F331F57
:101500008A95E2F78091550290915602822B932B97
:101510000E944D0A089590930C0280930B02089547
:10152000FC0124812223C1F0808191810E94D7098E
:1015300092959F70963091F058F4925F9F70923020
:1015400058F4803F19F030F4883E30F481E008957B
:101550009A5FF4CF843FD1F380E00895883EB0F3E2
:10156000813FD1F7F3CF829590E09C01220F331F8A
:10157000220F331F2C7C95958795959587958373BE
:10158000282B30E0C901880F991F8A7A3595279555
:101590002575822B0895A6E0B0E0E1EDFAE00C9409
:1015A000D32649835A8349815A819923A1F0222362
:1015B00091F0CA010E94A309182F682F89819A818E
:1015C0000E94170A69817A81812F0E945508269608
:1015D000E3E00C94EF26CA010E94E409182FF2CF31
:1015E0009FB7F894109299029FBF9091A8029430EF
:1015F00009F048C02091E9002F703091EC00932F42
:10160000917030FD90E8922B23E02093E900209127
:10161000EB0020FF34C02091EE0027FF30C0209166
:101620009802222321F02091E80025FF28C0109283
:10163000980226E03091E80035FF14C08093F10055
:101640008091E80085FD27C08091E80080FFFCCFF5
:101650008091E8008E778093E8009F709093E90076
:1016600080E008953091A802343049F43091EB00C5
:1016700035FD05C0215041F481E0809398029F70B0
:101680009093E9008FEF0895EFE9FFE03197F1F7CC
:1016900000C00000CFCF8FB7F89421E020939902CB
:1016A0008FBFDBCF0F931F93CF93DF938B01EA01A3
:1016B0009091A802943061F58093E9008FEF9091AA
:1016C000E800815095FD06C095ED9A95F1F7000070
:1016D0008111F5CF8091E80085FF1AC00E9458055E
:1016E000811111C08091E80085FD06C08091E8005D
:1016F0008E778093E800F2CFF80181918F0180937B
:10170000F100219779F78091E8008E778093E800C7
:10171000DF91CF911F910F91089543E050E0BC01FC
:1017200082E00E94520B0895CF93DF93EC0148E0D2
:1017300050E0BC0181E00E94520B88E0FE01AEE95E
:10174000B2E001900D928A95E1F7DF91CF91089573
:101750008091850280FD0AC0E9E7F2E011821082E3
:101760001282339652E0E538F507C1F7539A3BB140
:10177000377F2BB128604FB7F89489E792E0FC01DE
:101780005191CF0168E02BB9000000C057FF3BB971
:10179000550F000000C000C000C03BB900C06A95F2
:1017A00091F7F2E085389F0751F74FBF8FE594E03E
:1017B0000197F1F700C0000008958091190281118E
:1017C00010C08091D80080618093D8008AE18A950A
:1017D000F1F700C08091D90080FF0AC081E08093BA
:1017E000190281E090911902913009F080E008958A
:1017F00082E0809319020E9439051092A802F1CF6D
:101800000E94DD0B882359F0E0918F02F091900245
:10181000309729F00190F081E02D0995089580E03E
:1018200008950F931F930E94DD0B882329F00E94D7
:10183000A6061F910F9108950E94A60600914502E9
:10184000109146022091470230914802600F711FAB
:10185000821F931FEECF0E94110C08958091850284
:101860008E7F809385028091750280FF0CC01F924D
:101870001F928DE296E09F938F930E9411050F9027
:101880000F900F900F908091780281608093780282
:101890000E94A80B0895B0E0A0E0E1E5FCE00C9404
:1018A000C9267C015B01842E752E690180911A0284
:1018B00001E010E08A3010F40AE010E0C1E0D0E06E
:1018C000B501C701F6010995982E811114C0219622
:1018D0000C171D07B4F48091750280FF0CC07F9235
:1018E0008F9285E094E09F938F930E9411050F9053
:1018F0000F900F900F90892DCDB7DEB7EDE00C94CF
:10190000E526CC9F9001CD9F300D300D112490E045
:1019100080E045E34A95F1F7000001962817390762
:10192000C1F7CECFB0E0A0E0E8E9FCE00C94CA2615
:1019300049015A016B017C010E943E078401A40108
:101940006A2D7B2D88E090E00E94A12794014A2D0A
:101950005B2DB601C70100E20E945027622F84E28E
:1019600090E00E948F27CDB7DEB7ECE00C94E6261E
:10197000B0E0A0E0EEEBFCE00C94CA26D82FC62F16
:10198000142F822E0091850200FF6EC08091860286
:101990008D1308C080918702861304C0809188024D
:1019A000841729F080917802826080937802E02F7A
:1019B000E695F0E0EE53FE4F808180937602802F13
:1019C0008E7F8230D9F4E12FF0E0E959F94FC1114F
:1019D00050C02491F22FE22F00FF10C0A9E7B2E01F
:1019E0001196EC9311972C931296FC9312971396E1
:1019F00082E0A538B807A1F70E94A80BD093860211
:101A0000C093870210938802882009F4A7C0209110
:101A100085026091890270918A023D2F4C2F512FCF
:101A200080918B0290918C020E94920C80917502A1
:101A300080FF1AC0809188021F928F938091870245
:101A40001F928F93809186021F928F938EE897E06A
:101A50009F938F930E941105ADB7BEB718960FB62E
:101A6000F894BEBF0FBEADBFCDB7DEB7ECE00C94AF
:101A7000E626EC2EF12CE4919E2ECE2ED12C26E0E3
:101A8000D29FC00111242FEF30E0B9010E94072737
:101A90008D2F90E0880F991FF5E5F69FA001F79F25
:101AA000500D1124841B950BB82EBB0CB80EA90148
:101AB0004E195F094C9DC0014D9D900D5C9D900D90
:101AC0001124F92FCB9DA0011124452F5527D901B1
:101AD000A41BB50BAC9DA001AD9D500DBC9D500D40
:101AE0001124D901AB19B1095D01AE9CD001AF9CA5
:101AF000B00DBE9CB00D1124AB2FBB272A1B3B0B96
:101B00002C9DD0012D9DB00D3C9DB00D11242B2F8F
:101B100062307105A1F050F46115710509F45CCFD4
:101B20006130710581F0292FF52F56CF6430710592
:101B300069F080F06630710509F44ECFF4CF2E2F96
:101B4000E92FFB2F49CF2E2FE52F46CF292FFE2F30
:101B5000EB2F42CFE92FF92D252F3ECF8091750233
:101B600080FF82CF1F921F931F92CF931F92DF930C
:101B700087E697E09F938F930E9411058DB79EB7DC
:101B800008960FB6F8949EBF0FBE8DBF6DCFE5E8E7
:101B9000F2E0438128E0421B08F440E021E062814A
:101BA00081810E94B80C0895E5E8F2E0438128E0C5
:101BB000420F08F44FEF21E0628181810E94B80C4E
:101BC0000895E5E8F2E0628128E0621B08F460E035
:101BD00021E0438181810E94B80C0895E5E8F2E09C
:101BE000628128E0620F08F46FEF21E04381818178
:101BF0000E94B80C0895E5E8F2E0818121E043817C
:101C0000628188500E94B80C0895E5E8F2E0818175
:101C100021E043816281885F0E94B80C0895809121
:101C20008902882319F081508093890220918502CE
:101C3000309186024091870250918802609189021A
:101C400070918A0280918B0290918C020E94920C7A
:101C5000089580918902833018F48F5F8093890200
:101C6000209185023091860240918702509188022E
:101C70006091890270918A0280918B0290918C020E
:101C80000E94920C08952091850220FF37C0217098
:101C9000226020938502809178028160809378028F
:101CA000662369F130918602409187025091880243
:101CB0006091890270918A0280918B0290918C02CE
:101CC0000E94920C8091750280FF0FC08091850266
:101CD00086951F928F9381E196E09F938F930E9448
:101CE00011050F900F900F900F9020E04091880207
:101CF00060918702809186020E94B80C08958091BD
:101D0000750280FFF2CF1F9281E08F9383EF95E001
:101D1000E4CF809185028695815009F481E061E0ED
:101D20000E94430E089561E081E00E94430E0895F1
:101D3000E5E8F2E083E0808380E881838FEF8283AF
:101D400080E583831482A6E7B2E012968C91129705
:101D5000836012968C93758123E030E84FEF50E555
:101D600060E0868197810E94920C0895ABE0B0E01C
:101D7000ECEBFEE00C94D42688E0E5E8F2E0DE012E
:101D8000119601900D928A95E1F7809176029091DB
:101D90007702A091780289879A87AB872B8540913B
:101DA00041025091420260914302709144023FB758
:101DB000F8948091940290919502A0919602B0912E
:101DC00097023FBF841B950BA60BB70B843691057A
:101DD000A105B10510F4222319F1809129019091F8
:101DE0002A01855D9D4F4091280150E04C305105FE
:101DF00010F04BE050E0BE016F5F7F4F0E94D02794
:101E000085E090E00E944E26882369F00E94A60695
:101E10006093410270934202809343029093440284
:101E20001092780281E02B96E2E00C94F026A4E078
:101E3000B0E0EDE1FFE00C94D326409127025091F1
:101E400028026091290270912A022FB7F89480919C
:101E5000940290919502A0919602B09197022FBFA3
:101E6000841B950BA60BB70B11E084369105A105D9
:101E7000B10570F10E94110C6E5F7F4F8F4F9F4F25
:101E800069837A838B839C838091210190912201C5
:101E9000855D9D4F4091200150E04530510510F087
:101EA00044E050E0BE016F5F7F4F0E94D02784E086
:101EB00090E00E944E26182F882351F00E94A6061B
:101EC00060932702709328028093290290932A023C
:101ED000812F2496E3E00C94EF264F925F927F923D
:101EE0008F929F92AF92BF92CF92DF92EF92FF922A
:101EF0000F931F93CF93DF930F92CDB7DEB7C62E0C
:101F00004A015901482E880F5508C2010E944E26E9
:101F1000782E882309F480C0C20133E0880F991F0E
:101F20003A95E1F7FC01E050FF4F438150E0411545
:101F3000510511F041E050E080509F4FFC01648159
:101F40007581655D7D4FCE0101960E94D027F40119
:101F500040815181628173812FB7F89480919402FE
:101F600090919502A0919602B09197022FBF841B89
:101F7000950BA60BB70B84369105A105B10540F46E
:101F8000B701C8010E9422079981891709F444C04A
:101F90000C2C000CDD08C6010E944E26782E811103
:101FA00013C0712C872D0F90DF91CF911F910F914E
:101FB000FF90EF90DF90CF90BF90AF909F908F9069
:101FC0007F905F904F900895C60123E0880F991F7E
:101FD0002A95E1F7FC01E050FF4F438150E0E41601
:101FE000F50608F4A70180509F4FFC0164817581BC
:101FF000655D7D4FC5010E94D027B701C8010E94D1
:10200000220799818913CDCF0E94A606F40160832F
:10201000718382839383C6CFA701B801C5010E9453
:10202000D027C0CFA4E0B0E0E8E1F0E10C94CE26E8
:102030006B0184E0E82EF12C0CE212E09E012F5F90
:102040003F4F4FE152E061E080E00E946D0F882336
:1020500061F049815A816B817C8140931B025093CE
:102060001C0260931D0270931E0240911B0250914E
:102070001C0260911D0270911E02F6014083518383
:10208000628373832496E8E00C94EA26A3E1B0E02F
:10209000ECE4F0E10C94C9268E01045F1F4F88E048
:1020A000D8011D928A95E9F780EAC82E81E0D82EE2
:1020B000F12CE12CAA24A394B12C2AEA822E21E04F
:1020C000922EF60181916F018F3F09F442C0F8947E
:1020D000E82FE295EF70F0E021A18F70A50102C01A
:1020E000440F551F8A95E2F7CA01922F982B91A3AE
:1020F00092A18095892382A3789400C0E4EAF1E05C
:10210000712C31E021912F3F09F46BC0A22FA295D1
:10211000AF70B0E090968C9190E02F7002C09595D2
:1021200087952A95E2F780FD5CC0832F782A330FCC
:102130008E169F0639F7F601319780818F3F11F097
:102140000E944D0750EA5A95F1F7F801EE0DFF1D78
:1021500070828FEFE81AF80AA4E0EA16F10409F099
:10216000B0CF48E050E0B8018BE492E00E94C32772
:10217000009741F028E0F801ABE4B2E001900D9245
:102180002A95E1F700915402892B69F181E080934F
:1021900011020E94B2069093100280930F02809168
:1021A0000F02909110020E949706059700F110E02F
:1021B000045A1D4F44E050E06BE472E0C8010E94F5
:1021C000C327E12C892B51F084E0EBE4F2E0D80145
:1021D00001900D928A95E1F7EE24E394109211029A
:1021E00007C080E0A3CF809111028111D8CFE12CEC
:1021F0000E94DD0BF82EE0915402882309F4A7C059
:1022000019821A821B821C820E2F10E0045A1D4F65
:10221000D0901A02B9E0BD1508F452C022E130E1B5
:102220004CE351E0BE016F5F7F4FC8010E944B0C31
:10223000882309F46AC026E936E149E451E0BE0189
:102240006F5F7F4FC8010E944B0C882309F45DC06B
:1022500027E13FE041E551E0BE016F5F7F4FC801DC
:102260000E944B0C882309F450C026EB3EE04CE55D
:1022700051E0BE016F5F7F4FC8010E944B0C882365
:1022800009F443C0F9E0FD1508F458C010921A0291
:102290008091530290E044E050E0BE016F5F7F4FB9
:1022A000845A9D4F0E94C32721E020931802892B56
:1022B000F1F4F12C8F2D8E296396EDE00C94E52638
:1022C00080911202909113020E949706843F9140E0
:1022D00008F0A4CF80911802882359F384E0FE010E
:1022E0003196DF011D928A95E9F710921802E0916C
:1022F0005302F0E0E45AFD4F89819A81AB81BC81A1
:1023000080839183A283B383D5CF80911A028F3FBC
:1023100031F08F5F80931A028A3008F4B9CF0E949F
:10232000B20690931302809312028091750280FF8F
:10233000D1CF8FEC93E00E947804CCCF80917502CE
:1023400080FFA4CF8CEB93E00E9478049FCFF0E055
:10235000E45AFD4F84E0ACE2B2E001900D928A9520
:10236000E1F764E070E08CE292E00E942207809343
:102370002B024091710250E06091700270E064594C
:102380007D4FCE0101960E94D02789818093310232
:1023900061E070E0CE0101960E9422078093300236
:1023A0008090320290903302A0903402B0903502B7
:1023B0008091140290911502A0911602B09117021B
:1023C00088169906AA06BB06D1F080921402909254
:1023D0001502A0921602B09217020E94DD0B811125
:1023E0000EC00E94A606861A970AA80AB90A809209
:1023F000450290924602A0924702B09248028BE0BA
:10240000E6E3F2E0DE01119601900D928A95E1F784
:1024100080913602869500913702D0903802C090A4
:1024200039021091400210924002112309F442CF68
:1024300010FF0BC0998190FF11C0909185029160AF
:102440009093850260E00E94430E11FF33CF20E09D
:102450004C2D6D2D802F0E94B80C2CCF0E942E0C7D
:10246000F4CF0F931F93CF93DF9380910A02909143
:102470000902892B8093D60190910802992391F04B
:10248000892B8093D60120E088ED91E0FC01319109
:10249000CF0131112F5FF1E08E3D9F07B9F7211178
:1024A0001092080248E050E060E072E086ED91E0B2
:1024B0000E94C327892B09F441C088E0E6EDF1E0D2
:1024C000A0E0B2E001900D928A95E1F7E0918F02D1
:1024D000F0919002309791F10280F381E02D86ED2A
:1024E00091E009958091750282FF28C080FF04C0A9
:1024F0008AE292E00E947804D0E0C0E004E212E0B8
:102500008091750280FF0EC0FE01EA52FE4F80816D
:102510001F928F931F930F930E9411050F900F909E
:102520000F900F902196C830D10551F78091750218
:1025300080FF04C082E292E00E947804DF91CF9194
:102540001F910F91089510920A02E8EDF1E086E0E4
:10255000DF011D928A95E9F790E080E00E94FD0678
:1025600090E080E00E94D806109209020E94311289
:102570000895AAE2B0E0EFEBF2E10C94D3268AEAE8
:1025800092E02091F100DC012D93CD01B2E0823B7D
:102590009B07B9F78091AB02833009F470C0B8F49F
:1025A000813009F447C0823009F4B1C08091E8005D
:1025B00083FF84C28091AA029091AB029A3008F006
:1025C0007DC2E92FF0E0E552F84D0C942F278A30B8
:1025D00009F48CC08B3009F46FC0893039F78091D1
:1025E000AA02813219F78091AE029091AF02029750
:1025F000E8F68091E800877F8093E8008091E8000A
:1026000082FF38C09091F3008091F200029731F47C
:102610008091F100813011F0863021F48091F10039
:1026200080939D028091E8008B778093E8000E9460
:102630008905BCCF8091AA02813A09F0B7CF809179
:10264000E800877F8093E8008091AE029091AF020E
:10265000892B61F468E08EE992E070E00E94350613
:102660008091E8008B778093E800A0CF60E090E055
:1026700080E0F3CF8091A8028111C0CF97CF8091E5
:10268000AA02813A09F092CF8091AE029091AF02F6
:10269000892B09F08BCF8091E800877F8093E80039
:1026A0008091E80080FFFCCF80913B018093F10096
:1026B0008091E8008E77B9CF8091AA02813209F02B
:1026C00075CF8091AE029091AF02892B09F06ECF49
:1026D0008091E800877F8093E8000E9489058091BF
:1026E000AC0280933B010E94A31260CF8091AA02AA
:1026F000813209F05BCF8091E800877F8093E8000A
:102700000E9489058091AD0280939C024FCF8091F9
:10271000AA02813A09F04ACF8091E800877F80932E
:10272000E8008091E80080FFFCCF80919C02BECF42
:10273000803899F0823809F0C1C18091AE028F7063
:10274000873008F0BBC18093E9008091EB0085FBE6
:10275000882780F91092E90006C08091A602909126
:10276000A702911182609091E800977F9093E80012
:102770008093F1001092F1008091E8008E779AC169
:10278000882309F488C1823009F098C18091AC0295
:1027900081118BC18091AE028F702FEF280F2630F0
:1027A00008F08CC18093E9002091EB0020FF7DC1EF
:1027B000933031F48091EB0080628093EB0075C11F
:1027C0009091EB0090619093EB0021E030E001C02C
:1027D000220F8A95EAF72093EA001092EA0080918E
:1027E000EB008860EACF811169C11091AC021F77BC
:1027F0008091E3008078812B8093E3008091E80052
:10280000877F8093E8000E9489058091E80080FF1F
:10281000FCCF8091E30080688093E30082E0111197
:1028200083E08093A8024AC18058823008F046C1F4
:102830002091AC023091AD022C3DE3E03E07A1F5C2
:1028400083E08A838AE289834FB7F894DE01139686
:1028500020E03EE051E2E32FF0E050935700E49196
:1028600020FF03C0E295EF703F5FEF708E2F90E086
:10287000EA30C0F0C7968D939D932F5F243159F7AE
:102880004FBF8091E800877F8093E8006AE270E0A4
:10289000CE0101960E9435068091E8008B778093E7
:1028A000E8000CC1C096E7CF8091AE029091AF02D4
:1028B000432F55274330510509F44AC078F541307C
:1028C000510509F47AC08BE590E0E7ECF7E042307F
:1028D000510509F0F3C02091E800277F2093E8001C
:1028E0002091B0023091B1028217930708F49C0145
:1028F00040E02115310509F065C0411163C08091A8
:10290000E80082FDC9CF8091A802882329F2853092
:1029100019F28091E80083FFF2CFBECF413251051A
:1029200009F43CC04232510509F0C8C0833091051A
:1029300008F0C4C0FC01EE0FFF1FE953FE4F0190E9
:10294000F081E02D8C539E4FDC018C9190E01AC0F9
:10295000332721303105D1F02115310561F02230C6
:10296000310509F0ABC0E4E3F8E0E4918E2F90E08C
:10297000E4E3F8E007C0E0E6F8E0E4918E2F90E0B1
:10298000E0E6F8E0009709F499C0A5CFEEE4F8E09E
:10299000E4918E2F90E0EEE4F8E0F4CF83309105DF
:1029A00008F08CC0880F991FFC01E353FE4F019083
:1029B000F081E02D89E090E08ECF82E190E0E2E2CC
:1029C000F8E089CF8091A802882309F465CF85308B
:1029D00009F462CF8091E80083FD5ECF8091E8002A
:1029E00082FD8DCF8091E80080FF83CF9091F3002E
:1029F0008091F2002115310519F08830910550F0D1
:102A000041E0089709F040E08091E8008E778093DC
:102A1000E8006FCF44914093F10031962150310985
:102A20000196E8CF803809F049C08091E800877F9F
:102A30008093E8008091A9028093F1009DCE8111DE
:102A40003DC01091AC021230C8F58091E800877F3C
:102A50008093E8001093A9020E948905112311F0C8
:102A600084E005C08091E30087FDFACF81E0809388
:102A7000A80242E061EC81E00E94A80542E261EC1C
:102A800082E00E94A80542E261EC83E00E94A80572
:102A90008091A80213C08091AC02813079F481E06A
:102AA000933009F080E08093A7021092E9008091B2
:102AB000E800877F8093E8000E9489058091E80004
:102AC00083FF0AC08091E800877F8093E8008091AF
:102AD000EB0080628093EB00AA96E3E00C94EF2673
:102AE0000E94A3122FEF84E39CE02150804090408D
:102AF000E1F700C0000088E19CE00FB6F894A895CB
:102B0000809360000FBE90936000FFCF882321F078
:102B10000E9492090E9431120895882339F0909101
:102B20000A02982B90930A020E943112089588237A
:102B300091F19CEF980F913A80F4E8EDF1E02EEDE1
:102B400031E09191891303C0DF0111971C922E1778
:102B50003F07B9F70E943112089590E2980F98301C
:102B600050F4877091E001C0990F8A95EAF7892F98
:102B70000E949209EFCF9BE5980F933028F490E0E4
:102B800080E00E94FD060895885A8B3120F490E081
:102B900080E00E94D8060895CF93C82F8823B1F013
:102BA0008CEF8C0F813A00F5E8EDF1E08EED91E0CD
:102BB000DF012D91C21761F08A179B07D1F76C2FA7
:102BC00086ED91E00E94BE060E943112CF910895D9
:102BD0002191C21303C0DF0111971C928E179F072A
:102BE000B9F70E943112EBCF80E28C0F883068F485
:102BF000C77021E030E001C0220FCA95EAF780914A
:102C00000A02822B80930A02DFCFEBE5EC0FE33060
:102C100040F4F0E0EB59FE4F808190E00E94FD0609
:102C2000D5CFC85ACB3190F6EC2FF0E0EE0FFF1F56
:102C3000E859FE4F808191810E94D806C7CF1F932B
:102C4000CF93DF93182FEB010E94CC15209739F416
:102C5000812F0E949715DF91CF911F9108958FE9E1
:102C60009FE00197F1F700C000002197EFCF0F938D
:102C70001F93CF93DF93C62FD42F022FFC018581A2
:102C80008823A9F06093EE020E94B2069093ED02B1
:102C90008093EC02C77081E001C0880FCA95EAF703
:102CA0000E948D15DF91CF911F910F910895809112
:102CB000EE02681334C08091EC029091ED020E9404
:102CC0009706883C910558F510E21D0FCD17B9F015
:102CD00080E28C0F883040F4C77081E001C0880F1B
:102CE000CA95EAF70E948615183048F481E09D2FB6
:102CF000977001C0880F9A95EAF70E948D1570E0D1
:102D000060E0802F0E941F16183060F6D77081E0B7
:102D100001C0880FDA95EAF70E948615C3CFC77005
:102D200081E001C0880FCA95EAF7F6CFA1E0B0E0D4
:102D3000ECE9F6E10C94CE26EE24E394F12C01E3C9
:102D400012E09E012F5F3F4F43E252E063E082E0DA
:102D50000E946D0FD82E882321F1E12C80E01AC04B
:102D600000914A020E0D10E004591D4FE1E0F0E021
:102D7000EC0FFD1FEE0DF11DF080F8019081F91AA6
:102D8000CF2C1C149CF09F2DF7FC90E0F91AF11049
:102D900019C0E39490914902E91610F381110E9441
:102DA0002B0C8D2D2196E8E00C94EA26CA94F801AC
:102DB00080818F5F80836AE070E08AEA0E941F163C
:102DC0008D2DDFCFF394F8018081815080836AE0FC
:102DD00070E089EA0E941F168D2DD9CFA8E0B0E0DF
:102DE000E4EFF6E10C94D42666EE7EEF90E080E00E
:102DF0000E94AD2760E082E090E00E948F2760E0B3
:102E000083E090E00E948F2710920C0210920B0238
:102E100060E074E184E090E00E94AD2760E086E02D
:102E200090E00E948F276FEF87E090E00E948F274D
:102E300040E050E0BA0188E090E00E94A12760E005
:102E400084E290E00E948F2760E087E190E00E949A
:102E50008F2760E08CE090E00E948F2760E08DE09B
:102E600090E00E948F2719821A821B821C821D8289
:102E70001E821F82188648E050E068E170E0CE01B3
:102E800001960E947F2740E050E0BA0180E290E086
:102E90000E94A12740E050E0BA018FE090E00E943C
:102EA000A12740E050E0BA0183E190E00E94A12711
:102EB0002896E2E00C94F026CF93C82F8091580218
:102EC00082FB992790F99C17F9F0C0FB82F9809357
:102ED0005802609157027091580284E090E00E947D
:102EE000AD2782E00E94640A8091750280FF0CC0C9
:102EF0001F92CF938DE092E09F938F930E941105D4
:102F00000F900F900F900F90CF910895B0E0A0E038
:102F1000ECE8F7E10C94CC268C01FC018481882339
:102F200041F121E0408151816281738195810E944C
:102F3000CB0AEC01FC01E851FC47E730F105A8F5AC
:102F4000EB51F84D0C942F2726E241EE61EEC801BB
:102F50000E9437168091FF01877059F0F801858132
:102F6000882339F08091580282FF03C082E00E94DA
:102F7000640ACDB7DEB7EAE00C94E82627E245EE16
:102F800065EEE5CF26E241EE60EEE1CF27E245EEC9
:102F900064EEDDCF26E241EE62EED9CF27E245EEC8
:102FA00066EED5CF28E241E0EBCFF801858188239A
:102FB00009F40DC41092EE02CE019057839708F0E9
:102FC000F0C384E090E00E947927909358028093A8
:102FD0005702FE01E150F047E232F10520F4E451DE
:102FE000F84D0C942F2780915702816080935702EF
:102FF00095C0809158028860809358028FC080915C
:1030000057028260F3CF809157028460EFCF8091A6
:1030100057028860EBCF809158028160EDCF80919C
:1030200058028260E9CF809157028061DFCF8091A2
:1030300057028062DBCF809157028064D7CF0E9415
:10304000A312809157028068D1CF809157028C6083
:10305000CDCF809158028360CFCF809157028E7F71
:10306000C5CF80915802877FC7CF809157028D7F4F
:10307000BDCF809157028B7FB9CF80915702877F58
:10308000B5CF809158028E7FB7CF809158028D7F47
:10309000B3CF809157028F7EA9CF809157028F7D49
:1030A000A5CF809157028F7BA1CF0E94A312809160
:1030B00057028F779BCF80915702837F97CF809164
:1030C00058028C7F99CF8091570282FB992790F903
:1030D00021E0922790FB82F990FB83F987CF8091C2
:1030E0005802982F909591708E7F892B90FB81F9D3
:1030F00083CF90915702892F8F7B96FF806476CF84
:103100000E94A31290915702892F97FB87F980584C
:103110006DCF61E08EE090E00E948F2760915702B2
:103120007091580284E090E00E94AD270E94A312A3
:1031300011CF60E0EFCF90915702892F8F7E94FFDF
:10314000806154CF90915702892F8E7F90FF8160CC
:103150004DCF90915802892F877F93FF88604CCF85
:1031600085E33FC38091750280FF10C08091850286
:10317000809581701F928F9383EB91E09F938F9343
:103180000E9411050F900F900F900F9020918502D3
:1031900020FF2EC02E7F2093850230918602409121
:1031A0008702509188026091890270918A02809111
:1031B0008B0290918C020E94920C8091750280FF8C
:1031C0000FC08091850281701F928F9384E491E0FB
:1031D0009F938F930E9411050F900F900F900F9067
:1031E000809178028160809378020E94A80BB2CE11
:1031F0002160209385028091750280FF0DC01F928F
:1032000081E08F938CE791E09F938F930E9411054B
:103210000F900F900F900F908091850261E086953E
:103220000E94430E97CE49E85EE063E97EE00E948B
:10323000380790CE43E95EE069E87EE0F8CF4BEFD7
:103240005DE065E07EE0F3CF45E05EE06BEF7DE0C2
:10325000EECF41EE5DE06EEE7DE0E9CF4EEE5DE05B
:1032600061EE7DE0E4CF47EC5DE064ED7DE0DFCF33
:1032700044ED5DE067EC7DE0DACF4FE05EE069E2CF
:103280007EE0D5CF49E25EE06FE07EE0D0CF61E046
:1032900081E0C6CF90917502892F8E7F90FF81606B
:1032A0008093750280FF05C08CEF91E00E94780446
:1032B00051CE8AEE91E0FACF6FEF7FEF90E080E0A1
:1032C0000E94AD270E9470158091580282FB8827CA
:1032D00080F991E089270E945C17F8018581C081FF
:1032E000D181882309F44AC0CE010E94A309F82E97
:1032F000682FCE010E94170ABE018F2D0E9455082B
:103300000E947408D82FC92FA82EF801C580B68056
:10331000B2943FE0B3228091FF018770F1F0EC2C72
:10332000CC20E1F0892F807F803451F080E28D0F36
:10333000883098F0B11004C0892F807E803269F007
:103340008091580282FF09C082E00E94640A809145
:10335000FF018770EE24E3948111E12CDC2ED294DE
:103360002FE0D222FBE0FD1508F46DC0ED2DF0E05A
:10337000E25FF74D0C942F2780E0ADCFCE010E9485
:10338000E409F82EB9CF2C2F2F70F22EC07F19F040
:10339000F29490EFF922CC20B9F0FF2069F080E29E
:1033A0008D0F883010F0A11009C080910A02F82A10
:1033B000F0920A020E9431128D2F43C080910902BF
:1033C000F82AF0920902F6CF8D2F0E949715FF2060
:1033D000D1F1D05ED83010F0A11004C08F2D0E9422
:1033E000920906C0F09480910902F822F092090235
:1033F0000E94311228C03C2F3F70F32EC07FC03294
:1034000019F0F29480EFF822AA2059F081E0A81672
:1034100009F479C0CC2009F485C0BB2009F447C069
:10342000CBCF8091580282FD3EC0CC20B1F1FF206D
:1034300039F080910A02F82AF0920A020E943112B1
:1034400080E00E94CC152D2D2850330B24303105FF
:1034500010F40E94000CEE20A9F08091FF0180FD85
:1034600011C0F80115828695869586950E947B0A83
:10347000C8010E9486178091FF01869586958695E2
:103480000E94520A20E0F8014081518162817381DB
:10349000848195810E94CB0A6CCD80E00E949715B3
:1034A000FF2089F29BCFCC20A1F0B11004C08F2D5A
:1034B0000E948D15C8CF91E0B912C5CF8091080246
:1034C0009F2D9823F91609F4BECFF82AF09208022E
:1034D000BACFB110B8CF8F2D0E94861590910802F7
:1034E0008F2D892329F08F2D8095892380930802C1
:1034F0008091DF019F2D982309F4A5CFF094F82245
:10350000F092DF01A0CFCC2029F0E5E0EB1508F424
:103510009ACFCDCFF4E0FB1508F495CF8F2D0E9404
:10352000861591CFBB20D1F329E3A21209C03FEF4A
:1035300087EE93E0315080409040E1F700C00000FA
:103540008D2F0E9497157FCF8C2F8695869583703F
:1035500069F0813009F077CF8D2F9C2F9370C110C7
:1035600002C080E090E00E94D8066DCF8D2F9C2F86
:103570009370C11002C080E090E00E94FD0663CF0E
:103580008C2F837009F03FC0C1105DCF4D2F429545
:1035900046954770440F440F2D2F2F7030E0042EB6
:1035A00002C0220F331F0A94E2F790E080E0D4FFBC
:1035B00009C08FE090E002C0880F991F4A95E2F79A
:1035C00080959095C695C695C370C23099F078F4F1
:1035D00040910B0250910C02C13039F0822B932B99
:1035E000842395230E948B0A2ECF242B352B822BEC
:1035F000932BF8CF822B932B20910B0230910C024E
:1036000082279327EFCF8695CC2011F08C2F8170E5
:10361000882309F418CF4D2F429546954770440FE3
:10362000440F2D2F2F7030E0042E02C0220F331FC5
:103630000A94E2F790E080E0D4FF09C08FE090E0C8
:1036400002C0880F991F4A95E2F780959095C6951C
:10365000C695C370C23099F078F4409155025091EC
:103660005602C13039F0822B932B842395230E947C
:103670004D0AE9CE242B352B822B932BF8CF822BAE
:10368000932B209155023091560282279327EFCF3A
:10369000CF70CC2029F08C2F0E947B0A8D2F08CF71
:1036A0008D2F0E9486158C2F0E94520ACCCE8D2F12
:1036B000E2EFAE1699F1EA1570F0F0EFAF16D1F027
:1036C00021EFA21691F0CC2009F45BC0B11074CEAA
:1036D0008C2F8F7127C033EFA31639F194EFA91205
:1036E000F2CF8091580282FD2EC08C2F8F71CC209A
:1036F000D9F218C0CC2069F0E4E0EB1508F4A3CEB1
:10370000CF7181E090E002C0880F991FCA95E2F75F
:10371000B8CFF5E0FB1508F496CEF2CF8C2F8F7161
:10372000C110C2CF0E947B0A8ECE90E080E0CC20F8
:1037300009F49DCFCF7181E090E002C0880F991FFE
:10374000CA95E2F794CFCC2089F0CF718C2F0E94DC
:103750007B0A8091580282FF07C028E0C29FC00107
:10376000112483608093FF018C2FDCCF81E00E94C5
:10377000640A31E03B1508F066CE82E00E94640ADC
:1037800062CEBB2059F0893309F0DACE8FEF97EE85
:10379000E3E081509040E040E1F7D0CE8C2F8F7174
:1037A00083CFC631FCE7DF0751F580910A028A7AA0
:1037B00091E009F490E09093DE0169E2811165E304
:1037C00086ED91E00E94BE060E943112C3CBC63145
:1037D0002CE7D20709F064C08091DE018111C0CCD2
:1037E00089E2E8EDF1E02EED31E09191891303C01B
:1037F000DF0111971C922E173F07B9F7E5CFC330B1
:103800003CE7D30709F458CD08F03AC0C1309CE733
:10381000D90709F457CD08F03DCDC115DC4709F0B3
:103820005CCD0E94A312FFEF24E33CE0F150204066
:103830003040E1F700C0000081E08093E00080E2CA
:103840008093D8001092C9008FE19EE40197F1F7B0
:1038500000C0000087E090EBDC018093EF029093C2
:10386000F002A093F102B093F20288E19CE00FB65F
:10387000F894A895809360000FBE90936000FFCFEE
:10388000CB352CE7D20709F477CDCC353CE7D3070D
:1038900009F41ACDCA35DC4709F01FCD81E01BCDF4
:1038A00080910A028272FE01E052F847E531F1058B
:1038B00008F013CDE65EF74D0C942F27CF93DF93DE
:1038C0008091FE01807F09F04DC08091FD01882329
:1038D00009F448C0E091EB025091B202C091F901A5
:1038E000D091F8016091FA017091FB0147E05E17F9
:1038F000C9F18E2F90E0E49FF0011124ED54FD4FAB
:103900002481222391F1489FF001499FF00D112459
:10391000DF01AD54BD4F11962C9111972C1325C08A
:103920002C912D1322C015962C91159721111DC095
:1039300012962D913C91261B370B283C3105A8F49B
:103940008091FE018F7080618093FE01E754FD4FEE
:1039500080818F708061808388EF91E00E9486175C
:103960000E949909DF91CF910895FC013196E7708B
:10397000BECFA4E1B0E0EFEBFCE10C94CA268C01D1
:1039800086E0F801DE011F9601900D928A95E1F71D
:10399000F8018481E58098EFA92E91E0B92E9091ED
:1039A000FC01911128C0882319F1EE20F1F0C80123
:1039B0000E94900AF82E8823C1F087E0F801D50113
:1039C00001900D928A95E1F78091FC01813031F4EC
:1039D0008091F8019091F9010E94D7090E945E1C24
:1039E0008F2D6496ECE00C94E626C8010E948617A1
:1039F000FF24F394F5CFD080C18082809380F09033
:103A0000FD012091FA013091FB01A401421B530BEF
:103A1000FF2009F4D9C0483C510508F092C0882322
:103A2000F9F29091F9018091FE01282F207F09F091
:103A300056C0C91214C09091F801D91210C0E110FB
:103A400048C08F7080618093FE0188EF91E00E94F2
:103A500086178091FE01F8018683F12CC1CFE11019
:103A600038C06C2D8D2D0E941A056C2D8D2D0E9455
:103A70001A05E82E8111F1CFDF86C88A8F859889D3
:103A80000E94D709292F22952F70243058F49F7057
:103A9000223088F0992399F0F8019681907F79F48B
:103AA000FE2C9ECF2A5F2F70223068F0C8010E9442
:103AB0008617EF2CF5CF992311F0882389F3805EC8
:103AC000883070F3F3CF803F58F3815F833070F715
:103AD000E7CF8091FE0181608093FE01BECFC912C5
:103AE00007C09091F801D91203C0EE2009F48DC0EF
:103AF000C8010E94900A882309F477CFEE2009F4C8
:103B000074CF8091FE01803288F02091F8013091CD
:103B1000F901398728879B868A869091FC019C87CA
:103B20001D868E87CE0108960E94861787E0F801D1
:103B3000A8EFB1E001900D928A95E1F70E945E1C1A
:103B400057CF9091FE01292F207F51F488EF91E00B
:103B50000E94861787E0F50111928A95E9F77DCFDB
:103B6000882309F43DCF8091F9018C1110C0809118
:103B7000F801D8120CC0E1100AC09683C8010E9457
:103B8000861787E0F50111928A95E9F729CFC801D8
:103B90000E94900A882309F428CFEE2009F425CF4B
:103BA0008091FE01803210F22091F8013091F901EC
:103BB0003A8329839C828B829091FC019D831E8293
:103BC0008F83CE010196B0CF483C5105D0F68823B3
:103BD00009F40ECFFE2CEE2009F407CF8091F901F5
:103BE0008C1120C08091F801D8121CC08091FE0178
:103BF00080FD0FC0982F907F61F08683903F31F059
:103C0000982F907F905F8F70892B8683C8010E94C8
:103C1000861787E0F801A8EFB1E001900D928A9530
:103C2000E1F7DECEC8010E94900A81117FCF80911A
:103C3000FE0181608093FE01C8010E948617D0CEEC
:103C4000ABE1B0E0E6E2FEE10C94D2264E8B5F8B56
:103C5000688F798F8A8F9B8F192F9111109209028B
:103C60001D8A86E0FE017696DE011F9601900D9278
:103C70008A95E1F70A8D002341F021E04F855889AC
:103C800069897A89C8010E94CB0A0B8B1C8B87E05B
:103C9000FE013F96DE01189601900D928A95E1F79C
:103CA000CE0108960E94B91C81110CC087E0FE016C
:103CB0003896DE01119601900D928A95E1F78C8578
:103CC00081110BC017E08091EB029091B202891331
:103CD00031C06B96E4E00C94EE262091B20230E005
:103CE000C9010196877099274091EB024817190680
:103CF00099F097E0929FD001939FB00D1124AD549D
:103D0000BD4FFE01319601900D929A95E1F7809397
:103D1000B2020E949909D6CF0E94A3121092B20259
:103D20001092EB0287E0E8EFF1E0DF011D928A9547
:103D3000E9F7C8CF819FC00111248D549D4F0E9487
:103D4000B91C882331F28091EB0290E001968770D4
:103D500099278093EB02B7CFA6E0B0E0E2EBFEE15B
:103D60000C94D2260E94B2068C0180910D02909193
:103D70000E028017910781F019821A820E94B20602
:103D8000682F49815A81792F80E090E00E94201E9F
:103D900010930E0200930D022696E4E00C94EE269A
:103DA0001F920F920FB60F9211242F933F934F93B0
:103DB0005F936F937F938F939F93AF93BF93CF93B3
:103DC000DF93EF93FF93D091E900DF708091EC00D7
:103DD000C82FC17080FDC0E81092E9008091F0000A
:103DE000877F8093F00078940E94B9121092E900C6
:103DF0008091F00088608093F000CD2BCF70C0934D
:103E0000E900FF91EF91DF91CF91BF91AF919F9129
:103E10008F917F916F915F914F913F912F910F9073
:103E20000FBE0F901F9018951F920F920FB60F9212
:103E300011242F933F934F935F936F937F938F93AF
:103E40009F93AF93BF93EF93FF938091E10082FF25
:103E500015C08091E20082FF11C08091E1008B7F4C
:103E60008093E10020919A022F5F822F62E30E94EB
:103E7000FB26992309F4C0C020939A028091DA00AE
:103E800080FF28C08091D80080FF24C08091DA0094
:103E90008E7F8093DA008091D90080FFE3C080E1BB
:103EA00089BD82E189BD09B400FEFDCF81E0809328
:103EB000A80283EB97E00E94780480919B02811115
:103EC00009C00E9439050E94DA058091E2008460F1
:103ED0008093E2008091E10080FF1BC08091E200AE
:103EE00080FF17C08091E2008E7F8093E200809176
:103EF000E20080618093E2008091D800806280932C
:103F0000D80019BC85E08093A8028BEB97E00E9453
:103F100078048091E10084FF2FC08091E20084FF4B
:103F20002BC080E189BD82E189BD89B5982F917050
:103F300080FFFBCF8091D8008F7D8093D800809147
:103F4000E1008F7E8093E1008091E2008F7E80937C
:103F5000E2008091E20081608093E2008091A902FA
:103F6000882309F489C084E08093A8028FEB97E04E
:103F70000E9478048091A8028091E10083FF2BC009
:103F80008091E20083FF27C08091E100877F8093CA
:103F9000E10082E08093A8021092A9028091E100E2
:103FA0008E7F8093E1008091E2008E7F8093E2001B
:103FB0008091E20080618093E20042E060E080E076
:103FC0000E94A8058091F00088608093F00083EC47
:103FD00097E00E947804FF91EF91BF91AF919F917C
:103FE0008F917F916F915F914F913F912F910F90A2
:103FF0000FBE0F901F90189510929A02809199020F
:10400000882309F43BCF8091A8028430C1F49091B9
:10401000E9009F702091EC00822F817020FD80E8E4
:10402000892B93E09093E9009091EB0090FF04C0FE
:104030009091EE0097FD08C08F708093E900109278
:1040400099021CCF1092F1009091E80095FDFACFF3
:104050009091E80090FFF0CF9091E8009E779093C8
:10406000E800EACF19BC1092A80287EB97E00E9403
:10407000780410929B022ECF8091E30087FD93E09D
:104080009093A80273CF78941F921FB61F921124A9
:104090008F939F93AF93BF938091940290919502D9
:1040A000A0919602B09197020196A11DB11D809337
:1040B000940290939502A0939602B0939702BF91B9
:1040C000AF919F918F911F901FBE1F9018951F92C7
:1040D0001FB61F9211248F939F93AF93BF9380912C
:1040E0009302811113C08091940290919502A09146
:1040F0009602B09197024196A11DB11D8093940242
:1041000090939502A0939602B0939702BF91AF91BE
:104110009F918F911F901FBE1F90189500D000D0C7
:1041200000D0CDB7DEB785B7806885BF85B780681A
:1041300085BF84B7877F84BF0FB6F894A895809118
:104140006000886180936000109260000FBE80E87C
:1041500090E00FB6F89480936100909361000FBED9
:1041600080EF9AE09093D5018093D4010E943905A5
:104170000E94DA058091E20084608093E2007894E6
:104180008091A8028823A1F01091E9001F709091FE
:10419000EC00892F817090FD80E8182B1092E900C7
:1041A0008091E80083FD0E94B9121F701093E9000E
:1041B00082E084BD93E095BD9AEF97BD80936E0039
:1041C0001092450210924602109247021092480245
:1041D00090E080E00E947927863E9E4F11F00E9479
:1041E000EE168EE090E00E946B2791E0811101C0F5
:1041F00090E0909330010E94DD0B81110E946225B6
:104200009091300181E0982790937002A82FA91B0C
:10421000A0934A02909130018093710290913001F5
:104220008093490280913001811106C084EF809310
:104230003A0185EF8093390120913A01E22FE2950E
:10424000EF70F0E061A12F7081E090E0AC0101C05F
:10425000440F2A95EAF7342F3095362331A322A153
:10426000242B22A320913901E22FE295EF70F0E098
:1042700031A12F7001C0880F2A95EAF7982F9095E9
:10428000932391A392A1892B82A38FE891E00197B8
:10429000F1F700C000001091710262E772E04AE39A
:1042A00051E089E3E82E81E0F82EFB0128C0DA0115
:1042B0002D91AD01822F82958F7090E0DC01909658
:1042C0008C9190E02F7002C0959587952A95E2F722
:1042D0008170D7019D917D01292F22952F7030E0AB
:1042E000D90190962C9130E09F7002C035952795AA
:1042F0009A95E2F790E020FD92E0892B81938E2F32
:10430000861B8117A0F2809130018091300194E0EA
:10431000811190E09093540284E0891B80935302B2
:1043200086E60E944D0787E90E944D0786EC0E94B1
:104330004D0785E30E944D0704EA11E0EAEAEE2EFC
:10434000E1E0FE2EF80181918F018F3F11F00E9474
:104350004D07E016F106B1F788E0ECE5F2E0DF0189
:10436000282F1D922A95E9F7EBE4F2E0DF011D9278
:104370008A95E9F790E080E00E947927863E9E4F7B
:1043800011F00E94EE1682E090E00E946B27182F39
:104390008093750284E090E00E9479279093580200
:1043A0008093570283E090E00E946B2790E00E9488
:1043B0008B0A80915902811122C110FF14C08DE532
:1043C00095E09F938F930E941105809175020F9045
:1043D0000F9080FF08C087E495E09F938F930E9421
:1043E00011050F900F9090E080E00E947927863EA3
:1043F0009E4F81F08091750280FF08C08FE195E0AB
:104400009F938F930E9411050F900F900E94EE16BC
:104410000E94980E88E090E00E9473274B015C0197
:1044200084E290E00E946B27282F30E040E050E0CB
:1044300060E070E080E090E000E20E9435272829EB
:1044400039294A295B2920938502309386024093BB
:104450008702509388026093890270938A02809346
:104460008B0290938C028091780283608093780213
:104470002E7FF1F58091750280FF08C086ED94E0F3
:104480009F938F930E9411050F900F900E94980E9A
:1044900088E090E00E9473276B017C0184E290E049
:1044A0000E946B27282F30E040E050E060E070E091
:1044B00080E090E000E20E943527B22FA32FF42F76
:1044C000E52F5B0197018601BC29A12BFE29E32B77
:1044D000B0938502A0938602F0938702E09388024E
:1044E00060938902B0928A0280938B0290938C022F
:1044F0000E943E078091750280FF76C08DEB94E0AC
:104500009F938F930E941105809175020F900F90D9
:1045100080FF6AC08091850281701F928F9380EA2C
:1045200094E09F938F930E941105809175020F90E4
:104530000F900F900F9080FF57C080918502869555
:104540001F928F9385E894E09F938F930E941105AB
:10455000809175020F900F900F900F9080FF44C0D4
:10456000809186021F928F938BE694E09F938F93A6
:104570000E941105809175020F900F900F900F907F
:1045800080FF32C0809187021F928F9381E594E073
:104590009F938F930E941105809175020F900F9049
:1045A0000F900F9080FF20C0809188021F928F9300
:1045B00087E394E09F938F930E9411058091750289
:1045C0000F900F900F900F9080FF0EC08091890286
:1045D0001F928F938BE194E09F938F930E9411051C
:1045E0000F900F900F900F908091850280FF04C074
:1045F00060E086950E94430E81E0809359020E94FC
:10460000DD0B811102C00E94652581E391E090934A
:10461000900280938F028091A8028530B9F5809135
:10462000750280FF04C08DEA95E00E947804FF24A3
:10463000F39400E112E18091A802853009F488C06A
:104640000E94A3120E94000C10925B0280915A02F9
:104650008823E1F0809185028160809385028091BA
:10466000750280FF0DC01F9281E08F9384E795E073
:104670009F938F930E9411050F900F900F900F90B2
:104680008091850260E086950E94430E0E9446104C
:1046900054E6652E52E0752E6CE5462E62E0562EED
:1046A0007AEA272E71E0372E2CE632E08101C20132
:1046B000F3015191DC014D91CD01D8016D918D0136
:1046C00046232E173F0709F48FC0541791F38091AA
:1046D000750281FDC8C00E94DD0BD82E00E0BB240E
:1046E000B394D2011D912D01F10181911F01182375
:1046F000D301CD903D01C11629F1C126F12CEE2444
:10470000E3948C2D8E21B1F0DD20A1F0F9820A8393
:104710000E94B2069C838B83BD8291E0812F8E2103
:1047200009F490E09E8349815A816B817C818D815F
:104730000E94201EF394EE0CB6E0FB12E2CFF301D0
:10474000319710830F5F083061F60E94110C50C042
:104750008091A802843009F431C080915B028111FC
:1047600009C0F0925B0280918502817080935A02A9
:104770000E942E0C1092930288E190E0A0E40FB604
:10478000F894A895809360000FBEA093600083B753
:10479000817F846083BF83B7816083BF789488956D
:1047A00083B78E7F83BF0FB6F894A8958091600081
:1047B000886180936000109260000FBE8091A70214
:1047C000882309F438CF0E944610ECE5F2E0AAEA0B
:1047D000B1E081919D91892309F004C184E692E0C2
:1047E0008E179F07B1F727CF541371CF0E94AC1ECD
:1047F0000E94DD0BE12CD12C80917102E81608F4A7
:1048000070C0D1100E942B0C0E94000C182F8091B8
:104810007402181709F4FFCE109374020E94A606C2
:104820008091750282FFF7CE80FFF5CE88EE95E08D
:104830000E9478048091750280FFEDCE1F921F9335
:1048400083EE95E09F938F930E94110580917502EE
:104850000F900F900F900F9080FFDDCE81EE95E0CE
:104860000E947804D8CE82ED95E00E9478049AEAFE
:10487000C92E91E0D92E2CE5A22E22E0B22E10E016
:1048800000E03DEC832E35E0932E45ECE42E45E030
:10489000F42E1F930F939F928F920E9411058AEC22
:1048A00095E00E947804F50191915F01D6018D9108
:1048B0006D0189230E94B30A1F928F93FF92EF929A
:1048C0000E94110583EC95E00E9478040F5F1F4F52
:1048D0000FB6F894DEBF0FBECDBF08301105C9F684
:1048E000FACE0E2D10E0F801E65CFE4F8081E82F35
:1048F000E295EF70F0E0E0A1F0E08F7002C0F59576
:10490000E7958A95E2F7E170D801A75CBE4F2C913C
:10491000A22FA295AF70B0E090968C9190E02F708E
:1049200002C0959587952A95E2F780FD53C080E0F7
:104930008E2BD801AE58BD4FEC919E2F93708917E6
:1049400009F446C0EE0FEE0FE82BEC93F0907002E6
:10495000FE0CEF70F0E0EE54FE4F02591D4F8081C7
:10496000F8019081890F8083C12C84308CF0EF2D69
:10497000F0E0E459FD4F80818F5F80830E94DD0B62
:10498000C82E882349F16AE070E08AEA0E941F1667
:10499000D8018C918D3F8CF4EF2DF0E0E459FD4F60
:1049A0008081815080830E94DD0BC82E8823B9F05E
:1049B0006AE070E089EA0E941F16F8018081082EE3
:1049C000000C990B64E070E00E941B278083DC28B8
:1049D000E39412CF82E0ACCFCC24C394D9CFCC24C3
:1049E000C394EBCF09BD19BD09B400FEFDCF809182
:1049F000D8008F7D8093D8008091E0008260809302
:104A0000E0008091E00081FDFCCF0E94A31213CE54
:104A10008EE14A9B02C08150E1F74A9BFECF089588
:104A20005A9880E28A95F1F75A9A0895FC013BE082
:104A30003A95F1F798E020E080E031E040E14A95D6
:104A4000F1F7880F4A9B02C08160232742E04A9514
:104A5000F1F7000040E14A95F1F7915079F790E1C4
:104A60009A95F1F799B132E03A95F1F7000040E1FB
:104A70004A95F1F792FB992790F992272081920F9E
:104A800090830895A1E0B0E0E8E4F5E20C94D0262C
:104A900019828C017C01E60EF11C0E151F0541F4F4
:104AA00081E09981911180E02196E6E00C94EC265A
:104AB0000E940825CE0101960E941625F8018193D7
:104AC0008F01EBCF529A5A9A089552985A9AEA9ABD
:104AD000E9E6F0E080818F7C808308956150770B58
:104AE00091E001C0990F6A95EAF720E031E0911159
:104AF00008C0222391F05A9A80E28A95F1F75A98D9
:104B00000895492F482339F05A9A232740E24A95BD
:104B1000F1F79695ECCF5A98F9CF5A98EDCFFF92CE
:104B20000F931F93CF93DF93EC018C01060F111DA0
:104B3000C017D10729F4CDB7DEB7E5E00C94ED2618
:104B4000F9900E94102568E08F2D0E946E25F0CF0D
:104B50001F920F920FB60F9211240F931F932F9352
:104B60003F934F935F936F937F938F939F93AF93F5
:104B7000BF93EF93FF93CF93DF930F92CDB7DEB741
:104B800019820E940825CE0101960E941625082F41
:104B9000069506950695282F22952570902F9570DD
:104BA000290F922F937026952695920F982797702C
:104BB0008981982B09F05CC0073008F059C080E16A
:104BC0008A95F1F75A9A529A82E08A95F1F700C0D5
:104BD0005A9888E0089F80011124D801A050BF4F47
:104BE0001696ED91FC9117973097A9F060919E0170
:104BF00070919F0114962D913C911597260F371FA8
:104C000011968D919C911297680F791F13964C9174
:104C100013978C910995F801E050FF4F638166234B
:104C200051F020919E0130919F0184819581820FE6
:104C3000931F0E948F250E94102580E18A95F1F72D
:104C40005A9852985A9A80E18A95F1F7F801E05003
:104C5000FF4F6081662351F020919E0130919F01AA
:104C600081819281820F931F0E9442250E94082514
:104C70000F90DF91CF91FF91EF91BF91AF919F91F5
:104C80008F917F916F915F914F913F912F911F91E4
:104C90000F910F900FBE0F901F9018950F931F93B9
:104CA000CF93DF93EC0107970CF04CC0F894529A25
:104CB0005A9885E08A95F1F700009C2F969595709B
:104CC0008C2F8570980F892F83709695969523E089
:104CD000CC0FDD1F2A95E1F7980F8E01092B0E945A
:104CE000102500C068E0802F0E946E2580E18A9523
:104CF000F1F752985A9A4A9B1EC087E090E04A9971
:104D00001CC0FE01E050FF4F63816623F9F0209143
:104D10009E0130919F0184819581820F931F0E9493
:104D20004225811113C0529A5A9A7894DF91CF91FB
:104D30001F910F91089500C0DECF019729F4529A78
:104D40005A9A789480E0F2CF00C0D9CF0E9408250B
:104D500080E28A95F1F75A98529A80E18A95F1F7A4
:104D6000C050DF4F6881662351F020919E01309141
:104D70009F0189819A81820F931F0E948F250E9433
:104D80001025789481E0D2CF2F923F924F925F927C
:104D90006F927F928F929F92AF92BF92CF92DF924B
:104DA000EF92FF920F931F93CF93DF93CDB7DEB7B0
:104DB000CA1BDB0B0FB6F894DEBF0FBECDBF099444
:104DC0002A88398848885F846E847D848C849B849B
:104DD000AA84B984C884DF80EE80FD800C811B81A9
:104DE000AA81B981CE0FD11D0FB6F894DEBF0FBED8
:104DF000CDBFED010895991B79E004C0991F961766
:104E000008F0961B881F7A95C9F780950895AA1B0C
:104E1000BB1B51E107C0AA1FBB1FA617B70710F0A5
:104E2000A61BB70B881F991F5A95A9F780959095D7
:104E3000BC01CD01089597FB072E16F4009407D00E
:104E400077FD09D00E94072707FC05D03EF4909516
:104E500081959F4F0895709561957F4F0895EE0F4E
:104E6000FF1F0590F491E02D0994002E083090F07A
:104E7000982F872F762F652F542F432F322F2227DD
:104E80000850F4CF220F331F441F551F661F771F92
:104E9000881F991F0A95B2F7002D089597FD109469
:104EA000002E083098F00850232F342F452F562F0E
:104EB000672F782F892F912DF4CF1594979587958B
:104EC0007795679557954795379527950A95AAF74A
:104ED0001124002D0895F999FECF92BD81BDF89A55
:104EE000992780B50895A6E1B0E044E050E00C9425
:104EF000B527A8E1B0E042E050E00C94B527DC0112
:104F0000A40FB51F4150504048F0CB01840F951FAE
:104F10002E910E94902741505040D0F70895262F9F
:104F2000F999FECF92BD81BDF89A019700B402169F
:104F300039F01FBA20BD0FB6F894FA9AF99A0FBE4D
:104F400008950396272F0E9490270E948F27252FD0
:104F50000E949027242F0C9490270196272F0E94BF
:104F600090270C948F27DC01CB01FC01F999FECF2F
:104F700006C0F2BDE1BDF89A319600B40D924150E1
:104F80005040B8F70895FB01DC0104C08D910190F9
:104F9000801921F441505040C8F7881B990B08959F
:104FA000FB01DC0102C001900D9241505040D8F746
:104FB0000895F894FFCF9813C0135E15C0135E15C3
:104FC000F31314145E1512151F15C217C617A41774
:104FD000BE17CA17CE17D2172D18A2183518FF17EB
:104FE0000318391807183D18491813189B18171873
:104FF0004D181B18511879181F18551880182518A6
:105000005B1863180B1841180F18451829185F18FA
:105010006F1889189918F9173118A918C319C319E5
:10502000FB19FB19A41A231A231A231AC01A481BA6
:10503000571B571BB21813191A191F1924192919AC
:105040002E19331938193D1942194719AA17AA17E9
:0E505000AA17AA17AA17AA17AA17AA17AA170B
:10505E00000000010000000000000004010000003C
:10506E000000000105000000000000010600000025
:10507E0004070000000000000B0B00000000000001
:10508E00019406940B93068D0BF4F501736C617607
:10509E00655F6D617472697800656E636F646572C9
:1050AE000073796E635F74696D6572007267626C0E
:1050BE006967687400818283E200E900EA00B50046
:1050CE00B600B700CD008301CC008A019201940195
:1050DE002102230224022502260227022A02B300FD
:1050EE00B4006F0070009F01CB019F02A0022B0243
:1050FE006697C635F6F7313332363F3F3F3E3F3F78
:10510E003F3E00FF0100010000FFFF000001000113
:10511E00FF0000014432220001CE00AC00D907F29C
:04512E00070B080063
:00000001FF
