:100000000C9410020C942D020C942D020C9445209B
:100010000C942D020C942D020C942D020C942D02A4
:100020000C942D020C942D020C94251B0C94E11AB7
:100030000C94221C0C942D020C942D020C942D0275
:100040000C942D020C942D020C942D020C942D0274
:100050000C942D020C94FE1B0C942D020C942D027A
:100060000C942D020C942D020C942D020C942D0254
:100070000C942D020C942D020C942D020C942D0244
:100080000C942D020C942D020C942D020C942D0234
:100090000C942D020C942D020C942D020C942D0224
:1000A0000C942D020C942D020C942D02350014009A
:1000B0001A000800150017002B00040016000700A6
:1000C00009000A00E0001D001B00060019000500E1
:1000D0000000E300E200A252215229002A0013008E
:1000E00012000C0018001C00280033000F000E0046
:1000F0000D000B00340038003700360010001100EE
:100100000000E700E2002C002252737C06011E0072
:100110001F002000210022001B01E300E200E0009C
:10012000E100190101003A003B003C003D003E00A7
:10013000000001000100010001001D010100270075
:1001400026002500240023004E004E004F005200E0
:1001500051005000E40043004200410040003F00D5
:10016000000001000100010023521C0149001E0291
:100170001F02200221022202000031002D002E0069
:100180002F003000010031022D022E022F0230021A
:1001900000000100010001002352B4524C0027026C
:1001A00026022502240223024D00E700E200E400BB
:1001B000E5004A00E4000000AE00A900AA00A80083
:1001C00000000100010001000100650000000000C6
:1001D0000000000014701B7000000000BE00BD0095
:1001E00015701C700000E300E200E000E100000078
:1001F000000000000000000001000000037C00007F
:1002000046004500440000000000000025782378E7
:1002100027782178007C00002678247828782278B6
:100220000000000000000000010020780001010132
:1002300001010101010102020202020202020203A3
:100240000303030303030304040404040404050573
:100250000505050606060606070707070708080836
:1002600008090909090A0A0A0B0B0B0C0C0C0D0DE5
:100270000D0E0E0E0F0F0F1010111111121213137D
:100280001414151516161717181819191A1A1B1BF6
:100290001C1D1D1E1E1F2020212222232424252652
:1002A00026272829292A2B2C2D2D2E2F303132328A
:1002B000333435363738393A3B3C3D3E3F40414296
:1002C000434445464748494A4C4D4E4F505153547C
:1002D000555658595A5B5D5E5F6162646566686930
:1002E0006B6C6D6F7072737577787A7B7D7E8082B0
:1002F000838587888A8C8E8F91939596989A9C9EF9
:10030000A0A2A3A5A7A9ABADAFB1B3B5B7BABCBE08
:10031000C0C2C4C6C9CBCDCFD1D4D6D8DBDDDFE2D5
:10032000E4E7E9EBEEF0F3F5F8FAFDFF05010980EB
:10033000A101850319012AB700150126B70095010F
:1003400075108100C0050C0901A101850419012A5D
:10035000A002150126A002950175108100C00501BB
:100360000906A101050719E029E7150025019508EF
:10037000750181029501750881010507190029FFA2
:10038000150026FF0095067508810005081901294A
:1003900005150025019505750191029501750391DB
:1003A00001C009023B00020100A0FA09040000019B
:1003B0000301010009211101000122440007058108
:1003C00003080001090401000103000000092111D4
:1003D0000100012232000705820320000112010002
:1003E00002000000084D4D464801000102000118BE
:1003F00003480069006C006C0073006900640065CC
:1004000000200034003600000010036D006D006312
:100410000063006F00790064000000040309040019
:1004200011241FBECFEFDAE0DEBFCDBF11E0A0E0A8
:10043000B1E0E0E8F5E402C005900D92A439B107FF
:10044000D9F722E0A4E9B1E001C01D92AF3AB207AA
:10045000E1F70E94491C0C946A220C940000482F7A
:100460002091AB029091720257E0291302C080E004
:10047000089530E0529FF001539FF00D1124ED5884
:10048000FD4F8181681306C08081481303C08581B8
:100490008111EECF2F5F3F4F2770E7CFE8EDF0E0FF
:1004A00080818E7F80831092E2001092DA00109299
:1004B000E100A0EEB0E08C9181608C9380818F7719
:1004C000808319BCA7EDB0E08C918E7F8C938081E6
:1004D0008F7E808310925B0208952091E40030911A
:1004E000E50095E6A9012091EC00822F817020FFA4
:1004F00006C08091E80080FF06C080E0089520914A
:10050000E80022FD1AC080916802882389F08530B6
:1005100089F08091EB0085FD0FC02091E4003091BF
:10052000E50042175307F9F29150E1F684E008958F
:1005300082E0089583E0089581E0089580916A0241
:1005400087FF13C08091E80082FF06C08091E80019
:100550008B778093E80004C0809168028111F2CF0C
:100560000895809168028823D9F38091E80080FF84
:10057000F8CF8091E8008E77ECCF982F9093E90028
:10058000242F762F50E0891731F07091EC002091E4
:10059000ED005091F00021FD07C09F5F973071F78B
:1005A0008093E90081E008953091EB003E7F309325
:1005B000EB003091ED003D7F3093ED003091EB008A
:1005C00031603093EB007093EC002093ED0050937A
:1005D000F0002091EE0027FDE0CF80E00895B0E02C
:1005E000A0E0E5EFF2E00C946B21C8EDD0E088814B
:1005F0008F7E8883E7EDF0E080818160808384E0F6
:1006000082BF81E080935B0288818E7F888302EEC7
:1006100010E0F80110821092DA0081EEC82ED12C81
:10062000F601108288818F7788838881806888832B
:1006300088818F7D888319BC1092680210926902AC
:10064000109267021092660290EEE92EF12CF701EB
:1006500080818B7F808388818160888342E060E035
:1006600080E00E94BD02F60180818E7F8083F801C8
:10067000808181608083808188608083F7018081B0
:100680008E7F8083888180618883CDB7DEB7E8E084
:100690000C948721FC018091700290917102861761
:1006A0009707A0F06115710529F49091E8009E77F5
:1006B0009093E80090E06115710551F4911108C024
:1006C0008091E80082FF34C080E00895BC01F2CF41
:1006D000809168028823C1F18530C1F18091E800E2
:1006E00083FD30C08091E80082FDEACF8091E80070
:1006F00080FFE1CF8091F3002091F200382F611547
:10070000710519F02830310558F091E02830310595
:1007100009F090E02091E8002E772093E800CBCFFD
:1007200081918093F100615071092F5F3F4FE7CFB6
:1007300080916802882341F0853041F08091E80083
:1007400083FFBECF81E0089582E0089583E008959D
:10075000089580915D0208959C014FB7F8948091AF
:10076000570290915802A0915902B0915A024FBF7E
:10077000821B930B08952FB7F894609157027091E4
:1007800058028091590290915A022FBF08952FB7B5
:10079000F8948091570290915802A0915902B0911B
:1007A0005A022FBF08959C01FC0132969FEF80E012
:1007B0004191461751F09F3F19F4411101C0982F04
:1007C0008F5F8630A9F79F3F09F40895290F311DE7
:1007D00097FD3A95F90162830895A3E0B0E0E3EF55
:1007E000F3E00C94712120915402309155022817A6
:1007F0003907A1F09093550280935402E091520280
:10080000F0915302309751F024E029839B838A832F
:100810000680F781E02DCE01019609952396E2E04E
:100820000C948D21A3E0B0E0E8E1F4E00C94712198
:10083000209150023091510228173907A1F090936E
:10084000510280935002E0915202F091530230978E
:1008500051F023E029839B838A830680F781E02D72
:10086000CE01019609952396E2E00C948D21FC01BE
:10087000680F791F8FEF91E32191822728E030E004
:1008800087FF09C0880F892721503109C9F7E6176A
:10089000F70791F70895880FF7CFFA01811101C08A
:1008A000FB010995089580914602982F9E7F39F4A7
:1008B0008091460281708260809346020895843060
:1008C000B8F7089580E00895F894E82FE295EF7066
:1008D000F0E031A1282F2F7081E090E001C0880F57
:1008E0002A95EAF7982F9095932391A392A1892BAB
:1008F00082A3789408959091160292FF10C041E06F
:10090000282F2471243009F040E031E0282F28718D
:10091000283009F030E0431711F02CE0822793FFD4
:1009200010C041E0282F2471243109F040E031E06B
:10093000282F2871283109F030E0431711F02CE0FE
:1009400082273091170230FF10C051E0282F21710B
:10095000213009F050E041E0282F2871283009F0BB
:1009600040E0541711F029E0822731FF10C041E028
:10097000282F2171213109F040E031E0282F287122
:10098000283109F030E0431711F029E0822794FD67
:10099000877E089582389105B9F1B0F481339105CD
:1009A00009F47DC048F48932910509F46DC08A329A
:1009B000910509F47BC008958533910509F45FC062
:1009C0008933910509F10895833E9105D9F138F4F1
:1009D000803E910529F1823E910579F10895863E88
:1009E0009105D9F1873E910509F43EC0843E9105F9
:1009F00041F52091170221FF24C08091160284FD49
:100A000019C087EE90E0089520911602237009F036
:100A10005AC02091170223FF14C089E290E0089584
:100A20002091160220FD38C03091170230FF09C016
:100A300024FF43C090E080E008952091160222FD3B
:100A4000F7CF08952091160222FD3AC03091170287
:100A500030FD39C024FFF5CFEDCF2091160223FFE2
:100A6000F0CF24FDE7CFCDCF2091160223FD2EC07D
:100A70003091170231FFEECF84EE90E0089520917F
:100A8000160225FFDECFC9CF2091160225FD21C019
:100A90002091170223FFD5CF89E390E0D2CF209198
:100AA000160226FFCECF8AE290E00895209116022A
:100AB00026FFC7CF81E390E0089583EE90E008958C
:100AC00082EE90E0089580EE90E0089586EE90E04A
:100AD000089585E390E00895972F7830B8F4663054
:100AE000A8F48430B0F470E026E0929F600D711D90
:100AF0001124FB0190E3899FE00DF11D1124EE0FFD
:100B0000FF1FE455FF4F85919491089580E090E098
:100B1000089581E0FCCF1F93CF93DF930E94CA0416
:100B2000EC01C11580E5D807F0F5C11580E4D807C0
:100B300008F09CC0C03ED10520F5CD3CD10508F0A1
:100B400082C0C83AD10578F4C53AD10508F073C01F
:100B5000C130D10519F1209709F1C430D105F0F465
:100B6000D0E0C0E01BC0C33CD105D0F7C85AD0E0EC
:100B7000CC0FDD1FC15CDE4F0990D881C02DD4643D
:100B80000DC0C11580E2D80708F0D1C0C11581E0C1
:100B9000D80708F05AC0C83ED10510F7CE01DF9142
:100BA000CF911F910895C03682E5D80718F5C0345B
:100BB00082E5D80708F06BC0C03282E5D80708F09C
:100BC0005FC0C11582E5D80708F497C02C2F269581
:100BD000269580E2289F900111248C2F8370C1E01C
:100BE000D0E002C0CC0FDD1F8A95E2F7C22BD32BD9
:100BF000DD68D4CFC03A82E5D80760F4C03882E51A
:100C0000D80708F459C0CF71D0E0DC2FCC27C46FCF
:100C1000D06AC4CFC03C82E5D80708F462C0C03EA9
:100C200082E5D80708F09CCFDC2FCC27CC27DF71DA
:100C3000C06FD06AB3CFC55AD0E0C45CDE4FC88164
:100C4000D0E0D064ABCFD065A9CF8D2F0E947B04BC
:100C5000182FCE0199270E94CA04C12FD0E0DC2FA3
:100C6000CC27CC27DF71C82BD92B98CFCE01992761
:100C70000E94CA04CC27DF70C82BD92BD06A8ECF34
:100C8000CF71D0E0DC2FCC27C16FD06A87CF2C2F5B
:100C900026952695277080E2289F900111248C2F9D
:100CA0008370C1E0D0E002C0CC0FDD1F8A95E2F76F
:100CB000C22BD32BDC6872CF2C2F2695269527705C
:100CC00080E2289F900111248C2F8370C1E0D0E036
:100CD00002C0CC0FDD1F8A95E2F7C22BD32BDA6856
:100CE0005DCF8C2F8F710E947B04C82FD0E0DC2F4A
:100CF000CC27CC27DF71D06251CF8C2F8F710E940F
:100D00007B0455E0D695C7955A95E1F7CF70D0E0B2
:100D1000DC2FCC27282F30E084FF05C044E0220FD1
:100D2000331F4A95E1F7C22BD32BD06937CF8D2FD4
:100D30008F710E947B04182FCE0199270E94CA044C
:100D4000C12FD0E0DC2FCC27CC27DF71C82BD92BCB
:100D5000D2CF8091C90181111092C9010895809567
:100D60009091C80198239093C80108958091AB0297
:100D700090917202981301C008958F5F8770FACF27
:100D8000B0E0A0E0E6ECF6E00C946A217C01009172
:100D90001402109115028091CA019091CB01082B89
:100DA000192BCFE0D0E0CC24C394D12CBC2EC601AB
:100DB0000C2E02C0880F991F0A94E2F7802391231A
:100DC000892B49F4219790F7B12C8B2DCDB7DEB745
:100DD000E9E00C948621B7018C2F0E946C050E94DB
:100DE0008B05019779F3F1CFCF93DF93EC010E944C
:100DF000C006BE010E946C050E948B05DF91CF9159
:100E00000895983078F5863068F5E82FF0E086E0B0
:100E1000989FE00DF11D11249E2F977083E0F695A9
:100E2000E7958A95E1F7EE0FFF1FEE0FFF1FE056E3
:100E3000FE4F50E040E080E0219130E0092E02C0FA
:100E4000369527950A94E2F721703327042E01C0C6
:100E5000220F0A94EAF7822B4F5F5F4F443051050F
:100E600059F7089580E00895983098F5863088F510
:100E7000E82FF0E086E0989FE00DF11D11248E2F01
:100E8000877041E001C0440F8A95EAF783E0F69548
:100E9000E7958A95E1F7EE0FFF1FEE0FFF1FE05673
:100EA000FE4F30E020E070E05191DF011197CB015F
:100EB000022E02C0969587950A94E2F7817081957B
:100EC0008527842385278C932F5F3F4F243031055E
:100ED00059F708959093150280931402089521E024
:100EE00030E002C0220F331F8A95E2F7209530953B
:100EF0008091140290911502822393230E946A0725
:100F000008959091BF01809589238093BF01282F78
:100F1000277069F4891759F09091170292FF07C062
:100F20008695869586950E946F071092BF01089559
:100F300021E030E002C0220F331F8A95E2F7809152
:100F4000140290911502822B932B0E946A07089538
:100F50009093CB018093CA010895FC012481222340
:100F6000C1F0808191810E94F40692959F70963025
:100F700091F058F4925F9F70923058F4803F19F0CE
:100F800030F4883E30F481E008959A5FF4CF843FD6
:100F9000D1F380E00895883EB0F3813FD1F7F3CFDD
:100FA000A6E0B0E0E6EDF7E00C94702149835A83A7
:100FB00049815A819923A1F0222391F0CA010E940C
:100FC000C006182F682F89819A810E943407698191
:100FD0007A81812F0E946C052696E3E00C948C2187
:100FE000CA010E940107182FF2CF0F931F93CF93CE
:100FF000DF938B01EA0190916802943061F5809350
:10100000E9008FEF9091E800815095FD06C095EDC5
:101010009A95F1F700008111F5CF8091E80085FFE6
:101020001AC00E946D02811111C08091E80085FDF7
:1010300006C08091E8008E778093E800F2CFF80137
:1010400081918F018093F100219779F78091E800D9
:101050008E778093E800DF91CF911F910F910895D3
:1010600043E050E0BC0182E00E94F5070895CF9371
:10107000DF93EC0148E050E0BC0181E00E94F507FD
:1010800088E0FE01AEE5B2E001900D928A95E1F7AD
:10109000DF91CF9108958091460280FD0AC0EAE376
:1010A000F2E0118210821282339652E0E634F507A4
:1010B000C1F7539A3BB1377F2BB128604FB7F894F3
:1010C0008AE392E0FC015191CF0168E02BB9000066
:1010D00000C057FF3BB9550F000000C000C000C062
:1010E0003BB900C06A9591F7F2E086349F0751F74B
:1010F0004FBF8FE594E00197F1F700C0000008951D
:10110000B0E0A0E0E6E8F8E00C9469217C015B0126
:101110006A018091030201E010E08A3010F40AE0D5
:1011200010E0C1E0D0E0B501C701F60109958111D9
:1011300004C021960C171D072CF4CDB7DEB7EAE0EA
:101140000C948521CC9F9001CD9F300D300D112442
:1011500090E080E045E34A95F1F7000001968217A0
:101160009307C1F7E0CF8091D801811119C088ECB5
:1011700090E02091E30027FD10C0EFE3FCE93197F8
:10118000F1F700C000000197A1F782E08093D80139
:101190000E944E021092680203C081E08093D80141
:1011A00081E09091D801913011F080E00895089588
:1011B0000E94B308882359F0E0915202F091530243
:1011C000309729F00190F081E02D0995089580E095
:1011D00008950F931F930E94B308882329F00E945B
:1011E000BB031F910F9108950E94BB03009104025D
:1011F000109105022091060230910702600F711FC5
:10120000821F931FEECF0E94E9080895B0E0A0E08E
:10121000ECE0F9E00C94672149015A016B017C0173
:101220000E9453048401A4016A2D7B2D88E090E084
:101230000E94322294014A2D5B2DB601C70100E2C3
:101240000E94E121622F84E290E00E942022CDB72B
:10125000DEB7ECE00C948321B0E0A0E0E2E3F9E03B
:101260000C946721D82FC62F142F822E009146028E
:1012700000FF4FC0809147028D1308C08091480243
:10128000861304C080914902841729F080913902A5
:10129000826080933902E02FE695F0E0EF56FE4F32
:1012A000808180933702802F8E7F8230D9F4E12FA6
:1012B000F0E0E45DFD4FC11131C02491F22FE22F27
:1012C00000FF10C0AAE3B2E01196EC9311972C93A3
:1012D0001296FC931297139682E0A634B807A1F7F2
:1012E0000E944B08D0934702C093480210934902D2
:1012F000882079F02091460260914A0270914B0259
:101300003D2F4C2F512F80914C0290914D020E9405
:101310000609CDB7DEB7ECE00C948321EC2EF12C5E
:10132000E4919E2ECE2ED12C26E0D29FC001112416
:101330002FEF30E0B9010E9498218D2F90E0880FA7
:10134000991FF5E5F69FA001F79F500D1124841B0E
:10135000950BB82EBB0CB80EA9014E195F094C9D18
:10136000C0014D9D900D5C9D900D1124F92FCB9DDA
:10137000A0011124452F5527D901A41BB50BAC9D05
:10138000A001AD9D500DBC9D500D1124D901AB198C
:10139000B1095D01AE9CD001AF9CB00DBE9CB00DFB
:1013A0001124AB2FBB272A1B3B0B2C9DD0012D9D5D
:1013B000B00D3C9DB00D11242B2F62307105A1F0B2
:1013C00050F46115710509F47BCF6130710581F02E
:1013D000292FF52F75CF6430710569F080F06630E4
:1013E000710509F46DCFF4CF2E2FE92FFB2F68CFB5
:1013F0002E2FE52F65CF292FFE2FEB2F61CFE92F61
:10140000F92D252F5DCFE6E4F2E0438128E0421B71
:1014100008F440E021E0628181810E942C09089556
:10142000E6E4F2E0438128E0420F08F44FEF21E0C8
:10143000628181810E942C090895E6E4F2E06281D4
:1014400028E0621B08F460E021E0438181810E9472
:101450002C090895E6E4F2E0628128E0620F08F4C6
:101460006FEF21E0438181810E942C090895E6E419
:10147000F2E0818121E04381628188500E942C0941
:101480000895E6E4F2E0818121E043816281885F92
:101490000E942C09089580914A02882319F08150F6
:1014A00080934A02209146023091470240914802BF
:1014B0005091490260914A0270914B0280914C0216
:1014C00090914D020E940609089580914A0283304E
:1014D00018F48F5F80934A022091460230914702B0
:1014E000409148025091490260914A0270914B022A
:1014F00080914C0290914D020E940609089520911E
:10150000460220FF24C02170226020934602809171
:101510003902816080933902662381F0309147025D
:10152000409148025091490260914A0270914B02E9
:1015300080914C0290914D020E94060920E040915A
:10154000490260914802809147020E942C09089547
:10155000809146028695815009F481E061E00E9405
:101560007F0A089561E081E00E947F0A0895E6E421
:10157000F2E083E0808311828FEF82838383148281
:10158000A7E3B2E012968C911297836012968C9327
:10159000758123E030E04FEF5FEF60E08681978157
:1015A0000E9406090895ABE0B0E0E9EDFAE00C9482
:1015B000712188E0E6E4F2E0DE01119601900D92DF
:1015C0008A95E1F78091370290913802A091390213
:1015D00089879A87AB872B854091FF015091000244
:1015E00060910102709102023FB7F8948091570216
:1015F00090915802A0915902B0915A023FBF841BAA
:10160000950BA60BB70B84369105A105B10510F417
:10161000222319F18091290190912A0187519E4F2F
:101620004091280150E04C30510510F04BE050E063
:10163000BE016F5F7F4F0E94612285E090E00E94B3
:10164000EB20882369F00E94BB036093FF01709335
:10165000000280930102909302021092390281E00D
:101660002B96E2E00C948D21A4E0B0E0EAE3FBE0ED
:101670000C9470214091E5015091E6016091E701E1
:101680007091E8012FB7F894809157029091580219
:10169000A0915902B0915A022FBF841B950BA60B43
:1016A000B70B11E084369105A105B10570F10E94D8
:1016B000E9086E5F7F4F8F4F9F4F69837A838B83DB
:1016C0009C83809121019091220187519E4F4091EE
:1016D000200150E04530510510F044E050E0BE01DB
:1016E0006F5F7F4F0E94612284E090E00E94EB20B8
:1016F000182F882351F00E94BB036093E50170937B
:10170000E6018093E7019093E801812F2496E3E0BE
:101710000C948C214F925F927F928F929F92AF9206
:10172000BF92CF92DF92EF92FF920F931F93CF93CE
:10173000DF930F92CDB7DEB7C62E4A015901482E6E
:10174000880F5508C2010E94EB20782E882309F4E7
:1017500080C0C20133E0880F991F3A95E1F7FC0180
:10176000E050FF4F438150E04115510511F041E039
:1017700050E080509F4FFC016481758167517E4F1E
:10178000CE0101960E946122F40140815181628163
:1017900073812FB7F8948091570290915802A091CD
:1017A0005902B0915A022FBF841B950BA60BB70BA1
:1017B00084369105A105B10540F4B701C8010E9426
:1017C00037049981891709F444C00C2C000CDD08FA
:1017D000C6010E94EB20782E811113C0712C872D39
:1017E0000F90DF91CF911F910F91FF90EF90DF90BD
:1017F000CF90BF90AF909F908F907F905F904F90D1
:101800000895C60123E0880F991F2A95E1F7FC018E
:10181000E050FF4F438150E0E416F50608F4A701BD
:1018200080509F4FFC016481758167517E4FC501D7
:101830000E946122B701C8010E943704998189136F
:10184000CDCF0E94BB03F4016083718382839383B5
:10185000C6CFA701B801C5010E946122C0CFA4E094
:10186000B0E0E5E3FCE00C946B216B0184E0E82E32
:10187000F12C0AEE11E09E012F5F3F4F4DED51E03C
:1018800061E080E00E948A0B882361F049815A81DF
:101890006B817C814093D9015093DA016093DB0125
:1018A0007093DC014091D9015091DA016091DB0124
:1018B0007091DC01F6014083518362837383249627
:1018C000E8E00C948721A3E1B0E0E9E6FCE00C94A9
:1018D00066218E01045F1F4F88E0D8011D928A9512
:1018E000E9F787E7C82E81E0D82EF12CE12CAA2455
:1018F000A394B12C21E8822E21E0922EF601819151
:101900006F018F3F09F442C0F894E82FE295EF7021
:10191000F0E021A18F70A50102C0440F551F8A95E8
:10192000E2F7CA01922F982B91A392A18095892367
:1019300082A3789400C0EBE7F1E0712C31E02191B3
:101940002F3F09F46BC0A22FA295AF70B0E0909624
:101950008C9190E02F7002C0959587952A95E2F7BB
:1019600080FD5CC0832F782A330F8E169F0639F7CF
:10197000F601319780818F3F11F00E94640450EA94
:101980005A95F1F7F801EE0DFF1D70828FEFE81AFE
:10199000F80AA4E0EA16F10409F0B0CF48E050E0FC
:1019A000B8018AE092E00E945422009741F028E0BA
:1019B000F801AAE0B2E001900D922A95E1F70091BA
:1019C0001302892B69F181E08093D0010E94C70343
:1019D0009093CF018093CE018091CE019091CF0161
:1019E0000E94AC03059700F110E0055E1D4F44E036
:1019F00050E06AE072E0C8010E945422F12C892B69
:101A000051F084E0EAE0F2E0D80101900D928A956D
:101A1000E1F7FF24F3941092D00107C080E0A3CF38
:101A20008091D0018111D8CFF12C0E94B308E82E0B
:101A3000E0911302882309F489C019821A821B825B
:101A40001C820E2F10E0055E1D4F809103028A302C
:101A500008F046C04FE25CE0BE016F5F7F4FC801F7
:101A60000E948008882309F460C040E752E1BE016B
:101A70006F5F7F4FC8010E948008882309F455C01A
:101A800044E35BE0BE016F5F7F4FC8010E948008A6
:101A9000882309F44AC043ED5AE0BE016F5F7F4FCF
:101AA000C8010E948008882309F43FC010920302F5
:101AB0008091120290E044E050E0BE016F5F7F4FE2
:101AC000855E9D4F0E94542221E02093D701892BEF
:101AD000F1F4E12C8E2D8F296396EDE00C94822198
:101AE0008091D1019091D2010E94AC03843F91403A
:101AF00008F0B0CF8091D701882359F384E0FE012C
:101B00003196DF011D928A95E9F71092D701E09195
:101B10001202F0E0E55EFD4F89819A81AB81BC81C4
:101B200080839183A283B383D5CF809103028F3FBB
:101B300031F08F5F809303028A3008F4B9CF0E949E
:101B4000C7039093D2018093D101D4CFF0E0E55E3A
:101B5000FD4F84E0AAEEB1E001900D928A95E1F785
:101B600064E070E08AEE91E00E9437048093E9011E
:101B70004091330250E06091320270E0625D7D4F2F
:101B8000CE0101960E94612289818093EF0161E07C
:101B900070E0CE0101960E9437048093EE018090A0
:101BA000F0019090F101A090F201B090F3018091CA
:101BB000D3019091D401A091D501B091D60188169E
:101BC0009906AA06BB06D1F08092D3019092D40167
:101BD000A092D501B092D6010E94B30881110EC027
:101BE0000E94BB03861A970AA80AB90A80920402C7
:101BF00090920502A0920602B09207028BE0E4EFF9
:101C0000F1E0DE01119601900D928A95E1F7809145
:101C1000F40186950091F501D090F601C090F7018E
:101C20001091FE011092FE01112309F453CF10FF11
:101C30000BC029819091460220FF0FC091609093C4
:101C4000460260E00E947F0A11FF44CF20E04C2D45
:101C50006D2D802F0E942C093DCF9E7F90934602D0
:101C6000809139028160809339020E944B08ECCF49
:101C70008091C80190914E02892B8093960190919A
:101C8000C901992391F0892B8093960120E088E97E
:101C900091E0FC013191CF0131112F5FF1E08E39DC
:101CA0009F07B9F721110E94A90648E050E060ECB7
:101CB00071E086E991E00E945422892BA9F088E026
:101CC000E6E9F1E0A0ECB1E001900D928A95E1F730
:101CD000E0915202F0915302309731F00280F3818B
:101CE000E02D86E991E00995089580914F028823BF
:101CF00049F080914E028D7D80934E020E94380EF5
:101D000010924F0208951092C801E8E9F1E086E0D0
:101D1000DF011D928A95E9F790E080E00E941204AD
:101D200090E080E00E94ED0310924E020E94380E77
:101D30000895AAE2B0E0EFE9FEE00C9470218AE693
:101D400092E02091F100FC012193CF01F2E0823773
:101D50009F07B9F780916B02833009F470C0B8F423
:101D6000813009F447C0823009F4B1C08091E800A5
:101D700083FF7EC280916A0290916B029A3008F0D4
:101D800077C2E92FF0E0E459FD4D0C94C0218A3070
:101D900009F48CC08B3009F46FC0893039F7809119
:101DA0006A02813219F780916E0290916F02029758
:101DB000E8F68091E800877F8093E8008091E80052
:101DC00082FF38C09091F3008091F200029731F4C5
:101DD0008091F100813011F0863021F48091F10082
:101DE00080935D028091E8008B778093E8000E94E9
:101DF0009E02BCCF80916A02813A09F0B7CF8091F0
:101E0000E800877F8093E80080916E0290916F02D6
:101E1000892B61F468E08EE592E070E00E944A034D
:101E20008091E8008B778093E800A0CF60E090E09D
:101E300080E0F3CF809168028111C0CF97CF80916D
:101E40006A02813A09F092CF80916E0290916F02FE
:101E5000892B09F08BCF8091E800877F8093E80081
:101E60008091E80080FFFCCF80913B018093F100DE
:101E70008091E8008E77B9CF80916A02813209F0B3
:101E800075CF80916E0290916F02892B09F06ECF11
:101E90008091E800877F8093E8000E949E028091F5
:101EA0006C0280933B010E94830E60CF80916A0296
:101EB000813209F05BCF8091E800877F8093E80052
:101EC0000E949E0280916D0280935C024FCF8091B0
:101ED0006A02813A09F04ACF8091E800877F8093B7
:101EE000E8008091E80080FFFCCF80915C02BECFCB
:101EF000803899F0823809F0BBC180916E028F70F2
:101F0000873008F0B5C18093E9008091EB0085FB34
:101F1000882780F91092E90006C0809166029091AE
:101F20006702911182609091E800977F9093E8009A
:101F30008093F1001092F1008091E8008E7794C1B7
:101F4000882309F482C1823009F092C180916C0229
:101F5000811185C180916E028F702FEF280F26307E
:101F600008F086C18093E9002091EB0020FF77C143
:101F7000933031F48091EB0080628093EB006FC16D
:101F80009091EB0090619093EB0021E030E001C074
:101F9000220F8A95EAF72093EA001092EA008091D6
:101FA000EB008860EACF811163C110916C021F774A
:101FB0008091E3008078812B8093E3008091E8009A
:101FC000877F8093E8000E949E028091E80080FF56
:101FD000FCCF8091E30080688093E30082E01111E0
:101FE00083E08093680244C18058823008F040C189
:101FF00080916C0290916D028C3D23E09207A1F5D7
:1020000083E08A838AE289834FB7F894DE011396CE
:1020100020E03EE051E2E32FF0E050935700E491DE
:1020200020FF03C0E295EF703F5FEF708E2F90E0CE
:10203000EA30C0F0C7968D939D932F5F243159F7F6
:102040004FBF8091E800877F8093E8006AE270E0EC
:10205000CE0101960E944A038091E8008B7780931D
:10206000E80006C1C096E7CF40916E0250916F0222
:10207000292F33272330310509F444C078F5213066
:10208000310509F46FC08BE390E0E2EAF3E022301F
:10209000310509F0EDC02091E800277F2093E8008A
:1020A00020917002309171028217930708F49C010D
:1020B00040E02115310509F064C0411162C08091F2
:1020C000E80082FDC9CF80916802882329F285301B
:1020D00019F28091E80083FFF2CFBECF21323105A3
:1020E000A9F12232310509F0C3C04115510509F4A7
:1020F00043C04130510509F0BBC082E390E0ECE2FF
:10210000F3E0C9CF992781309105C1F0009759F0CC
:10211000029709F0ADC0EFEEF3E0E4918E2F90E06E
:10212000EFEEF3E007C0EBE1F4E0E4918E2F90E0F6
:10213000EBE1F4E0009709F49BC0ADCFE9E0F4E0F7
:10214000E4918E2F90E0E9E0F4E0F4CF41155105E1
:1021500071F04130510509F08BC089E090E0EDEC61
:10216000F3E099CF82E190E0EDEDF3E094CF89E0E8
:1021700090E0E4EBF3E08FCF84E490E0EEE5F3E071
:102180008ACF80916802882309F466CF853009F4EC
:1021900063CF8091E80083FD5FCF8091E80082FDEE
:1021A0008ECF8091E80080FF84CF9091F3008091E2
:1021B000F2002115310519F08830910550F041E009
:1021C000089709F040E08091E8008E778093E8005E
:1021D00070CF44914093F10031962150310901961E
:1021E000E8CF803809F044C08091E800877F809371
:1021F000E800809169028093F1009ECE811138C081
:1022000010916C021230A0F58091E800877F8093D6
:10221000E800109369020E949E02112311F084E0ED
:1022200005C08091E30087FDFACF81E080936802CA
:1022300042E061EC81E00E94BD0242E261EC82E09A
:102240000E94BD028091680213C080916C028130AF
:1022500079F481E0933009F080E080936702109276
:10226000E9008091E800877F8093E8000E949E0249
:102270008091E80083FF0AC08091E800877F809307
:10228000E8008091EB0080628093EB00AA96E3E087
:102290000C948C210E94830E2FEF84E39CE021504C
:1022A00080409040E1F700C0000088E19AE00FB65E
:1022B000F894A895809360000FBE90936000FFCFC4
:1022C000882321F00E94AF060E94380E08958823CB
:1022D00039F09091C801982B9093C8010E94380E54
:1022E0000895882391F19CEF980F913A80F4E8E9E2
:1022F000F1E02EE931E09191891303C0DF011197DC
:102300001C922E173F07B9F70E94380E089590E2ED
:10231000980F983050F4877091E001C0990F8A951A
:10232000EAF7892F0E94AF06EFCF9BE5980F933015
:1023300028F490E080E00E9412040895885A8B31BE
:1023400020F490E080E00E94ED030895CF93C82F21
:102350008823B1F08CEF8C0F813A00F5E8E9F1E0C9
:102360008EE991E0DF012D91C21761F08A179B077A
:10237000D1F76C2F86E991E00E94D3030E94380EBA
:10238000CF9108952191C21303C0DF0111971C92D0
:102390008E179F07B9F70E94380EEBCF80E28C0FA3
:1023A000883068F4C77021E030E001C0220FCA9580
:1023B000EAF78091C801822B8093C801DFCFEBE55B
:1023C000EC0FE33040F4F0E0E45CFE4F808190E0FD
:1023D0000E941204D5CFC85ACB3190F6EC2FF0E012
:1023E000EE0FFF1FE15CFE4F808191810E94ED03A3
:1023F000C7CF1F93CF93DF93182FEB010E94A61135
:10240000209739F4812F0E947111DF91CF911F9194
:1024100008958FE99FE00197F1F700C00000219730
:10242000EFCF0F931F93CF93DF93C62FD42F022F9D
:10243000FC0185818823A9F06093AE020E94C70346
:102440009093AD028093AC02C77081E001C0880F09
:10245000CA95EAF70E946711DF91CF911F910F9102
:1024600008958091AE02681334C08091AC029091BF
:10247000AD020E94AC03883C910558F510E21D0F97
:10248000CD17B9F080E28C0F883040F4C77081E03E
:1024900001C0880FCA95EAF70E946011183048F40D
:1024A00081E09D2F977001C0880F9A95EAF70E94EE
:1024B000671170E060E0802F0E94F911183060F61B
:1024C000D77081E001C0880FDA95EAF70E946011A9
:1024D000C3CFC77081E001C0880FCA95EAF7F6CF75
:1024E000A1E0B0E0E6E7F2E10C946B21EE24E39486
:1024F000F12C0FEE11E09E012F5F3F4F41EE51E0B6
:1025000063E082E00E948A0BD82E882321F1E12C1F
:1025100080E01AC0009109020E0D10E0025D1D4F0F
:10252000E1E0F0E0EC0FFD1FEE0DF11DF080F80191
:102530009081F91ACF2C1C149CF09F2DF7FC90E091
:10254000F91AF11019C0E39490910802E91610F3FA
:1025500081110E9403098D2D2196E8E00C948721BA
:10256000CA94F80180818F5F80836AE070E08AEA14
:102570000E94F9118D2DDFCFF394F80180818150F5
:1025800080836AE070E089EA0E94F9118D2DD9CF2D
:10259000A8E0B0E0EEECF2E10C94712166EE7EEF83
:1025A00090E080E00E943E2260E082E090E00E94A5
:1025B000202260E083E090E00E9420221092CB0174
:1025C0001092CA0160E074E184E090E00E943E2233
:1025D00060E086E090E00E9420226FEF87E090E0CC
:1025E0000E94202240E050E0BA0188E090E00E9482
:1025F000322260E084E290E00E94202260E087E1E5
:1026000090E00E94202260E08CE090E00E94202276
:1026100060E08DE090E00E94202219821A821B82E5
:102620001C821D821E821F82188648E050E068E1ED
:1026300070E0CE0101960E94102240E050E0BA0105
:1026400080E290E00E94322240E050E0BA018FE048
:1026500090E00E94322240E050E0BA0183E190E035
:102660000E9432222896E2E00C948D21909117026C
:1026700092FB222720F9281779F080FB92F990939A
:102680001702609116027091170284E090E00E9498
:102690003E2282E00E9481070895B0E0A0E0E3E5D9
:1026A000F3E10C9469218C01FC018481882329F1D8
:1026B00021E0408151816281738195810E94D00720
:1026C000EC0183379C4771F5F8018581882331F04F
:1026D00080914F028823B1F00E94750E8091BF0156
:1026E000877059F0F8018581882339F080911702AD
:1026F00082FF03C082E00E948107CDB7DEB7EAE027
:102700000C9485211092C8010E94A9060E94C7035B
:1027100088579C4E90932D0280932C0281E08093E9
:102720004F02DCCF80914F02882309F45AC0E09019
:10273000C801F090C9010E94C70388579C4E90932E
:102740002D0280932C02F8018581882309F449C069
:102750008F2D8E298D7909F061C0C034F2E5DF0735
:1027600060F5C11522E5D207E0F5C11530E4D307C5
:1027700050F4C11580E2D80708F045C0C63ED10527
:1027800081F1CE010AC0C11590E5D907D0F7F80153
:102790008681807F31F1CE01992710924E028832D6
:1027A000910508F045C08E31910508F048C00497A6
:1027B000A8F182E080934E0242C0C03EE2E5DE070F
:1027C000D8F4C03CF2E5DF0760F4C03622E5D2075A
:1027D000C0F2C03A32E5D30720F0C43B82E5D80707
:1027E00081F6FE01E851FC47E730F10508F04FC0E3
:1027F000EA58FD4D0C94C021CE0187579C470297A3
:1028000008F0BFCFEECFF8018681807F21F68D2FB3
:102810008F71823151F028F4823039F00E94750EA8
:10282000E0CF8431F1F28631C9F710924E02F6CF33
:102830008D32910509F4BDCF28F48A9779F70E946B
:10284000380ECFCF8C349105D1F38D329240B9F34D
:10285000E5CF26E241EE61EEC8010E9411123ECFA3
:1028600027E245EE65EEF8CF26E241EE60EEF4CFCA
:1028700027E245EE64EEF0CF26E241EE62EEECCFC9
:1028800027E245EE66EEE8CF28E241E0EBCFF80123
:102890008581882309F4DEC31092AE02CE019057E1
:1028A000839708F0C1C384E090E00E940A229093CD
:1028B000170280931602FE01E150F047E232F10563
:1028C00020F4E358FD4D0C94C021809116028160E4
:1028D0008093160295C0809117028860809317023A
:1028E0008FC0809116028260F3CF809116028460BF
:1028F000EFCF809116028860EBCF80911702816044
:10290000EDCF809117028260E9CF8091160280613D
:10291000DFCF809116028062DBCF80911602806447
:10292000D7CF0E94830E809116028068D1CF80910C
:1029300016028C60CDCF809117028360CFCF80913B
:1029400016028E7FC5CF80911702877FC7CF8091F7
:1029500016028D7FBDCF809116028B7FB9CF8091FB
:102960001602877FB5CF809117028E7FB7CF8091F7
:1029700017028D7FB3CF809116028F7EA9CF8091F1
:1029800016028F7DA5CF809116028F7BA1CF0E946A
:10299000830E809116028F779BCF80911602837FE2
:1029A00097CF809117028C7F99CF8091160282FB7E
:1029B000992790F921E0922790FB82F990FB83F907
:1029C00087CF80911702982F909591708E7F892BD9
:1029D00090FB81F983CF90911602892F8F7B96FF10
:1029E000806476CF0E94830E90911602892F97FB08
:1029F00087F980586DCF61E08EE090E00E94202240
:102A0000609116027091170284E090E00E943E22CD
:102A10000E94830E63CE60E0EFCF90911602892F63
:102A20008F7E94FF806154CF90911602892F8E7F04
:102A300090FF81604DCF90911702892F877F93FF80
:102A400088604CCF85E30FC38091460280FF1CC095
:102A5000282F2E7F20934602309147024091480252
:102A60005091490260914A0270914B0280914C0250
:102A700090914D020E9406098091390281608093F5
:102A800039020E944B082ACE81608093460261E0A1
:102A900086950E947F0A22CE48EA5AE062EB7AE0ED
:102AA0000E944D041BCE42EB5AE068EA7AE0F8CF70
:102AB00047E35AE061E47AE0F3CF41E45AE067E3A8
:102AC0007AE0EECF4DE15AE06AE27AE0E9CF4AE2FD
:102AD0005AE06DE17AE0E4CF43E05AE060E17AE069
:102AE000DFCF40E15AE063E07AE0DACF4BE45AE02E
:102AF00065E67AE0D5CF45E65AE06BE47AE0D0CFE0
:102B000061E081E0C6CF0E94830EFFEF24E33CE04A
:102B1000F15020403040E1F700C0000087E797E720
:102B2000909301088093000888E19AE00FB6F8942A
:102B3000A895809360000FBE90936000FFCF6FEF69
:102B40007FEF90E080E00E943E220E944A11809137
:102B5000170282FB882780F991E089270E943613AB
:102B6000F8018581C081D181882309F44AC0CE0152
:102B70000E94C006F82E682FCE010E943407BE01C5
:102B80008F2D0E946C050E948B05D82FC92FA82E6F
:102B9000F801C580B680B2943FE0B3228091BF01B6
:102BA0008770F1F0EC2CCC20E1F0892F807F80340D
:102BB00051F080E28D0F883098F0B11004C0892F59
:102BC000807E803269F08091170282FF09C082E026
:102BD0000E9481078091BF018770EE24E3948111E8
:102BE000E12CDC2ED2942FE0D222FBE0FD1508F47C
:102BF0006DC0ED2DF0E0E156FD4D0C94C02180E05C
:102C0000ADCFCE010E940107F82EB9CF2C2F2F7027
:102C1000F22EC07F19F0F29490EFF922CC20B9F097
:102C2000FF2069F080E28D0F883010F0A11009C0FC
:102C30008091C801F82AF092C8010E94380E8D2FA9
:102C400043C080914E02F82AF0924E02F6CF8D2FAB
:102C50000E947111FF20D1F1D05ED83010F0A11088
:102C600004C08F2D0E94AF0606C0F09480914E02E2
:102C7000F822F0924E020E94380E28C03C2F3F707E
:102C8000F32EC07FC03219F0F29480EFF822AA2010
:102C900059F081E0A81609F479C0CC2009F485C068
:102CA000BB2009F447C0CBCF8091170282FD3EC004
:102CB000CC20B1F1FF2039F08091C801F82AF092C0
:102CC000C8010E94380E80E00E94A6112D2D2850C8
:102CD000330B2430310510F40E94D808EE20A9F0FF
:102CE0008091BF0180FD11C0F801158286958695FF
:102CF00086950E949807C8010E944D138091BF01DC
:102D00008695869586950E946F0720E0F8014081A0
:102D1000518162817381848195810E94D007EDCCBD
:102D200080E00E947111FF2089F29BCFCC20A1F09E
:102D3000B11004C08F2D0E946711C8CF91E0B91265
:102D4000C5CF8091C9019F2D9823F91609F4BECFF4
:102D5000F82AF092C901BACFB110B8CF8F2D0E94D6
:102D600060119091C9018F2D892329F08F2D8095B5
:102D700089238093C90180919F019F2D982309F495
:102D8000A5CFF094F822F0929F01A0CFCC2029F09B
:102D9000E5E0EB1508F49ACFCDCFF4E0FB1508F48D
:102DA00095CF8F2D0E94601191CFBB20D1F329E3E5
:102DB000A21209C03FEF87EE93E03150804090406F
:102DC000E1F700C000008D2F0E9471117FCF8C2F82
:102DD00086958695837069F0813009F077CF8D2FC5
:102DE0009C2F9370C11002C080E090E00E94ED0320
:102DF0006DCF8D2F9C2F9370C11002C080E090E0AA
:102E00000E94120463CF8C2F837009F03FC0C11061
:102E10005DCF4D2F429546954770440F440F2D2F9F
:102E20002F7030E0042E02C0220F331F0A94E2F705
:102E300090E080E0D4FF09C08FE090E002C0880FEE
:102E4000991F4A95E2F780959095C695C695C370EF
:102E5000C23099F078F44091CA015091CB01C13051
:102E600039F0822B932B842395230E94A8072ECF21
:102E7000242B352B822B932BF8CF822B932B209155
:102E8000CA013091CB0182279327EFCF8695CC20C2
:102E900011F08C2F8170882309F418CF4D2F4295A3
:102EA00046954770440F440F2D2F2F7030E0042EAD
:102EB00002C0220F331F0A94E2F790E080E0D4FFB3
:102EC00009C08FE090E002C0880F991F4A95E2F791
:102ED00080959095C695C695C370C23099F078F4E8
:102EE0004091140250911502C13039F0822B932B7E
:102EF000842395230E946A07E9CE242B352B822B4D
:102F0000932BF8CF822B932B209114023091150232
:102F100082279327EFCFCF70CC2029F08C2F0E94EF
:102F200098078D2F08CF8D2F0E9460118C2F0E9443
:102F30006F07CCCE8D2FE2EFAE1699F1EA1570F047
:102F4000F0EFAF16D1F021EFA21691F0CC2009F4EA
:102F50005BC0B11074CE8C2F8F7127C033EFA316D6
:102F600039F194EFA912F2CF8091170282FD2EC0A1
:102F70008C2F8F71CC20D9F218C0CC2069F0E4E0FE
:102F8000EB1508F4A3CECF7181E090E002C0880F6A
:102F9000991FCA95E2F7B8CFF5E0FB1508F496CE75
:102FA000F2CF8C2F8F71C110C2CF0E9498078ECEA6
:102FB00090E080E0CC2009F49DCFCF7181E090E0DB
:102FC00002C0880F991FCA95E2F794CFCC2089F0F0
:102FD000CF718C2F0E9498078091170282FF07C043
:102FE00028E0C29FC001112483608093BF018C2F11
:102FF000DCCF81E00E94810731E03B1508F066CE0E
:1030000082E00E94810762CEBB2059F0893309F02B
:10301000DACE8FEF97EEE3E081509040E040E1F7A9
:10302000D0CE8C2F8F7183CFC631FCE7DF0749F5F7
:103030008091C8018A7A91E009F490E090939E0112
:1030400069E2811165E386E991E00E94D3030E9461
:10305000380E44CBC6312CE7D20799F580919E01FA
:103060008111F0CC89E2E8E9F1E02EE931E09191BB
:10307000891303C0DF0111971C922E173F07B9F780
:10308000E6CFC3303CE7D30709F459CD50F4C1155E
:103090009CE7D90709F437CDC130DC4709F455CD99
:1030A0005FCDCB35FCE7DF0709F4A9CDCC352CE7A4
:1030B000D20709F44CCDCA35DC4709F051CD81E087
:1030C0004DCD8091C8018272FE01E052F847E53192
:1030D000F10508F045CDE555FD4D0C94C021CF9389
:1030E000DF938091BE01807F09F04DC08091BD01CA
:1030F000882309F448C0E091AB0250917202C0915C
:10310000B901D091B8016091BA017091BB0147E05B
:103110005E17C9F18E2F90E0E49FF0011124ED5865
:10312000FD4F2481222391F1489FF001499FF00D2A
:103130001124DF01AD58BD4F11962C9111972C131E
:1031400025C02C912D1322C015962C911597211175
:103150001DC012962D913C91261B370B283C310542
:10316000A8F48091BE018F7080618093BE01E75802
:10317000FD4F80818F708061808388EB91E00E9499
:103180004D130E94B606DF91CF910895FC01319650
:10319000E770BECFA4E1B0E0E0EDF8E10C94672168
:1031A0008C0186E0F801DE011F9601900D928A9550
:1031B000E1F7F8018481E58098EBA92E91E0B92E22
:1031C0009091BC01911128C0882319F1EE20F1F0F3
:1031D000C8010E94AD07F82E8823C1F087E0F801EE
:1031E000D50101900D928A95E1F78091BC01813063
:1031F00031F48091B8019091B9010E94F4060E94C7
:103200006F188F2D6496ECE00C948321C8010E9406
:103210004D13FF24F394F5CFD080C180828093803A
:10322000F090BD012091BA013091BB01A401421B75
:10323000530BFF2009F4D9C0483C510508F092C057
:103240008823F9F29091B9018091BE01282F207F47
:1032500009F056C0C91214C09091B801D91210C01B
:10326000E11048C08F7080618093BE0188EB91E0CF
:103270000E944D138091BE01F8018683F12CC1CFCD
:10328000E11038C06C2D8D2D0E942F026C2D8D2DDC
:103290000E942F02E82E8111F1CFDF86C88A8F8528
:1032A00098890E94F406292F22952F70243058F413
:1032B0009F70223088F0992399F0F8019681907FD1
:1032C00079F4FE2C9ECF2A5F2F70223068F0C8015F
:1032D0000E944D13EF2CF5CF992311F0882389F329
:1032E000805E883070F3F3CF803F58F3815F833086
:1032F00070F7E7CF8091BE0181608093BE01BECFA1
:10330000C91207C09091B801D91203C0EE2009F488
:103310008DC0C8010E94AD07882309F477CFEE2045
:1033200009F474CF8091BE01803288F02091B801F9
:103330003091B901398728879B868A869091BC0194
:103340009C871D868E87CE0108960E944D1387E0CC
:10335000F801A8EBB1E001900D928A95E1F70E9487
:103360006F1857CF9091BE01292F207F51F488EB21
:1033700091E00E944D1387E0F50111928A95E9F7DB
:103380007DCF882309F43DCF8091B9018C1110C005
:103390008091B801D8120CC0E1100AC09683C80110
:1033A0000E944D1387E0F50111928A95E9F729CF24
:1033B000C8010E94AD07882309F428CFEE2009F444
:1033C00025CF8091BE01803210F22091B80130915A
:1033D000B9013A8329839C828B829091BC019D83A1
:1033E0001E828F83CE010196B0CF483C5105D0F6A6
:1033F000882309F40ECFFE2CEE2009F407CF80912C
:10340000B9018C1120C08091B801D8121CC08091E4
:10341000BE0180FD0FC0982F907F61F08683903FA2
:1034200031F0982F907F905F8F70892B8683C80131
:103430000E944D1387E0F801A8EBB1E001900D92D6
:103440008A95E1F7DECEC8010E94AD0781117FCFDA
:103450008091BE0181608093BE01C8010E944D131E
:10346000D0CEABE1B0E0E7E3FAE10C946F214E8BF4
:103470005F8B688F798F8A8F9B8F192F9111109294
:103480004E021D8A86E0FE017696DE011F960190AF
:103490000D928A95E1F70A8D002341F021E04F85D6
:1034A000588969897A89C8010E94D0070B8B1C8BC7
:1034B00087E0FE013F96DE01189601900D928A95F5
:1034C000E1F7CE0108960E94CA1881110CC087E06E
:1034D000FE013896DE01119601900D928A95E1F772
:1034E0008C8581110BC017E08091AB029091720224
:1034F000891331C06B96E4E00C948B212091720209
:1035000030E0C9010196877099274091AB024817B6
:10351000190699F097E0929FD001939FB00D112466
:10352000AD58BD4FFE01319601900D929A95E1F78D
:10353000809372020E94B606D6CF0E94830E10922C
:1035400072021092AB0287E0E8EBF1E0DF011D921E
:103550008A95E9F7C8CF819FC00111248D589D4FEE
:103560000E94CA18882331F28091AB0290E0019644
:10357000877099278093AB02B7CFA6E0B0E0E3EC69
:10358000FAE10C946F210E94C7038C018091CC0159
:103590009091CD018017910781F019821A820E94C3
:1035A000C703682F49815A81792F80E090E00E94FB
:1035B000311A1093CD010093CC012696E4E00C94CF
:1035C0008B211F920F920FB60F9211242F933F93CE
:1035D0004F935F936F937F938F939F93AF93BF931B
:1035E000CF93DF93EF93FF93D091E900DF70809149
:1035F000EC00C82FC17080FDC0E81092E9008091F6
:10360000F000877F8093F00078940E94990E1092CA
:10361000E9008091F00088608093F000CD2BCF709E
:10362000C093E900FF91EF91DF91CF91BF91AF91EE
:103630009F918F917F916F915F914F913F912F91CA
:103640000F900FBE0F901F9018951F920F920FB6FC
:103650000F9211242F933F934F935F936F937F9318
:103660008F939F93AF93BF93EF93FF938091E1006C
:1036700082FF09C08091E20082FF05C08091E100D5
:103680008B7F8093E1008091DA0080FF24C08091DD
:10369000D80080FF20C08091DA008E7F8093DA000E
:1036A0008091D90080FF9DC080E189BD82E189BD04
:1036B00009B400FEFDCF81E08093680280915B0237
:1036C000811109C00E944E020E94EF028091E20027
:1036D00084608093E2008091E10080FF17C08091B8
:1036E000E20080FF13C08091E2008E7F8093E200B1
:1036F0008091E20080618093E2008091D800806236
:103700008093D80019BC85E0809368028091E10025
:1037100084FF2BC08091E20084FF27C080E189BD37
:1037200082E189BD89B5982F917080FFFBCF809190
:10373000D8008F7D8093D8008091E1008F7E8093A8
:10374000E1008091E2008F7E8093E2008091E200B0
:1037500081608093E20080916902882309F447C068
:1037600084E080936802809168028091E10083FF89
:1037700027C08091E20083FF23C08091E100877F12
:103780008093E10082E08093680210926902809148
:10379000E1008E7F8093E1008091E2008E7F809334
:1037A000E2008091E20080618093E20042E060E00C
:1037B00080E00E94BD028091F00088608093F0005C
:1037C000FF91EF91BF91AF919F918F917F916F91F9
:1037D0005F914F913F912F910F900FBE0F901F90CF
:1037E000189519BC1092680210925B0274CF8091F8
:1037F000E30087FD93E090936802B5CF78941F9221
:103800001FB61F9211248F939F93AF93BF93809104
:10381000570290915802A0915902B0915A02019614
:10382000A11DB11D8093570290935802A093590295
:10383000B0935A02BF91AF919F918F911F901FBE7D
:103840001F9018951F921FB61F9211248F939F935C
:10385000AF93BF9380915602811113C0809157029C
:1038600090915802A0915902B0915A024196A11D1F
:10387000B11D8093570290935802A0935902B093C0
:103880005A02BF91AF919F918F911F901FBE1F90C1
:10389000189500D000D000D0CDB7DEB785B78068CE
:1038A00085BF85B7806885BF84B7877F84BF0FB623
:1038B000F894A895809160008861809360001092D0
:1038C00060000FBE80E890E00FB6F894809361002E
:1038D000909361000FBE82E694E0909395018093EF
:1038E00094010E944E020E94EF028091E2008460E7
:1038F0008093E2007894809168028823A1F010916F
:10390000E9001F709091EC00892F817090FD80E894
:10391000182B1092E9008091E80083FD0E94990E17
:103920001F701093E90082E084BD93E095BD9AEF8B
:1039300097BD80936E0010920402109205021092BF
:1039400006021092070290E080E00E940A22863E62
:103950009E4F11F00E94C8128EE090E00E94FC2160
:1039600091E0811101C090E0909330010E94B30872
:1039700081110E94FF1F9091300181E09827909360
:103980003202A82FA91BA0930902909130018093C5
:1039900033029091300180930802809130018111AF
:1039A00006C084EF80933A0185EF8093390120911E
:1039B0003A01E22FE295EF70F0E061A12F7081E013
:1039C00090E0AC0101C0440F2A95EAF7342F3095FE
:1039D000362331A322A1242B22A320913901E22FE7
:1039E000E295EF70F0E031A12F7001C0880F2A95A9
:1039F000EAF7982F9095932391A392A1892B82A304
:103A00008FE891E00197F1F700C0000010913302B8
:103A100064E372E04AE351E089E3E82E81E0F82EA6
:103A2000FB0128C0DA012D91AD01822F82958F70A4
:103A300090E0DC0190968C9190E02F7002C09595FB
:103A400087952A95E2F78170D7019D917D01292FF5
:103A500022952F7030E0D90190962C9130E09F7024
:103A600002C0359527959A95E2F790E020FD92E007
:103A7000892B81938E2F861B8117A0F280913001B4
:103A80008091300194E0811190E09093130284E0E2
:103A9000891B8093120286E60E94640487E90E94D3
:103AA000640486EC0E94640485E30E9464040BE7CE
:103AB00011E051E8E52E51E0F52EF80181918F01DA
:103AC0008F3F11F00E946404E016F106B1F788E020
:103AD000EBE1F2E0DF01282F1D922A95E9F7EAE0F9
:103AE000F2E0DF011D928A95E9F790E080E00E9404
:103AF0000A22863E9E4F11F00E94C81282E090E09A
:103B00000E94FC218093230284E090E00E940A221C
:103B1000909317028093160283E090E00E94FC21AC
:103B200090E00E94A80780911802811179C090E06E
:103B300080E00E940A22863E9E4F21F00E94C81219
:103B40000E94B70A88E090E00E9404224B015C01C9
:103B500084E290E00E94FC21282F30E040E050E019
:103B600060E070E080E090E000E20E94C621282939
:103B700039294A295B292093460230934702409312
:103B800048025093490260934A0270934B0280931B
:103B90004C0290934D0280913902836080933902E8
:103BA0002E7F89F50E94B70A88E090E00E940422E7
:103BB0006B017C0184E290E00E94FC21282F30E020
:103BC00040E050E060E070E080E090E00E94C621BC
:103BD000B22FA32FF42FE52F5B0197018601BC299B
:103BE000A12BFE29E32BB0934602A0934702F0934A
:103BF0004802E093490260934A02B0924B028093DC
:103C00004C0290934D020E9453048091460280FF23
:103C100004C060E086950E947F0A81E080931802CC
:103C20000E94B308811102C00E94022081E391E04A
:103C3000909353028093520228E1C22ED12C33E29A
:103C4000A32E32E0B32E44E0842E912C80916802A2
:103C5000FF24F39400E112E1853009F498C00E943A
:103C6000630C04E212E09BE1E92E92E0F92E2CE2D3
:103C700032E0D701F80191918D912E173F0709F499
:103C8000A0C09817C1F30E94B308282E712CD70149
:103C90006D907D01F80131908F01361431F1362499
:103CA000512C44244394832D8421B9F02220A9F07F
:103CB00059827A820E94C7039C838B83F1E0FD8343
:103CC00091E0862D842109F490E09E8349815A81F8
:103CD0006B817C818D810E94311A5394440C26E0C3
:103CE0005212E1CFF80131976082739488E0781224
:103CF000CECF0E94E90869C080916802843009F43F
:103D000038C080911A02811112C0F0921A0280917B
:103D10004602982F9170909319028E7F80934602ED
:103D2000809139028160809339020E944B08109281
:103D30005602F0E40FB6F894A895C09260000FBE4A
:103D4000F093600083B7817F846083BF83B7816015
:103D500083BF7894889583B78E7F83BF0FB6F8941E
:103D6000A895809160008861809360001092600047
:103D70000FBE80916702882351F00E94630CEBE133
:103D8000F2E081918111CBC0AE16BF06D1F78091D0
:103D90006802853009F4B0CF0E94830E0E94D808D3
:103DA00010921A0280911902882309F458CF809149
:103DB000460281608093460260E086950E947F0AF9
:103DC0004ECF981360CF0E94BD1A0E94B30888237B
:103DD00089F080914F02882369F00E94C7032091E7
:103DE0002C0230912D02821B930B8F3F9F4710F4C2
:103DF0000E94750EE12C712C80913302E81678F048
:103E000071100E9403090E94D80890913602891708
:103E100009F41CCF809336020E94BB0317CF0E2DEE
:103E200010E0F801E65CFE4F8081E82FE295EF702C
:103E3000F0E0E0A1F0E08F7002C0F595E7958A957B
:103E4000E2F7E170D801A75CBE4F2C91A22FA2959A
:103E5000AF70B0E090968C9190E02F7002C0959575
:103E600087952A95E2F780FD52C080E08E2BD8011D
:103E7000AC5CBD4FEC919E2F9370891709F445C03F
:103E8000EE0FEE0FE82BEC93F0903202FE0CEF7089
:103E9000F0E0EF57FE4F005D1D4F8081F8019081EB
:103EA000890F8083612C84308CF0EF2DF0E0E25D8F
:103EB000FD4F80818F5F80830E94B308682E882326
:103EC00041F16AE070E08AEA0E94F911D8018C9110
:103ED0008D3F8CF4EF2DF0E0E25DFD4F808181504D
:103EE00080830E94B308682E8823B1F06AE070E0F6
:103EF00089EA0E94F911F8018081082E000C990BC3
:103F0000B4010E94AC2180837628E39475CF82E0CF
:103F1000ADCF66246394DACF66246394ECCF09BDF9
:103F200019BD09B400FEFDCF8091D8008F7D80932C
:103F3000D8008091E00082608093E0008091E000F2
:103F400081FDFCCF0E94830E22CF8EE14A9B02C0EE
:103F50008150E1F74A9BFECF08955A9880E28A95F6
:103F6000F1F75A9A0895FC013BE03A95F1F798E091
:103F700020E080E031E040E14A95F1F7880F4A9B6C
:103F800002C08160232742E04A95F1F7000040E13A
:103F90004A95F1F7915079F790E19A95F1F799B137
:103FA00032E03A95F1F7000040E14A95F1F792FBD3
:103FB000992790F992272081920F90830895A1E08C
:103FC000B0E0E5EEFFE10C946D2119828C017C01DB
:103FD000E60EF11C0E151F0541F481E09981911147
:103FE00080E02196E6E00C9489210E94A51FCE0175
:103FF00001960E94B31FF80181938F01EBCF529A73
:104000005A9A089552985A9AEA9AE9E6F0E080811D
:104010008F7C808308956150770B91E001C0990FE8
:104020006A95EAF720E031E0911108C0222391F06F
:104030005A9A80E28A95F1F75A980895492F4823B1
:1040400039F05A9A232740E24A95F1F79695ECCF3A
:104050005A98F9CF5A98EDCFFF920F931F93CF93B1
:10406000DF93EC018C01060F111DC017D10729F455
:10407000CDB7DEB7E5E00C948A21F9900E94AD1F20
:1040800068E08F2D0E940B20F0CF1F920F920FB689
:104090000F9211240F931F932F933F934F935F938E
:1040A0006F937F938F939F93AF93BF93EF93FF9300
:1040B000CF93DF930F92CDB7DEB719820E94A51F71
:1040C000CE0101960E94B31F082F0695069506950E
:1040D000282F22952570902F9570290F922F93707D
:1040E00026952695920F982797708981982B09F02D
:1040F0005CC0073008F059C080E18A95F1F75A9A00
:10410000529A82E08A95F1F700C05A9888E0089F99
:1041100080011124D801A050BF4F1696ED91FC915B
:1041200017973097A9F060917501709176011496F8
:104130002D913C911597260F371F11968D919C91CB
:104140001297680F791F13964C9113978C910995CC
:10415000F801E050FF4F6381662351F02091750113
:104160003091760184819581820F931F0E942C20CB
:104170000E94AD1F80E18A95F1F75A9852985A9A99
:1041800080E18A95F1F7F801E050FF4F60816623E6
:1041900051F0209175013091760181819281820FD9
:1041A000931F0E94DF1F0E94A51F0F90DF91CF91E8
:1041B000FF91EF91BF91AF919F918F917F916F91FF
:1041C0005F914F913F912F911F910F910F900FBED3
:1041D0000F901F9018950F931F93CF93DF93EC01CF
:1041E00007970CF04CC0F894529A5A9885E08A953B
:1041F000F1F700009C2F969595708C2F8570980F85
:10420000892F83709695969523E0CC0FDD1F2A9514
:10421000E1F7980F8E01092B0E94AD1F00C068E0E6
:10422000802F0E940B2080E18A95F1F752985A9ACC
:104230004A9B1EC087E090E04A991CC0FE01E050F6
:10424000FF4F63816623F9F020917501309176016B
:1042500084819581820F931F0E94DF1F811113C0FB
:10426000529A5A9A7894DF91CF911F910F910895A5
:1042700000C0DECF019729F4529A5A9A789480E0D0
:10428000F2CF00C0D9CF0E94A51F80E28A95F1F736
:104290005A98529A80E18A95F1F7C050DF4F6881B1
:1042A000662351F0209175013091760189819A81C0
:1042B000820F931F0E942C200E94AD1F789481E0F2
:1042C000D2CF2F923F924F925F926F927F928F92B6
:1042D0009F92AF92BF92CF92DF92EF92FF920F9395
:1042E0001F93CF93DF93CDB7DEB7CA1BDB0B0FB69F
:1042F000F894DEBF0FBECDBF09942A88398848885C
:104300005F846E847D848C849B84AA84B984C884F1
:10431000DF80EE80FD800C811B81AA81B981CE0FE8
:10432000D11D0FB6F894DEBF0FBECDBFED010895CD
:10433000AA1BBB1B51E107C0AA1FBB1FA617B707CB
:1043400010F0A61BB70B881F991F5A95A9F78095E7
:104350009095BC01CD01089597FB072E16F40094AB
:1043600007D077FD09D00E94982107FC05D03EF4C4
:10437000909581959F4F0895709561957F4F089511
:10438000EE0FFF1F0590F491E02D0994002E0830E8
:1043900090F0982F872F762F652F542F432F322F91
:1043A00022270850F4CF220F331F441F551F661FCA
:1043B000771F881F991F0A95B2F7002D089597FD62
:1043C0001094002E083098F00850232F342F452FDA
:1043D000562F672F782F892F912DF4CF159497950D
:1043E00087957795679557954795379527950A95BA
:1043F000AAF71124002D0895F999FECF92BD81BD31
:10440000F89A992780B50895A6E1B0E044E050E01D
:104410000C944622A8E1B0E042E050E00C94462221
:10442000DC01A40FB51F4150504048F0CB01840F70
:10443000951F2E910E94212241505040D0F708959F
:10444000262FF999FECF92BD81BDF89A019700B44D
:10445000021639F01FBA20BD0FB6F894FA9AF99AED
:104460000FBE08950396272F0E9421220E9420222A
:10447000252F0E942122242F0C9421220196272FE0
:104480000E9421220C942022DC01CB01FC01F9992D
:10449000FECF06C0F2BDE1BDF89A319600B40D9290
:1044A00041505040B8F70895FB01DC0104C08D91E4
:1044B0000190801921F441505040C8F7881B990B96
:1044C0000895FB01DC0102C001900D924150504063
:1044D000D8F70895F894FFCF780FA00F3811A00FE8
:1044E0003811D30FF40F3811F110FE1034143814B2
:1044F000291430143C14401444149F141415A714A8
:1045000071147514AB147914AF14BB1485140D1504
:104510008914BF148D14C314EB149114C714F2142E
:104520009714CD14D5147D14B3148114B7149B14AF
:10453000D114E114FB140B156B14A3141B150616F0
:1045400006163E163E16E71666166616661603171C
:104550008B179A179A1724154C15531558155D1576
:10456000621567156C15711576157B1580156E1320
:104570006E136E136E136E136E136E136E136E1333
:104580000000000100000000000000040100000025
:10459000000000010500000000000001060000000E
:1045A00004070000000000000B0B000000000000EA
:1045B00001A9033708A8033008F4F501818283E2DA
:1045C00000E900EA00B500B600B700CD008301CCD9
:1045D000008A01920194012102230224022502266D
:1045E0000227022A02B300B4006F0070009F01CBC3
:1045F000019F02A002E9016697C635F6F731333212
:104600003600FF0100010000FFFF0000010001FF74
:0446100000000100A5
:00000001FF
