:100000000C9456030C9483270C948E030C948E034B
:100010000C948E030C948E030C948E030C948E031C
:100020000C948E030C948E030C947D210C94392136
:100030000C947A220C948E030C948E030C948E03F1
:100040000C948E030C948E030C948E030C948E03EC
:100050000C948E030C9456220C948E030C948E03F5
:100060000C948E030C948E030C948E030C948E03CC
:100070000C948E030C948E030C948E030C948E03BC
:100080000C948E030C948E030C948E030C948E03AC
:100090000C948E030C948E030C948E030C948E039C
:1000A0000C948E030C948E030C948E0300000000BD
:1000B0000000000000000000000000000000000040
:1000C0000000000000000000000000000000000030
:1000D0007E0F00D4FFFFFFC7000000780000000083
:1000E000000000002A2B2800000000000000000093
:1000F0000000000000000029000000002C1E342039
:10010000212224342627252E362D3738271E1F205E
:100110002122232425263333362E37381F040506A3
:100120000708090A0B0C0D0E0F10111213141516E7
:100130001718191A1B1C1D2F3130232D35040506E5
:100140000708090A0B0C0D0E0F10111213141516C7
:100150001718191A1B1C1D2F3130354C0102E001F4
:1001600002E3710103E30103E0003A0029003500D6
:100170001E001F002000210022002300AE00A90065
:100180002B0014001A0008001500170000003E00A4
:10019000AA00E00004211624072809410A000000F3
:1001A00040004100E10000001D001B000600190096
:1001B00005004200417EE0002152E200E300000021
:1001C0002C22000024002500260027002D002E00F0
:1001D0004C002A004A001C0018000C0012001300FA
:1001E0002F00300031004D000B000D420E380F344F
:1001F00033313400000028004B001100100036009D
:10020000370038000000E50052004E0001002C22AB
:100210002252E40001000000500051004F00010094
:10022000010035003A003B003C003D003E003F002D
:1002300001000100207821782F003000010001002A
:1002400000000100010001000100010001000100A7
:100250002B0000000100010001000000010001006E
:100260000100010001000100010001000100010086
:100270000100000001000000400041004200430076
:10028000440045004C002A0001000100010001006B
:1002900001000100010001000100010050005100B7
:1002A00052004F0001002A00000001000100280058
:1002B0000100010001000100000001000100010037
:1002C0000100010001000100010000000100010027
:1002D00001000100010035003A003B003C003D00F8
:1002E0003E003F0001000100207821782F003000FF
:1002F00001000100000001000100010001002602D0
:10030000270201002B000000010001000100000095
:1003100001002F0230020100010001000100010074
:100320000100010001000000010000004000410048
:1003300042004300440045004C002A000100010037
:100340000100417E010001000100010001000100E7
:100350005000510052004F0001002A00000001002F
:10036000010028000100010001000100000001005F
:100370000100010001000100010001000100000076
:100380000100010001001E0F0500047F3F1F6432C1
:1003900014643214783C1E1E140A05000101010188
:1003A0000101010101020202020202020202030330
:1003B0000303030303030404040404040405050500
:1003C00005050606060606070707070708080808C2
:1003D000090909090A0A0A0B0B0B0C0C0C0D0D0D6F
:1003E0000E0E0E0F0F0F1010111111121213131405
:1003F00014151516161717181819191A1A1B1B1C7D
:100400001D1D1E1E1F2020212222232424252626D6
:10041000272829292A2B2C2D2D2E2F30313232330B
:100420003435363738393A3B3C3D3E3F4041424314
:100430004445464748494A4C4D4E4F5051535455F8
:100440005658595A5B5D5E5F616264656668696BA8
:100450006C6D6F7072737577787A7B7D7E80828326
:100460008587888A8C8E8F91939596989A9C9EA06A
:10047000A2A3A5A7A9ABADAFB1B3B5B7BABCBEC077
:10048000C2C4C6C9CBCDCFD1D4D6D8DBDDDFE2E440
:10049000E7E9EBEEF0F3F5F8FAFDFFFFAA7F554030
:1004A0000102030C0D0E0F00070605040B0A0908D4
:1004B0002223252628292A2C2D2F30323335363871
:1004C0003A3B3D3E4042434547494A4C4E505153CA
:1004D0005557595A5C5E6062646668696B6D6F71EE
:1004E000737577797B7D7F81838587898A8C8E90F0
:1004F000929496989A9C9E9FA1A3A5A7A8AAACAEF9
:10050000AFB1B3B4B6B8B9BBBCBEBFC1C2C3C5C638
:10051000C7C9CACBCCCDCED0D1D2D2D3D4D5D6D7E1
:10052000D7D8D9D9DADADBDBDBDCDCDCDCDCDDDD1F
:10053000DDDDDCDCDCDCDCDBDBDBDADAD9D9D8D70F
:10054000D7D6D5D4D3D2D2D1D0CECDCCCBCAC9C7B1
:10055000C6C5C3C2C1BFBEBCBBB9B8B6B4B3B1AFE8
:10056000AEACAAA8A7A5A3A19F9E9C9A9896949288
:10057000908E8C8A89878583817F7D7B797775735F
:10058000716F6D6B6968666462605E5C5A5957553D
:100590005351504E4C4A4947454342403E3D3B3AF9
:1005A0003836353332302F2D2C2A29282625232280
:1005B00005010980A101850319012AB7001501264B
:1005C000B700950175108100C0050C0901A10185D6
:1005D0000419012AA002150126A0029501751081B7
:1005E00000C005010906A101050719E029E715006A
:1005F000250195087501810295017508810105079E
:10060000190029FF150026FF0095067508810005D1
:100610000819012905150025019505750191029517
:100620000175039101C009023B00020100A0FA0913
:10063000040000010301010009211101000122440D
:1006400000070581030800010904010001030000FF
:100650000009211101000122320007058203200058
:1006600001120100020000000810CB5743100401E2
:1006700002000122035100750065006600720065EA
:10068000006E006300790020005200650076002EA5
:10069000002000340000000E034B0065006500627E
:1006A0000069006F000000040309040011241FBE4C
:1006B000CFEFDAE0DEBFCDBF04B603FE18C08091F5
:1006C000C4039091C503A091C603B091C7038730BE
:1006D000904BA740B04B59F41092C4031092C5033D
:1006E0001092C6031092C703E0E0F8E3099523E0F7
:1006F000A6EEB1E001C01D92A43CB207E1F711E003
:10070000A0E0B1E0EAECF5E502C005900D92A63E4E
:10071000B107D9F70E94A1220C948F2A0C940000F3
:10072000482F2091C0039091870357E0291302C0FE
:1007300080E0089530E0529FF001539FF00D1124A6
:10074000E857FC4F8181681306C08081481303C0BD
:1007500085818111EECF2F5F3F4F2770E7CFE8ED06
:10076000F0E080818E7F80831092E2001092DA00A8
:100770001092E100A0EEB0E08C9181608C938081BA
:100780008F77808319BCA7EDB0E08C918E7F8C931E
:1007900080818F7E80831092700308952091E40001
:1007A0003091E50095E6A9012091EC00822F81703F
:1007B00020FF06C08091E80080FF06C080E0089519
:1007C0002091E80022FD1AC080917D03882389F0E2
:1007D000853089F08091EB0085FD0FC02091E40009
:1007E0003091E50042175307F9F29150E1F684E0A9
:1007F000089582E0089583E0089581E0089580914E
:100800007F0387FF13C08091E80082FF06C08091BC
:10081000E8008B778093E80004C080917D0381110C
:10082000F2CF089580917D038823D9F38091E80069
:1008300080FFF8CF8091E8008E77ECCF982F9093CF
:10084000E900242F762F50E0891731F07091EC00E9
:100850002091ED005091F00021FD07C09F5F97307F
:1008600071F78093E90081E008953091EB003E7FBD
:100870003093EB003091ED003D7F3093ED003091EF
:10088000EB0031603093EB007093EC002093ED00AF
:100890005093F0002091EE0027FDE0CF80E0089516
:1008A000B0E0A0E0E6E5F4E00C94A928C8EDD0E0C3
:1008B00088818F7E8883E7EDF0E08081816080838E
:1008C00084E082BF81E08093700388818E7F88837B
:1008D00002EE10E0F80110821092DA0081EEC82ECC
:1008E000D12CF601108288818F7788838881806877
:1008F000888388818F7D888319BC10927D03109234
:100900007E0310927C0310927B0390EEE92EF12C73
:10091000F70180818B7F808388818160888342E0BA
:1009200060E080E00E941E04F60180818E7F80835B
:10093000F801808181608083808188608083F701F5
:1009400080818E7F8083888180618883CDB7DEB788
:10095000E8E00C94C528FC01809185039091860302
:1009600086179707A0F06115710529F49091E800AA
:100970009E779093E80090E06115710551F4911114
:1009800008C08091E80082FF34C080E00895BC0177
:10099000F2CF80917D038823C1F18530C1F1809130
:1009A000E80083FD30C08091E80082FDEACF8091AD
:1009B000E80080FFE1CF8091F3002091F200382F12
:1009C0006115710519F02830310558F091E0283093
:1009D000310509F090E02091E8002E772093E8009F
:1009E000CBCF81918093F100615071092F5F3F4F10
:1009F000E7CF80917D03882341F0853041F08091DD
:100A0000E80083FFBECF81E0089582E0089583E08F
:100A10000895089508958091720308959C014FB739
:100A2000F89480916C0390916D03A0916E03B09146
:100A30006F034FBF821B930B08952FB7F8946091FB
:100A40006C0370916D0380916E0390916F032FBFC3
:100A500008952FB7F89480916C0390916D03A09145
:100A60006E03B0916F032FBF0895A3E0B0E0EBE3F6
:100A7000F5E00C94AF282091690330916A032817A0
:100A80003907A1F090936A0380936903E0916703AB
:100A9000F0916803309751F024E029839B838A8387
:100AA0000680F781E02DCE01019609952396E2E0BC
:100AB0000C94CB28A3E0B0E0E0E6F5E00C94AF287E
:100AC000209165033091660328173907A1F09093B0
:100AD000660380936503E0916703F09168033097A4
:100AE00051F023E029839B838A830680F781E02DE0
:100AF000CE01019609952396E2E00C94CB28FC01E7
:100B0000680F791F8FEF91E32191822728E030E071
:100B100087FF09C0880F892721503109C9F7E617D7
:100B2000F70791F70895880FF7CFFA01811101C0F7
:100B3000FB0109950895E7EDF2E01182828184605E
:100B40008283089580915D03982F9E7F29F48170A0
:100B5000826080935D0308958635E8F38170846533
:100B6000F8CFAF92BF92DF92EF92FF920F931F9355
:100B7000CF93DF93082F162FE901E42FF0E0E5561D
:100B8000FC4F611110C0E4915E2F4E2F4983E88322
:100B90005A83DF91CF911F910F91FF90EF90DF90DB
:100BA000BF90AF900895E62EF12C4491D42EE42FFF
:100BB000F0E026E0829FC00111242FEF30E0B90160
:100BC0000E94E228802F90E0880F991F55E5569FDC
:100BD000D001579FB00D11248A1B9B0B982F990FA2
:100BE000890F5901AE18BF08AE9ED001AF9EB00D5F
:100BF000BE9EB00D11245B2F189F80011124012F80
:100C000011275901A01AB10AAE9E8001AF9E100DA6
:100C1000BE9E100D11245901A81AB108AE9CC00146
:100C2000AF9C900DBE9C900D1124892F9927281BF5
:100C3000390B2E9FC0012F9F900D3E9F900D1124C8
:100C4000E92F62307105A1F050F46115710509F4C6
:100C50009DCF6130710581F0EB2F512F97CF64301C
:100C6000710569F080F06630710509F48FCFF4CF1B
:100C7000E42F4B2F592F8ACFE42F412F87CFEB2F13
:100C8000542F492F83CF4B2F5D2DE12F7FCF80E055
:100C90000895F894E82FE295EF70F0E031A1282F45
:100CA0002F7081E090E001C0880F2A95EAF7982F15
:100CB0009095932391A392A1892B82A37894089570
:100CC0009091990292FF10C041E0282F24712430A6
:100CD00009F040E031E0282F2871283009F030E099
:100CE000431711F02CE0822793FF10C041E0282F1A
:100CF0002471243109F040E031E0282F2871283197
:100D000009F030E0431711F02CE0822730919A026D
:100D100030FF10C051E0282F2171213009F050E040
:100D200041E0282F2871283009F040E0541711F0D5
:100D300029E0822731FF10C041E0282F21712131A5
:100D400009F040E031E0282F2871283109F030E027
:100D5000431711F029E0822794FD877E0895823899
:100D60009105B9F1B0F48133910509F47DC048F4DF
:100D70008932910509F46DC08A32910509F47BC06E
:100D800008958533910509F45FC08933910509F110
:100D90000895833E9105D9F138F4803E910529F1FB
:100DA000823E910579F10895863E9105D9F1873EFD
:100DB000910509F43EC0843E910541F520919A02C7
:100DC00021FF24C08091990284FD19C087EE90E034
:100DD000089520919902237009F05AC020919A0237
:100DE00023FF14C089E290E008952091990220FD2C
:100DF00038C030919A0230FF09C024FF43C090E010
:100E000080E008952091990222FDF7CF0895209166
:100E1000990222FD3AC030919A0230FD39C024FF78
:100E2000F5CFEDCF2091990223FFF0CF24FDE7CF3E
:100E3000CDCF2091990223FD2EC030919A0231FF2F
:100E4000EECF84EE90E008952091990225FFDECF49
:100E5000C9CF2091990225FD21C020919A0223FF3C
:100E6000D5CF89E390E0D2CF2091990226FFCECF53
:100E70008AE290E008952091990226FFC7CF81E38E
:100E800090E0089583EE90E0089582EE90E008955A
:100E900080EE90E0089586EE90E0089585E390E07E
:100EA0000895972F7A30B8F46930A8F48330B0F4FD
:100EB00070E029E0929F600D711D1124FB019AE5FD
:100EC000899FE00DF11D1124EE0FFF1FE659FE4F23
:100ED00085919491089580E090E0089581E0FCCFA1
:100EE0001F93CF93DF930E94AF06EC01C11580E5FD
:100EF000D807F0F5C11580E4D80708F09CC0C03EC3
:100F0000D10520F5CD3CD10508F082C0C83AD10505
:100F100078F4C53AD10508F073C0C130D10519F194
:100F2000209709F1C430D105F0F4D0E0C0E01BC037
:100F3000C33CD105D0F7C85AD0E0CC0FDD1FCE5846
:100F4000DE4F0990D881C02DD4640DC0C11580E258
:100F5000D80708F0D1C0C11581E0D80708F05AC001
:100F6000C83ED10510F7CE01DF91CF911F910895B2
:100F7000C03682E5D80718F5C03482E5D80708F0F6
:100F80006BC0C03282E5D80708F05FC0C11582E5AA
:100F9000D80708F497C02C2F2695269580E2289F25
:100FA000900111248C2F8370C1E0D0E002C0CC0FDF
:100FB000DD1F8A95E2F7C22BD32BDD68D4CFC03A70
:100FC00082E5D80760F4C03882E5D80708F459C034
:100FD000CF71D0E0DC2FCC27C46FD06AC4CFC03C27
:100FE00082E5D80708F462C0C03E82E5D80708F061
:100FF0009CCFDC2FCC27CC27DF71C06FD06AB3CF5A
:10100000C55AD0E0C159DE4FC881D0E0D064ABCF23
:10101000D065A9CF8D2F0E946006182FCE01992789
:101020000E94AF06C12FD0E0DC2FCC27CC27DF7188
:10103000C82BD92B98CFCE0199270E94AF06CC2779
:10104000DF70C82BD92BD06A8ECFCF71D0E0DC2FC8
:10105000CC27C16FD06A87CF2C2F26952695277075
:1010600080E2289F900111248C2F8370C1E0D0E092
:1010700002C0CC0FDD1F8A95E2F7C22BD32BDC68B0
:1010800072CF2C2F26952695277080E2289F9001FD
:1010900011248C2F8370C1E0D0E002C0CC0FDD1F83
:1010A0008A95E2F7C22BD32BDA685DCF8C2F8F7134
:1010B0000E946006C82FD0E0DC2FCC27CC27DF7140
:1010C000D06251CF8C2F8F710E94600655E0D6956B
:1010D000C7955A95E1F7CF70D0E0DC2FCC27282FA9
:1010E00030E084FF05C044E0220F331F4A95E1F74A
:1010F000C22BD32BD06937CF8D2F8F710E94600602
:10110000182FCE0199270E94AF06C12FD0E0DC2F07
:10111000CC27CC27DF71C82BD92BD2CF80959091CB
:1011200034029823909334020895EAEEF1E091910D
:10113000891303C0DF0111971C9291E0E03FF9078A
:10114000B1F70895AAEEB1E0EFEF90E02D9182178C
:1011500051F0EF3F19F4211101C0E92F9F5F963044
:10116000A9F7EF3F09F408950E2E000CFF0BE8518C
:10117000FE4F828308958091C00390918703981356
:1011800001C008958F5F8770FACFB0E0A0E0EBEC6C
:10119000F8E00C94A8287C01009197021091980225
:1011A0008091350290913602082B192BCFE0D0E0C8
:1011B000CC24C394D12CBC2EC6010C2E02C0880FA7
:1011C000991F0A94E2F780239123892B49F42197F0
:1011D00090F7B12C8B2DCDB7DEB7E9E00C94C42885
:1011E000B7018C2F0E9451070E947007019779F375
:1011F000F1CFCF93DF93EC010E94C508BE010E949E
:1012000051070E947007DF91CF9108959A3078F5C9
:10121000893068F5E82FF0E089E0989FE00DF11D36
:1012200011249E2F977083E0F695E7958A95E1F754
:10123000EE0FFF1FEE0FFF1FEE50FE4F50E040E09D
:1012400080E0219130E0092E02C0369527950A945E
:10125000E2F721703327042E01C0220F0A94EAF727
:10126000822B4F5F5F4F4430510559F7089580E05E
:1012700008959A3098F5893088F5E82FF0E089E0F4
:10128000989FE00DF11D11248E2F877041E001C061
:10129000440F8A95EAF783E0F695E7958A95E1F79A
:1012A000EE0FFF1FEE0FFF1FEE50FE4F30E020E06D
:1012B00070E05191DF011197CB01022E02C096958B
:1012C00087950A94E2F78170819585278423852785
:1012D0008C932F5F3F4F2430310559F70895909339
:1012E000980280939702089521E030E002C0220F17
:1012F000331F8A95E2F7209530958091970290915F
:101300009802822393230E946F09089590912902E5
:101310008095892380932902282F277069F48917E3
:1013200059F090919A0292FF07C08695869586950E
:101330000E94740910922902089521E030E002C051
:10134000220F331F8A95E2F78091970290919802BD
:10135000822B932B0E946F090895909336028093FD
:1013600035020895FC0124812223C1F080819181FE
:101370000E94F90892959F70963091F058F4925F10
:101380009F70923058F4803F19F030F4883E30F46A
:1013900081E008959A5FF4CF843FD1F380E008950F
:1013A000883EB0F3813FD1F7F3CFA6E0B0E0EBED9C
:1013B000F9E00C94AE2849835A8349815A819923D4
:1013C000A1F0222391F0CA010E94C508182F682FAE
:1013D00089819A810E94390969817A81812F0E94CD
:1013E00051072696E3E00C94CA28CA010E94060918
:1013F000182FF2CF0F931F93CF93DF938B01EA0146
:1014000090917D03943061F58093E9008FEF909186
:10141000E800815095FD06C095ED9A95F1F7000022
:101420008111F5CF8091E80085FF1AC00E94CE039C
:10143000811111C08091E80085FD06C08091E8000F
:101440008E778093E800F2CFF80181918F0180932D
:10145000F100219779F78091E8008E778093E8007A
:10146000DF91CF911F910F91089543E050E0BC01AF
:1014700082E00E94FA090895CF93DF93EC0148E0DF
:1014800050E0BC0181E00E94FA0988E0FE01A3E778
:10149000B3E001900D928A95E1F7DF91CF91089525
:1014A000CF92DF92EF920F931F93CF93DF93CDB73D
:1014B000DEB7E0970FB6F894DEBF0FBECDBF6091E8
:1014C0005C0180915D0380FF4BC0E0EAF4E09E0187
:1014D0002F5F3F4F8E010F5C1F4FC901A4914A2F10
:1014E00050E0DA01AA0FBB1FA40FB51FA352BD4FD6
:1014F000CD90DD90EC90D901CD92DD92ED929D01E1
:101500003196A017B10751F720915B0143E0249F6A
:10151000800D911D11246E9A2EB12F7B3EB1306447
:101520005FB7F894FC01649FE00DF11D1124BF0129
:101530008617970741F55FBFEFE5F4E03197F1F7C4
:1015400000C00000E0960FB6F894DEBF0FBECDBF1E
:10155000DF91CF911F910F91EF90DF90CF90089581
:1015600080915D0190915E0123E0829FF001112442
:10157000E352FD4F891708F0A8CF11821082128222
:101580008F5F3396F7CFDC014D91CD01E8E03EB996
:10159000000000C047FF2EB9440F000000C000C08B
:1015A00000C02EB900C0EA9591F7C2CF0F931F93E8
:1015B000CF93DF93EC0110E000E090915F01901772
:1015C000110609F06CF40E94500A8C8190E001969B
:1015D000817099278C83DF91CF911F910F9108958E
:1015E00020915D01A801420F511D9A01220F331F66
:1015F000240F351F23523D4F4C8160915F03809132
:101600005E0396959017110651F04CF0442349F073
:10161000409160030E94B1050F5F1F4FCECF44235E
:10162000B9F340E0F7CFB0E0A0E0E9E1FBE00C94D3
:10163000A528EC014C81042F10E09801D8010E94EC
:10164000802A9B01AC010E944B2A4B015C01E0E225
:10165000F0E0E01BF10BA5E5B0E0AC019B010E94BE
:101660004B2A6B017C019F01DF010E9410299B0125
:10167000AC010E94562A9B01AC01280D391D4A1D60
:101680005B1DC701B6010E945E2AF22E822F90E0F8
:1016900039E23F1520F143E0249F90011124359554
:1016A0002795122F109500E085E5E82EEF18809120
:1016B0005F01081718F10E94500A9C8181E099236C
:1016C00019F0903219F48FEF80935A0180915A01EA
:1016D000890F8C83CDB7DEB7ECE00C94C12825E5EB
:1016E00030E0B901681B790B9B01220F331F260FD5
:1016F000371F37FFD4CF2F5F3F4FD1CF8E2D01FD46
:101700008F2D20915D01622F600F7727771F9B013E
:10171000220F331F260F371F23523D4F412F609159
:101720005F030E94B1050F5FC2CFEF92FF920F934C
:101730001F93CF93DF93EC018C81811109C081E06D
:101740008C831092DB0292E09093590180935801B0
:1017500080915D0190915E0123E0829FF001112450
:10176000E352FD4F891758F110E003E060915F01EB
:10177000161758F10E94500A809158012091DB02FF
:10178000280F2093DB0290915901980F90935901F3
:10179000191654F4022E000C330B40915F01415096
:1017A000550B2417350734F081958093580181300B
:1017B00009F41C82CDB7DEB7E6E00C94C72811828D
:1017C000108212828F5F3396CDCFE12EF12C70E024
:1017D000C7010E94F62820915D01820F482F50E03A
:1017E0002091DB02022E000C330BE216F306BCF054
:1017F00020915901022E000C330B2E153F057CF071
:10180000809F9001112423523D4F409160036091CD
:101810005F0380915E030E94B1051F5FA7CFFA01AD
:10182000EE0FFF1FE40FF51FE352FD4F11821082F0
:101830001282F3CFB0E0A0E0E0E2FCE00C94A62836
:10184000EC018A81BB24BA9480FD02C0BB24B3940E
:10185000A0905F018C81811109C081E0B8121EC087
:101860008FEF8A0D8093DA0281E08C83F12CE12CDA
:10187000EA14B8F00E94500A8091DA0291E0B9129D
:1018800054C081114DC080915F0181508093DA0274
:101890001C82CDB7DEB7EBE00C94C2281092DA02BE
:1018A000E3CF00915D010E0D1F2D111DC801880FA2
:1018B000991F080F191F03521D4FF8011182108242
:1018C000128234E0C32ED12C912C8091DA02890D42
:1018D000813114F18F70082E000C990B8E159F0525
:1018E00091F4809160038C9DA0018D9D500D112479
:1018F0005595479555954795980160915F0380915F
:101900005E030E94B1059B0CF1E0CF1AD108E9F605
:101910008FEFE81AF80AACCF87FFDDCF8A0DDBCF57
:1019200081508093DA02BC82B4CF90E0019660913E
:101930005F0170E00E94F6288093DA028C83A9CFC1
:10194000EF92FF921F93CF93DF93EC0110E0EE2410
:10195000EA94F12C60915F01161770F00E94500A12
:101960009A818C8190FF27C08F5F8C83DF91CF910C
:101970001F91FF90EF90089520915D01422F410F3C
:101980005527551FCA019A01220F331F280F391FEF
:1019900023523D4F70E0C7010E94F628962F8C819C
:1019A0004091600360915F03199F800D11240E9494
:1019B000B1051F5FCFCF8150D8CF90915D0390FFCD
:1019C0000EC090915D0120915E0133E0939FF00184
:1019D0001124E352FD4F921718F00E94500A089507
:1019E0008183608342839F5F3396F5CFA3E0B0E0AD
:1019F000ECEFFCE00C94AD288C018091DC028111AD
:101A00000AC09E012F5F3F4F4FEF6FEF0E94B1055D
:101A10008A818093DC02F8016481613069F08091F1
:101A2000DC0240E0662361F040E0623011F4409156
:101A3000DC0280E060E004C06091DC0240E080E015
:101A40000E94DD0CF801848190E0019663E070E073
:101A50000E94F62884832396E4E00C94C928A3E02E
:101A6000B0E0E5E3FDE00C94AF2890915D0390FFBA
:101A70000AC09E012F5F3F4F0E94B1054B816981D3
:101A80008A810E94DD0C2396E2E00C94CB28CF9350
:101A9000DF93EC01EDE5F3E0438162818C810E94EC
:101AA0002F0D8C818F5F8C83DF91CF910895CF9321
:101AB000DF93EC01EC81F0E0E055FB4F4491EDE564
:101AC000F3E0628181810E942F0D8C818F5F8C8376
:101AD000DF91CF910895B0E0A0E0E1E7FDE00C9444
:101AE000A7287C015B016A0180917A0201E010E085
:101AF0008A3010F40AE010E0C1E0D0E0B501C7017F
:101B0000F6010995811104C021960C171D072CF4CC
:101B1000CDB7DEB7EAE00C94C328CC9F9001CD9FEF
:101B2000300D300D112490E080E045E34A95F1F747
:101B30000000019682179307C1F7E0CF809143021E
:101B4000811110C08091D80080618093D8008AE113
:101B50008A95F1F700C08091D90080FF0AC081E02A
:101B60008093430281E090914302913009F080E03C
:101B7000089582E0809343020E94AF0310927D0398
:101B8000F1CF0E949E0D882359F0E0916703F091F8
:101B90006803309729F00190F081E02D09950895B0
:101BA00080E008950F931F930E949E0D882329F0D3
:101BB0000E941D051F910F9108950E941D0500911F
:101BC0007B0210917C0220917D0230917E02600F99
:101BD000711F821F931FEECF0E94D20D08950E94A5
:101BE0009E0D882319F00E94290508950E94D20DA8
:101BF000CB010895B0E0A0E0E0E0FEE00C94A12865
:101C0000FC016280448081E08483E0EBF4E0749026
:101C1000EFE2F5E0E491C0916003C695C158D0E0D1
:101C2000CC0FDD1FCD2FDD27812C75E0972EAA2448
:101C3000AA94B12C55245A94E719EE2EF12C8091D8
:101C40005F01881638F00E94500ACDB7DEB7E0E198
:101C50000C94BD28C82CD12C82E0861568F09C9C81
:101C6000F0019D9CF00D1124E35FFC4F80915E0319
:101C7000808380915F038183411023C09C9CF0018D
:101C80009D9CF00D1124E35FFC4F13821282209182
:101C90005D01C601820F911D9C01220F331F280F89
:101CA000391F23523D4F9C9CF0019D9CF00D112447
:101CB000E35FFC4F4281618180810E94B105839482
:101CC000BECF9C9C80019D9C100D1124035F1C4F76
:101CD000F80183818823F1F081508383859DC001C1
:101CE0001124648170E00E94E228FB01FF27E05587
:101CF000FB4F8491E82FE719E59DC0011124B7013E
:101D00000E94E22880916003689FB0011124F801CD
:101D10007283BDCF0E94A129B5010E94F6288C17BD
:101D20009D070CF0B4CFF2E0F61598F40E94A129BB
:101D3000B5010E94F628F80180830E94A129209114
:101D40005F032695622F70E00E94F628280FF801A5
:101D500021839C9CF0019D9CF00D1124E35FFC4FBE
:101D6000128280916003893C58F088EC9C9CF001C1
:101D70009D9CF00D1124E35FFC4F8483838387CF08
:101D80008431A0F784E1F2CF60915D03669570E045
:101D90004BE050E08DE491E00E94B129892B19F4C9
:101DA00081E08093D8020E94EF0D9093D20280933D
:101DB000D1028091D90284608093D9020895B0E065
:101DC000A0E0E5EEFEE00C94A52849015A016B0164
:101DD0007C010E94A2058401A4016A2D7B2D88E06C
:101DE00090E00E940A2A94014A2D5B2DB601C7019A
:101DF00000E20E943A29622F84E290E00E94F829D2
:101E0000CDB7DEB7ECE00C94C128A3E0B0E0EBE086
:101E1000FFE00C94A828082FE62EF42EC22E9091F5
:101E20005D0390FF40C020915E03281308C080919D
:101E30005F03861304C080916003841729F08091AA
:101E4000D90282608093D902E92FE695AE2FB0E0E7
:101E5000A654BE4F8C918093D7029E7F923039F565
:101E60009E012F5F3F4F4F2D6E2D802F0E94B10599
:101E70004B8169818A810E94DD0C00935E03E092B0
:101E80005F03F0926003CC2071F020915D036091BC
:101E9000610370916203302FA701809163039091D9
:101EA00064030E94DF0E2396E9E00C94C42882307C
:101EB00019F4F0906003E1CF8630A1F1893091F1FF
:101EC0008931D9F6E9516E2F6170B62EE695F0E0B2
:101ED000E556FB4F1491D12C60915F01D61618F096
:101EE0000E94500ACACFD19EC001112470E00E9406
:101EF000E228802FB11014C0860F20915D01622F5F
:101F00006D0D7727771F9B01220F331F260F371F79
:101F100023523D4F4F2D6E2D0E94B105D394DCCF3F
:101F2000861BEBCF022FA9CFEDE5F3E0438121E142
:101F3000421B08F440E021E0628181810E94050F8C
:101F40000895EDE5F3E0438121E1420F08F44FEFFE
:101F500021E0628181810E94050F0895EDE5F3E0A3
:101F6000628121E1621B08F460E021E0438181810C
:101F70000E94050F0895EDE5F3E0628121E1620F13
:101F800008F46FEF21E0438181810E94050F0895DD
:101F9000EDE5F3E0818121E04381628188500E9478
:101FA000050F0895EDE5F3E0818121E04381628131
:101FB000885F0E94050F089580916103882319F0BE
:101FC00081508093610320915D0330915E034091C5
:101FD0005F0350916003609161037091620380918F
:101FE0006303909164030E94DF0E08958091610362
:101FF000833018F48F5F8093610320915D033091EB
:102000005E0340915F0350916003609161037091A2
:10201000620380916303909164030E94DF0E089530
:1020200090915D0390FF39C09170811137C092602B
:1020300090935D038091D90281608093D9026623D9
:1020400091F020915D0330915E0340915F035091C8
:1020500060036091610370916203809163039091CA
:1020600064030E94DF0E60915D03669570E04BE0B3
:1020700050E08DE491E00E94B129892BB1F00E94DB
:102080009B0581E08093D40220E040916003609141
:102090005F0380915E030E94050F08958B3210F05C
:1020A0009465C6CF880F982BC3CF0E94C40EE9CF8A
:1020B00080915D038695815009F48AE261E00E9477
:1020C0001010089580915D0386958F5F8B3208F024
:1020D00081E061E00E941010089590915D0390FFEF
:1020E00008C09695981728F0961718F40E94621069
:1020F000089561E00E9410100895EDE5F3E087E196
:10210000808311828FEF828383831482A7EDB2E0F4
:1021100012968C911297836012968C93758127E1A9
:1021200030E04FEF5FEF60E0868197810E94DF0E25
:102130000895ABE0B0E0EFE9F0E10C94AF2888E05F
:10214000EDE5F3E0DE01119601900D928A95E1F73D
:102150008091D7029091D802A091D90289879A875D
:10216000AB872B854091760250917702609178027F
:10217000709179023FB7F89480916C0390916D0350
:10218000A0916E03B0916F033FBF841B950BA60B0C
:10219000B70B84369105A105B10510F4222319F17E
:1021A00080912D0190912E01865A9D4F40912C01D6
:1021B00050E04C30510510F04BE050E0BE016F5F35
:1021C0007F4F0E94CB2985E090E00E942928882338
:1021D00069F00E941D0560937602709377028093E8
:1021E0007802909379021092D90281E02B96E2E076
:1021F0000C94CB28A4E0B0E0E0E0F1E10C94AE2830
:1022000040915602509157026091580270915902C4
:102210002FB7F89480916C0390916D03A0916E0399
:10222000B0916F032FBF841B950BA60BB70B11E06A
:1022300084369105A105B10570F10E94D20D6E5F43
:102240007F4F8F4F9F4F69837A838B839C838091CD
:10225000250190912601865A9D4F4091240150E01E
:102260004530510510F044E050E0BE016F5F7F4FF4
:102270000E94CB2984E090E00E942928182F88230F
:1022800051F00E941D05609356027093570280938F
:10229000580290935902812F2496E3E00C94CA28A7
:1022A0004F925F927F928F929F92AF92BF92CF9206
:1022B000DF92EF92FF920F931F93CF93DF930F92D2
:1022C000CDB7DEB7C62E4A015901482E880F5508F2
:1022D000C2010E942928782E882309F480C0C201F7
:1022E00033E0880F991F3A95E1F7FC01EC5FFE4F50
:1022F000438150E04115510511F041E050E08C5F01
:102300009E4FFC0164817581665A7D4FCE01019616
:102310000E94CB29F40140815181628173812FB7E2
:10232000F89480916C0390916D03A0916E03B0912D
:102330006F032FBF841B950BA60BB70B843691053B
:10234000A105B10540F4B701C8010E947F0599813C
:10235000891709F444C00C2C000CDD08C6010E944A
:102360002928782E811113C0712C872D0F90DF91B1
:10237000CF911F910F91FF90EF90DF90CF90BF9082
:10238000AF909F908F907F905F904F900895C6017F
:1023900023E0880F991F2A95E1F7FC01EC5FFE4FBF
:1023A000438150E0E416F50608F4A7018C5F9E4FC8
:1023B000FC0164817581665A7D4FC5010E94CB295D
:1023C000B701C8010E947F0599818913CDCF0E9472
:1023D0001D05F4016083718382839383C6CFA701B7
:1023E000B801C5010E94CB29C0CFAAE0B0E0EBEF55
:1023F000F1E10C94A9286B018AE0E82EF12C0BE5A1
:1024000012E09E012F5F3F4F4EE452E061E080E01A
:102410000E945011882349F09AE0FE013196A4E40D
:10242000B2E001900D929A95E1F79AE0E4E4F2E0CF
:10243000D60101900D929A95E1F72A96E8E00C9466
:10244000C528AFE1B0E0E7E2F2E10C94A1288E01EB
:102450000F5F1F4F84E1D8011D928A95E9F76DE364
:10246000E62E61E0F62E680172E4472E71E0572EE9
:1024700066246394712CFDE38F2EF1E09F2EF7010B
:1024800081917F018F3F09F445C0F894E82FE295D0
:10249000EF70F0E021A18F70A30102C0440F551F1F
:1024A0008A95E2F7CA01922F982B91A392A1809569
:1024B000892382A3789400C0E4E3F1E021E030E0D6
:1024C000B12CA12C41914F3F09F46DC0A42FA295CE
:1024D000AF70B0E090968C9190E04F7002C09595EF
:1024E00087954A95E2F780FD5EC0C901A82AB92AFE
:1024F000220F331F8E169F0629F7F701319780812F
:102500008F3F11F00E94490650EA5A95F1F7D60123
:10251000AD92BC92B2E0CB0ED11C4E145F0409F018
:10252000AECF44E150E0B80181E892E00E94BE29BC
:10253000009741F024E1F801A1E8B2E001900D928A
:102540002A95E1F700919602892B81F181E0809331
:102550003B020E94290590933A02809339028091B0
:10256000390290913A020E940E05059718F110E089
:10257000000F111F04561D4F4AE050E061E872E061
:10258000C8010E94BE29D12C892B51F08AE0E1E8D4
:10259000F2E0D80101900D928A95E1F7DD24D39401
:1025A00010923B0208C090E080E0A0CF80913B02F7
:1025B0008111D5CFD12C0E949E0DC82EE09196029C
:1025C000AE014B5E5F4F7A01882309F481C08AE037
:1025D000DA011D928A95E9F70E2F10E0000F111F06
:1025E00004561D4F80917A028A30E8F545EF51E19B
:1025F000B701C8010E946B0D882309F458C043EA53
:1026000058E1B701C8010E946B0D882309F44FC03F
:102610004AEF50E1B701C8010E946B0D882309F40D
:1026200046C049E950E1B701C8010E946B0D8823FB
:10263000F1F110927A028091950290E0880F991F33
:102640004AE050E0B70184569D4F0E94BE2921E028
:1026500020934202892BE1F4C12C8C2D8D296F9699
:10266000E0E10C94BD2880913C0290913D020E94D3
:102670000E05843F914008F0B9CF80914202882333
:1026800059F38AE0F70111928A95E9F71092420214
:10269000A0919502B0E0AA0FBB1FA456BD4F8AE0DF
:1026A000FE01759601900D928A95E1F7D6CF809143
:1026B0007A028F3F31F08F5F80937A028A3008F47C
:1026C000BACF0E94290590933D0280933C02D5CF5A
:1026D000F0E0EE0FFF1FE456FD4F8AE0ABE5B2E0FD
:1026E00001900D928A95E1F76AE070E08BE592E047
:1026F0000E947F0580935A024091CD0250E0609184
:10270000CC0270E068537D4FC7010E94CB298D89B0
:102710008093660261E070E0C7010E947F058093AC
:1027200065028090670290906802A0906902B09064
:102730006A0280913E0290913F02A0914002B091C6
:10274000410288169906AA06BB06D1F080923E0285
:1027500090923F02A0924002B09241020E949E0DD0
:1027600081110EC00E941D05861A970AA80AB90A8F
:1027700080927B0290927C02A0927D02B0927E02B7
:102780008BE0EBE6F2E0DE01559601900D928A9522
:10279000E1F780916B028695F0906C02E0906D02FB
:1027A000B0906E0200917402109175021092750241
:1027B000112309F452CF10FF0BC02D8990915D03B6
:1027C00020FF1AC0916090935D0360E00E9410109A
:1027D00011FF06C020E04B2D6E2D8F2D0E94050F9E
:1027E00012FF04C00023A9F00E94C40E13FF35CFCE
:1027F00081E08093D40231CF9E7F90935D030E944D
:102800009B058091D90281608093D9020E94500A71
:10281000DFCF0E949B05EACF809134029091330272
:10282000892B8093E80190913202992391F0892BB2
:102830008093E80120E08AEE91E0FC013191CF0124
:1028400031112F5FF1E0803F9F07B9F721111092FE
:10285000320248E050E06AE272E088EE91E00E94C5
:10286000BE29892BA9F088E0E8EEF1E0AAE2B2E007
:1028700001900D928A95E1F7E0916703F09168036A
:10288000309731F00280F381E02D88EE91E00995D8
:10289000089510923402EAEEF1E086E0DF011D9225
:1028A0008A95E9F790E080E00E945A0590E080E088
:1028B0000E943505109233020E940C140895AAE27A
:1028C000B0E0E5E6F4E10C94AE288FE793E02091C8
:1028D000F100FC012193CF01F3E087389F07B9F79E
:1028E00080918003833009F470C0B8F4813009F41A
:1028F00047C0823009F4B1C08091E80083FF7EC2F6
:1029000080917F03909180039A3008F077C2E92F7D
:10291000F0E0EF56F54D0C940A298A3009F48CC08A
:102920008B3009F46FC0893039F780917F03813291
:1029300019F780918303909184030297E8F68091C0
:10294000E800877F8093E8008091E80082FF38C02C
:102950009091F3008091F200029731F48091F100A0
:10296000813011F0863021F48091F1008093720360
:102970008091E8008B778093E8000E94FF03BCCF32
:1029800080917F03813A09F0B7CF8091E800877F7B
:102990008093E8008091830390918403892B61F4F4
:1029A00068E083E793E070E00E94AB048091E80068
:1029B0008B778093E800A0CF60E090E080E0F3CFD9
:1029C00080917D038111C0CF97CF80917F03813AA1
:1029D00009F092CF8091830390918403892B09F0B1
:1029E0008BCF8091E800877F8093E8008091E8009A
:1029F00080FFFCCF809160018093F1008091E8001E
:102A00008E77B9CF80917F03813209F075CF8091A5
:102A1000830390918403892B09F06ECF8091E800A5
:102A2000877F8093E8000E94FF0380918103809359
:102A300060010E94491460CF80917F03813209F0C8
:102A40005BCF8091E800877F8093E8000E94FF03BE
:102A500080918203809371034FCF80917F03813AED
:102A600009F04ACF8091E800877F8093E800809149
:102A7000E80080FFFCCF80917103BECF803899F0D1
:102A8000823809F0BBC1809183038F70873008F0D2
:102A9000B5C18093E9008091EB0085FB882780F920
:102AA0001092E90006C080917B0390917C03911104
:102AB00082609091E800977F9093E8008093F10006
:102AC0001092F1008091E8008E7794C1882309F478
:102AD00082C1823009F092C180918103811185C148
:102AE000809183038F702FEF280F263008F086C166
:102AF0008093E9002091EB0020FF77C1933031F4FF
:102B00008091EB0080628093EB006FC19091EB00AD
:102B100090619093EB0021E030E001C0220F8A9594
:102B2000EAF72093EA001092EA008091EB008860B7
:102B3000EACF811163C1109181031F778091E30077
:102B40008078812B8093E3008091E800877F8093D9
:102B5000E8000E94FF038091E80080FFFCCF809195
:102B6000E30080688093E30082E0111183E08093AA
:102B70007D0344C18058823008F040C180918103B8
:102B8000909182038C3D23E09207A1F583E08A8334
:102B90008AE289834FB7F894DE01139620E03EE085
:102BA00051E2E32FF0E050935700E49120FF03C07F
:102BB000E295EF703F5FEF708E2F90E0EA30C0F04B
:102BC000C7968D939D932F5F243159F74FBF809106
:102BD000E800877F8093E8006AE270E0CE0101960A
:102BE0000E94AB048091E8008B778093E80006C1D7
:102BF000C096E7CF4091830350918403292F332758
:102C00002330310509F444C078F52130310509F449
:102C10006FC08BE390E0E6E2F6E02230310509F088
:102C2000EDC02091E800277F2093E80020918503E4
:102C3000309186038217930708F49C0140E0211528
:102C4000310509F064C0411162C08091E80082FD45
:102C5000C9CF80917D03882329F2853019F28091B4
:102C6000E80083FFF2CFBECF21323105A9F1223235
:102C7000310509F0C3C04115510509F443C0413085
:102C8000510509F0BBC082E390E0E0EBF5E0C9CF6D
:102C9000992781309105C1F0009759F0029709F00A
:102CA000ADC0E3E7F6E0E4918E2F90E0E3E7F6E0D5
:102CB00007C0E7EAF6E0E4918E2F90E0E7EAF6E05D
:102CC000009709F49BC0ADCFE7E9F6E0E4918E2FC1
:102CD00090E0E7E9F6E0F4CF4115510571F041309D
:102CE000510509F08BC089E090E0E1E5F6E099CF6D
:102CF00082E190E0E1E6F6E094CF89E090E0E8E35D
:102D0000F6E08FCF84E490E0E2EEF5E08ACF8091A8
:102D10007D03882309F466CF853009F463CF809161
:102D2000E80083FD5FCF8091E80082FD8ECF809127
:102D3000E80080FF84CF9091F3008091F20021158C
:102D4000310519F08830910550F041E0089709F0FD
:102D500040E08091E8008E778093E80070CF449146
:102D60004093F1003196215031090196E8CF803827
:102D700009F044C08091E800877F8093E80080914B
:102D80007E038093F1009ECE811138C010918103A3
:102D90001230A0F58091E800877F8093E8001093BF
:102DA0007E030E94FF03112311F084E005C080918F
:102DB000E30087FDFACF81E080937D0342E061EC80
:102DC00081E00E941E0442E261EC82E00E941E0447
:102DD00080917D0313C080918103813079F481E07B
:102DE000933009F080E080937C031092E900809199
:102DF000E800877F8093E8000E94FF038091E8004D
:102E000083FF0AC08091E800877F8093E80080916B
:102E1000EB0080628093EB00AA96E3E00C94CA2852
:102E20000E9449142FEF84E39CE0215080409040A1
:102E3000E1F700C0000088E19CE00FB6F894A89587
:102E4000809360000FBE90936000FFCF882321F035
:102E50000E948E080E940C140895882339F09091E6
:102E60003402982B909334020E940C140895882306
:102E700009F44DC0823879F40E94C10D81FF47C02A
:102E800089E30E94A2080E940C1489E30E9495081D
:102E90000E940C140895833859F40E94C10D80FFDC
:102EA00036C083E50E94A2080E940C1483E5EECF91
:102EB000843859F40E94C10D82FF29C087E40E9422
:102EC000A2080E940C1487E4E1CF9CEF980F913A7E
:102ED000E8F290E2980F983050F4877091E001C0CA
:102EE000990F8A95EAF7892F0E948E08D1CF9BE52A
:102EF000980F933028F490E080E00E945A050895DE
:102F0000885A8B3120F490E080E00E9435050895C6
:102F1000CF93C82F8823C9F08238C9F40E94C10D0D
:102F200081FD13C089E30E94A2080E940C142FEFB8
:102F300087EE93E0215080409040E1F700C0000010
:102F400089E30E9495080E940C14CF91089583385C
:102F5000A1F40E94C10D80FDF8CF83E50E94A20874
:102F60000E940C142FEF81EE94E02150804090409D
:102F7000E1F700C0000083E5E4CF8438A1F40E94AB
:102F8000C10D82FDE2CF87E40E94A2080E940C14CA
:102F90002FEF81EE94E0215080409040E1F700C097
:102FA000000087E4CECF8CEF8C0F813A70F4EAEE0C
:102FB000F1E080EF91E02191C21799F18E179F0700
:102FC000D1F78C2F0E94A208BECF80E28C0F8830F0
:102FD00068F4C77021E030E001C0220FCA95EAF71B
:102FE00080913402822B80933402ADCFEBE5EC0F5D
:102FF000E33040F4F0E0E159FE4F808190E00E9420
:103000005A05A3CFC85ACB3108F09FCFEC2FF0E080
:10301000EE0FFF1FEE58FE4F808191810E94350513
:1030200094CF8C2F0E9495080E940C14CACF1F9336
:10303000CF93DF93182FD0E0C0E0893311F4C0E5BF
:10304000D0E0812F0E948817209739F4812F0E94A9
:103050003717DF91CF911F9108958FE99FE0019776
:10306000F1F700C000002197EFCF0F931F93CF938C
:10307000DF93C62FD42F022FFC0185818823A9F06E
:103080006093C3030E9429059093C2038093C103F8
:10309000C77081E001C0880FCA95EAF70E942D171A
:1030A000DF91CF911F910F9108958091C303681311
:1030B00032C08091C1039091C2030E940E05883CEA
:1030C000910548F510E21D0FCD17B9F080E28C0F85
:1030D000883040F4C77081E001C0880FCA95EAF7D4
:1030E0000E942617183048F481E09D2F977001C088
:1030F000880F9A95EAF70E942D17802F0E941718C3
:10310000183070F6D77081E001C0880FDA95EAF7C1
:103110000E942617C5CFC77081E001C0880FCA95ED
:10312000EAF7F6CF811108C08EE4611101C08BE48B
:103130000E94171880E008958130E1F789EA611153
:10314000F7CF8AEAF5CFA1E0B0E0E9EAF8E10C9424
:10315000A828EE24E394F12C06E612E09E012F5FEE
:103160003F4F42E552E063E082E00E945011C82EDA
:10317000882339F100E080E01DC0D0908002D00E9D
:103180002D2D30E0A90148535D4F7A01E1E0F0E0D8
:10319000EC0FFD1FE00FF11D1081FA019081191B4A
:1031A000B12E1B149CF0912F17FD90E0191B1111EB
:1031B00018C00F5F90917F020917F8F281110E94E9
:1031C000EC0D8C2D2196E9E00C94C428BA94F701FB
:1031D00080818F5F808360E08D2D0E9492188C2DFE
:1031E000E0CF1F5FF70180818150808361E08D2DEA
:1031F0000E9492188C2DDBCFA8E0B0E0E2E0F9E16C
:103200000C94AF2866EE7EEF90E080E00E94162AD4
:1032100060E082E090E00E94F82960E083E090E0C6
:103220000E94F829109236021092350260E074E193
:1032300084E090E00E94162A60E086E090E00E9420
:10324000F8296FEF87E090E00E94F82940E050E015
:10325000BA0188E090E00E940A2A60E084E290E0EF
:103260000E94F82960E087E190E00E94F82960E080
:103270008CE090E00E94F82960E08DE090E00E94F0
:10328000F82919821A821B821C821D821E821F82CB
:10329000188648E050E068E170E0CE0101960E9497
:1032A000E82940E050E0BA0180E290E00E940A2A5A
:1032B00040E050E0BA018FE090E00E940A2A40E02E
:1032C00050E0BA0183E190E00E940A2A2896E2E0E9
:1032D0000C94CB2890919A0292FB222720F9281770
:1032E00079F080FB92F990939A0260919902709123
:1032F0009A0284E090E00E94162A82E00E948609E9
:103300000895B0E0A0E0E7E8F9E10C94A3288C016F
:10331000FC018481882309F4DEC021E040815181D1
:103320006281738195810E94D509EC018134FEE7A9
:103330009F0709F0B1C0F80185818111E8C04CE513
:10334000E42E41E0F42E5AE0652EF7012491222369
:1033500009F4DDC0213009F048C0319684918130F4
:1033600041F4F2E0EF0EF11CF70184910E9417186E
:1033700009C0823059F4F2E0EF0EF11CF70184919C
:103380000E9488172FEFE21AF20ADFCF833041F450
:10339000F2E0EF0EF11CF70184910E943717F2CF93
:1033A000843009F077C0F2E0EF0EF11CF7012491B0
:1033B00090E080E0F70131962053330B2A3031053D
:1033C00048F00197F8F2EFE9FFE03197F1F700C01C
:1033D0000000F7CF689EA001699E500D1124C9011D
:1033E000840F951F24917F01E5CFE22FF0E0E45296
:1033F000FF4F7490822F86958695869590E0FC010C
:10340000E453FF4FA4902770B12C022E02C0B59454
:10341000A7940A94E2F731E0A322BB24FC01E45410
:10342000FF4F8490912C022E02C0959487940A94A9
:10343000E2F7E1E08E229924FC01E455FF4FC490AD
:10344000D12C02C0D594C7942A95E2F7F1E0CF229F
:10345000DD24A114B10419F081EE0E9488178114B3
:10346000910419F086EE0E948817872D0E94171884
:103470008114910419F086EE0E943717A114B1044B
:1034800019F081EE0E943717C114D10409F47ACFE4
:103490008CE26CCF7F0176CFFC01E851FC47E7302E
:1034A000F105A8F5E556F54D0C940A2926E241EE02
:1034B00061EEC8010E94351880912902877059F089
:1034C000F8018581882339F080919A0282FF03C038
:1034D00082E00E948609CDB7DEB7EEE00C94BF28EB
:1034E00027E245EE65EEE5CF26E241EE60EEE1CF64
:1034F00027E245EE64EEDDCF26E241EE62EED9CF63
:1035000027E245EE66EED5CF28E241E0EBCFF801A9
:103510008581882309F410C41092C303CE0190570B
:10352000839708F0F5C384E090E00E94E22990932D
:103530009A0280939902FE01E150F047E232F105D0
:1035400020F4EE55F54D0C940A2980919902816082
:103550008093990295C080919A02886080939A0224
:103560008FC0809199028260F3CF8091990284602C
:10357000EFCF809199028860EBCF80919A028160B1
:10358000EDCF80919A028260E9CF809199028061AB
:10359000DFCF809199028062DBCF809199028064B5
:1035A000D7CF0E944914809199028068D1CF809131
:1035B00099028C60CDCF80919A028360CFCF8091A9
:1035C00099028E7FC5CF80919A02877FC7CF809165
:1035D00099028D7FBDCF809199028B7FB9CF809169
:1035E0009902877FB5CF80919A028E7FB7CF809165
:1035F0009A028D7FB3CF809199028F7EA9CF80915F
:1036000099028F7DA5CF809199028F7BA1CF0E94D7
:103610004914809199028F779BCF80919902837F83
:1036200097CF80919A028C7F99CF8091990282FBEB
:10363000992790F921E0922790FB82F990FB83F97A
:1036400087CF80919A02982F909591708E7F892BC9
:1036500090FB81F983CF90919902892F8F7B96FF00
:10366000806476CF0E94491490919902892F97FB2C
:1036700087F980586DCF61E08EE090E00E94F829D4
:103680006091990270919A0284E090E00E94162A5B
:103690000E94491411CF60E0EFCF90919902892FD9
:1036A0008F7E94FF806154CF90919902892F8E7FF5
:1036B00090FF81604DCF90919A02892F877F93FF71
:1036C00088604CCF85E333C385E33FC380915D03BE
:1036D00080FF1EC0282F2E7F20935D0330915E0354
:1036E00040915F03509160036091610370916203A8
:1036F00080916303909164030E94DF0E0E949B05FA
:103700008091D90281608093D9020E94500AD4CE60
:10371000816080935D0361E086950E941010CCCE9D
:1037200048E550E162E670E10E949505C5CE42E6AB
:1037300050E168E570E1F8CF48EC5FE062ED7FE0D2
:10374000F3CF42ED5FE068EC7FE0EECF4EEA5FE062
:103750006BEB7FE0E9CF4BEB5FE06EEA7FE0E4CF1D
:1037600044E95FE061EA7FE0DFCF41EA5FE064E9DE
:103770007FE0DACF4CED5FE066EF7FE0D5CF46EF3C
:103780005FE06CED7FE0D0CF61E081E0C6CF65E027
:1037900082E00E946D1090CE68E086E0FACF6EE085
:1037A00089E0F7CF64E18FE0F4CF67E185E1F1CF05
:1037B00061E088E1B2CF62E289E1EBCF61E083E2D0
:1037C000ACCF6AE285E2E5CF0E944914FFEF24E323
:1037D0003CE0F15020403040E1F700C0000081E0C3
:1037E0008093E00080E28093D8001092C9008FE1BE
:1037F0009EE40197F1F700C0000087E090EBDC0148
:103800008093C4039093C503A093C603B093C703EA
:1038100088E19CE00FB6F894A895809360000FBEF5
:1038200090936000FFCF6FEF7FEF90E080E00E9409
:10383000162A0E94101780919A0282FB882780F92D
:1038400091E089270E946A19F8018581C081D181A0
:10385000882309F44AC0CE010E94C508F82E682FBB
:10386000CE010E943909BE018F2D0E9451070E948E
:103870007007D82FC92FA82EF801C580B680B29442
:103880003FE0B322809129028770F1F0EC2CCC202C
:10389000E1F0892F807F803451F080E28D0F8830F5
:1038A00098F0B11004C0892F807E803269F0809139
:1038B0009A0282FF09C082E00E9486098091290253
:1038C0008770EE24E3948111E12CDC2ED2942FE05A
:1038D000D222FBE0FD1508F46DC0ED2DF0E0EC53B5
:1038E000F54D0C940A2980E0ADCFCE010E94060967
:1038F000F82EB9CF2C2F2F70F22EC07F19F0F29432
:1039000090EFF922CC20B9F0FF2069F080E28D0F12
:10391000883010F0A11009C080913402F82AF0928A
:1039200034020E940C148D2F43C080913302F82A78
:10393000F0923302F6CF8D2F0E943717FF20D1F17E
:10394000D05ED83010F0A11004C08F2D0E948E08D8
:1039500006C0F09480913302F822F09233020E9464
:103960000C1428C03C2F3F70F32EC07FC03219F0DA
:10397000F29480EFF822AA2059F081E0A81609F409
:1039800079C0CC2009F485C0BB2009F447C0CBCF57
:1039900080919A0282FD3EC0CC20B1F1FF2039F027
:1039A00080913402F82AF09234020E940C1480E0D4
:1039B0000E9488172D2D2850330B2430310510F428
:1039C0000E94C10DEE20A9F08091290280FD11C056
:1039D000F80115828695869586950E949D09C801F5
:1039E0000E948119809129028695869586950E946C
:1039F000740920E0F80140815181628173818481E2
:103A000095810E94D50967CD80E00E943717FF207D
:103A100089F29BCFCC20A1F0B11004C08F2D0E9461
:103A20002D17C8CF91E0B912C5CF809132029F2DDA
:103A30009823F91609F4BECFF82AF0923202BACFD1
:103A4000B110B8CF8F2D0E942617909132028F2D82
:103A5000892329F08F2D80958923809332028091CC
:103A6000F1019F2D982309F4A5CFF094F822F0924C
:103A7000F101A0CFCC2029F0E5E0EB1508F49ACFB6
:103A8000CDCFF4E0FB1508F495CF8F2D0E942617BB
:103A900091CFBB20D1F329E3A21209C03FEF87EEFB
:103AA00093E0315080409040E1F700C000008D2F3E
:103AB0000E9437177FCF8C2F86958695837069F08B
:103AC000813009F077CF8D2F9C2F9370C11002C0E9
:103AD00080E090E00E9435056DCF8D2F9C2F937074
:103AE000C11002C080E090E00E945A0563CF8C2F85
:103AF000837009F03FC0C1105DCF4D2F42954695B0
:103B00004770440F440F2D2F2F7030E0042E02C059
:103B1000220F331F0A94E2F790E080E0D4FF09C03F
:103B20008FE090E002C0880F991F4A95E2F78095D8
:103B30009095C695C695C370C23099F078F44091BF
:103B4000350250913602C13039F0822B932B8423F9
:103B500095230E94AD092ECF242B352B822B932B3E
:103B6000F8CF822B932B2091350230913602822799
:103B70009327EFCF8695CC2011F08C2F817088236E
:103B800009F418CF4D2F429546954770440F440FC6
:103B90002D2F2F7030E0042E02C0220F331F0A9405
:103BA000E2F790E080E0D4FF09C08FE090E002C02F
:103BB000880F991F4A95E2F780959095C695C6950E
:103BC000C370C23099F078F44091970250919802F6
:103BD000C13039F0822B932B842395230E946F09E7
:103BE000E9CE242B352B822B932BF8CF822B932BD2
:103BF000209197023091980282279327EFCFCF70C0
:103C0000CC2029F08C2F0E949D098D2F08CF8D2F5D
:103C10000E9426178C2F0E947409CCCE8D2FE2EFC4
:103C2000AE1699F1EA1570F0F0EFAF16D1F021EF72
:103C3000A21691F0CC2009F45BC0B11074CE8C2F89
:103C40008F7127C033EFA31639F194EFA912F2CF89
:103C500080919A0282FD2EC08C2F8F71CC20D9F2D8
:103C600018C0CC2069F0E4E0EB1508F4A3CECF71C6
:103C700081E090E002C0880F991FCA95E2F7B8CFA3
:103C8000F5E0FB1508F496CEF2CF8C2F8F71C110A2
:103C9000C2CF0E949D098ECE90E080E0CC2009F436
:103CA0009DCFCF7181E090E002C0880F991FCA9527
:103CB000E2F794CFCC2089F0CF718C2F0E949D0920
:103CC00080919A0282FF07C028E0C29FC0011124A0
:103CD0008360809329028C2FDCCF81E00E948609CB
:103CE00031E03B1508F066CE82E00E94860962CE84
:103CF000BB2059F0893309F0DACE8FEF97EEE3E07D
:103D000081509040E040E1F7D0CE8C2F8F7183CF6F
:103D1000C631FCE7DF07E1F4809134028A7A91E052
:103D200009F490E09093F0018111CCCC89E20E94DB
:103D3000A2080E940C14C0CBC6312CE7D20741F573
:103D40008091F0018111C0CC89E20E949508F1CFE9
:103D5000C3303CE7D30709F466CD50F4C1159CE7A6
:103D6000D90709F431CDC130DC4709F462CD6CCDFF
:103D7000CB35FCE7DF0709F4B6CDCC352CE7D2070D
:103D800009F459CDCA35DC4709F05ECD81E05ACD42
:103D9000809134028272FE01E052F847E531F1056C
:103DA00008F052CDE053F54D0C940A29CF93DF93E0
:103DB00080912802807F09F04DC0809127028823DE
:103DC00009F448C0E091C00350918703C0912302D9
:103DD000D0912202609124027091250247E05E1783
:103DE000C9F18E2F90E0E49FF0011124E857FC4FB9
:103DF0002481222391F1489FF001499FF00D112465
:103E0000DF01A857BC4F11962C9111972C1325C098
:103E10002C912D1322C015962C91159721111DC0A0
:103E200012962D913C91261B370B283C3105A8F4A6
:103E3000809128028F70806180932802E257FC4FA6
:103E400080818F708061808382E292E00E9481197C
:103E50000E94BB08DF91CF910895FC013196E77075
:103E6000BECFA4E1B0E0E7E3FFE10C94A5288C010C
:103E700086E0F801DE011F9601900D928A95E1F728
:103E8000F8018481E58092E2A92E92E0B92E90910A
:103E90002602911128C0882319F1EE20F1F0C80103
:103EA0000E94B209F82E8823C1F087E0F801D501FD
:103EB00001900D928A95E1F780912602813031F4CC
:103EC00080912202909123020E94F9080E94D61E3E
:103ED0008F2D6496ECE00C94C128C8010E948119D2
:103EE000FF24F394F5CFD080C18082809380F0903E
:103EF00027022091240230912502A401421B530B7A
:103F0000FF2009F4E5C0483C510508F09EC0882315
:103F1000F9F29091230280912802282F207F09F046
:103F200056C0C91214C090912202D91210C0E110DB
:103F300048C08F7080618093280282E292E00E94E4
:103F4000811980912802F8018683F12CC1CFE110FC
:103F500038C06C2D8D2D0E9490036C2D8D2D0E94EC
:103F60009003E82E8111F1CFDF86C88A8F8598896A
:103F70000E94F908292F22952F70243058F49F7041
:103F8000223088F0992399F0F8019681907F79F496
:103F9000FE2C9ECF2A5F2F70223068F0C8010E944D
:103FA0008119EF2CF5CF992311F0882389F3805ED6
:103FB000883070F3F3CF803F58F3815F833070F720
:103FC000E7CF80912802816080932802BECFC9127A
:103FD00013C090912202D9120FC0E1100DC0868348
:103FE000C8010E94811987E0F801A2E2B2E00190C5
:103FF0000D928A95E1F76CCFC8010E94B20988231F
:1040000009F46BCFEE2009F468CF8091280280324A
:1040100088F02091220230912302398728879B86DD
:104020008A86909126029C871D868E87CE010896EF
:104030000E94811987E0F801A2E2B2E001900D929E
:104040008A95E1F70E94D61E4BCF90912802292F26
:10405000207F51F482E292E00E94811987E0F5010D
:1040600011928A95E9F771CF882309F431CF8091B5
:1040700023028C1110C080912202D8120CC0E110D2
:104080000AC09683C8010E94811987E0F501119248
:104090008A95E9F71DCFC8010E94B209882309F467
:1040A0001CCFEE2009F419CF80912802803210F243
:1040B00020912202309123023A8329839C828B82B1
:1040C000909126029D831E828F83CE010196B0CFF0
:1040D000483C5105D0F6882309F402CFFE2CEE208F
:1040E00009F4FBCE809123028C1105C0809122023D
:1040F000D81609F478CFC8010E94B20981119ACF6D
:1041000080912802816080932802C8010E94811951
:10411000DFCEABE1B0E0EFE8F0E20C94AD284E8BDF
:104120005F8B688F798F8A8F9B8F192F91111092D7
:1041300033021D8A86E0FE017696DE011F9601900D
:104140000D928A95E1F70A8D002341F021E04F8519
:10415000588969897A89C8010E94D5090B8B1C8B03
:1041600087E0FE013F96DE01189601900D928A9538
:10417000E1F7CE0108960E94311F81110CC087E043
:10418000FE013896DE01119601900D928A95E1F7B5
:104190008C8581110BC017E08091C003909187033B
:1041A000891331C06B96E4E00C94C92820918703F1
:1041B00030E0C9010196877099274091C0034817E4
:1041C000190699F097E0929FD001939FB00D1124AA
:1041D000A857BC4FFE01319601900D929A95E1F7D8
:1041E000809387030E94BB08D6CF0E944914109287
:1041F00087031092C00387E0E2E2F2E0DF011D9244
:104200008A95E9F7C8CF819FC001112488579C4F38
:104210000E94311F882331F28091C00390E0019603
:10422000877099278093C003B7CFA6E0B0E0EBE199
:10423000F1E20C94AD280E9429058C01809137028F
:10424000909138028017910781F019821A820E949A
:104250002905682F49815A81792F80E090E00E94DA
:10426000892010933802009337022696E4E00C94DC
:10427000C9281F920F920FB60F9211242F933F93CC
:104280004F935F936F937F938F939F93AF93BF935E
:10429000CF93DF93EF93FF93D091E900DF7080918C
:1042A000EC00C82FC17080FDC0E81092E900809139
:1042B000F000877F8093F00078940E945F14109242
:1042C000E9008091F00088608093F000CD2BCF70E2
:1042D000C093E900FF91EF91DF91CF91BF91AF9132
:1042E0009F918F917F916F915F914F913F912F910E
:1042F0000F900FBE0F901F9018951F920F920FB640
:104300000F9211242F933F934F935F936F937F935B
:104310008F939F93AF93BF93EF93FF938091E100AF
:1043200082FF09C08091E20082FF05C08091E10018
:104330008B7F8093E1008091DA0080FF24C0809120
:10434000D80080FF20C08091DA008E7F8093DA0051
:104350008091D90080FF9DC080E189BD82E189BD47
:1043600009B400FEFDCF81E080937D03809170034E
:10437000811109C00E94AF030E9450048091E200A5
:1043800084608093E2008091E10080FF17C08091FB
:10439000E20080FF13C08091E2008E7F8093E200F4
:1043A0008091E20080618093E2008091D800806279
:1043B0008093D80019BC85E080937D038091E10053
:1043C00084FF2BC08091E20084FF27C080E189BD7B
:1043D00082E189BD89B5982F917080FFFBCF8091D4
:1043E000D8008F7D8093D8008091E1008F7E8093EC
:1043F000E1008091E2008F7E8093E2008091E200F4
:1044000081608093E20080917E03882309F447C095
:1044100084E080937D0380917D038091E10083FFA0
:1044200027C08091E20083FF23C08091E100877F55
:104430008093E10082E080937D0310927E0380915F
:10444000E1008E7F8093E1008091E2008E7F809377
:10445000E2008091E20080618093E20042E060E04F
:1044600080E00E941E048091F00088608093F0003C
:10447000FF91EF91BF91AF919F918F917F916F913C
:104480005F914F913F912F910F900FBE0F901F9012
:10449000189519BC10927D031092700374CF80910F
:1044A000E30087FD93E090937D03B5CF78941F924E
:1044B0001FB61F9211248F939F93AF93BF93809148
:1044C0006C0390916D03A0916E03B0916F03019600
:1044D000A11DB11D80936C0390936D03A0936E0397
:1044E000B0936F03BF91AF919F918F911F901FBEAB
:1044F0001F9018951F921FB61F9211248F939F93A0
:10450000AF93BF9380916B03811113C080916C03B3
:1045100090916D03A0916E03B0916F034196A11D20
:10452000B11D80936C0390936D03A0936E03B093C1
:104530006F03BF91AF919F918F911F901FBE1F90EE
:104540001895CDB7DEB72E970FB6F894DEBF0FBE25
:10455000CDBF85B7806885BF85B7806885BF84B7C4
:10456000877F84BF0FB6F894A8958091600088611A
:1045700080936000109260000FBE80E890E00FB65C
:10458000F89480936100909361000FBE87E496E0F9
:104590009093E7018093E6010E94AF030E945004CC
:1045A0008091E20084608093E200789480917D03A2
:1045B0008823A1F01091E9001F709091EC00892FE1
:1045C000817090FD80E8182B1092E9008091E8003E
:1045D00083FD0E945F141F701093E90082E084BD88
:1045E00093E095BD9AEF97BD80936E0010927B0289
:1045F00010927C0210927D0210927E0287988F9812
:104600008FE891E00197F1F700C000008FB1881F9B
:104610008827881F8093420180914201882309F4F2
:1046200061C010925B0188E080935C010E949E0D46
:1046300081110E943D279091420181E0982790933B
:10464000CC02A82FA91BA0938002909142018093D5
:10465000CD029091420180937F02809142018111AD
:1046600006C086E980934C0184E980934B01209138
:104670004C01E22FE295EF70F0E061A12F7081E034
:1046800090E0AC0101C0440F2A95EAF7342F309531
:10469000362331A322A1242B22A320914B01E22F08
:1046A000E295EF70F0E031A12F7001C0880F2A95DC
:1046B000EAF7982F9095932391A392A1892B82A337
:1046C0008FE891E00197F1F700C000001091CD0252
:1046D0006EEC72E04CE451E08BE4E82E81E0F82EC1
:1046E000FB012CC088E080935B019ECFDA012D9105
:1046F000AD01822F82958F7090E0DC0190968C91B5
:1047000090E02F7002C0959587952A95E2F7817009
:10471000D7019D917D01292F22952F7030E0D9017D
:1047200090962C9130E09F7002C0359527959A9510
:10473000E2F790E020FD92E0892B81938E2F861B7B
:104740008117A0F28091420181112CC085E0E1E641
:10475000F1E0DE011A9601900D928A95E1F78A85C3
:1047600080933D018B8580933E018C8580933F0132
:104770008D85809340018E858093410189E0E6E636
:10478000F1E0DE01119601900D928A95E1F7FE01AC
:104790003196A4E3B1E0CE010A9621912D93E8175A
:1047A000F907D9F78091420195E0811190E090934B
:1047B000960285E0891B809395020DE311E042E4A7
:1047C000E42E41E0F42EF80181918F018F3F11F02A
:1047D0000E944906E016F106B1F704E311E0D801A2
:1047E0008D918D018F3F11F00E944906B1E00D338C
:1047F0001B07A9F784E1ECE9F2E0DF01282F1D9205
:104800002A95E9F7E1E8F2E0DF011D928A95E9F7E0
:1048100090E080E00E94E229863E9E4F11F00E94C7
:10482000FC1882E090E00E94D4298093B00284E0DA
:1048300090E00E94E22990939A028093990283E08B
:1048400090E00E94D42990E00E94AD0980919B02E3
:1048500081117BC090E080E00E94E229863E9E4F5D
:1048600021F00E94FC180E947D1088E090E00E94D8
:10487000DC294B015C0184E290E00E94D429282FBE
:1048800030E040E050E060E070E080E090E000E286
:104890000E941F29282939294A295B2920935D0371
:1048A00030935E0340935F03509360036093610312
:1048B0007093620380936303909364038091D902A1
:1048C00083608093D9022E7F89F50E947D1088E055
:1048D00090E00E94DC296B017C0184E290E00E9460
:1048E000D429282F30E040E050E060E070E080E024
:1048F00090E00E941F29B22FA32FF42FE52F5B0118
:1049000097018601BC29A12BFE29E32BB0935D03FF
:10491000A0935E03F0935F03E093600360936103F1
:10492000B092620380936303909364030E94A20594
:104930000E949B0580915D0380FF04C060E0869526
:104940000E94101081E080939B020E949E0D8111B5
:1049500002C00E94402783E491E090936803809313
:10496000670334E0632E712C80917D0300E112E136
:10497000853009F498C00E94211291EBA92E92E093
:10498000B92E2CE9822E22E0922E45EC52E0D40181
:10499000F501219131918D919D914E175F0709F499
:1049A0008CC028173907A9F30E949E0D382E512C70
:1049B00022242394D4010D911D914D01F501C19044
:1049C000D1905F01C016D10669F1C026D126412CD5
:1049D000EE24E394F12CC7018C219D21892BC1F099
:1049E0003320B1F049825A820E9429059C838B832F
:1049F0002D8291E0970120233123232B09F490E0AD
:104A00009E8349815A816B817C818D810E9489209E
:104A10004394EE0CFF1CF9E04F12DDCFF501329705
:104A20001183008353942AE05212C4CF0E94D20D06
:104A30004AC080917D03843021F110926B0388E19C
:104A400090E0A0E40FB6F894A895809360000FBEA4
:104A5000A093600083B7817F846083BF83B7816048
:104A600083BF7894889583B78E7F83BF0FB6F89401
:104A7000A89580916000886180936000109260002A
:104A80000FBE80917C03882371F00E942112ECE913
:104A9000F2E081919191892B09F081C180EB92E044
:104AA0008E179F07B1F780917D03853009F4C1CF40
:104AB0000E9449140E94C10D5ECF2817390709F0E2
:104AC00073CF0E9415210E949E0D8091D8028823E9
:104AD00009F464C08091D702E0915D03E695E81B7C
:104AE000E093D302823009F06FC0F0E0E956FC4F4A
:104AF000E4910E2F10E0A7E5EA2EADE0FA2E8091AA
:104B0000D402882361F01092D4020E94EF0D90939A
:104B1000D2028093D1021092D6021092D5020E9446
:104B2000EF0DE091D102F091D2029C012E1B3F0BC0
:104B30002F3F3F4798F52091C7022223B1F01092F2
:104B4000C7022091C5023091C602821B930B8F3F92
:104B50009F4758F4205D3A483093C6022093C5021F
:104B60008091D90288608093D902C090D502D090FC
:104B7000D602E00FF11FF093D202E093D10281ED53
:104B800092E0F70109958091D5029091D602892B88
:104B900029F4CD2819F081E08093C702E12CD12CB3
:104BA0008091CD02E81608F47BC0D1100E94EC0D74
:104BB0000E94C10D9091D002891709F4D5CE80933F
:104BC000D0020E941D05D0CE863059F4F0E0EC569C
:104BD000FC4FE4910E2F10E0F7E4EF2EFDE0FF2EE6
:104BE0008ECF893061F4E695F0E0EF56FC4FE4910A
:104BF0000E2F10E0E0EAEE2EECE0FE2E80CF8F309C
:104C000061F4E695F0E0E257FC4FE4910E2F10E0DE
:104C10007AE1E72E7CE0F72E72CF853159F4F0E08F
:104C2000E557FC4FE4910E2F10E065E9E62E6BE0AE
:104C3000F62E65CF08E210E033E1E32E3BE0F32EE1
:104C4000883109F45CCF833249F4E9E8F3E0059157
:104C5000149156EFE52E5CE0F52E51CF04EF11E0F4
:104C600026EDE22E2AE0F22E843209F448CF00ED40
:104C700017E099E0E92E95E0F92E853209F03FCF53
:104C80008E2F63E00E94D628E92FF0E0EA57FC4F10
:104C9000E4910E2F10E04AEFE42E4DE0F42E2FCFDA
:104CA0000E2D10E0F801E45BFE4F8081E82FE295C5
:104CB000EF70F0E0E0A1F0E08F7002C0F595E795AD
:104CC0008A95E2F7E170D801A55BBE4F2C91A22F27
:104CD000A295AF70B0E090968C9190E02F7002C0DA
:104CE000959587952A95E2F780FD51C080E08E2B3F
:104CF000D801A253BD4FEC919E2F9370891709F4F0
:104D000044C0EE0FEE0FE82BEC93F090CC02FE0CBB
:104D1000EF70F0E0E655FE4F06531D4F8081D8013D
:104D20009C91890F8C93C12C843084F0EF2DF0E09E
:104D3000E853FD4F80818F5F80830E949E0DC82EB7
:104D4000882339F160E08F2D0E949218F80180814C
:104D50008D3F84F4EF2DF0E0E853FD4F80818150CA
:104D600080830E949E0DC82E8823B1F061E08F2DB4
:104D70000E949218D8018C91082E000C990BB30157
:104D80000E94F628F8018083DC28E39409CF82E0B2
:104D9000AECFCC24C394DACFCC24C394EBCF09BDDF
:104DA00019BD09B400FEFDCF8091D8008F7D80939E
:104DB000D8008091E00082608093E0008091E00064
:104DC00081FDFCCF0E9449146ECE8EE1489B02C04B
:104DD0008150E1F7489BFECF0895589880E28A956C
:104DE000F1F7589A0895FC013BE03A95F1F798E005
:104DF00020E080E031E040E14A95F1F7880F489BE0
:104E000002C08160232742E04A95F1F7000040E1AB
:104E10004A95F1F7915079F790E19A95F1F799B1A8
:104E200032E03A95F1F7000040E14A95F1F79170D0
:104E300092272081920F90830895A1E0B0E0E3E2F1
:104E4000F7E20C94AB2819828C017C01E60EF11C70
:104E50000E151F0541F481E09981911180E02196A2
:104E6000E6E00C94C7280E94E526CE0101960E9438
:104E7000F326F80181938F01EBCF509A589A089549
:104E80005098589AE89AE9E6F0E080818C7F808318
:104E900008956150770B91E001C0990F6A95EAF788
:104EA00020E031E0911108C0222391F0589A80E26D
:104EB0008A95F1F758980895492F482339F0589A60
:104EC000232740E24A95F1F79695ECCF5898F9CF11
:104ED0005898EDCFFF920F931F93CF93DF93EC0180
:104EE0008C01060F111DC017D10729F4CDB7DEB70D
:104EF000E5E00C94C828F9900E94ED2668E08F2D1B
:104F00000E944927F0CF1F920F920FB60F921124E3
:104F10000F931F932F933F934F935F936F937F93C1
:104F20008F939F93AF93BF93EF93FF93CF93DF93B1
:104F30000F92CDB7DEB719820E94E526CE01019609
:104F40000E94F326082F069506950695282F229590
:104F50002570902F9570290F922F93702695269586
:104F6000920F982797708981982B09F05CC00730C1
:104F700008F059C080E18A95F1F7589A509A82E07A
:104F80008A95F1F700C0589888E0089F80011124A5
:104F9000D801AC5FBE4F1696ED91FC9117973097F4
:104FA000A9F06091A8017091A90114962D913C91EE
:104FB0001597260F371F11968D919C911297680FA8
:104FC000791F13964C9113978C910995F801EC5F1A
:104FD000FE4F6381662351F02091A8013091A90111
:104FE00084819581820F931F0E946A270E94ED267B
:104FF00080E18A95F1F758985098589A80E18A95FF
:10500000F1F7F801EC5FFE4F6081662351F02091CB
:10501000A8013091A90181819281820F931F0E9482
:105020001D270E94E5260F90DF91CF91FF91EF9110
:10503000BF91AF919F918F917F916F915F914F91B0
:105040003F912F911F910F910F900FBE0F901F90C6
:1050500018950F931F93CF93DF93EC0107970CF0F4
:105060004CC0F894509A589885E08A95F1F7000062
:105070009C2F969595708C2F8570980F892F837033
:105080009695969523E0CC0FDD1F2A95E1F7980FB2
:105090008E01092B0E94ED2600C068E0802F0E943F
:1050A000492780E18A95F1F75098589A489B1EC08D
:1050B00087E090E048991CC0FE01EC5FFE4F6381E1
:1050C0006623F9F02091A8013091A901848195818E
:1050D000820F931F0E941D27811113C0509A589A66
:1050E0007894DF91CF911F910F91089500C0DECF8A
:1050F000019729F4509A589A789480E0F2CF00C032
:10510000D9CF0E94E52680E28A95F1F75898509A07
:1051100080E18A95F1F7CC5FDE4F6881662351F01C
:105120002091A8013091A90189819A81820F931F52
:105130000E946A270E94ED26789481E0D2CF2F92B8
:105140003F924F925F926F927F928F929F92AF9217
:10515000BF92CF92DF92EF92FF920F931F93CF9364
:10516000DF93CDB7DEB7CA1BDB0B0FB6F894DEBFFB
:105170000FBECDBF09942A88398848885F846E8421
:105180007D848C849B84AA84B984C884DF80EE806B
:10519000FD800C811B81AA81B981CE0FD11D0FB674
:1051A000F894DEBF0FBECDBFED010895991B79E0E5
:1051B00004C0991F961708F0961B881F7A95C9F7A7
:1051C00080950895AA1BBB1B51E107C0AA1FBB1FF6
:1051D000A617B70710F0A61BB70B881F991F5A9583
:1051E000A9F780959095BC01CD01089597FB072EF6
:1051F00016F4009407D077FD09D00E94E22807FC3E
:1052000005D03EF4909581959F4F089570956195D6
:105210007F4F0895EE0FFF1F0590F491E02D099444
:105220000E94802A332312F48A1B9B0B0C941A29A8
:105230000E94802AB7FF0895821B930B0895002EC9
:10524000083090F0982F872F762F652F542F432FFB
:10525000322F22270850F4CF220F331F441F551F2F
:10526000661F771F881F991F0A95B2F7002D0895B2
:1052700097FD1094002E083098F00850232F342FFB
:10528000452F562F672F782F892F912DF4CF159406
:10529000979587957795679557954795379527956E
:1052A0000A95AAF71124002D08958F929F92AF922C
:1052B000BF92CF92DF92EF92FF92CF93DF93EC01F8
:1052C000688179818A819B816115710581059105CC
:1052D00021F464E279ED8BE597E02DE133EF41E0D5
:1052E00050E00E942C2A49015A019B01AC01A7EA17
:1052F000B1E40E944B2A6B017C01ACEEB4EFA50136
:1053000094010E94592ADC01CB018C0D9D1DAE1D1C
:10531000BF1DB7FF03C00197A109B04888839983D7
:10532000AA83BB839F77DF91CF91FF90EF90DF90AF
:10533000CF90BF90AF909F908F9008950E94552975
:10534000089580E091E00E9455290895B0E0A0E022
:105350008093000190930101A0930201B093030197
:105360000895FC014150504030F001900616D1F7ED
:105370003197CF010895882799270895FB01DC0113
:1053800004C08D910190801921F441505040C8F71C
:10539000881B990B0895FB01DC0102C001900D925E
:1053A00041505040D8F70895F999FECF92BD81BD84
:1053B000F89A992780B50895A6E1B0E044E050E05E
:1053C0000C941E2AA8E1B0E042E050E00C941E2AA2
:1053D000DC01A40FB51F4150504048F0CB01840FB1
:1053E000951F2E910E94F92941505040D0F7089501
:1053F000262FF999FECF92BD81BDF89A019700B48E
:10540000021639F01FBA20BD0FB6F894FA9AF99A2D
:105410000FBE08950396272F0E94F9290E94F829AC
:10542000252F0E94F929242F0C94F9290196272F62
:105430000E94F9290C94F829DC01CB01FC01F999AF
:10544000FECF06C0F2BDE1BDF89A319600B40D92D0
:1054500041505040B8F70895052E97FB1EF4009474
:105460000E94432A57FD07D00E945E2A07FC03D002
:105470004EF40C94432A50954095309521953F4F1A
:105480004F4F5F4F089590958095709561957F4F30
:105490008F4F9F4F08950E94802AA59F900DB49F23
:1054A000900DA49F800D911D11240895B7FF0C94B9
:1054B0004B2A0E944B2A821B930B0895A1E21A2EBD
:1054C000AA1BBB1BFD010DC0AA1FBB1FEE1FFF1FA8
:1054D000A217B307E407F50720F0A21BB30BE40BF8
:1054E000F50B661F771F881F991F1A9469F760953F
:1054F0007095809590959B01AC01BD01CF010895F9
:10550000A29FB001B39FC001A39F700D811D112404
:10551000911DB29F700D811D1124911D0895F89465
:10552000FFCF3E156615FE166615FE169915BA15BF
:10553000FE16B716C416741A781A561A701A7C1A00
:10554000801A841ADF1A541BE71AB11AB51AEB1A1B
:10555000B91AEF1AFB1AC51A4D1BC91AFF1ACD1A30
:10556000031B2B1BD11A071B321BD71A0D1B151B34
:10557000BD1AF31AC11AF71ADB1A111B211B3B1BA8
:105580004B1BAB1AE31A5B1B7A1C7A1CB21CB21CB5
:105590005B1DDA1CDA1CDA1C771DFF1D0E1E0E1EA9
:1055A000661B901B971B9C1BA11BA61BAB1BB01B58
:1055B000B51BBA1BBF1BC41BC71BCC1BCF1BD21BED
:0A55C000D51BD81BDB1BDE1BE11B13
:1055CA000100000000000001000000000000000AC5
:1055DA0001000000000000010B00000000000001B3
:1055EA000C000000040D0000000000000B11000078
:1055FA0000000000F4F1F03733929395943132674A
:10560A003497010B053C0A0A05350AF6F501191A01
:10561A001B1C1D1E1F202122010201001000101058
:10562A00013332363497F1F0F4F5F6956793378102
:10563A008283E200E900EA00B500B600B700CD00B7
:10564A008301CC008A0192019401210223022402DF
:10565A002502260227022A02B300B4006F00700056
:10566A009F01CB019F02A0025A0200FF0100010024
:10567A0000FFFF0000010001FF0000010202020218
:10568A000606060909090909090F0F0F0F0F0F1559
:10569A001515181919191919191919191923242558
:0656AA0025252525250041
:00000001FF
