:100000000C9456030C94FE280C948E030C948E03CF
:100010000C948E030C948E030C948E030C948E031C
:100020000C948E030C948E030C94DA220C9496227A
:100030000C94D7230C948E030C948E030C948E0393
:100040000C948E030C948E030C948E030C948E03EC
:100050000C948E030C94B3230C948E030C948E0397
:100060000C948E030C948E030C948E030C948E03CC
:100070000C948E030C948E030C948E030C948E03BC
:100080000C948E030C948E030C948E030C948E03AC
:100090000C948E030C948E030C948E030C948E039C
:1000A0000C948E030C948E030C948E0300000000BD
:1000B0000000000000000000000000000000000040
:1000C0000000000000000000000000000000000030
:1000D0007E0F00D4FFFFFFC7000000780000000083
:1000E000000000002A2B2800000000000000000093
:1000F0000000000000000029000000002C1E342039
:10010000212224342627252E362D3738271E1F205E
:100110002122232425263333362E37381F040506A3
:100120000708090A0B0C0D0E0F10111213141516E7
:100130001718191A1B1C1D2F3130232D35040506E5
:100140000708090A0B0C0D0E0F10111213141516C7
:100150001718191A1B1C1D2F3130354C0102E001F4
:1001600002E3710103E30103E0003A0029003500D6
:100170001E001F002000210022002300AE00A90065
:100180002B0014001A0008001500170000003E00A4
:10019000AA00E00004211624072809410A000000F3
:1001A00040004100E10000001D001B000600190096
:1001B00005004200417EE0002152E200E300000021
:1001C0002C00000024002500260027002D002E0012
:1001D0004C002A004A001C0018000C0012001300FA
:1001E0002F00300031004D000B000D420E380F344F
:1001F00033313400000028004B001100100036009D
:10020000370038000000E50052004E0001000057A2
:100210002252E40001000000500051004F00010094
:10022000010035003A003B003C003D003E003F002D
:1002300020780100010029002F003000010001009A
:10024000000021780100010001000100010001000F
:100250002B0000000100010001000000010001006E
:100260000100010001000100010001000100010086
:100270000100000001000000400041004200430076
:10028000440045004C002A00007C01004B000100A6
:1002900001000100010001000100017C500051003B
:1002A00052004F0001002A00000001000100280058
:1002B0004E0001000100010000000100717C0100FE
:1002C0000100010001000100010000000100727C3A
:1002D000707C0100010035003A003B003C003D000D
:1002E0003E003F0020780100010029002F0030006F
:1002F0000100010000002178010001000100260238
:10030000270201002B000000010001000100000095
:1003100001002F0230020100010001000100010074
:100320000100010001000000010000004000410048
:1003300042004300440045004C002A00007C0100BC
:100340000100417E01000100010001000100017C6B
:10035000010001000100010001002A00000001006D
:10036000010028000100010001000100000001005F
:100370000100010001000100010001000100000076
:100380000100010001001E0F0500047F3F1F6432C1
:1003900014643214783C1E1E140A05000101010188
:1003A0000101010101020202020202020202030330
:1003B0000303030303030404040404040405050500
:1003C00005050606060606070707070708080808C2
:1003D000090909090A0A0A0B0B0B0C0C0C0D0D0D6F
:1003E0000E0E0E0F0F0F1010111111121213131405
:1003F00014151516161717181819191A1A1B1B1C7D
:100400001D1D1E1E1F2020212222232424252626D6
:10041000272829292A2B2C2D2D2E2F30313232330B
:100420003435363738393A3B3C3D3E3F4041424314
:100430004445464748494A4C4D4E4F5051535455F8
:100440005658595A5B5D5E5F616264656668696BA8
:100450006C6D6F7072737577787A7B7D7E80828326
:100460008587888A8C8E8F91939596989A9C9EA06A
:10047000A2A3A5A7A9ABADAFB1B3B5B7BABCBEC077
:10048000C2C4C6C9CBCDCFD1D4D6D8DBDDDFE2E440
:10049000E7E9EBEEF0F3F5F8FAFDFFFFAA7F554030
:1004A0000102030C0D0E0F00070605040B0A0908D4
:1004B0002223252628292A2C2D2F30323335363871
:1004C0003A3B3D3E4042434547494A4C4E505153CA
:1004D0005557595A5C5E6062646668696B6D6F71EE
:1004E000737577797B7D7F81838587898A8C8E90F0
:1004F000929496989A9C9E9FA1A3A5A7A8AAACAEF9
:10050000AFB1B3B4B6B8B9BBBCBEBFC1C2C3C5C638
:10051000C7C9CACBCCCDCED0D1D2D2D3D4D5D6D7E1
:10052000D7D8D9D9DADADBDBDBDCDCDCDCDCDDDD1F
:10053000DDDDDCDCDCDCDCDBDBDBDADAD9D9D8D70F
:10054000D7D6D5D4D3D2D2D1D0CECDCCCBCAC9C7B1
:10055000C6C5C3C2C1BFBEBCBBB9B8B6B4B3B1AFE8
:10056000AEACAAA8A7A5A3A19F9E9C9A9896949288
:10057000908E8C8A89878583817F7D7B797775735F
:10058000716F6D6B6968666462605E5C5A5957553D
:100590005351504E4C4A4947454342403E3D3B3AF9
:1005A0003836353332302F2D2C2A29282625232280
:1005B00005010980A101850319012AB7001501264B
:1005C000B700950175108100C0050C0901A10185D6
:1005D0000419012AA002150126A0029501751081B7
:1005E00000C005010906A101050719E029E715006A
:1005F000250195087501810295017508810105079E
:10060000190029FF150026FF0095067508810005D1
:100610000819012905150025019505750191029517
:100620000175039101C009023B00020100A0FA0913
:10063000040000010301010009211101000122440D
:1006400000070581030800010904010001030000FF
:100650000009211101000122320007058203200058
:1006600001120100020000000810CB5743100401E2
:1006700002000122035100750065006600720065EA
:10068000006E006300790020005200650076002EA5
:10069000002000340000000E034B0065006500627E
:1006A0000069006F000000040309040011241FBE4C
:1006B000CFEFDAE0DEBFCDBF04B603FE18C08091F5
:1006C000DC039091DD03A091DE03B091DF0387305E
:1006D000904BA740B04B59F41092DC031092DD030D
:1006E0001092DE031092DF03E0E0F8E3099523E0C7
:1006F000AAEFB1E001C01D92AC3DB207E1F711E0F5
:10070000A0E0B1E0E0ECF8E502C005900D92AA3F50
:10071000B107D9F70E94FE230C940A2C0C94000018
:10072000482F2091D80390919F0357E0291302C0CE
:1007300080E0089530E0529FF001539FF00D1124A6
:10074000E056FC4F8181681306C08081481303C0C6
:1007500085818111EECF2F5F3F4F2770E7CFE8ED06
:10076000F0E080818E7F80831092E2001092DA00A8
:100770001092E100A0EEB0E08C9181608C938081BA
:100780008F77808319BCA7EDB0E08C918E7F8C931E
:1007900080818F7E80831092880308952091E400E9
:1007A0003091E50095E6A9012091EC00822F81703F
:1007B00020FF06C08091E80080FF06C080E0089519
:1007C0002091E80022FD1AC080919503882389F0CA
:1007D000853089F08091EB0085FD0FC02091E40009
:1007E0003091E50042175307F9F29150E1F684E0A9
:1007F000089582E0089583E0089581E0089580914E
:10080000970387FF13C08091E80082FF06C08091A4
:10081000E8008B778093E80004C0809195038111F4
:10082000F2CF0895809195038823D9F38091E80051
:1008300080FFF8CF8091E8008E77ECCF982F9093CF
:10084000E900242F762F50E0891731F07091EC00E9
:100850002091ED005091F00021FD07C09F5F97307F
:1008600071F78093E90081E008953091EB003E7FBD
:100870003093EB003091ED003D7F3093ED003091EF
:10088000EB0031603093EB007093EC002093ED00AF
:100890005093F0002091EE0027FDE0CF80E0089516
:1008A000B0E0A0E0E6E5F4E00C94242AC8EDD0E046
:1008B00088818F7E8883E7EDF0E08081816080838E
:1008C00084E082BF81E08093880388818E7F888363
:1008D00002EE10E0F80110821092DA0081EEC82ECC
:1008E000D12CF601108288818F7788838881806877
:1008F000888388818F7D888319BC1092950310921C
:100900009603109294031092930390EEE92EF12C2B
:10091000F70180818B7F808388818160888342E0BA
:1009200060E080E00E941E04F60180818E7F80835B
:10093000F801808181608083808188608083F701F5
:1009400080818E7F8083888180618883CDB7DEB788
:10095000E8E00C94402AFC0180919D0390919E0355
:1009600086179707A0F06115710529F49091E800AA
:100970009E779093E80090E06115710551F4911114
:1009800008C08091E80082FF34C080E00895BC0177
:10099000F2CF809195038823C1F18530C1F1809118
:1009A000E80083FD30C08091E80082FDEACF8091AD
:1009B000E80080FFE1CF8091F3002091F200382F12
:1009C0006115710519F02830310558F091E0283093
:1009D000310509F090E02091E8002E772093E8009F
:1009E000CBCF81918093F100615071092F5F3F4F10
:1009F000E7CF80919503882341F0853041F08091C5
:100A0000E80083FFBECF81E0089582E0089583E08F
:100A100008950895089580918A0308959C014FB721
:100A2000F8948091840390918503A0918603B091FE
:100A300087034FBF821B930B08952FB7F8946091E3
:100A400084037091850380918603909187032FBF63
:100A500008952FB7F8948091840390918503A09115
:100A60008603B09187032FBF0895A3E0B0E0EBE3C6
:100A7000F5E00C942A2A20918103309182032817F3
:100A80003907A1F09093820380938103E0917F0363
:100A9000F0918003309751F024E029839B838A836F
:100AA0000680F781E02DCE01019609952396E2E0BC
:100AB0000C94462AA3E0B0E0E0E6F5E00C942A2A84
:100AC00020917D0330917E0328173907A1F0909380
:100AD0007E0380937D03E0917F03F0918003309744
:100AE00051F023E029839B838A830680F781E02DE0
:100AF000CE01019609952396E2E00C94462A411511
:100B0000510511F0FA0109950895FC01680F791F4C
:100B10008FEF91E32191822728E030E087FF09C021
:100B2000880F892721503109C9F7E617F70791F790
:100B30000895880FF7CFFA01811101C0FB010995D3
:100B40000895EBEEF2E01182828184608283089541
:100B500080917103982F9E7F29F481708260809329
:100B6000710308958635E8F381708465F8CFAF92FC
:100B7000BF92DF92EF92FF920F931F93CF93DF9379
:100B8000082F162FE901E42FF0E0E556FC4F611124
:100B900010C0E4915E2F4E2F4983E8835A83DF9182
:100BA000CF911F910F91FF90EF90DF90BF90AF908A
:100BB0000895E62EF12C4491D42EE42FF0E026E0A7
:100BC000829FC00111242FEF30E0B9010E945D2AFD
:100BD000802F90E0880F991F55E5569FD001579FB1
:100BE000B00D11248A1B9B0B982F990F890F590167
:100BF000AE18BF08AE9ED001AF9EB00DBE9EB00D28
:100C000011245B2F189F80011124012F11275901F6
:100C1000A01AB10AAE9E8001AF9E100DBE9E100DAF
:100C200011245901A81AB108AE9CC001AF9C900DC7
:100C3000BE9C900D1124892F9927281B390B2E9FBC
:100C4000C0012F9F900D3E9F900D1124E92F62301F
:100C50007105A1F050F46115710509F49DCF613063
:100C6000710581F0EB2F512F97CF6430710569F03A
:100C700080F06630710509F48FCFF4CFE42F4B2F4D
:100C8000592F8ACFE42F412F87CFEB2F542F492F95
:100C900083CF4B2F5D2DE12F7FCF80E00895F89417
:100CA000E82FE295EF70F0E031A1282F2F7081E05E
:100CB00090E001C0880F2A95EAF7982F909593232A
:100CC00091A392A1892B82A3789408959091AB026D
:100CD00092FF10C041E0282F2471243009F040E039
:100CE00031E0282F2871283009F030E0431711F047
:100CF0002CE0822793FF10C041E0282F247124317B
:100D000009F040E031E0282F2871283109F030E067
:100D1000431711F02CE082273091AC0230FF10C055
:100D200051E0282F2171213009F050E041E0282FB7
:100D30002871283009F040E0541711F029E082278B
:100D400031FF10C041E0282F2171213109F040E02E
:100D500031E0282F2871283109F030E0431711F0D5
:100D600029E0822794FD877E089582389105B9F1A4
:100D7000B0F48133910509F47DC048F489329105BE
:100D800009F46DC08A32910509F47BC0089585335A
:100D9000910509F45FC08933910509F10895833EF7
:100DA0009105D9F138F4803E910529F1823E9105F3
:100DB00079F10895863E9105D9F1873E910509F4B0
:100DC0003EC0843E910541F52091AC0221FF24C034
:100DD0008091AB0284FD19C087EE90E008952091C8
:100DE000AB02237009F05AC02091AC0223FF14C05B
:100DF00089E290E008952091AB0220FD38C0309147
:100E0000AC0230FF09C024FF43C090E080E00895A9
:100E10002091AB0222FDF7CF08952091AB0222FD75
:100E20003AC03091AC0230FD39C024FFF5CFEDCF90
:100E30002091AB0223FFF0CF24FDE7CFCDCF20914F
:100E4000AB0223FD2EC03091AC0231FFEECF84EE19
:100E500090E008952091AB0225FFDECFC9CF20910D
:100E6000AB0225FD21C02091AC0223FFD5CF89E341
:100E700090E0D2CF2091AB0226FFCECF8AE290E065
:100E800008952091AB0226FFC7CF81E390E008953B
:100E900083EE90E0089582EE90E0089580EE90E079
:100EA000089586EE90E0089585E390E00895972FE9
:100EB0007A30B8F46930A8F48330B0F470E029E0F7
:100EC000929F600D711D1124FB019AE5899FE00D31
:100ED000F11D1124EE0FFF1FE659FE4F85919491ED
:100EE000089580E090E0089581E0FCCF1F93CF93B8
:100EF000DF930E94B506EC01C11580E5D807F0F537
:100F0000C11580E4D80708F09CC0C03ED10520F58B
:100F1000CD3CD10508F082C0C83AD10578F4C53A75
:100F2000D10508F073C0C130D10519F1209709F13E
:100F3000C430D105F0F4D0E0C0E01BC0C33CD10503
:100F4000D0F7C85AD0E0CC0FDD1FCA57DE4F09904A
:100F5000D881C02DD4640DC0C11580E2D80708F037
:100F6000D1C0C11581E0D80708F05AC0C83ED105EC
:100F700010F7CE01DF91CF911F910895C03682E521
:100F8000D80718F5C03482E5D80708F06BC0C03226
:100F900082E5D80708F05FC0C11582E5D80708F4DC
:100FA00097C02C2F2695269580E2289F900111242A
:100FB0008C2F8370C1E0D0E002C0CC0FDD1F8A957A
:100FC000E2F7C22BD32BDD68D4CFC03A82E5D80735
:100FD00060F4C03882E5D80708F459C0CF71D0E07A
:100FE000DC2FCC27C46FD06AC4CFC03C82E5D807C1
:100FF00008F462C0C03E82E5D80708F09CCFDC2F21
:10100000CC27CC27DF71C06FD06AB3CFC55AD0E0F0
:10101000CD57DE4FC881D0E0D064ABCFD065A9CF2B
:101020008D2F0E946606182FCE0199270E94B506C3
:10103000C12FD0E0DC2FCC27CC27DF71C82BD92BD8
:1010400098CFCE0199270E94B506CC27DF70C82B18
:10105000D92BD06A8ECFCF71D0E0DC2FCC27C16FD7
:10106000D06A87CF2C2F26952695277080E2289F5F
:10107000900111248C2F8370C1E0D0E002C0CC0F0E
:10108000DD1F8A95E2F7C22BD32BDC6872CF2C2FA1
:1010900026952695277080E2289F900111248C2F99
:1010A0008370C1E0D0E002C0CC0FDD1F8A95E2F76B
:1010B000C22BD32BDA685DCF8C2F8F710E9466060E
:1010C000C82FD0E0DC2FCC27CC27DF71D06251CFE6
:1010D0008C2F8F710E94660655E0D695C7955A955C
:1010E000E1F7CF70D0E0DC2FCC27282F30E084FF51
:1010F00005C044E0220F331F4A95E1F7C22BD32BE2
:10110000D06937CF8D2F8F710E946606182FCE01C0
:1011100099270E94B506C12FD0E0DC2FCC27CC2721
:10112000DF71C82BD92BD2CF80959091790398236A
:10113000909379030895809590917A0398239093E2
:101140007A030895EEEFF1E09191891303C0DF0176
:1011500011971C9292E0E430F907B1F70895AEEFD1
:10116000B1E0EFEF90E02D91821751F0EF3F19F4CD
:10117000211101C0E92F9F5F9630A9F7EF3F09F4D5
:1011800008950E2E000CFF0BE450FE4F828308954D
:101190008091D80390919F03981301C008958F5FA9
:1011A0008770FACFB0E0A0E0E8EDF8E00C94232AD5
:1011B0007C010091A9021091AA02809147029091AE
:1011C0004802082B192BCFE0D0E0CC24C394D12CBB
:1011D000BC2EC6010C2E02C0880F991F0A94E2F79C
:1011E00080239123892B49F4219790F7B12C8B2DE3
:1011F000CDB7DEB7E9E00C943F2AB7018C2F0E94EF
:1012000057070E947607019779F3F1CFCF93DF93C9
:10121000EC010E94D208BE010E9457070E94760787
:10122000DF91CF9108959A3078F5893068F5E82FED
:10123000F0E089E0989FE00DF11D11249E2F97703A
:1012400083E0F695E7958A95E1F7EE0FFF1FEE0F25
:10125000FF1FEA5FFD4F50E040E080E0219130E069
:10126000092E02C0369527950A94E2F7217033279C
:10127000042E01C0220F0A94EAF7822B4F5F5F4FC2
:101280004430510559F7089580E008959A3098F553
:10129000893088F5E82FF0E089E0989FE00DF11D96
:1012A00011248E2F877041E001C0440F8A95EAF720
:1012B00083E0F695E7958A95E1F7EE0FFF1FEE0FB5
:1012C000FF1FEA5FFD4F30E020E070E05191DF0149
:1012D0001197CB01022E02C0969587950A94E2F7EA
:1012E000817081958527842385278C932F5F3F4FBD
:1012F0002430310559F708959093AA028093A902EA
:10130000089521E030E002C0220F331F8A95E2F7F2
:10131000209530958091A9029091AA02822393236F
:101320000E947C09089590913D02809589238093C5
:101330003D02282F277069F4891759F09091AC026B
:1013400092FF07C08695869586950E948109109226
:101350003D02089521E030E002C0220F331F8A953C
:10136000E2F78091A9029091AA02822B932B0E940E
:101370007C09089590934802809347020895FC01E8
:1013800024812223C1F0808191810E9406099295D7
:101390009F70963091F058F4925F9F70923058F49D
:1013A000803F19F030F4883E30F481E008959A5F70
:1013B000F4CF843FD1F380E00895883EB0F3813FBD
:1013C000D1F7F3CFA6E0B0E0E8EEF9E00C94292ADB
:1013D00026E0FC01DE01119601900D922A95E1F7BD
:1013E000FC01258189819A81222399F0662389F065
:1013F0000E94D208182F682F89819A810E9446097D
:1014000069817A81812F0E9457072696E3E00C9428
:10141000452A0E941309182FF3CF9C013A952115F4
:101420003F4150F5FC01EE27F170BC016627727058
:10143000AC01442754709C012227387094FF0EC0E1
:1014400080E1EF2B09F480E0672B09F08062452BE7
:1014500009F08064232B89F08068089581E0EF2BE8
:1014600009F480E0672B09F08260452B09F0846065
:10147000232B19F08860089580E008950F931F933F
:10148000CF93DF938B01EA0190919503943061F53E
:101490008093E9008FEF9091E800815095FD06C0A0
:1014A00095ED9A95F1F700008111F5CF8091E80054
:1014B00085FF1AC00E94CE03811111C08091E800FF
:1014C00085FD06C08091E8008E778093E800F2CF1A
:1014D000F80181918F018093F100219779F7809134
:1014E000E8008E778093E800DF91CF911F910F91F4
:1014F000089543E050E0BC0182E00E943E0A089556
:10150000CF93DF93EC0148E050E0BC0181E00E9402
:101510003E0A88E0FE01ABE8B3E001900D928A95A7
:10152000E1F7DF91CF910895CF92DF92EF920F9381
:101530001F93CF93DF93CDB7DEB7E0970FB6F89444
:10154000DEBF0FBECDBF609170018091710380FF3F
:101550004BC0E0EAF4E09E012F5F3F4F8E010F5C2D
:101560001F4FC901A4914A2F50E0DA01AA0FBB1FF7
:10157000A40FB51FAF50BD4FCD90DD90EC90D901B9
:10158000CD92DD92ED929D013196A017B10751F7F2
:1015900020916F0143E0249F800D911D11246E9ACC
:1015A0002EB12F7B3EB130645FB7F894FC01649F8D
:1015B000E00DF11D1124BF018617970741F55FBFAC
:1015C000EFE5F4E03197F1F700C00000E0960FB6C8
:1015D000F894DEBF0FBECDBFDF91CF911F910F9169
:1015E000EF90DF90CF9008958091710190917201FA
:1015F00023E0829FF0011124EF50FD4F891708F07E
:10160000A8CF1182108212828F5F3396F7CFDC0150
:101610004D91CD01E8E03EB9000000C047FF2EB972
:10162000440F000000C000C000C02EB900C0EA9501
:1016300091F7C2CF0F931F93CF93DF93EC0110E08C
:1016400000E0909173019017110609F06CF40E946C
:10165000940A8C8190E00196817099278C83DF91A8
:10166000CF911F910F91089520917101A801420F10
:10167000511D9A01220F331F240F351F2F503D4F4C
:101680004C816091730380917203969590171106B7
:1016900051F04CF0442349F0409174030E94B70587
:1016A0000F5F1F4FCECF4423B9F340E0F7CFB0E038
:1016B000A0E0EDE5FBE00C94202AEC014C81042F26
:1016C00010E09801D8010E94FB2B9B01AC010E9405
:1016D000C62B4B015C01E0E2F0E0E01BF10BA5E55D
:1016E000B0E0AC019B010E94C62B6B017C019F0105
:1016F000DF010E948B2A9B01AC010E94D12B9B0130
:10170000AC01280D391D4A1D5B1DC701B6010E94A1
:10171000D92BF22E822F90E039E23F1520F143E0E1
:10172000249F9001112435952795122F109500E0E4
:1017300085E5E82EEF1880917301081718F10E94D3
:10174000940A9C8181E0992319F0903219F48FEF6B
:1017500080936E0180916E01890F8C83CDB7DEB7C7
:10176000ECE00C943C2A25E530E0B901681B790BCC
:101770009B01220F331F260F371F37FFD4CF2F5F58
:101780003F4FD1CF8E2D01FD8F2D20917101622F02
:10179000600F7727771F9B01220F331F260F371FFC
:1017A0002F503D4F412F609173030E94B7050F5F8B
:1017B000C2CFEF92FF920F931F93CF93DF93EC0171
:1017C0008C81811109C081E08C831092EF0292E03C
:1017D00090936D0180936C018091710190917201E1
:1017E00023E0829FF0011124EF50FD4F891758F13B
:1017F00010E003E060917301161758F10E94940AFB
:1018000080916C012091EF02280F2093EF029091BC
:101810006D01980F90936D01191654F4022E000C6F
:10182000330B409173014150550B2417350734F0A9
:10183000819580936C01813009F41C82CDB7DEB7AD
:10184000E6E00C94422A1182108212828F5F339656
:10185000CDCFE12EF12C70E0C7010E94712A2091BA
:101860007101820F482F50E02091EF02022E000CF0
:10187000330BE216F306BCF020916D01022E000C32
:10188000330B2E153F057CF0809F900111242F50C3
:101890003D4F4091740360917303809172030E94E5
:1018A000B7051F5FA7CFFA01EE0FFF1FE40FF51F6B
:1018B000EF50FD4F118210821282F3CFB0E0A0E012
:1018C000E4E6FCE00C94212AEC018A81BB24BA9462
:1018D00080FD02C0BB24B394A09073018C81811160
:1018E00009C081E0B8121EC08FEF8A0D8093EE020E
:1018F00081E08C83F12CE12CEA14B8F00E94940A68
:101900008091EE0291E0B91254C081114DC08091D6
:10191000730181508093EE021C82CDB7DEB7EBE0FD
:101920000C943D2A1092EE02E3CF009171010E0D4E
:101930001F2D111DC801880F991F080F191F0F5067
:101940001D4FF80111821082128234E0C32ED12C77
:10195000912C8091EE02890D813114F18F70082E47
:10196000000C990B8E159F0591F4809174038C9D4A
:10197000A0018D9D500D112455954795559547957E
:10198000980160917303809172030E94B7059B0CCC
:10199000F1E0CF1AD108E9F68FEFE81AF80AACCFD8
:1019A00087FFDDCF8A0DDBCF81508093EE02BC82B2
:1019B000B4CF90E001966091730170E00E94712AAB
:1019C0008093EE028C83A9CFEF92FF921F93CF9367
:1019D000DF93EC0110E0EE24EA94F12C60917301A6
:1019E000161770F00E94940A9A818C8190FF27C08C
:1019F0008F5F8C83DF91CF911F91FF90EF900895BF
:101A000020917101422F410F5527551FCA019A019C
:101A1000220F331F280F391F2F503D4F70E0C70191
:101A20000E94712A962F8C814091740360917303F8
:101A3000199F800D11240E94B7051F5FCFCF8150E1
:101A4000D8CF9091710390FF0EC0909171012091B9
:101A5000720133E0939FF0011124EF50FD4F921774
:101A600018F00E94940A08958183608342839F5FE7
:101A70003396F5CFA3E0B0E0E0E4FDE00C94282A33
:101A80008C018091F00281110AC09E012F5F3F4FAF
:101A90004FEF6FEF0E94B7058A818093F002F80143
:101AA0006481613069F08091F00240E0662361F06A
:101AB00040E0623011F44091F00280E060E004C048
:101AC0006091F00240E080E00E94210DF8018481E5
:101AD00090E0019663E070E00E94712A848323966F
:101AE000E4E00C94442AA3E0B0E0E9E7FDE00C94C4
:101AF0002A2A9091710390FF0AC09E012F5F3F4FE9
:101B00000E94B7054B8169818A810E94210D23962D
:101B1000E2E00C94462ACF93DF93EC01E1E7F3E097
:101B2000438162818C810E94730D8C818F5F8C83D5
:101B3000DF91CF910895CF93DF93EC01EC81F0E03A
:101B4000E055FB4F4491E1E7F3E0628181810E941F
:101B5000730D8C818F5F8C83DF91CF910895B0E0FE
:101B6000A0E0E5EBFDE00C94222A7C015B016A0118
:101B700080918C0201E010E08A3010F40AE010E05D
:101B8000C1E0D0E0B501C701F6010995811104C09B
:101B900021960C171D072CF4CDB7DEB7EAE00C94A4
:101BA0003E2ACC9F9001CD9F300D300D112490E046
:101BB00080E045E34A95F1F700000196821793070C
:101BC000C1F7E0CF80915502811110C08091D800FB
:101BD00080618093D8008AE18A95F1F700C08091F6
:101BE000D90080FF0AC081E08093550281E0909186
:101BF0005502913009F080E0089582E0809355020B
:101C00000E94AF0310929503F1CF0E94E20D88234A
:101C100059F0E0917F03F0918003309729F0019013
:101C2000F081E02D0995089580E008950F931F93AA
:101C30000E94E20D882329F00E941D051F910F913B
:101C400008950E941D0500918D0210918E02209131
:101C50008F0230919002600F711F821F931FEECF91
:101C60000E94160E08950E94E20D882319F00E942A
:101C7000290508950E94160ECB010895B0E0A0E05A
:101C8000E4E4FEE00C941C2AFC016280448081E0C4
:101C90008483E0EBF4E07490EFE2F5E0E491C0912E
:101CA0007403C695C158D0E0CC0FDD1FCD2FDD27C2
:101CB000812C75E0972EAA24AA94B12C55245A940D
:101CC000E719EE2EF12C80917301881638F00E94EE
:101CD000940ACDB7DEB7E0E10C94382AC82CD12C99
:101CE00082E0861568F09C9CF0019D9CF00D11240B
:101CF000EF5DFC4F80917203808380917303818339
:101D0000411023C09C9CF0019D9CF00D1124EF5DBF
:101D1000FC4F1382128220917101C601820F911D26
:101D20009C01220F331F280F391F2F503D4F9C9CC1
:101D3000F0019D9CF00D1124EF5DFC4F428161810B
:101D400080810E94B7058394BECF9C9C80019D9C9E
:101D5000100D11240F5D1C4FF80183818823F1F0D1
:101D600081508383859DC0011124648170E00E94AD
:101D70005D2AFB01FF27E055FB4F8491E82FE7190F
:101D8000E59DC0011124B7010E945D2A8091740372
:101D9000689FB0011124F8017283BDCF0E941C2BF3
:101DA000B5010E94712A8C179D070CF0B4CFF2E0A8
:101DB000F61598F40E941C2BB5010E94712AF801B7
:101DC00080830E941C2B209173032695622F70E064
:101DD0000E94712A280FF80121839C9CF0019D9C90
:101DE000F00D1124EF5DFC4F128280917403893C49
:101DF00058F088EC9C9CF0019D9CF00D1124EF5D47
:101E0000FC4F8483838387CF8431A0F784E1F2CFB2
:101E100060917103669570E04BE050E081E691E0DF
:101E20000E942C2B892B19F481E08093EC020E94F4
:101E3000330E9093E6028093E5028091ED02846078
:101E40008093ED020895B0E0A0E0E9E2FFE00C9499
:101E5000202A49015A016B017C010E94A8058401D6
:101E6000A4016A2D7B2D88E090E00E94852B9401CF
:101E70004A2D5B2DB601C70100E20E94B52A622FF0
:101E800084E290E00E94732BCDB7DEB7ECE00C94B7
:101E90003C2AA3E0B0E0EFE4FFE00C94232A082FF3
:101EA000E62EF42EC22E9091710390FF40C0209137
:101EB0007203281308C080917303861304C08091B5
:101EC0007403841729F08091ED0282608093ED0203
:101ED000E92FE695AE2FB0E0A253BE4F8C918093D0
:101EE000EB029E7F923039F59E012F5F3F4F4F2DC1
:101EF0006E2D802F0E94B7054B8169818A810E94D7
:101F0000210D00937203E0927303F0927403CC20CE
:101F100071F0209171036091750370917603302FF9
:101F2000A70180917703909178030E94230F239655
:101F3000E9E00C943F2A823019F4F0907403E1CF69
:101F40008630A1F1893091F18931D9F6E9516E2FAE
:101F50006170B62EE695F0E0E556FB4F1491D12C5A
:101F600060917301D61618F00E94940ACACFD19ED0
:101F7000C001112470E00E945D2A802FB11014C0AE
:101F8000860F20917101622F6D0D7727771F9B01BE
:101F9000220F331F260F371F2F503D4F4F2D6E2D11
:101FA0000E94B705D394DCCF861BEBCF022FA9CFBD
:101FB000E1E7F3E0438121E1421B08F440E021E046
:101FC000628181810E94490F0895E1E7F3E0438136
:101FD00021E1420F08F44FEF21E0628181810E94EC
:101FE000490F0895E1E7F3E0628121E1621B08F403
:101FF00060E021E0438181810E94490F0895E1E77B
:10200000F3E0628121E1620F08F46FEF21E0438188
:1020100081810E94490F0895E1E7F3E0818121E089
:102020004381628188500E94490F0895E1E7F3E0FF
:10203000818121E043816281885F0E94490F089578
:1020400080917503882319F0815080937503209146
:102050007103309172034091730350917403609146
:1020600075037091760380917703909178030E94B5
:10207000230F089580917503833018F48F5F809348
:102080007503209171033091720340917303509155
:10209000740360917503709176038091770390913A
:1020A00078030E94230F08959091710390FF39C027
:1020B0009170811137C09260909371038091ED020D
:1020C00081608093ED02662391F02091710330913D
:1020D0007203409173035091740360917503709182
:1020E000760380917703909178030E94230F60918B
:1020F0007103669570E04BE050E081E691E00E944C
:102100002C2B892BB1F00E94A10581E08093E8027D
:1021100020E04091740360917303809172030E94E8
:10212000490F08958B3210F09465C6CF880F982B15
:10213000C3CF0E94080FE9CF80917103869581502B
:1021400009F48AE261E00E945410089580917103BD
:1021500086958F5F8B3208F081E061E00E94541019
:1021600008959091710390FF08C09695981728F0F4
:10217000961718F40E94A610089561E00E9454106A
:102180000895E1E7F3E087E1808311828FEF828396
:1021900083831482ABEEB2E012968C911297836027
:1021A00012968C93758127E130E04FEF5FEF60E08E
:1021B000868197810E94230F0895ABE0B0E0E3EEA3
:1021C000F0E10C942A2A88E0E1E7F3E0DE011196C1
:1021D00001900D928A95E1F78091EB029091EC02CB
:1021E000A091ED0289879A87AB872B854091880261
:1021F0005091890260918A0270918B023FB7F894E6
:102200008091840390918503A0918603B091870308
:102210003FBF841B950BA60BB70B84369105A10518
:10222000B10510F4222319F180913101909132010E
:1022300084599D4F4091300150E04C30510510F0D1
:102240004BE050E0BE016F5F7F4F0E94462B85E060
:1022500090E00E94A429882369F00E941D056093E4
:1022600088027093890280938A0290938B02109265
:10227000ED0281E02B96E2E00C94462AA4E0B0E067
:10228000E4E4F1E10C94292A40916802509169023A
:1022900060916A0270916B022FB7F8948091840369
:1022A00090918503A0918603B09187032FBF841B73
:1022B000950BA60BB70B11E084369105A105B1056E
:1022C00070F10E94160E6E5F7F4F8F4F9F4F698394
:1022D0007A838B839C838091290190912A01845970
:1022E0009D4F4091280150E04530510510F044E0E9
:1022F00050E0BE016F5F7F4F0E94462B84E090E06C
:102300000E94A429182F882351F00E941D05609374
:1023100068027093690280936A0290936B02812F26
:102320002496E3E00C94452A4F925F927F928F921D
:102330009F92AF92BF92CF92DF92EF92FF920F9354
:102340001F93CF93DF930F92CDB7DEB7C62E4A010E
:102350005901482E880F5508C2010E94A429782EE1
:10236000882309F480C0C20133E0880F991F3A9591
:10237000E1F7FC01E85FFE4F438150E04115510554
:1023800011F041E050E0885F9E4FFC01648175814F
:1023900064597D4FCE0101960E94462BF401408185
:1023A0005181628173812FB7F89480918403909159
:1023B0008503A0918603B09187032FBF841B950BE3
:1023C000A60BB70B84369105A105B10540F4B70102
:1023D000C8010E9485059981891709F444C00C2C15
:1023E000000CDD08C6010E94A429782E811113C0BB
:1023F000712C872D0F90DF91CF911F910F91FF903E
:10240000EF90DF90CF90BF90AF909F908F907F9094
:102410005F904F900895C60123E0880F991F2A9579
:10242000E1F7FC01E85FFE4F438150E0E416F5065A
:1024300008F4A701885F9E4FFC016481758164598F
:102440007D4FC5010E94462BB701C8010E9485053A
:1024500099818913CDCF0E941D05F401608371839A
:1024600082839383C6CFA701B801C5010E94462B82
:10247000C0CFAAE0B0E0EFE3F2E10C94242A6B01B4
:102480008AE0E82EF12C0DE612E09E012F5F3F4F0F
:1024900040E652E061E080E00E949411882349F018
:1024A0009AE0FE013196A6E5B2E001900D929A9570
:1024B000E1F79AE0E6E5F2E0D60101900D929A95F7
:1024C000E1F72A96E8E00C94402AAFE1B0E0EBE6B1
:1024D000F2E10C941C2A8E010F5F1F4F84E1D8019A
:1024E0001D928A95E9F761E4E62E61E0F62E680117
:1024F00076E4472E71E0572E66246394712CF1E444
:102500008F2EF1E09F2EF70181917F018F3F09F41B
:1025100045C0F894E82FE295EF70F0E021A18F70AC
:10252000A30102C0440F551F8A95E2F7CA01922FFA
:10253000982B91A392A18095892382A3789400C0BF
:10254000E8E3F1E021E030E0B12CA12C41914F3FD4
:1025500009F46DC0A42FA295AF70B0E090968C9155
:1025600090E04F7002C0959587954A95E2F780FDFF
:102570005EC0C901A82AB92A220F331F8E169F06F2
:1025800029F7F701319780818F3F11F00E944F06A4
:1025900050EA5A95F1F7D601AD92BC92B2E0CB0E5B
:1025A000D11C4E145F0409F0AECF44E150E0B801F5
:1025B00083E992E00E94392B009741F024E1F80171
:1025C000A3E9B2E001900D922A95E1F70091A802EB
:1025D000892B81F181E080934D020E94290590931F
:1025E0004C0280934B0280914B0290914C020E94CE
:1025F0000E05059718F110E0000F111F02551D4F31
:102600004AE050E063E972E0C8010E94392BD12C06
:10261000892B51F08AE0E3E9F2E0D80101900D92B4
:102620008A95E1F7DD24D39410924D0208C090E022
:1026300080E0A0CF80914D028111D5CFD12C0E9496
:10264000E20DC82EE091A802AE014B5E5F4F7A0109
:10265000882309F481C08AE0DA011D928A95E9F79E
:102660000E2F10E0000F111F02551D4F80918C029C
:102670008A30E8F549E352E1B701C8010E94AF0D85
:10268000882309F458C043E659E1B701C8010E9404
:10269000AF0D882309F44FC04EE351E1B701C801E3
:1026A0000E94AF0D882309F446C04DED50E1B701FB
:1026B000C8010E94AF0D8823F1F110928C02809125
:1026C000A70290E0880F991F4AE050E0B7018255B9
:1026D0009D4F0E94392B21E020935402892BE1F475
:1026E000C12C8C2D8D296F96E0E10C94382A8091B5
:1026F0004E0290914F020E940E05843F914008F0D7
:10270000B9CF80915402882359F38AE0F7011192DE
:102710008A95E9F710925402A091A702B0E0AA0F9F
:10272000BB1FA255BD4F8AE0FE01759601900D9228
:102730008A95E1F7D6CF80918C028F3F31F08F5F81
:1027400080938C028A3008F4BACF0E9429059093B6
:102750004F0280934E02D5CFF0E0EE0FFF1FE255FF
:10276000FD4F8AE0ADE6B2E001900D928A95E1F767
:102770006AE070E08DE692E00E94850580936C022D
:102780004091E10250E06091E00270E064527D4FC0
:10279000C7010E94462B8D898093780261E070E02A
:1027A000C7010E94850580937702809079029090FE
:1027B0007A02A0907B02B0907C02809150029091AE
:1027C0005102A0915202B091530288169906AA06AE
:1027D000BB06D1F08092500290925102A092520218
:1027E000B09253020E94E20D81110EC00E941D059D
:1027F000861A970AA80AB90A80928D0290928E02D0
:10280000A0928F02B09290028BE0EDE7F2E0DE0141
:10281000559601900D928A95E1F780917D028695FB
:10282000F0907E02E0907F02B090800200918602DC
:102830001091870210928702112309F452CF10FFE2
:102840000BC02D899091710320FF1AC09160909365
:10285000710360E00E94541011FF06C020E04B2D70
:102860006E2D8F2D0E94490F12FF04C00023A9F086
:102870000E94080F13FF35CF81E08093E80231CF2B
:102880009E7F909371030E94A1058091ED0281606B
:102890008093ED020E94940ADFCF0E94A105EACF47
:1028A00080917A0390917903892B8093FC01909118
:1028B0004602992391F0892B8093FC0120E08EEF52
:1028C00091E0FC013191CF0131112F5FF2E08430B2
:1028D0009F07B9F721111092460248E050E06EE3DD
:1028E00072E08CEF91E00E94392B892BA9F088E0EF
:1028F000ECEFF1E0AEE3B2E001900D928A95E1F7E2
:10290000E0917F03F0918003309731F00280F381F2
:10291000E02D8CEF91E009950895CF93DF93EC01C2
:102920004A855B856E857F850E947F058B810E942D
:1029300094088C810E949B080E94501486E0FE013E
:1029400011928A95E9F7DF91CF910895CF93DF93A4
:10295000EC018D8181FD17C082608D8380917903A8
:102960009B81892B8093790380917A039C81892BA9
:1029700080937A030E945014488559856E857F851F
:10298000CE010E947F0510927C0310927B038D8103
:1029900080FD03C0CE010E948D14DF91CF91089578
:1029A00010927A03EEEFF1E086E0DF011D928A9546
:1029B000E9F790E080E00E945A0590E080E00E94F4
:1029C0003505109279030E9450140895AAE2B0E0F0
:1029D000ECEEF4E10C94292A87E993E02091F100D0
:1029E000FC012193CF01F3E08F399F07B9F7809164
:1029F0009803833009F470C0B8F4813009F447C0FB
:102A0000823009F4B1C08091E80083FF7EC28091DA
:102A10009703909198039A3008F077C2E92FF0E07D
:102A2000E45FF34D0C94852A8A3009F48CC08B3016
:102A300009F46FC0893039F780919703813219F713
:102A400080919B0390919C030297E8F68091E800A7
:102A5000877F8093E8008091E80082FF38C09091E2
:102A6000F3008091F200029731F48091F1008130FF
:102A700011F0863021F48091F10080938A038091D7
:102A8000E8008B778093E8000E94FF03BCCF809121
:102A90009703813A09F0B7CF8091E800877F809350
:102AA000E80080919B0390919C03892B61F468E07E
:102AB0008BE893E070E00E94AB048091E8008B7794
:102AC0008093E800A0CF60E090E080E0F3CF8091B9
:102AD00095038111C0CF97CF80919703813A09F078
:102AE00092CF80919B0390919C03892B09F08BCF0F
:102AF0008091E800877F8093E8008091E80080FF64
:102B0000FCCF809174018093F1008091E8008E7772
:102B1000B9CF80919703813209F075CF80919B03E3
:102B200090919C03892B09F06ECF8091E800877FFC
:102B30008093E8000E94FF038091990380937401C1
:102B40000E94D01460CF80919703813209F05BCF4F
:102B50008091E800877F8093E8000E94FF038091C6
:102B60009A03809389034FCF80919703813A09F0AC
:102B70004ACF8091E800877F8093E8008091E80049
:102B800080FFFCCF80918903BECF803899F08238D6
:102B900009F0BBC180919B038F70873008F0B5C1ED
:102BA0008093E9008091EB0085FB882780F91092E3
:102BB000E90006C080919303909194039111826083
:102BC0009091E800977F9093E8008093F100109235
:102BD000F1008091E8008E7794C1882309F482C1C6
:102BE000823009F092C180919903811185C1809151
:102BF0009B038F702FEF280F263008F086C180933B
:102C0000E9002091EB0020FF77C1933031F48091EF
:102C1000EB0080628093EB006FC19091EB009061BC
:102C20009093EB0021E030E001C0220F8A95EAF793
:102C30002093EA001092EA008091EB008860EACFCE
:102C4000811163C1109199031F778091E30080780F
:102C5000812B8093E3008091E800877F8093E800D8
:102C60000E94FF038091E80080FFFCCF8091E30089
:102C700080688093E30082E0111183E080939503E4
:102C800044C18058823008F040C1809199039091EE
:102C90009A038C3D23E09207A1F583E08A838AE2C0
:102CA00089834FB7F894DE01139620E03EE051E2AD
:102CB000E32FF0E050935700E49120FF03C0E2952A
:102CC000EF703F5FEF708E2F90E0EA30C0F0C79654
:102CD0008D939D932F5F243159F74FBF8091E8006A
:102CE000877F8093E8006AE270E0CE0101960E943F
:102CF000AB048091E8008B778093E80006C1C09612
:102D0000E7CF40919B0350919C03292F3327233019
:102D1000310509F444C078F52130310509F46FC05C
:102D20008BE390E0E6E2F6E02230310509F0EDC0F9
:102D30002091E800277F2093E80020919D033091A7
:102D40009E038217930708F49C0140E0211531058A
:102D500009F064C0411162C08091E80082FDC9CFD2
:102D600080919503882329F2853019F28091E8003B
:102D700083FFF2CFBECF21323105A9F122323105D6
:102D800009F0C3C04115510509F443C04130510554
:102D900009F0BBC082E390E0E0EBF5E0C9CF9927F2
:102DA00081309105C1F0009759F0029709F0ADC04C
:102DB000E3E7F6E0E4918E2F90E0E3E7F6E007C06A
:102DC000E7EAF6E0E4918E2F90E0E7EAF6E000977C
:102DD00009F49BC0ADCFE7E9F6E0E4918E2F90E0D7
:102DE000E7E9F6E0F4CF4115510571F041305105A6
:102DF00009F08BC089E090E0E1E5F6E099CF82E14F
:102E000090E0E1E6F6E094CF89E090E0E8E3F6E0D8
:102E10008FCF84E490E0E2EEF5E08ACF80919503D5
:102E2000882309F466CF853009F463CF8091E800E8
:102E300083FD5FCF8091E80082FD8ECF8091E80016
:102E400080FF84CF9091F3008091F200211531052D
:102E500019F08830910550F041E0089709F040E002
:102E60008091E8008E778093E80070CF4491409382
:102E7000F1003196215031090196E8CF803809F0F0
:102E800044C08091E800877F8093E800809196039A
:102E90008093F1009ECE811138C0109199031230B9
:102EA000A0F58091E800877F8093E8001093960357
:102EB0000E94FF03112311F084E005C08091E3001C
:102EC00087FDFACF81E08093950342E061EC81E0D9
:102ED0000E941E0442E261EC82E00E941E04809186
:102EE000950313C080919903813079F481E0933088
:102EF00009F080E0809394031092E9008091E8004B
:102F0000877F8093E8000E94FF038091E80083FFA1
:102F10000AC08091E800877F8093E8008091EB00F1
:102F200080628093EB00AA96E3E00C94452A0E940D
:102F3000D0142FEF84E39CE0215080409040E1F7D3
:102F400000C0000088E19CE00FB6F894A89580933B
:102F500060000FBE90936000FFCF882321F00E9495
:102F600094080E9450140895882339F090917903B1
:102F7000982B909379030E9450140895882321F090
:102F80000E949B080E9450140895882339F0909164
:102F90007A03982B90937A030E9450140895882303
:102FA00009F44DC0823879F40E94050E81FF47C0B4
:102FB00089E30E94AF080E94501489E30E94A2088E
:102FC0000E9450140895833859F40E94050E80FF22
:102FD00036C083E50E94AF080E94501483E5EECF0F
:102FE000843859F40E94050E82FF29C087E40E94AC
:102FF000AF080E94501487E4E1CF9CEF980F913AFC
:10300000E8F290E2980F983050F4877091E001C098
:10301000990F8A95EAF7892F0E949B08D1CF9BE5EB
:10302000980F933028F490E080E00E945A050895AC
:10303000885A8B3120F490E080E00E943505089595
:10304000CF93DF93EC010E94CF17CE010E940D0AAF
:103050009E01205E31092830310510F0CD2B29F476
:103060000E94BE17DF91CF9108950E94AD17FACF4D
:10307000FC018281813031F4FB01808191810E94C9
:10308000201808958230E9F7FB0182819381F7CF00
:10309000CF93C82F8823C9F08238C9F40E94050E47
:1030A00081FD13C089E30E94AF080E9450142FEFE6
:1030B00087EE93E0215080409040E1F700C000008F
:1030C00089E30E94A2080E945014CF91089583388A
:1030D000A1F40E94050E80FDF8CF83E50E94AF08A1
:1030E0000E9450142FEF81EE94E0215080409040D8
:1030F000E1F700C0000083E5E4CF8438A1F40E942A
:10310000050E82FDE2CF87E40E94AF080E945014B2
:103110002FEF81EE94E0215080409040E1F700C015
:10312000000087E4CECF8CEF8C0F813A70F4EEEF85
:10313000F1E084E092E02191C21799F18E179F0788
:10314000D1F78C2F0E94AF08BECF80E28C0F883061
:1031500068F4C77021E030E001C0220FCA95EAF799
:1031600080917A03822B80937A03ADCFEBE5EC0F4D
:10317000E33040F4F0E0ED57FE4F808190E00E9494
:103180005A05A3CFC85ACB3108F09FCFEC2FF0E0FF
:10319000EE0FFF1FEA57FE4F808191810E94350597
:1031A00094CF8C2F0E94A2080E945014CACF1F9364
:1031B000CF93DF93182FD0E0C0E0893311F4C0E53E
:1031C000D0E0812F0E944818209739F4812F0E9467
:1031D000CF17DF91CF911F9108958FE99FE001975D
:1031E000F1F700C000002197EFCF0F931F93CF930B
:1031F000DF93C62FD42F022FFC0185818823A9F0ED
:103200006093DB030E9429059093DA038093D9032E
:10321000C77081E001C0880FCA95EAF70E94C51700
:10322000DF91CF911F910F9108958091DB03681377
:1032300032C08091D9039091DA030E940E05883C38
:10324000910548F510E21D0FCD17B9F080E28C0F03
:10325000883040F4C77081E001C0880FCA95EAF752
:103260000E94BE17183048F481E09D2F977001C06E
:10327000880F9A95EAF70E94C517802F0E94D718E9
:10328000183070F6D77081E001C0880FDA95EAF740
:103290000E94BE17C5CFC77081E001C0880FCA95D4
:1032A000EAF7F6CF811108C08EE4611101C08BE40A
:1032B0000E94D71880E008958130E1F789EA611112
:1032C000F7CF8AEAF5CFA1E0B0E0E9E6F9E10C94A6
:1032D000232AEE24E394F12C08E712E09E012F5FED
:1032E0003F4F44E652E063E082E00E949411C82E12
:1032F000882339F100E080E01DC0D0909202D00E0A
:103300002D2D30E0A90144525D4F7A01E1E0F0E05B
:10331000EC0FFD1FE00FF11D1081FA019081191BC8
:10332000B12E1B149CF0912F17FD90E0191B111169
:1033300018C00F5F909191020917F8F281110E9455
:10334000300E8C2D2196E9E00C943F2ABA94F701B7
:1033500080818F5F808360E08D2D0E9452198C2DBB
:10336000E0CF1F5FF70180818150808361E08D2D68
:103370000E9452198C2DDBCFCF93DF93EC010E947A
:103380000D0A9E01205E31092830310510F020978A
:1033900041F40E94C5178C2F0E944818DF91CF91ED
:1033A00008950E94B417F7CFFB01808191810E949C
:1033B000BC190895CF93DF93EC018A81823041F4E8
:1033C000FB01828193810E94BC198D8182608D8373
:1033D000DF91CF910895A8E0B0E0E1EFF9E10C941E
:1033E0002A2A66EE7EEF90E080E00E94912B60E05A
:1033F00082E090E00E94732B60E083E090E00E9406
:10340000732B109248021092470260E074E184E04E
:1034100090E00E94912B60E086E090E00E94732B88
:103420006FEF87E090E00E94732B40E050E0BA011C
:1034300088E090E00E94852B60E084E290E00E94AA
:10344000732B60E087E190E00E94732B60E08CE0DA
:1034500090E00E94732B60E08DE090E00E94732B5F
:1034600019821A821B821C821D821E821F8218866C
:1034700048E050E068E170E0CE0101960E94632BC5
:1034800040E050E0BA0180E290E00E94852B40E0ED
:1034900050E0BA018FE090E00E94852B40E050E0C0
:1034A000BA0183E190E00E94852B2896E2E00C941B
:1034B000462A9091AC0292FB222720F9281779F036
:1034C00080FB92F99093AC026091AB027091AC02D8
:1034D00084E090E00E94912B82E00E94930908957D
:1034E000B0E0A0E0E6E7FAE10C941E2A7C01DC01E2
:1034F00014968C91882309F47BC161E0C7010E9476
:10350000E209EC01F7018581882319F180917B03A1
:1035100090917C030097E9F0C817D907D1F099275B
:1035200044E0880F991F4A95E1F7FC01EC5AFE4FE1
:10353000208124602083815B9E4FDC01CD93DC934E
:103540000E94A6141092790361E0C7010E94E2096B
:10355000EC01C134BEE7DB0709F0AAC0F7018581A1
:103560008111E8C00CE511E03AE0632EF8012491E6
:10357000222309F4DFC0213009F043C03196849141
:10358000813039F40E5F1F4FF80184910E94D718E3
:1035900008C0823049F40E5F1F4FF80184910E94E9
:1035A00048180F5F1F4FE2CF833039F40E5F1F4F73
:1035B000F80184910E94CF17F4CF843009F076C0CF
:1035C0000E5F1F4FF801249190E080E0F8013196E2
:1035D0002053330B2A30310548F0019710F3AFE93F
:1035E000BFE01197F1F700C00000F7CF689EA0017F
:1035F000699E500D1124C901840F951F24918F01DC
:10360000E5CFE22FF0E0E452FF4F7490822F8695D1
:103610008695869590E0FC01E453FF4FA4902770B7
:10362000B12C022E02C0B594A7940A94E2F7E1E00F
:10363000AE22BB24FC01E454FF4F8490912C022E57
:1036400002C0959487940A94E2F7F1E08F229924BE
:10365000FC01E455FF4FC490D12C02C0D594C7940F
:103660002A95E2F721E0C222DD24A114B10419F069
:1036700081EE0E9448188114910419F086EE0E9490
:103680004818872D0E94D7188114910419F086EEEE
:103690000E94CF17A114B10419F081EE0E94CF1738
:1036A000C114D10409F47DCF8CE270CF8F0179CFA2
:1036B000CE019755FE018F3F910511F008F078C0BB
:1036C000FF2724E0EE0FFF1F2A95E1F78F01015B32
:1036D0001E4FD70115968C91EC5AFE4F908180FBBE
:1036E00090F99083882309F447C00E94290590939C
:1036F000D8028093D702F80182818F5F8283809104
:10370000790390917A03892B838380914602848385
:103710004681578166857785C8010E947F05D8015B
:1037200015968C9181FF25C090E080E090937B03FB
:1037300080937C03F7018581882309F467C4109284
:10374000DB03CE019057839708F04CC484E090E0EF
:103750000E945D2B9093AC028093AB02FE01E1507E
:10376000F047E232F10508F05FC0EA5EF34D0C94D9
:10377000852A9C2F8D2FDACFF801448555856685E3
:103780007785C8010E947F05D80115968C9181FF2D
:10379000D1CFC8010E948D1480917B0390917C034E
:1037A000C817D90739F610927C0310927B03C2CF59
:1037B000E851FC47E730F10508F0BCCFE85CF34D79
:1037C0000C94852A26E241EE61EEC7010E94F518AD
:1037D00080913D02877061F0D70115968C91882306
:1037E00039F08091AC0282FF03C082E00E9493090D
:1037F000CDB7DEB7EEE00C943A2A27E245EE65EE4F
:10380000E4CF26E241EE60EEE0CF27E245EE64EE43
:10381000DCCF26E241EE62EED8CF27E245EE66EE3F
:10382000D4CF28E241E0EBCF8091AB02816080935E
:10383000AB0295C08091AC0288608093AC028FC0CF
:103840008091AB028260F3CF8091AB028460EFCFB6
:103850008091AB028860EBCF8091AC028160EDCFAC
:103860008091AC028260E9CF8091AB028061DFCFB2
:103870008091AB028062DBCF8091AB028064D7CFB6
:103880000E94D0148091AB028068D1CF8091AB02AE
:103890008C60CDCF8091AC028360CFCF8091AB02A2
:1038A0008E7FC5CF8091AC02877FC7CF8091AB025E
:1038B0008D7FBDCF8091AB028B7FB9CF8091AB0262
:1038C000877FB5CF8091AC028E7FB7CF8091AC025D
:1038D0008D7FB3CF8091AB028F7EA9CF8091AB0259
:1038E0008F7DA5CF8091AB028F7BA1CF0E94D0149A
:1038F0008091AB028F779BCF8091AB02837F97CF74
:103900008091AC028C7F99CF8091AB0282FB99278A
:1039100090F921E0922790FB82F990FB83F987CF01
:103920008091AC02982F909591708E7F892B90FB9F
:1039300081F983CF9091AB02892F8F7B96FF8064B2
:1039400076CF0E94D0149091AB02892F97FB87F914
:1039500080586DCF61E08EE090E00E94732B609103
:10396000AB027091AC0284E090E00E94912B0E9427
:10397000D0142ECF60E0EFCF9091AB02892F8F7ED5
:1039800094FF806154CF9091AB02892F8E7F90FF7E
:1039900081604DCF9091AC02892F877F93FF886023
:1039A0004CCF85E32EC380910402811104C089E2CB
:1039B0000E94A20828C385E3FBCF8091710380FF9A
:1039C0001EC0282F2E7F20937103309172034091E7
:1039D0007303509174036091750370917603809125
:1039E0007703909178030E94230F0E94A105809194
:1039F000ED0281608093ED020E94940AE9CE81601D
:103A00008093710361E086950E945410E1CE4CE9E9
:103A100050E166EA70E10E949B05DACE46EA50E189
:103A20006CE970E1F8CF4CE050E166E170E1F3CF72
:103A300046E150E16CE070E1EECF42EF5FE06FEF06
:103A40007FE0E9CF4FEF5FE062EF7FE0E4CF48ED4A
:103A50005FE065EE7FE0DFCF45EE5FE068ED7FE0A1
:103A6000DACF40E250E16AE370E1D5CF4AE350E1BA
:103A700060E270E1D0CF61E081E0C6CF65E082E036
:103A80000E94B110A5CE68E086E0FACF6EE089E032
:103A9000F7CF64E18FE0F4CF67E185E1F1CF61E03A
:103AA00088E1B2CF62E289E1EBCF61E083E2ACCFA3
:103AB0006AE285E2E5CF0E94D014FFEF24E33CE008
:103AC000F15020403040E1F700C0000081E08093D9
:103AD000E00080E28093D8001092C9008FE19EE45C
:103AE0000197F1F700C0000087E090EBDC018093C4
:103AF000DC039093DD03A093DE03B093DF0388E142
:103B00009CE00FB6F894A895809360000FBE909348
:103B10006000FFCF6FEF7FEF90E080E00E94912B7D
:103B20000E9497178091AC0282FB882780F991E070
:103B300089270E94591AF7018581C081D181882384
:103B400009F44CC0CE010E94D208182F682FCE0174
:103B50000E944609BE01812F0E9457070E947607E6
:103B6000D82FC92FA82ED7011596CC901597169649
:103B7000BC90B2949FE0B92280913D028770E9F039
:103B80000C2DCC20D9F08C2F807F803451F080E236
:103B90008D0F883090F0B11004C08C2F807E803261
:103BA00061F08091AC0282FF08C082E00E9493091C
:103BB00080913D02877001E009F000E0DC2ED29494
:103BC0008FE0D822BBE0BD1508F465C0ED2DF0E014
:103BD000E15CF34D0C94852A80E0ABCFCE010E94CE
:103BE0001309182FB7CF1C2F1F70C07F11F012952B
:103BF000107FCC20B9F0112369F080E28D0F88305E
:103C000010F0A11009C080917A03182B10937A0349
:103C10000E9450148D2F3DC080917903182B109372
:103C20007903F6CF8D2F0E94CF171123A1F1D05E1B
:103C3000812FD83010F0A11003C00E949B0802C051
:103C40000E9494080E94501426C01C2F1F70C07F31
:103C5000C03211F01295107FAA2059F0E1E0AE16A3
:103C600009F472C0CC2009F47EC0BB2009F441C025
:103C7000D1CF8091AC0282FD38C0CC2079F11123E4
:103C800039F080917A03182B10937A030E94501414
:103C900080E00E944818AD2DA850BB0B149710F47B
:103CA0000E94050E0023A9F080913D0280FD11C005
:103CB000F70115828695869586950E94AA09C70107
:103CC0000E94701A80913D028695869586950E9485
:103CD000810960E0C7010E94E2098ACD80E00E946C
:103CE000CF171123C1F2812FA8CFCC2099F0B110AA
:103CF00004C0812F0E94C517CECFF1E0BF12CBCFF9
:103D000080914602912F9823191729F2182B1093AE
:103D10004602C1CFB110BFCF812F0E94BE17909134
:103D20004602812F892329F0812F80958923809352
:103D3000460280910502912F982309F4ACCF10958B
:103D4000182310930502A7CFCC2029F025E02B15CE
:103D500008F4A1CFCECF34E03B1508F49CCF812FDF
:103D60000E94BE1798CFBB20D1F389E3A81209C0E7
:103D70009FEFA7EEB3E09150A040B040E1F700C044
:103D800000008D2F0E94CF1786CF8C2F86958695A9
:103D9000837069F0813009F07ECF8D2F9C2F937056
:103DA000C11002C080E090E00E94350574CF8D2FD5
:103DB0009C2F9370C11002C080E090E00E945A05D1
:103DC0006ACF8C2F837009F03FC0C11064CF4D2F94
:103DD000429546954770440F440F2D2F2F7030E0C9
:103DE000042E02C0220F331F0A94E2F790E080E015
:103DF000D4FF09C08FE090E002C0880F991F4A9558
:103E0000E2F780959095C695C695C370C23099F03B
:103E100078F44091470250914802C13039F0822B2A
:103E2000932B842395230E94BA0935CF242B352B5D
:103E3000822B932BF8CF822B932B2091470230912A
:103E4000480282279327EFCF8695CC2011F08C2F44
:103E50008170882309F41FCF4D2F429546954770F6
:103E6000440F440F2D2F2F7030E0042E02C0220F7C
:103E7000331F0A94E2F790E080E0D4FF09C08FE09E
:103E800090E002C0880F991F4A95E2F780959095BF
:103E9000C695C695C370C23099F078F44091A902D6
:103EA0005091AA02C13039F0822B932B84239523A1
:103EB0000E947C09F0CE242B352B822B932BF8CF3C
:103EC000822B932B2091A9023091AA02822793275B
:103ED000EFCFCF70CC2029F08C2F0E94AA098D2F14
:103EE00009CF8D2F0E94BE178C2F0E948109D3CE3F
:103EF0008D2FE2EFAE1699F1EA1570F0F0EFAF16E4
:103F0000D1F021EFA21691F0CC2009F45BC0B110E2
:103F100081CE8C2F8F7127C033EFA31639F194EF28
:103F2000A912F2CF8091AC0282FD2EC08C2F8F712E
:103F3000CC20D9F218C0CC2069F0A4E0AB1508F46D
:103F4000AACECF7181E090E002C0880F991FCA9578
:103F5000E2F7B8CFB5E0BB1508F49DCEF2CF8C2FB9
:103F60008F71C110C2CF0E94AA0995CE90E080E067
:103F7000CC2009F49DCFCF7181E090E002C0880F82
:103F8000991FCA95E2F794CFCC2089F0CF718C2F7E
:103F90000E94AA098091AC0282FF07C0E8E0CE9F90
:103FA000C0011124836080933D028C2FDCCF81E01F
:103FB0000E949309F1E0FB1508F06DCE82E00E94AB
:103FC000930969CEBB2059F0893309F0DACE2FEF7F
:103FD00037EE83E0215030408040E1F7D0CE8C2F87
:103FE0008F7183CFC631FCE7DF0719F580917A0323
:103FF0008A7A91E009F490E0909304028111D1CC87
:1040000089E20E94AF080E945014E2CBC6312CE72F
:10401000D20709F4C8CC80917A038272FE01E05283
:10402000F847E531F10508F086CDE55BF34D0C94DA
:10403000852AC3303CE7D30709F46CCD50F4C11591
:104040009CE7D90709F437CDC130DC4709F468CDC6
:1040500072CDCB35BCE7DB0709F4BECDCC35ECE740
:10406000DE0709F45FCDCA35DC4709F064CD81E095
:1040700060CDCF93DF9380913C02807F09F04DC0EB
:1040800080913B02882309F448C0E091D803509105
:104090009F03C0913702D09136026091380270912F
:1040A000390247E05E17C9F18E2F90E0E49FF001DE
:1040B0001124E056FC4F2481222391F1489FF00106
:1040C000499FF00D1124DF01A056BC4F11962C9191
:1040D00011972C1325C02C912D1322C015962C91CD
:1040E000159721111DC012962D913C91261B370B5F
:1040F000283C3105A8F480913C028F708061809348
:104100003C02EA55FC4F80818F708061808386E39A
:1041100092E00E94701A0E94C808DF91CF91089522
:10412000FC013196E770BECFA4E1B0E0EAE9F0E22D
:104130000C94202A8C0186E0F801DE011F96019084
:104140000D928A95E1F7F8018481E58096E3A92E26
:1041500092E0B92E90913A02911128C0882319F16A
:10416000EE20F1F0C8010E94BF09F82E8823C1F0AB
:1041700087E0F801D50101900D928A95E1F78091D1
:104180003A02813031F480913602909137020E94D8
:1041900006090E9439208F2D6496ECE00C943C2A8D
:1041A000C8010E94701AFF24F394F5CFD080C1801B
:1041B00082809380F0903B02209138023091390246
:1041C000A401421B530BFF2009F4E5C0483C5105F4
:1041D00008F09EC08823F9F29091370280913C024A
:1041E000282F207F09F056C0C91214C090913602C2
:1041F000D91210C0E11048C08F70806180933C02DA
:1042000086E392E00E94701A80913C02F801868356
:10421000F12CC1CFE11038C06C2D8D2D0E94900380
:104220006C2D8D2D0E949003E82E8111F1CFDF8639
:10423000C88A8F8598890E940609292F22952F7098
:10424000243058F49F70223088F0992399F0F801B7
:104250009681907F79F4FE2C9ECF2A5F2F702230BA
:1042600068F0C8010E94701AEF2CF5CF992311F065
:10427000882389F3805E883070F3F3CF803F58F352
:10428000815F833070F7E7CF80913C02816080933B
:104290003C02BECFC91213C090913602D9120FC092
:1042A000E1100DC08683C8010E94701A87E0F801F2
:1042B000A6E3B2E001900D928A95E1F76CCFC801B8
:1042C0000E94BF09882309F46BCFEE2009F468CF60
:1042D00080913C02803288F0209136023091370282
:1042E000398728879B868A8690913A029C871D860B
:1042F0008E87CE0108960E94701A87E0F801A6E327
:10430000B2E001900D928A95E1F70E9439204BCFDF
:1043100090913C02292F207F51F486E392E00E9485
:10432000701A87E0F50111928A95E9F771CF882319
:1043300009F431CF809137028C1110C08091360280
:10434000D8120CC0E1100AC09683C8010E94701AEE
:1043500087E0F50111928A95E9F71DCFC8010E9407
:10436000BF09882309F41CCFEE2009F419CF8091EE
:104370003C02803210F220913602309137023A83AB
:1043800029839C828B8290913A029D831E828F8327
:10439000CE010196B0CF483C5105D0F6882309F4F0
:1043A00002CFFE2CEE2009F4FBCE809137028C1157
:1043B00005C080913602D81609F478CFC8010E9452
:1043C000BF0981119ACF80913C02816080933C02A9
:1043D000C8010E94701ADFCEABE1B0E0E2EFF1E27B
:1043E0000C94292A4E8B5F8B688F798F8A8F9B8FD5
:1043F0009111109279031D8A86E0FE017696DE0106
:104400001F9601900D928A95E1F78B89882329F0F8
:1044100061E0CE010F960E94E20987E0FE013F961F
:10442000DE01189601900D928A95E1F7CE0108966B
:104430000E94942081110CC087E0FE013896DE01B5
:10444000119601900D928A95E1F78C8581110BC030
:1044500017E08091D80390919F03891331C06B9628
:10446000E3E00C94452A20919F0330E0C9010196B6
:10447000877099274091D8034817190699F097E05B
:10448000929FD001939FB00D1124A056BC4FFE0106
:10449000319601900D929A95E1F780939F030E94C7
:1044A000C808D6CF0E94D01410929F031092D80350
:1044B00087E0E6E3F2E0DF011D928A95E9F7C8CFD5
:1044C000819FC001112480569C4F0E949420882314
:1044D00031F28091D80390E00196877099278093FC
:1044E000D803B7CFA6E0B0E0E8E7F2E20C94282AC0
:1044F0000E9429058C018091490290914A028017FF
:10450000910781F019821A820E942905682F49813A
:104510005A81792F80E090E00E94EC2110934A02AA
:10452000009349022696E4E00C94442A1F920F92CD
:104530000FB60F9211242F933F934F935F936F9376
:104540007F938F939F93AF93BF93CF93DF93EF931B
:10455000FF93D091E900DF708091EC00C82FC1700B
:1045600080FDC0E81092E9008091F000877F809381
:10457000F00078940E94E6141092E9008091F00017
:1045800088608093F000CD2BCF70C093E900FF913D
:10459000EF91DF91CF91BF91AF919F918F917F91DB
:1045A0006F915F914F913F912F910F900FBE0F90A0
:1045B0001F9018951F920F920FB60F9211242F93F0
:1045C0003F934F935F936F937F938F939F93AF939B
:1045D000BF93EF93FF938091E10082FF09C0809128
:1045E000E20082FF05C08091E1008B7F8093E100B3
:1045F0008091DA0080FF24C08091D80080FF20C025
:104600008091DA008E7F8093DA008091D90080FF5C
:104610009DC080E189BD82E189BD09B400FEFDCF66
:1046200081E08093950380918803811109C00E94E5
:10463000AF030E9450048091E20084608093E20006
:104640008091E10080FF17C08091E20080FF13C0DD
:104650008091E2008E7F8093E2008091E200806191
:104660008093E2008091D80080628093D80019BCCA
:1046700085E0809395038091E10084FF2BC08091B9
:10468000E20084FF27C080E189BD82E189BD89B550
:10469000982F917080FFFBCF8091D8008F7D809301
:1046A000D8008091E1008F7E8093E1008091E2004C
:1046B0008F7E8093E2008091E20081608093E2002F
:1046C00080919603882309F447C084E08093950382
:1046D000809195038091E10083FF27C08091E200E3
:1046E00083FF23C08091E100877F8093E10082E017
:1046F00080939503109296038091E1008E7F8093C2
:10470000E1008091E2008E7F8093E2008091E200E0
:1047100080618093E20042E060E080E00E941E043D
:104720008091F00088608093F000FF91EF91BF913D
:10473000AF919F918F917F916F915F914F913F9139
:104740002F910F900FBE0F901F90189519BC1092CB
:1047500095031092880374CF8091E30087FD93E066
:1047600090939503B5CF78941F921FB61F92112492
:104770008F939F93AF93BF93809184039091850310
:10478000A0918603B09187030196A11DB11D80936E
:10479000840390938503A0938603B0938703BF910E
:1047A000AF919F918F911F901FBE1F9018951F92E0
:1047B0001FB61F9211248F939F93AF93BF93809145
:1047C0008303811113C08091840390918503A0918C
:1047D0008603B09187034196A11DB11D8093840388
:1047E00090938503A0938603B0938703BF91AF9105
:1047F0009F918F911F901FBE1F901895CDB7DEB768
:104800002E970FB6F894DEBF0FBECDBF85B7806878
:1048100085BF85B7806885BF84B7877F84BF0FB6A3
:10482000F894A89580916000886180936000109250
:1048300060000FBE80E890E00FB6F89480936100AE
:10484000909361000FBE8DE496E09093FB018093FE
:10485000FA010E94AF030E9450048091E20084603C
:104860008093E2007894809195038823A1F01091C1
:10487000E9001F709091EC00892F817090FD80E815
:10488000182B1092E9008091E80083FD0E94E61445
:104890001F701093E90082E084BD93E095BD9AEF0C
:1048A00097BD80936E0010928D0210928E0210922E
:1048B0008F021092900287988F988FE891E001976D
:1048C000F1F700C000008FB1881F8827881F8093F0
:1048D000460180914601882309F461C010926F015E
:1048E00088E0809370010E94E20D81110E94B82837
:1048F0009091460181E098279093E002A82FA91B90
:10490000A0939202909146018093E102909146011A
:104910008093910280914601811106C086E98093BF
:10492000600184E980935F0120916001E22FE295AC
:10493000EF70F0E061A12F7081E090E0AC0101C068
:10494000440F2A95EAF7342F3095362331A322A15C
:10495000242B22A320915F01E22FE295EF70F0E07B
:1049600031A12F7001C0880F2A95EAF7982F9095F2
:10497000932391A392A1892B82A38FE891E00197C1
:10498000F1F700C000001091E10262EE72E040E633
:1049900051E08FE5E82E81E0F82EFB012CC088E085
:1049A00080936F019ECFDA012D91AD01822F829508
:1049B0008F7090E0DC0190968C9190E02F7002C097
:1049C000959587952A95E2F78170D7019D917D0194
:1049D000292F22952F7030E0D90190962C9130E04C
:1049E0009F7002C0359527959A95E2F790E020FDDB
:1049F00092E0892B81938E2F861B8117A0F28091E4
:104A0000460181112CC085E0E5E7F1E0DE011A9650
:104A100001900D928A95E1F78A85809341018B85FB
:104A2000809342018C85809343018D85809344015E
:104A30008E858093450189E0EAE7F1E0DE01119679
:104A400001900D928A95E1F7FE013196A8E3B1E05D
:104A5000CE010A9621912D93E817F907D9F7809195
:104A6000460195E0811190E09093A80285E0891BB2
:104A70008093A70201E411E0F80181918F018F3F3B
:104A800011F00E944F06F1E006341F07A9F708E372
:104A900011E0D8018D918D018F3F11F00E944F06DA
:104AA000B1E001341B07A9F784E1EEEAF2E0DF018F
:104AB000282F1D922A95E9F7E3E9F2E0DF011D9224
:104AC0008A95E9F790E080E00E945D2B863E9E4F3C
:104AD00011F00E94EB1982E090E00E944F2B80932E
:104AE000C20284E090E00E945D2B9093AC02809320
:104AF000AB0283E090E00E944F2B90E00E94BA0945
:104B00008091AD0281117BC090E080E00E945D2B1E
:104B1000863E9E4F21F00E94EB190E94C11088E052
:104B200090E00E94572B4B015C0184E290E00E94D0
:104B30004F2B282F30E040E050E060E070E080E054
:104B400090E000E20E949A2A282939294A295B2903
:104B50002093710330937203409373035093740353
:104B60006093750370937603809377039093780333
:104B70008091ED0283608093ED022E7F89F50E9483
:104B8000C11088E090E00E94572B6B017C0184E209
:104B900090E00E944F2B282F30E040E050E060E092
:104BA00070E080E090E00E949A2AB22FA32FF42FA9
:104BB000E52F5B0197018601BC29A12BFE29E32B80
:104BC000B0937103A0937203F0937303E0937403A3
:104BD00060937503B0927603809377039093780384
:104BE0000E94A8050E94A1058091710380FF04C066
:104BF00060E086950E94541081E08093AD020E948F
:104C0000E20D811102C00E94BB2887E491E09093DD
:104C1000800380937F032224239444E0642E712C2C
:104C20008091950300E112E1853009F495C00E945E
:104C3000651223ECA22E22E0B22E3EEA832E32E051
:104C4000932E47ED52E0D401F501219131918D91E0
:104C50009D914E175F0709F489C028173907A9F3FA
:104C60000E94E20D382E512CF401019111914F0157
:104C7000D501CD90DD905D01C016D10669F1C02649
:104C8000D126412CEE24E394F12CC7018C219D21E7
:104C9000892BC1F03320B1F049825A820E94290544
:104CA0009C838B832D8291E0970120233123232B3A
:104CB00009F490E09E8349815A816B817C818D81CA
:104CC0000E94EC214394EE0CFF1CB9E04B12DDCFA7
:104CD000F5013297118300835394EAE05E12C4CF4A
:104CE0000E94160E49C080919503843021F11092E4
:104CF000830388E190E0A0E40FB6F894A895809330
:104D000060000FBEA093600083B7817F846083BF83
:104D100083B7816083BF7894889583B78E7F83BF84
:104D20000FB6F894A8958091600088618093600028
:104D3000109260000FBE80919403882369F00E9456
:104D40006512EEEAF2E081919191892B09F0A2C1FE
:104D5000B2E0E23CFB07B9F780919503853009F496
:104D6000C2CF0E94D0140E94050E61CF28173907C8
:104D700009F076CF0E9472220E94E20D882309F189
:104D800000917B0310917C0301151105D1F08091F6
:104D9000D7029091D8020E940E05893C910588F0B7
:104DA000C8019927B4E0880F991FBA95E1F7FC0173
:104DB000EC5AFE4F208122FD04C0815B9E4F0E9471
:104DC000A6148091EC02882309F463C08091EB0261
:104DD000E0917103E695E81BE093E702823009F069
:104DE0006EC0F0E0E956FC4FE4910E2F10E0ABE905
:104DF000CA2EADE0DA2E8091E802882361F010928D
:104E0000E8020E94330E9093E6028093E50210922E
:104E1000EA021092E9020E94330EE091E502F0915D
:104E2000E6029C012E1B3F0B2F3F3F4790F5209140
:104E3000DB022223B1F01092DB022091D9023091E3
:104E4000DA02821B930B8F3F9F4758F4205D3A484C
:104E50003093DA022093D9028091ED02886080932A
:104E6000ED02E090E902F090EA02E00FF11FF0930A
:104E7000E602E093E50285EE92E0F6010995809165
:104E8000E9029091EA02892B21F4EF2811F0209297
:104E9000DB02F12CE12C8091E102F81608F47BC0D2
:104EA000E1100E94300E0E94050E9091E4028917D5
:104EB00009F4B6CE8093E4020E941D05B1CE86307F
:104EC00059F4F0E0EC56FC4FE4910E2F10E0FBE8B3
:104ED000CF2EFDE0DF2E8FCF893061F4E695F0E034
:104EE000EF56FC4FE4910E2F10E0E4EECE2EECE0F6
:104EF000DE2E81CF8F3061F4E695F0E0E257FC4F73
:104F0000E4910E2F10E07EE5C72E7CE0D72E73CF04
:104F1000853159F4F0E0E557FC4FE4910E2F10E095
:104F200069EDC62E6BE0D62E66CF08E210E037E5BD
:104F3000C32E3BE0D32E883109F45DCF833249F490
:104F4000E9E8F3E0059114915AE3C52E5DE0D52E12
:104F500052CF04EF11E02AE1C22E2BE0D22E843290
:104F600009F449CF00ED17E099E0C92E95E0D92E5C
:104F7000853209F040CF8E2F63E00E94512AE92F3D
:104F8000F0E0EA57FC4FE4910E2F10E04EE3C42E00
:104F90004EE0D42E30CF0F2D10E0F801E05AFE4F36
:104FA0008081E82FE295EF70F0E0E0A1F0E08F70F3
:104FB00002C0F595E7958A95E2F7E170D801A15A0C
:104FC000BE4F2C91A22FA295AF70B0E090968C911D
:104FD00090E02F7002C0959587952A95E2F780FDA5
:104FE00051C080E08E2BD801AE51BD4FEC919E2F69
:104FF0009370891709F444C0EE0FEE0FE82BEC9381
:10500000D090E002DF0CEF70F0E0E254FE4F02526D
:105010001D4F8081D8019C91890F8C93C12C8430C5
:1050200084F0ED2DF0E0E452FD4F80818F5F8083AE
:105030000E94E20DC82E882339F160E08D2D0E9478
:105040005219F80180818D3F84F4ED2DF0E0E45297
:10505000FD4F8081815080830E94E20DC82E8823FD
:10506000B1F061E08D2D0E945219D8018C91082E6B
:10507000000C990BB3010E94712AF8018083EC287F
:10508000F39409CF82E0AECFCC24C394DACFCC2402
:10509000C394EBCF09BD19BD09B400FEFDCF8091CB
:1050A000D8008F7D8093D8008091E000826080934B
:1050B000E0008091E00081FDFCCF0E94D0144CCE36
:1050C0008EE1489B02C08150E1F7489BFECF0895D6
:1050D000589880E28A95F1F7589A0895FC013BE0D0
:1050E0003A95F1F798E020E080E031E040E14A9520
:1050F000F1F7880F489B02C08160232742E04A9560
:10510000F1F7000040E14A95F1F7915079F790E10D
:105110009A95F1F799B132E03A95F1F7000040E144
:105120004A95F1F7917092272081920F908308950C
:10513000A1E0B0E0EEE9F8E20C94262A19828C0195
:105140007C01E60EF11C0E151F0541F481E09981EA
:10515000911180E02196E6E00C94422A0E9460289A
:10516000CE0101960E946E28F80181938F01EBCF4A
:10517000509A589A08955098589AE89AE9E6F0E0BB
:1051800080818C7F808308956150770B91E001C00E
:10519000990F6A95EAF720E031E0911108C02223C7
:1051A00091F0589A80E28A95F1F758980895492F1E
:1051B000482339F0589A232740E24A95F1F796950B
:1051C000ECCF5898F9CF5898EDCFFF920F931F93DB
:1051D000CF93DF93EC018C01060F111DC017D1078F
:1051E00029F4CDB7DEB7E5E00C94432AF9900E948C
:1051F000682868E08F2D0E94C428F0CF1F920F927C
:105200000FB60F9211240F931F932F933F934F9339
:105210005F936F937F938F939F93AF93BF93EF931E
:10522000FF93CF93DF930F92CDB7DEB719820E9421
:105230006028CE0101960E946E28082F06950695DB
:105240000695282F22952570902F9570290F922F63
:10525000937026952695920F982797708981982BA1
:1052600009F05CC0073008F059C080E18A95F1F779
:10527000589A509A82E08A95F1F700C0589888E0D1
:10528000089F80011124D801A85FBE4F1696ED91AA
:10529000FC9117973097A9F06091BC017091BD0106
:1052A00014962D913C911597260F371F11968D91CD
:1052B0009C911297680F791F13964C9113978C91BC
:1052C0000995F801E85FFE4F6381662351F0209154
:1052D000BC013091BD0184819581820F931F0E9492
:1052E000E5280E94682880E18A95F1F7589850983F
:1052F000589A80E18A95F1F7F801E85FFE4F6081E6
:10530000662351F02091BC013091BD0181819281D1
:10531000820F931F0E9498280E9460280F90DF91AF
:10532000CF91FF91EF91BF91AF919F918F917F911D
:105330006F915F914F913F912F911F910F910F901E
:105340000FBE0F901F9018950F931F93CF93DF936D
:10535000EC0107970CF04CC0F894509A589885E0EF
:105360008A95F1F700009C2F969595708C2F85708B
:10537000980F892F83709695969523E0CC0FDD1FAB
:105380002A95E1F7980F8E01092B0E94682800C02A
:1053900068E0802F0E94C42880E18A95F1F7509838
:1053A000589A489B1EC087E090E048991CC0FE01B7
:1053B000E85FFE4F63816623F9F02091BC013091D4
:1053C000BD0184819581820F931F0E9498288111CD
:1053D00013C0509A589A7894DF91CF911F910F91F2
:1053E000089500C0DECF019729F4509A589A789416
:1053F00080E0F2CF00C0D9CF0E94602880E28A9579
:10540000F1F75898509A80E18A95F1F7C85FDE4F1E
:105410006881662351F02091BC013091BD018981E2
:105420009A81820F931F0E94E5280E946828789431
:1054300081E0D2CF2F923F924F925F926F927F92F4
:105440008F929F92AF92BF92CF92DF92EF92FF9294
:105450000F931F93CF93DF93CDB7DEB7CA1BDB0B40
:105460000FB6F894DEBF0FBECDBF09942A883988E5
:1054700048885F846E847D848C849B84AA84B984EC
:10548000C884DF80EE80FD800C811B81AA81B981F8
:10549000CE0FD11D0FB6F894DEBF0FBECDBFED010C
:1054A0000895991B79E004C0991F961708F0961B80
:1054B000881F7A95C9F780950895AA1BBB1B51E1F7
:1054C00007C0AA1FBB1FA617B70710F0A61BB70B74
:1054D000881F991F5A95A9F780959095BC01CD0119
:1054E000089597FB072E16F4009407D077FD09D096
:1054F0000E945D2A07FC05D03EF4909581959F4F50
:105500000895709561957F4F0895EE0FFF1F0590E8
:10551000F491E02D09940E94FB2B332312F48A1B93
:105520009B0B0C94952A0E94FB2BB7FF0895821BBE
:10553000930B0895002E083090F0982F872F762F28
:10554000652F542F432F322F22270850F4CF220FDC
:10555000331F441F551F661F771F881F991F0A9509
:10556000B2F7002D089597FD1094002E083098F0A2
:105570000850232F342F452F562F672F782F892F30
:10558000912DF4CF159497958795779567955795B5
:105590004795379527950A95AAF71124002D089568
:1055A0008F929F92AF92BF92CF92DF92EF92FF9233
:1055B000CF93DF93EC01688179818A819B816115AA
:1055C00071058105910521F464E279ED8BE597E0A1
:1055D0002DE133EF41E050E00E94A72B49015A0131
:1055E0009B01AC01A7EAB1E40E94C62B6B017C01D0
:1055F000ACEEB4EFA50194010E94D42BDC01CB01E9
:105600008C0D9D1DAE1DBF1DB7FF03C00197A109E5
:10561000B04888839983AA83BB839F77DF91CF911A
:10562000FF90EF90DF90CF90BF90AF909F908F90C2
:1056300008950E94D02A089580E091E00E94D02A27
:105640000895B0E0A0E08093000190930101A09341
:105650000201B09303010895FC014150504030F025
:1056600001900616D1F73197CF0108958827992721
:105670000895FB01DC0104C08D910190801921F493
:1056800041505040C8F7881B990B0895FB01DC017D
:1056900002C001900D9241505040D8F70895F999F9
:1056A000FECF92BD81BDF89A992780B50895A6E1F5
:1056B000B0E044E050E00C94992BA8E1B0E042E067
:1056C00050E00C94992BDC01A40FB51F41505040C1
:1056D00048F0CB01840F951F2E910E94742B4150EE
:1056E0005040D0F70895262FF999FECF92BD81BD85
:1056F000F89A019700B4021639F01FBA20BD0FB610
:10570000F894FA9AF99A0FBE08950396272F0E94EB
:10571000742B0E94732B252F0E94742B242F0C9422
:10572000742B0196272F0E94742B0C94732BDC0191
:10573000CB01FC01F999FECF06C0F2BDE1BDF89A9C
:10574000319600B40D9241505040B8F70895052E9F
:1057500097FB1EF400940E94BE2B57FD07D00E94B9
:10576000D92B07FC03D04EF40C94BE2B50954095DA
:10577000309521953F4F4F4F5F4F089590958095FD
:10578000709561957F4F8F4F9F4F08950E94FB2B1F
:10579000A59F900DB49F900DA49F800D911D112485
:1057A0000895B7FF0C94C62B0E94C62B821B930B47
:1057B0000895A1E21A2EAA1BBB1BFD010DC0AA1F52
:1057C000BB1FEE1FFF1FA217B307E407F50720F06A
:1057D000A21BB30BE40BF50B661F771F881F991FE5
:1057E0001A9469F760957095809590959B01AC012E
:1057F000BD01CF010895A29FB001B39FC001A39F37
:10580000700D811D1124911DB29F700D811D1124F9
:10581000911D0895F894FFCFC515ED158517ED1569
:1058200085172016411685173E174B174E1CC31CB3
:10583000561C201C241C5A1C281C5E1C6A1C341C70
:10584000BC1C381C6E1C3C1C721C9A1C401C761C18
:10585000A11C461C7C1C841C2C1C621C301C661C5D
:105860004A1C801C901CAA1CBA1C1A1C521CCA1C64
:10587000011C051CE21BFD1B091C0D1C111CF31D4A
:10588000F31D251E251EC51E4B1E4B1E4B1EE11E65
:10589000691F781F781FDD1C071D0E1D131D181DA5
:1058A0001D1D221D271D2C1D311D361D3B1D3E1D9E
:1058B000431D461D491D4C1D4F1D521D551D581D94
:1058C00001000000E10039000000000100000000BC
:1058D0000000000A01000000000000010B000000B1
:1058E000000000010C000000040D0000000000009A
:1058F0000B11000000000000F4F1F0373392939593
:10590000943132673497010B05800A0A05790A0041
:105910000000000000DA19D419381800000401F65C
:10592000F501191A1B1C1D1E1F2021220102010056
:1059300010001010013332363497F1F0F4F5F6957B
:10594000679337818283E200E900EA00B500B60080
:10595000B700CD008301CC008A019201940121029D
:10596000230224022502260227022A02B300B400E1
:105970006F0070009F01CB019F02A0026C0200FF2C
:105980000100010000FFFF0000010001FF00000115
:10599000020202020606060909090909090F0F0F8A
:1059A0000F0F0F1515151819191919191919191992
:0A59B00019232425252525252500AF
:00000001FF
